{
  "contractName": "UniswapFlash",
  "abi": [
    {
      "inputs": [
        {
          "internalType": "address",
          "name": "_factory",
          "type": "address"
        },
        {
          "internalType": "address",
          "name": "_WETH9",
          "type": "address"
        }
      ],
      "stateMutability": "nonpayable",
      "type": "constructor"
    },
    {
      "anonymous": false,
      "inputs": [
        {
          "indexed": true,
          "internalType": "address",
          "name": "_pool",
          "type": "address"
        },
        {
          "indexed": true,
          "internalType": "address",
          "name": "_loanAsset",
          "type": "address"
        },
        {
          "indexed": false,
          "internalType": "uint256",
          "name": "_loanAmount",
          "type": "uint256"
        },
        {
          "indexed": false,
          "internalType": "uint256",
          "name": "_fee",
          "type": "uint256"
        }
      ],
      "name": "AssetBorrowedFromPool",
      "type": "event"
    },
    {
      "anonymous": false,
      "inputs": [
        {
          "indexed": true,
          "internalType": "address",
          "name": "_swapAsset",
          "type": "address"
        },
        {
          "indexed": false,
          "internalType": "uint256",
          "name": "_swapAmount",
          "type": "uint256"
        }
      ],
      "name": "AssetSwaped",
      "type": "event"
    },
    {
      "anonymous": false,
      "inputs": [
        {
          "indexed": true,
          "internalType": "address",
          "name": "_sender",
          "type": "address"
        },
        {
          "indexed": false,
          "internalType": "uint24",
          "name": "_fee",
          "type": "uint24"
        }
      ],
      "name": "ChangedFlashPoolFee",
      "type": "event"
    },
    {
      "anonymous": false,
      "inputs": [
        {
          "indexed": true,
          "internalType": "address",
          "name": "_loanAsset",
          "type": "address"
        },
        {
          "indexed": false,
          "internalType": "uint256",
          "name": "_loanAmount",
          "type": "uint256"
        },
        {
          "indexed": true,
          "internalType": "address",
          "name": "_tradeAsset",
          "type": "address"
        },
        {
          "indexed": false,
          "internalType": "uint16",
          "name": "_tradeDex",
          "type": "uint16"
        }
      ],
      "name": "FalshloanInited",
      "type": "event"
    },
    {
      "anonymous": false,
      "inputs": [
        {
          "indexed": true,
          "internalType": "address",
          "name": "previousOwner",
          "type": "address"
        },
        {
          "indexed": true,
          "internalType": "address",
          "name": "newOwner",
          "type": "address"
        }
      ],
      "name": "OwnershipTransferred",
      "type": "event"
    },
    {
      "anonymous": false,
      "inputs": [
        {
          "indexed": true,
          "internalType": "address",
          "name": "_pool",
          "type": "address"
        },
        {
          "indexed": true,
          "internalType": "address",
          "name": "_repayedAsset",
          "type": "address"
        },
        {
          "indexed": false,
          "internalType": "uint256",
          "name": "_repayedAmount",
          "type": "uint256"
        }
      ],
      "name": "RepayedAssetToPool",
      "type": "event"
    },
    {
      "anonymous": false,
      "inputs": [
        {
          "indexed": false,
          "internalType": "uint16",
          "name": "_index",
          "type": "uint16"
        },
        {
          "indexed": true,
          "internalType": "address",
          "name": "_router",
          "type": "address"
        },
        {
          "indexed": true,
          "internalType": "address",
          "name": "_factory",
          "type": "address"
        },
        {
          "indexed": false,
          "internalType": "uint24",
          "name": "_poolFee",
          "type": "uint24"
        }
      ],
      "name": "RouterInfoSeted",
      "type": "event"
    },
    {
      "anonymous": false,
      "inputs": [
        {
          "indexed": true,
          "internalType": "address",
          "name": "_sender",
          "type": "address"
        },
        {
          "indexed": false,
          "internalType": "uint256",
          "name": "_amountIn",
          "type": "uint256"
        },
        {
          "indexed": false,
          "internalType": "uint256",
          "name": "_amountOut",
          "type": "uint256"
        }
      ],
      "name": "SwapedOnPancake",
      "type": "event"
    },
    {
      "anonymous": false,
      "inputs": [
        {
          "indexed": true,
          "internalType": "address",
          "name": "_sender",
          "type": "address"
        },
        {
          "indexed": false,
          "internalType": "uint256",
          "name": "_amountIn",
          "type": "uint256"
        },
        {
          "indexed": false,
          "internalType": "uint256",
          "name": "_amountOut",
          "type": "uint256"
        }
      ],
      "name": "SwapedOnUniswapV2",
      "type": "event"
    },
    {
      "anonymous": false,
      "inputs": [
        {
          "indexed": true,
          "internalType": "address",
          "name": "_sender",
          "type": "address"
        },
        {
          "indexed": false,
          "internalType": "uint256",
          "name": "_amountIn",
          "type": "uint256"
        },
        {
          "indexed": false,
          "internalType": "uint256",
          "name": "_amountOut",
          "type": "uint256"
        }
      ],
      "name": "SwapedOnUniswapV3",
      "type": "event"
    },
    {
      "anonymous": false,
      "inputs": [
        {
          "indexed": true,
          "internalType": "address",
          "name": "_owner",
          "type": "address"
        },
        {
          "indexed": true,
          "internalType": "address",
          "name": "_profitAsset",
          "type": "address"
        },
        {
          "indexed": false,
          "internalType": "uint256",
          "name": "_profitAmount",
          "type": "uint256"
        }
      ],
      "name": "TransferProfitToWallet",
      "type": "event"
    },
    {
      "stateMutability": "payable",
      "type": "fallback",
      "payable": true
    },
    {
      "inputs": [],
      "name": "APESWAP_ROUTER_ID",
      "outputs": [
        {
          "internalType": "uint16",
          "name": "",
          "type": "uint16"
        }
      ],
      "stateMutability": "view",
      "type": "function",
      "constant": true
    },
    {
      "inputs": [],
      "name": "KYBER_ROUTER_ID",
      "outputs": [
        {
          "internalType": "uint16",
          "name": "",
          "type": "uint16"
        }
      ],
      "stateMutability": "view",
      "type": "function",
      "constant": true
    },
    {
      "inputs": [],
      "name": "ONEINCHISWAP_ROUTER_ID",
      "outputs": [
        {
          "internalType": "uint16",
          "name": "",
          "type": "uint16"
        }
      ],
      "stateMutability": "view",
      "type": "function",
      "constant": true
    },
    {
      "inputs": [],
      "name": "PANCAKE_ROUTER_ID",
      "outputs": [
        {
          "internalType": "uint16",
          "name": "",
          "type": "uint16"
        }
      ],
      "stateMutability": "view",
      "type": "function",
      "constant": true
    },
    {
      "inputs": [],
      "name": "SIBASWAP_ROUTER_ID",
      "outputs": [
        {
          "internalType": "uint16",
          "name": "",
          "type": "uint16"
        }
      ],
      "stateMutability": "view",
      "type": "function",
      "constant": true
    },
    {
      "inputs": [],
      "name": "SUSHISWAP_ROUTER_ID",
      "outputs": [
        {
          "internalType": "uint16",
          "name": "",
          "type": "uint16"
        }
      ],
      "stateMutability": "view",
      "type": "function",
      "constant": true
    },
    {
      "inputs": [],
      "name": "UNISWAP_V2_ROUTER_ID",
      "outputs": [
        {
          "internalType": "uint16",
          "name": "",
          "type": "uint16"
        }
      ],
      "stateMutability": "view",
      "type": "function",
      "constant": true
    },
    {
      "inputs": [],
      "name": "UNISWAP_V3_ROUTER_ID",
      "outputs": [
        {
          "internalType": "uint16",
          "name": "",
          "type": "uint16"
        }
      ],
      "stateMutability": "view",
      "type": "function",
      "constant": true
    },
    {
      "inputs": [],
      "name": "WETH9",
      "outputs": [
        {
          "internalType": "address",
          "name": "",
          "type": "address"
        }
      ],
      "stateMutability": "view",
      "type": "function",
      "constant": true
    },
    {
      "inputs": [],
      "name": "factory",
      "outputs": [
        {
          "internalType": "address",
          "name": "",
          "type": "address"
        }
      ],
      "stateMutability": "view",
      "type": "function",
      "constant": true
    },
    {
      "inputs": [],
      "name": "flashPool",
      "outputs": [
        {
          "internalType": "contract IUniswapV3Pool",
          "name": "",
          "type": "address"
        }
      ],
      "stateMutability": "view",
      "type": "function",
      "constant": true
    },
    {
      "inputs": [],
      "name": "flashPoolFee",
      "outputs": [
        {
          "internalType": "uint24",
          "name": "",
          "type": "uint24"
        }
      ],
      "stateMutability": "view",
      "type": "function",
      "constant": true
    },
    {
      "inputs": [],
      "name": "owner",
      "outputs": [
        {
          "internalType": "address",
          "name": "",
          "type": "address"
        }
      ],
      "stateMutability": "view",
      "type": "function",
      "constant": true
    },
    {
      "inputs": [],
      "name": "pancakeswapRouter",
      "outputs": [
        {
          "internalType": "contract IPancakeRouter02",
          "name": "",
          "type": "address"
        }
      ],
      "stateMutability": "view",
      "type": "function",
      "constant": true
    },
    {
      "inputs": [],
      "name": "refundETH",
      "outputs": [],
      "stateMutability": "payable",
      "type": "function",
      "payable": true
    },
    {
      "inputs": [],
      "name": "renounceOwnership",
      "outputs": [],
      "stateMutability": "nonpayable",
      "type": "function"
    },
    {
      "inputs": [
        {
          "internalType": "uint16",
          "name": "routerID",
          "type": "uint16"
        },
        {
          "components": [
            {
              "internalType": "address",
              "name": "router",
              "type": "address"
            },
            {
              "internalType": "address",
              "name": "factory",
              "type": "address"
            },
            {
              "internalType": "uint24",
              "name": "poolFee",
              "type": "uint24"
            },
            {
              "internalType": "uint64",
              "name": "deadline",
              "type": "uint64"
            }
          ],
          "internalType": "struct SwapInforRegistry.SwapRouterInfo",
          "name": "routerInfo",
          "type": "tuple"
        }
      ],
      "name": "setSwapRouterInfo",
      "outputs": [],
      "stateMutability": "nonpayable",
      "type": "function"
    },
    {
      "inputs": [
        {
          "internalType": "uint16",
          "name": "",
          "type": "uint16"
        }
      ],
      "name": "swapRouterInfos",
      "outputs": [
        {
          "internalType": "address",
          "name": "router",
          "type": "address"
        },
        {
          "internalType": "address",
          "name": "factory",
          "type": "address"
        },
        {
          "internalType": "uint24",
          "name": "poolFee",
          "type": "uint24"
        },
        {
          "internalType": "uint64",
          "name": "deadline",
          "type": "uint64"
        }
      ],
      "stateMutability": "view",
      "type": "function",
      "constant": true
    },
    {
      "inputs": [
        {
          "internalType": "address",
          "name": "token",
          "type": "address"
        },
        {
          "internalType": "uint256",
          "name": "amountMinimum",
          "type": "uint256"
        },
        {
          "internalType": "address",
          "name": "recipient",
          "type": "address"
        }
      ],
      "name": "sweepToken",
      "outputs": [],
      "stateMutability": "payable",
      "type": "function",
      "payable": true
    },
    {
      "inputs": [
        {
          "internalType": "address",
          "name": "newOwner",
          "type": "address"
        }
      ],
      "name": "transferOwnership",
      "outputs": [],
      "stateMutability": "nonpayable",
      "type": "function"
    },
    {
      "inputs": [],
      "name": "uniswapV2Router",
      "outputs": [
        {
          "internalType": "contract IUniswapV2Router02",
          "name": "",
          "type": "address"
        }
      ],
      "stateMutability": "view",
      "type": "function",
      "constant": true
    },
    {
      "inputs": [],
      "name": "uniswapV3Router",
      "outputs": [
        {
          "internalType": "contract ISwapRouter",
          "name": "",
          "type": "address"
        }
      ],
      "stateMutability": "view",
      "type": "function",
      "constant": true
    },
    {
      "inputs": [
        {
          "internalType": "uint256",
          "name": "amountMinimum",
          "type": "uint256"
        },
        {
          "internalType": "address",
          "name": "recipient",
          "type": "address"
        }
      ],
      "name": "unwrapWETH9",
      "outputs": [],
      "stateMutability": "payable",
      "type": "function",
      "payable": true
    },
    {
      "stateMutability": "payable",
      "type": "receive",
      "payable": true
    },
    {
      "inputs": [
        {
          "internalType": "address[]",
          "name": "loanAssets",
          "type": "address[]"
        },
        {
          "internalType": "uint256[]",
          "name": "loanAmounts",
          "type": "uint256[]"
        },
        {
          "internalType": "address[]",
          "name": "tradeAssets",
          "type": "address[]"
        },
        {
          "internalType": "uint16[]",
          "name": "tradeDexs",
          "type": "uint16[]"
        }
      ],
      "name": "initUniFlashSwap",
      "outputs": [],
      "stateMutability": "nonpayable",
      "type": "function"
    },
    {
      "inputs": [
        {
          "internalType": "uint256",
          "name": "fee0",
          "type": "uint256"
        },
        {
          "internalType": "uint256",
          "name": "fee1",
          "type": "uint256"
        },
        {
          "internalType": "bytes",
          "name": "data",
          "type": "bytes"
        }
      ],
      "name": "uniswapV3FlashCallback",
      "outputs": [],
      "stateMutability": "nonpayable",
      "type": "function"
    },
    {
      "inputs": [
        {
          "internalType": "uint24",
          "name": "poolFee",
          "type": "uint24"
        }
      ],
      "name": "setFlashPoolFee",
      "outputs": [],
      "stateMutability": "nonpayable",
      "type": "function"
    }
  ],
  "bytecode": "0x60c06040523480156200001157600080fd5b50604051620047d7380380620047d7833981810160405281019062000037919062000181565b81818173ffffffffffffffffffffffffffffffffffffffff1660808173ffffffffffffffffffffffffffffffffffffffff1660601b815250508073ffffffffffffffffffffffffffffffffffffffff1660a08173ffffffffffffffffffffffffffffffffffffffff1660601b8152505050506000620000bb6200016260201b60201c565b905080600360006101000a81548173ffffffffffffffffffffffffffffffffffffffff021916908373ffffffffffffffffffffffffffffffffffffffff1602179055508073ffffffffffffffffffffffffffffffffffffffff16600073ffffffffffffffffffffffffffffffffffffffff167f8be0079c531659141344cd1fd0a4f28419497f9722a3daafe3b4186f6b6457e060405160405180910390a350505062000210565b600033905090565b6000815190506200017b81620001f6565b92915050565b600080604083850312156200019557600080fd5b6000620001a5858286016200016a565b9250506020620001b8858286016200016a565b9150509250929050565b6000620001cf82620001d6565b9050919050565b600073ffffffffffffffffffffffffffffffffffffffff82169050919050565b6200020181620001c2565b81146200020d57600080fd5b50565b60805160601c60a05160601c614575620002626000398061018c5280610a1e5280610b615280610c8f5280611f415280611fa15280612022525080610f3252806111bd528061135b52506145756000f3fe6080604052600436106101855760003560e01c8063715018a6116100d1578063b18759e81161008a578063df2ab5bb11610064578063df2ab5bb146105cc578063e9cbafb0146105e8578063ea3b443114610611578063f2fde38b1461063c5761024d565b8063b18759e81461054d578063c45a015514610576578063db6754ed146105a15761024d565b8063715018a61461045f57806386c4571e146104765780638da5cb5b146104a15780639cd43160146104cc578063a8c5caab146104f7578063aa7f0ceb146105225761024d565b8063285978f41161013e57806349bae2ce1161011857806349bae2ce1461039e5780634aa4a4fc146103de5780634b39f49b146104095780636b79ed35146104345761024d565b8063285978f41461032c5780632c76d7a61461035757806349404b7c146103825761024d565b80630deed49d1461024f57806312210e8a146102785780631694505e1461028257806318c9cbd1146102ad578063208aec90146102d6578063279fd181146103015761024d565b3661024d577f000000000000000000000000000000000000000000000000000000000000000073ffffffffffffffffffffffffffffffffffffffff163373ffffffffffffffffffffffffffffffffffffffff161461024b576040517f08c379a00000000000000000000000000000000000000000000000000000000081526004018080602001828103825260098152602001807f4e6f74205745544839000000000000000000000000000000000000000000000081525060200191505060405180910390fd5b005b005b34801561025b57600080fd5b5061027660048036038101906102719190613972565b610665565b005b610280610784565b005b34801561028e57600080fd5b5061029761079a565b6040516102a49190613ff1565b60405180910390f35b3480156102b957600080fd5b506102d460048036038101906102cf9190613936565b6107c0565b005b3480156102e257600080fd5b506102eb6109e7565b6040516102f8919061412d565b60405180910390f35b34801561030d57600080fd5b506103166109ec565b604051610323919061412d565b60405180910390f35b34801561033857600080fd5b506103416109f1565b60405161034e919061412d565b60405180910390f35b34801561036357600080fd5b5061036c6109f6565b6040516103799190613fd6565b60405180910390f35b61039c600480360381019061039791906139c4565b610a1a565b005b3480156103aa57600080fd5b506103c560048036038101906103c0919061390d565b610bfa565b6040516103d59493929190613f76565b60405180910390f35b3480156103ea57600080fd5b506103f3610c8d565b6040516104009190613f0f565b60405180910390f35b34801561041557600080fd5b5061041e610cb1565b60405161042b919061412d565b60405180910390f35b34801561044057600080fd5b50610449610cb6565b604051610456919061412d565b60405180910390f35b34801561046b57600080fd5b50610474610cbb565b005b34801561048257600080fd5b5061048b610e2b565b604051610498919061412d565b60405180910390f35b3480156104ad57600080fd5b506104b6610e30565b6040516104c39190613f0f565b60405180910390f35b3480156104d857600080fd5b506104e1610e5a565b6040516104ee919061412d565b60405180910390f35b34801561050357600080fd5b5061050c610e5f565b604051610519919061412d565b60405180910390f35b34801561052e57600080fd5b50610537610e64565b604051610544919061400c565b60405180910390f35b34801561055957600080fd5b50610574600480360381019061056f91906137b8565b610e8a565b005b34801561058257600080fd5b5061058b6111bb565b6040516105989190613f0f565b60405180910390f35b3480156105ad57600080fd5b506105b66111df565b6040516105c39190613fbb565b60405180910390f35b6105e660048036038101906105e19190613769565b611205565b005b3480156105f457600080fd5b5061060f600480360381019061060a9190613a00565b61133c565b005b34801561061d57600080fd5b50610626611629565b6040516106339190614171565b60405180910390f35b34801561064857600080fd5b50610663600480360381019061065e9190613740565b61163e565b005b61066d611833565b73ffffffffffffffffffffffffffffffffffffffff1661068b610e30565b73ffffffffffffffffffffffffffffffffffffffff1614610714576040517f08c379a00000000000000000000000000000000000000000000000000000000081526004018080602001828103825260208152602001807f4f776e61626c653a2063616c6c6572206973206e6f7420746865206f776e657281525060200191505060405180910390fd5b80600560146101000a81548162ffffff021916908362ffffff1602179055503373ffffffffffffffffffffffffffffffffffffffff167f60b90272866df655104677034305b0c7023abdc30f5e269f836d8dd8e4a597bb826040516107799190614171565b60405180910390a250565b600047111561079857610797334761183b565b5b565b600160009054906101000a900473ffffffffffffffffffffffffffffffffffffffff1681565b6107c8611833565b73ffffffffffffffffffffffffffffffffffffffff166107e6610e30565b73ffffffffffffffffffffffffffffffffffffffff161461086f576040517f08c379a00000000000000000000000000000000000000000000000000000000081526004018080602001828103825260208152602001807f4f776e61626c653a2063616c6c6572206973206e6f7420746865206f776e657281525060200191505060405180910390fd5b80600460008461ffff1661ffff16815260200190815260200160002060008201518160000160006101000a81548173ffffffffffffffffffffffffffffffffffffffff021916908373ffffffffffffffffffffffffffffffffffffffff16021790555060208201518160010160006101000a81548173ffffffffffffffffffffffffffffffffffffffff021916908373ffffffffffffffffffffffffffffffffffffffff16021790555060408201518160010160146101000a81548162ffffff021916908362ffffff16021790555060608201518160010160176101000a81548167ffffffffffffffff021916908367ffffffffffffffff160217905550905050806020015173ffffffffffffffffffffffffffffffffffffffff16816000015173ffffffffffffffffffffffffffffffffffffffff167fe36efa973a0f1ec46829d997f3c68ffcadaf826d5a9328ae39c0c57a281ae2908484604001516040516109db929190614148565b60405180910390a35050565b600581565b600181565b600381565b60008054906101000a900473ffffffffffffffffffffffffffffffffffffffff1681565b60007f000000000000000000000000000000000000000000000000000000000000000073ffffffffffffffffffffffffffffffffffffffff166370a08231306040518263ffffffff1660e01b8152600401808273ffffffffffffffffffffffffffffffffffffffff16815260200191505060206040518083038186803b158015610aa357600080fd5b505afa158015610ab7573d6000803e3d6000fd5b505050506040513d6020811015610acd57600080fd5b8101908080519060200190929190505050905082811015610b56576040517f08c379a00000000000000000000000000000000000000000000000000000000081526004018080602001828103825260128152602001807f496e73756666696369656e74205745544839000000000000000000000000000081525060200191505060405180910390fd5b6000811115610bf5577f000000000000000000000000000000000000000000000000000000000000000073ffffffffffffffffffffffffffffffffffffffff16632e1a7d4d826040518263ffffffff1660e01b815260040180828152602001915050600060405180830381600087803b158015610bd257600080fd5b505af1158015610be6573d6000803e3d6000fd5b50505050610bf4828261183b565b5b505050565b60046020528060005260406000206000915090508060000160009054906101000a900473ffffffffffffffffffffffffffffffffffffffff16908060010160009054906101000a900473ffffffffffffffffffffffffffffffffffffffff16908060010160149054906101000a900462ffffff16908060010160179054906101000a900467ffffffffffffffff16905084565b7f000000000000000000000000000000000000000000000000000000000000000081565b600781565b600681565b610cc3611833565b73ffffffffffffffffffffffffffffffffffffffff16610ce1610e30565b73ffffffffffffffffffffffffffffffffffffffff1614610d6a576040517f08c379a00000000000000000000000000000000000000000000000000000000081526004018080602001828103825260208152602001807f4f776e61626c653a2063616c6c6572206973206e6f7420746865206f776e657281525060200191505060405180910390fd5b600073ffffffffffffffffffffffffffffffffffffffff16600360009054906101000a900473ffffffffffffffffffffffffffffffffffffffff1673ffffffffffffffffffffffffffffffffffffffff167f8be0079c531659141344cd1fd0a4f28419497f9722a3daafe3b4186f6b6457e060405160405180910390a36000600360006101000a81548173ffffffffffffffffffffffffffffffffffffffff021916908373ffffffffffffffffffffffffffffffffffffffff160217905550565b600281565b6000600360009054906101000a900473ffffffffffffffffffffffffffffffffffffffff16905090565b600481565b600881565b600560009054906101000a900473ffffffffffffffffffffffffffffffffffffffff1681565b600060405180606001604052808a8a6000818110610ea457fe5b9050602002016020810190610eb99190613740565b73ffffffffffffffffffffffffffffffffffffffff1681526020018a8a6001818110610ee157fe5b9050602002016020810190610ef69190613740565b73ffffffffffffffffffffffffffffffffffffffff168152602001600560149054906101000a900462ffffff1662ffffff168152509050610f577f0000000000000000000000000000000000000000000000000000000000000000826119b7565b600560006101000a81548173ffffffffffffffffffffffffffffffffffffffff021916908373ffffffffffffffffffffffffffffffffffffffff16021790555084846000818110610fa457fe5b9050602002016020810190610fb99190613740565b73ffffffffffffffffffffffffffffffffffffffff1689896000818110610fdc57fe5b9050602002016020810190610ff19190613740565b73ffffffffffffffffffffffffffffffffffffffff167f27a8dbde080481be7a4a40e47c18a132bd7edaf28aaaafa729d4d4593f822ce48989600081811061103557fe5b905060200201358686600081811061104957fe5b905060200201602081019061105e919061390d565b60405161106c9291906141a7565b60405180910390a3600560009054906101000a900473ffffffffffffffffffffffffffffffffffffffff1673ffffffffffffffffffffffffffffffffffffffff1663490e6cbc30898960008181106110c057fe5b905060200201358a8a60018181106110d457fe5b9050602002013560405180608001604052808d8d60008181106110f357fe5b9050602002013581526020018d8d600181811061110c57fe5b9050602002013581526020013373ffffffffffffffffffffffffffffffffffffffff168152602001878152508a8a8a8a6040516020016111509594939291906140e3565b6040516020818303038152906040526040518563ffffffff1660e01b815260040161117e9493929190613f2a565b600060405180830381600087803b15801561119857600080fd5b505af11580156111ac573d6000803e3d6000fd5b50505050505050505050505050565b7f000000000000000000000000000000000000000000000000000000000000000081565b600260009054906101000a900473ffffffffffffffffffffffffffffffffffffffff1681565b60008373ffffffffffffffffffffffffffffffffffffffff166370a08231306040518263ffffffff1660e01b8152600401808273ffffffffffffffffffffffffffffffffffffffff16815260200191505060206040518083038186803b15801561126e57600080fd5b505afa158015611282573d6000803e3d6000fd5b505050506040513d602081101561129857600080fd5b8101908080519060200190929190505050905082811015611321576040517f08c379a00000000000000000000000000000000000000000000000000000000081526004018080602001828103825260128152602001807f496e73756666696369656e7420746f6b656e000000000000000000000000000081525060200191505060405180910390fd5b600081111561133657611335848383611b12565b5b50505050565b60008060008484810190611350919061388d565b9250925092506113847f00000000000000000000000000000000000000000000000000000000000000008460600151611d13565b5060008360000151148061139c575060008360200151145b6113db576040517f08c379a00000000000000000000000000000000000000000000000000000000081526004016113d290614027565b60405180910390fd5b6000808460000151116113f657836060015160200151611400565b8360600151600001515b905060008085600001511161141957846020015161141f565b84600001515b90506000808660000151116114345788611436565b895b90506000866040015190508373ffffffffffffffffffffffffffffffffffffffff163373ffffffffffffffffffffffffffffffffffffffff167fe34b0e04ae052dd430a0a091513777d86e826ac191c765d4b2d220f5635e9aa985856040516114a09291906141d0565b60405180910390a360006114b73086868a8a611d5f565b90508473ffffffffffffffffffffffffffffffffffffffff167fadeeeb0e210dd0c0566988a1165a67260d25475b265e25a51cf6dec9342a967b826040516114ff919061418c565b60405180910390a260006115138585611f25565b905060008111156115905761152a86303384611f3f565b8573ffffffffffffffffffffffffffffffffffffffff163373ffffffffffffffffffffffffffffffffffffffff167f108a8f2f13d6db03229ae1fb9d5dc799045c394a115f518f76d64b75abaade4383604051611587919061418c565b60405180910390a35b600061159c838361214a565b90506000811115611619576115b387308684611f3f565b8673ffffffffffffffffffffffffffffffffffffffff168473ffffffffffffffffffffffffffffffffffffffff167f58b534da795e18a747c883c055e0de342a000faea470ccdd0ea890e8f11e9d0283604051611610919061418c565b60405180910390a35b5050505050505050505050505050565b600560149054906101000a900462ffffff1681565b611646611833565b73ffffffffffffffffffffffffffffffffffffffff16611664610e30565b73ffffffffffffffffffffffffffffffffffffffff16146116ed576040517f08c379a00000000000000000000000000000000000000000000000000000000081526004018080602001828103825260208152602001807f4f776e61626c653a2063616c6c6572206973206e6f7420746865206f776e657281525060200191505060405180910390fd5b600073ffffffffffffffffffffffffffffffffffffffff168173ffffffffffffffffffffffffffffffffffffffff161415611773576040517f08c379a000000000000000000000000000000000000000000000000000000000815260040180806020018281038252602681526020018061451a6026913960400191505060405180910390fd5b8073ffffffffffffffffffffffffffffffffffffffff16600360009054906101000a900473ffffffffffffffffffffffffffffffffffffffff1673ffffffffffffffffffffffffffffffffffffffff167f8be0079c531659141344cd1fd0a4f28419497f9722a3daafe3b4186f6b6457e060405160405180910390a380600360006101000a81548173ffffffffffffffffffffffffffffffffffffffff021916908373ffffffffffffffffffffffffffffffffffffffff16021790555050565b600033905090565b60008273ffffffffffffffffffffffffffffffffffffffff1682600067ffffffffffffffff8111801561186d57600080fd5b506040519080825280601f01601f1916602001820160405280156118a05781602001600182028036833780820191505090505b506040518082805190602001908083835b602083106118d457805182526020820191506020810190506020830392506118b1565b6001836020036101000a03801982511681845116808217855250505050505090500191505060006040518083038185875af1925050503d8060008114611936576040519150601f19603f3d011682016040523d82523d6000602084013e61193b565b606091505b50509050806119b2576040517f08c379a00000000000000000000000000000000000000000000000000000000081526004018080602001828103825260038152602001807f535445000000000000000000000000000000000000000000000000000000000081525060200191505060405180910390fd5b505050565b6000816020015173ffffffffffffffffffffffffffffffffffffffff16826000015173ffffffffffffffffffffffffffffffffffffffff16106119f957600080fd5b82826000015183602001518460400151604051602001808473ffffffffffffffffffffffffffffffffffffffff1681526020018373ffffffffffffffffffffffffffffffffffffffff1681526020018262ffffff1681526020019350505050604051602081830303815290604052805190602001207fe34f199b19b2b4f47f68442619d555527d244f78a3297ea89325f843f87b8b5460001b60405160200180807fff000000000000000000000000000000000000000000000000000000000000008152506001018473ffffffffffffffffffffffffffffffffffffffff1660601b815260140183815260200182815260200193505050506040516020818303038152906040528051906020012060001c905092915050565b6000808473ffffffffffffffffffffffffffffffffffffffff1663a9059cbb60e01b8585604051602401808373ffffffffffffffffffffffffffffffffffffffff16815260200182815260200192505050604051602081830303815290604052907bffffffffffffffffffffffffffffffffffffffffffffffffffffffff19166020820180517bffffffffffffffffffffffffffffffffffffffffffffffffffffffff83818316178352505050506040518082805190602001908083835b60208310611bf35780518252602082019150602081019050602083039250611bd0565b6001836020036101000a0380198251168184511680821785525050505050509050019150506000604051808303816000865af19150503d8060008114611c55576040519150601f19603f3d011682016040523d82523d6000602084013e611c5a565b606091505b5091509150818015611c9a5750600081511480611c995750808060200190516020811015611c8757600080fd5b81019080805190602001909291905050505b5b611d0c576040517f08c379a00000000000000000000000000000000000000000000000000000000081526004018080602001828103825260028152602001807f535400000000000000000000000000000000000000000000000000000000000081525060200191505060405180910390fd5b5050505050565b6000611d1f83836119b7565b90508073ffffffffffffffffffffffffffffffffffffffff163373ffffffffffffffffffffffffffffffffffffffff1614611d5957600080fd5b92915050565b6000808411611da3576040517f08c379a0000000000000000000000000000000000000000000000000000000008152600401611d9a90614047565b60405180910390fd5b8251825114611de7576040517f08c379a0000000000000000000000000000000000000000000000000000000008152600401611dde906140a7565b60405180910390fd5b8473ffffffffffffffffffffffffffffffffffffffff1683600185510381518110611e0e57fe5b602002602001015173ffffffffffffffffffffffffffffffffffffffff1614611e6c576040517f08c379a0000000000000000000000000000000000000000000000000000000008152600401611e6390614087565b60405180910390fd5b611ea986611e8e8786600081518110611e8157fe5b6020026020010151612164565b8685600081518110611e9c57fe5b602002602001015161224c565b90506000600190505b8351811015611f1b57611f0c87611ef2866001850381518110611ed157fe5b6020026020010151878581518110611ee557fe5b6020026020010151612164565b84868581518110611eff57fe5b602002602001015161224c565b91508080600101915050611eb2565b5095945050505050565b6000828284019150811015611f3957600080fd5b92915050565b7f000000000000000000000000000000000000000000000000000000000000000073ffffffffffffffffffffffffffffffffffffffff168473ffffffffffffffffffffffffffffffffffffffff16148015611f9a5750804710155b156120f2577f000000000000000000000000000000000000000000000000000000000000000073ffffffffffffffffffffffffffffffffffffffff1663d0e30db0826040518263ffffffff1660e01b81526004016000604051808303818588803b15801561200757600080fd5b505af115801561201b573d6000803e3d6000fd5b50505050507f000000000000000000000000000000000000000000000000000000000000000073ffffffffffffffffffffffffffffffffffffffff1663a9059cbb83836040518363ffffffff1660e01b8152600401808373ffffffffffffffffffffffffffffffffffffffff16815260200182815260200192505050602060405180830381600087803b1580156120b157600080fd5b505af11580156120c5573d6000803e3d6000fd5b505050506040513d60208110156120db57600080fd5b810190808051906020019092919050505050612144565b3073ffffffffffffffffffffffffffffffffffffffff168373ffffffffffffffffffffffffffffffffffffffff16141561213657612131848383611b12565b612143565b612142848484846126c0565b5b5b50505050565b600082828403915081111561215e57600080fd5b92915050565b60606000600267ffffffffffffffff8111801561218057600080fd5b506040519080825280602002602001820160405280156121af5781602001602082028036833780820191505090505b50905083816000815181106121c057fe5b602002602001019073ffffffffffffffffffffffffffffffffffffffff16908173ffffffffffffffffffffffffffffffffffffffff1681525050828160018151811061220857fe5b602002602001019073ffffffffffffffffffffffffffffffffffffffff16908173ffffffffffffffffffffffffffffffffffffffff16815250508091505092915050565b6000600161ffff168261ffff16141561235457600460008361ffff1661ffff16815260200190815260200160002060000160009054906101000a900473ffffffffffffffffffffffffffffffffffffffff166000806101000a81548173ffffffffffffffffffffffffffffffffffffffff021916908373ffffffffffffffffffffffffffffffffffffffff16021790555061234d8585856000600460008861ffff1661ffff16815260200190815260200160002060010160149054906101000a900462ffffff16600460008961ffff1661ffff16815260200190815260200160002060010160179054906101000a900467ffffffffffffffff1642016128e0565b90506126b8565b600261ffff168261ffff16141561242d57600460008361ffff1661ffff16815260200190815260200160002060000160009054906101000a900473ffffffffffffffffffffffffffffffffffffffff16600160006101000a81548173ffffffffffffffffffffffffffffffffffffffff021916908373ffffffffffffffffffffffffffffffffffffffff1602179055506124268585856000600460008861ffff1661ffff16815260200190815260200160002060010160179054906101000a900467ffffffffffffffff164201612b34565b90506126b7565b600361ffff168261ffff16141561250657600460008361ffff1661ffff16815260200190815260200160002060000160009054906101000a900473ffffffffffffffffffffffffffffffffffffffff16600160006101000a81548173ffffffffffffffffffffffffffffffffffffffff021916908373ffffffffffffffffffffffffffffffffffffffff1602179055506124ff8585856000600460008861ffff1661ffff16815260200190815260200160002060010160179054906101000a900467ffffffffffffffff164201612b34565b90506126b6565b600461ffff168261ffff1614156125df57600460008361ffff1661ffff16815260200190815260200160002060000160009054906101000a900473ffffffffffffffffffffffffffffffffffffffff16600160006101000a81548173ffffffffffffffffffffffffffffffffffffffff021916908373ffffffffffffffffffffffffffffffffffffffff1602179055506125d88585856000600460008861ffff1661ffff16815260200190815260200160002060010160179054906101000a900467ffffffffffffffff164201612b34565b90506126b5565b600861ffff168261ffff1614156126b457600460008361ffff1661ffff16815260200190815260200160002060000160009054906101000a900473ffffffffffffffffffffffffffffffffffffffff16600260006101000a81548173ffffffffffffffffffffffffffffffffffffffff021916908373ffffffffffffffffffffffffffffffffffffffff1602179055506126b18585856000600460008861ffff1661ffff16815260200190815260200160002060010160179054906101000a900467ffffffffffffffff164201612e2c565b90505b5b5b5b5b949350505050565b6000808573ffffffffffffffffffffffffffffffffffffffff166323b872dd60e01b868686604051602401808473ffffffffffffffffffffffffffffffffffffffff1681526020018373ffffffffffffffffffffffffffffffffffffffff1681526020018281526020019350505050604051602081830303815290604052907bffffffffffffffffffffffffffffffffffffffffffffffffffffffff19166020820180517bffffffffffffffffffffffffffffffffffffffffffffffffffffffff83818316178352505050506040518082805190602001908083835b602083106127bf578051825260208201915060208101905060208303925061279c565b6001836020036101000a0380198251168184511680821785525050505050509050019150506000604051808303816000865af19150503d8060008114612821576040519150601f19603f3d011682016040523d82523d6000602084013e612826565b606091505b50915091508180156128665750600081511480612865575080806020019051602081101561285357600080fd5b81019080805190602001909291905050505b5b6128d8576040517f08c379a00000000000000000000000000000000000000000000000000000000081526004018080602001828103825260038152602001807f535446000000000000000000000000000000000000000000000000000000000081525060200191505060405180910390fd5b505050505050565b6000612921866000815181106128f257fe5b602002602001015160008054906101000a900473ffffffffffffffffffffffffffffffffffffffff1687613125565b60008054906101000a900473ffffffffffffffffffffffffffffffffffffffff1673ffffffffffffffffffffffffffffffffffffffff1663414bf3896040518061010001604052808960008151811061297657fe5b602002602001015173ffffffffffffffffffffffffffffffffffffffff168152602001896001815181106129a657fe5b602002602001015173ffffffffffffffffffffffffffffffffffffffff1681526020018662ffffff1681526020018a73ffffffffffffffffffffffffffffffffffffffff1681526020018567ffffffffffffffff168152602001888152602001878152602001600073ffffffffffffffffffffffffffffffffffffffff168152506040518263ffffffff1660e01b8152600401612a4391906140c7565b602060405180830381600087803b158015612a5d57600080fd5b505af1158015612a71573d6000803e3d6000fd5b505050506040513d601f19601f82011682018060405250810190612a95919061399b565b905060008111612ada576040517f08c379a0000000000000000000000000000000000000000000000000000000008152600401612ad190614067565b60405180910390fd5b8673ffffffffffffffffffffffffffffffffffffffff167f2f7db10d9e424ce77a0061845a16d3b3e059bab8b01a40e50440082b9f53440e8683604051612b229291906141d0565b60405180910390a29695505050505050565b6000612b7785600081518110612b4657fe5b6020026020010151600160009054906101000a900473ffffffffffffffffffffffffffffffffffffffff1686613125565b600160009054906101000a900473ffffffffffffffffffffffffffffffffffffffff1673ffffffffffffffffffffffffffffffffffffffff166338ed17398585888a876040518663ffffffff1660e01b815260040180868152602001858152602001806020018473ffffffffffffffffffffffffffffffffffffffff1681526020018367ffffffffffffffff168152602001828103825285818151815260200191508051906020019060200280838360005b83811015612c44578082015181840152602081019050612c29565b505050509050019650505050505050600060405180830381600087803b158015612c6d57600080fd5b505af1158015612c81573d6000803e3d6000fd5b505050506040513d6000823e3d601f19601f820116820180604052506020811015612cab57600080fd5b8101908080516040519392919084640100000000821115612ccb57600080fd5b83820191506020820185811115612ce157600080fd5b8251866020820283011164010000000082111715612cfe57600080fd5b8083526020830192505050908051906020019060200280838360005b83811015612d35578082015181840152602081019050612d1a565b50505050905001604052505050600181518110612d4e57fe5b6020026020010151905060008111612dce576040517f08c379a00000000000000000000000000000000000000000000000000000000081526004018080602001828103825260198152602001807f53776170206661696c6564206f6e20556e69737761705632210000000000000081525060200191505060405180910390fd5b8573ffffffffffffffffffffffffffffffffffffffff167e6ec893f76d098792a91544430044e42f2d16d5ae60e22346a2c5e5007cef5e8583604051808381526020018281526020019250505060405180910390a295945050505050565b6000612e6f85600081518110612e3e57fe5b6020026020010151600260009054906101000a900473ffffffffffffffffffffffffffffffffffffffff1686613125565b600260009054906101000a900473ffffffffffffffffffffffffffffffffffffffff1673ffffffffffffffffffffffffffffffffffffffff166338ed17398585888a876040518663ffffffff1660e01b815260040180868152602001858152602001806020018473ffffffffffffffffffffffffffffffffffffffff1681526020018367ffffffffffffffff168152602001828103825285818151815260200191508051906020019060200280838360005b83811015612f3c578082015181840152602081019050612f21565b505050509050019650505050505050600060405180830381600087803b158015612f6557600080fd5b505af1158015612f79573d6000803e3d6000fd5b505050506040513d6000823e3d601f19601f820116820180604052506020811015612fa357600080fd5b8101908080516040519392919084640100000000821115612fc357600080fd5b83820191506020820185811115612fd957600080fd5b8251866020820283011164010000000082111715612ff657600080fd5b8083526020830192505050908051906020019060200280838360005b8381101561302d578082015181840152602081019050613012565b5050505090500160405250505060018151811061304657fe5b60200260200101519050600081116130c6576040517f08c379a000000000000000000000000000000000000000000000000000000000815260040180806020018281038252601b8152602001807f53776170206661696c6564206f6e2050616e63616b657377617021000000000081525060200191505060405180910390fd5b8573ffffffffffffffffffffffffffffffffffffffff167f60ae8154795373429168354d0c690e29f0312b9022347fc86538667659bbb3a58583604051808381526020018281526020019250505060405180910390a295945050505050565b6000808473ffffffffffffffffffffffffffffffffffffffff1663095ea7b360e01b8585604051602401808373ffffffffffffffffffffffffffffffffffffffff16815260200182815260200192505050604051602081830303815290604052907bffffffffffffffffffffffffffffffffffffffffffffffffffffffff19166020820180517bffffffffffffffffffffffffffffffffffffffffffffffffffffffff83818316178352505050506040518082805190602001908083835b6020831061320657805182526020820191506020810190506020830392506131e3565b6001836020036101000a0380198251168184511680821785525050505050509050019150506000604051808303816000865af19150503d8060008114613268576040519150601f19603f3d011682016040523d82523d6000602084013e61326d565b606091505b50915091508180156132ad57506000815114806132ac575080806020019051602081101561329a57600080fd5b81019080805190602001909291905050505b5b61331f576040517f08c379a00000000000000000000000000000000000000000000000000000000081526004018080602001828103825260028152602001807f534100000000000000000000000000000000000000000000000000000000000081525060200191505060405180910390fd5b5050505050565b60006133396133348461422a565b6141f9565b9050808382526020820190508285602086028201111561335857600080fd5b60005b85811015613388578161336e88826133fe565b84526020840193506020830192505060018101905061335b565b5050509392505050565b60006133a56133a084614256565b6141f9565b905080838252602082019050828560208602820111156133c457600080fd5b60005b858110156133f457816133da88826136d7565b8452602084019350602083019250506001810190506133c7565b5050509392505050565b60008135905061340d816144a6565b92915050565b60008083601f84011261342557600080fd5b8235905067ffffffffffffffff81111561343e57600080fd5b60208301915083602082028301111561345657600080fd5b9250929050565b600082601f83011261346e57600080fd5b813561347e848260208601613326565b91505092915050565b60008083601f84011261349957600080fd5b8235905067ffffffffffffffff8111156134b257600080fd5b6020830191508360208202830111156134ca57600080fd5b9250929050565b600082601f8301126134e257600080fd5b81356134f2848260208601613392565b91505092915050565b60008083601f84011261350d57600080fd5b8235905067ffffffffffffffff81111561352657600080fd5b60208301915083602082028301111561353e57600080fd5b9250929050565b60008083601f84011261355757600080fd5b8235905067ffffffffffffffff81111561357057600080fd5b60208301915083600182028301111561358857600080fd5b9250929050565b600060c082840312156135a157600080fd5b6135ab60806141f9565b905060006135bb84828501613701565b60008301525060206135cf84828501613701565b60208301525060406135e3848285016133fe565b60408301525060606135f784828501613603565b60608301525092915050565b60006060828403121561361557600080fd5b61361f60606141f9565b9050600061362f848285016133fe565b6000830152506020613643848285016133fe565b6020830152506040613657848285016136ec565b60408301525092915050565b60006080828403121561367557600080fd5b61367f60806141f9565b9050600061368f848285016133fe565b60008301525060206136a3848285016133fe565b60208301525060406136b7848285016136ec565b60408301525060606136cb8482850161372b565b60608301525092915050565b6000813590506136e6816144bd565b92915050565b6000813590506136fb816144d4565b92915050565b600081359050613710816144eb565b92915050565b600081519050613725816144eb565b92915050565b60008135905061373a81614502565b92915050565b60006020828403121561375257600080fd5b6000613760848285016133fe565b91505092915050565b60008060006060848603121561377e57600080fd5b600061378c868287016133fe565b935050602061379d86828701613701565b92505060406137ae868287016133fe565b9150509250925092565b6000806000806000806000806080898b0312156137d457600080fd5b600089013567ffffffffffffffff8111156137ee57600080fd5b6137fa8b828c01613413565b9850985050602089013567ffffffffffffffff81111561381957600080fd5b6138258b828c016134fb565b9650965050604089013567ffffffffffffffff81111561384457600080fd5b6138508b828c01613413565b9450945050606089013567ffffffffffffffff81111561386f57600080fd5b61387b8b828c01613487565b92509250509295985092959890939650565b600080600061010084860312156138a357600080fd5b60006138b18682870161358f565b93505060c084013567ffffffffffffffff8111156138ce57600080fd5b6138da8682870161345d565b92505060e084013567ffffffffffffffff8111156138f757600080fd5b613903868287016134d1565b9150509250925092565b60006020828403121561391f57600080fd5b600061392d848285016136d7565b91505092915050565b60008060a0838503121561394957600080fd5b6000613957858286016136d7565b925050602061396885828601613663565b9150509250929050565b60006020828403121561398457600080fd5b6000613992848285016136ec565b91505092915050565b6000602082840312156139ad57600080fd5b60006139bb84828501613716565b91505092915050565b600080604083850312156139d757600080fd5b60006139e585828601613701565b92505060206139f6858286016133fe565b9150509250929050565b60008060008060608587031215613a1657600080fd5b6000613a2487828801613701565b9450506020613a3587828801613701565b935050604085013567ffffffffffffffff811115613a5257600080fd5b613a5e87828801613545565b925092505092959194509250565b6000613a788383613aab565b60208301905092915050565b6000613a908383613ea6565b60208301905092915050565b613aa58161439a565b82525050565b613ab48161432d565b82525050565b613ac38161432d565b82525050565b6000613ad583856142bb565b9350613ae082614282565b8060005b85811015613b1957613af682846142ff565b613b008882613a6c565b9750613b0b836142a1565b925050600181019050613ae4565b5085925050509392505050565b6000613b3283856142cc565b9350613b3d8261428c565b8060005b85811015613b7657613b538284614316565b613b5d8882613a84565b9750613b68836142ae565b925050600181019050613b41565b5085925050509392505050565b6000613b8e82614296565b613b9881856142dd565b9350613ba8818560208601614460565b613bb181614495565b840191505092915050565b613bc5816143ac565b82525050565b613bd4816143d0565b82525050565b613be3816143f4565b82525050565b613bf281614418565b82525050565b6000613c056018836142ee565b91507f6f6e65206f6620616d6f756e7473206d757374206265203000000000000000006000830152602082019050919050565b6000613c456012836142ee565b91507f6c6f616e656420616d6f756e74206973203000000000000000000000000000006000830152602082019050919050565b6000613c856019836142ee565b91507f53776170206661696c6564206f6e20556e6973776170563321000000000000006000830152602082019050919050565b6000613cc5602f836142ee565b91507f656e6420747261646520617373657374206d75737420626520657175616c207460008301527f6f206c6f616e65642061737365737400000000000000000000000000000000006020830152604082019050919050565b6000613d2b6014836142ee565b91507f496e76616c696420747261646520706172616d730000000000000000000000006000830152602082019050919050565b61010082016000820151613d756000850182613aab565b506020820151613d886020850182613aab565b506040820151613d9b6040850182613ec4565b506060820151613dae6060850182613aab565b506080820151613dc16080850182613ee2565b5060a0820151613dd460a0850182613ee2565b5060c0820151613de760c0850182613ee2565b5060e0820151613dfa60e0850182613e97565b50505050565b60c082016000820151613e166000850182613ee2565b506020820151613e296020850182613ee2565b506040820151613e3c6040850182613aab565b506060820151613e4f6060850182613e55565b50505050565b606082016000820151613e6b6000850182613aab565b506020820151613e7e6020850182613aab565b506040820151613e916040850182613ec4565b50505050565b613ea08161434d565b82525050565b613eaf8161433f565b82525050565b613ebe8161433f565b82525050565b613ecd8161436d565b82525050565b613edc8161436d565b82525050565b613eeb8161437c565b82525050565b613efa8161437c565b82525050565b613f0981614386565b82525050565b6000602082019050613f246000830184613aba565b92915050565b6000608082019050613f3f6000830187613a9c565b613f4c6020830186613ef1565b613f596040830185613ef1565b8181036060830152613f6b8184613b83565b905095945050505050565b6000608082019050613f8b6000830187613aba565b613f986020830186613aba565b613fa56040830185613ed3565b613fb26060830184613f00565b95945050505050565b6000602082019050613fd06000830184613bbc565b92915050565b6000602082019050613feb6000830184613bcb565b92915050565b60006020820190506140066000830184613bda565b92915050565b60006020820190506140216000830184613be9565b92915050565b6000602082019050818103600083015261404081613bf8565b9050919050565b6000602082019050818103600083015261406081613c38565b9050919050565b6000602082019050818103600083015261408081613c78565b9050919050565b600060208201905081810360008301526140a081613cb8565b9050919050565b600060208201905081810360008301526140c081613d1e565b9050919050565b6000610100820190506140dd6000830184613d5e565b92915050565b6000610100820190506140f96000830188613e00565b81810360c083015261410c818688613ac9565b905081810360e0830152614121818486613b26565b90509695505050505050565b60006020820190506141426000830184613eb5565b92915050565b600060408201905061415d6000830185613eb5565b61416a6020830184613ed3565b9392505050565b60006020820190506141866000830184613ed3565b92915050565b60006020820190506141a16000830184613ef1565b92915050565b60006040820190506141bc6000830185613ef1565b6141c96020830184613eb5565b9392505050565b60006040820190506141e56000830185613ef1565b6141f26020830184613ef1565b9392505050565b6000604051905081810181811067ffffffffffffffff821117156142205761421f614493565b5b8060405250919050565b600067ffffffffffffffff82111561424557614244614493565b5b602082029050602081019050919050565b600067ffffffffffffffff82111561427157614270614493565b5b602082029050602081019050919050565b6000819050919050565b6000819050919050565b600081519050919050565b6000602082019050919050565b6000602082019050919050565b600082825260208201905092915050565b600082825260208201905092915050565b600082825260208201905092915050565b600082825260208201905092915050565b600061430e60208401846133fe565b905092915050565b600061432560208401846136d7565b905092915050565b60006143388261434d565b9050919050565b600061ffff82169050919050565b600073ffffffffffffffffffffffffffffffffffffffff82169050919050565b600062ffffff82169050919050565b6000819050919050565b600067ffffffffffffffff82169050919050565b60006143a58261443c565b9050919050565b60006143b7826143be565b9050919050565b60006143c98261434d565b9050919050565b60006143db826143e2565b9050919050565b60006143ed8261434d565b9050919050565b60006143ff82614406565b9050919050565b60006144118261434d565b9050919050565b60006144238261442a565b9050919050565b60006144358261434d565b9050919050565b60006144478261444e565b9050919050565b60006144598261434d565b9050919050565b60005b8381101561447e578082015181840152602081019050614463565b8381111561448d576000848401525b50505050565bfe5b6000601f19601f8301169050919050565b6144af8161432d565b81146144ba57600080fd5b50565b6144c68161433f565b81146144d157600080fd5b50565b6144dd8161436d565b81146144e857600080fd5b50565b6144f48161437c565b81146144ff57600080fd5b50565b61450b81614386565b811461451657600080fd5b5056fe4f776e61626c653a206e6577206f776e657220697320746865207a65726f2061646472657373a2646970667358221220e395ce9b2071763f5e7b8707026419867ec6a15888a84a53ca575a2695c34b2d64736f6c63430007060033",
  "immutableReferences": {
    "1782": [
      {
        "length": 32,
        "start": 3890
      },
      {
        "length": 32,
        "start": 4541
      },
      {
        "length": 32,
        "start": 4955
      }
    ],
    "1786": [
      {
        "length": 32,
        "start": 396
      },
      {
        "length": 32,
        "start": 2590
      },
      {
        "length": 32,
        "start": 2913
      },
      {
        "length": 32,
        "start": 3215
      },
      {
        "length": 32,
        "start": 8001
      },
      {
        "length": 32,
        "start": 8097
      },
      {
        "length": 32,
        "start": 8226
      }
    ]
  },
  "source": "// SPDX-License-Identifier: GPL-2.0-or-later\npragma solidity >=0.7.6;\npragma abicoder v2;\n\nimport \"@uniswap/v3-core/contracts/interfaces/callback/IUniswapV3FlashCallback.sol\";\nimport \"@uniswap/v3-core/contracts/interfaces/IUniswapV3Factory.sol\";\nimport \"@uniswap/v3-core/contracts/libraries/LowGasSafeMath.sol\";\nimport \"@uniswap/v2-periphery/contracts/interfaces/IUniswapV2Router02.sol\";\nimport \"@uniswap/v3-periphery/contracts/base/PeripheryPayments.sol\";\nimport \"@uniswap/v3-periphery/contracts/base/PeripheryImmutableState.sol\";\nimport \"@uniswap/v3-periphery/contracts/libraries/PoolAddress.sol\";\nimport \"@uniswap/v3-periphery/contracts/libraries/CallbackValidation.sol\";\nimport \"@uniswap/v3-periphery/contracts/interfaces/ISwapRouter.sol\";\nimport \"@openzeppelin/contracts/token/ERC20/IERC20.sol\";\nimport \"./utils/Helpers.sol\";\nimport \"./utils/SwapAssets.sol\";\n\n/// @title Flash contract implementation\n/// @notice An example contract using the Uniswap V3 flash function\ncontract UniswapFlash is \n    IUniswapV3FlashCallback,\n    PeripheryImmutableState,\n    PeripheryPayments,\n    SwapAssets {\n    \n\n    // fee2 and fee3 are the two other fees associated with the two other pools of token0 and token1\n    struct FlashCallbackData {\n        uint256 amount0;\n        uint256 amount1;\n        address payer;\n        PoolAddress.PoolKey poolKey;\n        // uint24 poolFee2;\n        // uint24 poolFee3;\n    }\n\n    using LowGasSafeMath for uint256;\n    IUniswapV3Pool public flashPool;\n    uint24 public flashPoolFee;  //  flash from the 0.05% fee of pool\n\n    event FalshloanInited(\n        address indexed _loanAsset,\n        uint256 _loanAmount,\n        address indexed _tradeAsset,\n        uint16 _tradeDex\n    );\n    event AssetBorrowedFromPool(\n        address indexed _pool,\n        address indexed _loanAsset,\n        uint256 _loanAmount,\n        uint256 _fee\n    );\n    event AssetSwaped(\n        address indexed _swapAsset,\n        uint256 _swapAmount\n    );\n    event RepayedAssetToPool(\n        address indexed _pool,\n        address indexed _repayedAsset,\n        uint256 _repayedAmount\n    );\n    event TransferProfitToWallet(\n        address indexed _owner,\n        address indexed _profitAsset,\n        uint256 _profitAmount\n    );\n    event ChangedFlashPoolFee(address indexed _sender, uint24 _fee);\n    constructor(\n        address _factory,\n        address _WETH9\n    ) PeripheryImmutableState(_factory, _WETH9) {\n     \n    }\n\n    /// @param loanAssets array of assets pair to loan. for example [token0, token1].\n    /// @param loanAmounts array of assets amounts to loan. for example [amount0, amount1].\n    ///         one of two amounts must be 0\n    /// @param tradeAssets array of assets to trade. end asset must be equal to loaned assest\n    /// @param tradeDexs array of dexes to trade.\n    /// @notice Calls the pools flash function with data needed in `uniswapV3FlashCallback`\n    function initUniFlashSwap(\n        address[] calldata loanAssets,\n        uint256[] calldata loanAmounts,\n        address[] calldata tradeAssets,\n        uint16[] calldata tradeDexs\n    ) external {\n        PoolAddress.PoolKey memory poolKey = PoolAddress.PoolKey(\n            {\n                token0: loanAssets[0],\n                token1: loanAssets[1],\n                fee: flashPoolFee\n            }\n        );\n        flashPool = IUniswapV3Pool(PoolAddress.computeAddress(factory, poolKey));\n        emit FalshloanInited(loanAssets[0], loanAmounts[0], tradeAssets[0], tradeDexs[0]);\n\n        // recipient of borrowed amounts (should be (this) contract)\n        // amount of token0 requested to borrow\n        // amount of token1 requested to borrow\n        // need amount 0 and amount1 in callback to pay back pool\n        // recipient of flash should be THIS contract\n        flashPool.flash(\n            address(this),\n            loanAmounts[0],\n            loanAmounts[1],\n            abi.encode(\n                FlashCallbackData({\n                    amount0: loanAmounts[0],\n                    amount1: loanAmounts[1],\n                    payer: msg.sender,\n                    poolKey: poolKey\n                    // poolFee2: params.fee2,\n                    // poolFee3: params.fee3\n                }),\n                tradeAssets,\n                tradeDexs\n            )\n        );\n    }\n\n    /// @param fee0 The fee from calling flash for token0\n    /// @param fee1 The fee from calling flash for token1\n    /// @param data The data needed in the callback passed as FlashCallbackData from `initUniFlashSwap`\n    /// @notice implements the callback called from flash\n    /// @dev fails if the flash is not profitable, meaning the amountOut from the flash is less than the amount borrowed\n    function uniswapV3FlashCallback(\n        uint256 fee0,\n        uint256 fee1,\n        bytes calldata data\n    ) external override {\n       \n        (\n            FlashCallbackData memory decoded,\n            address[] memory tradeAssets,\n            uint16[] memory tradeDexs\n        ) = abi.decode(data, (FlashCallbackData, address[], uint16[]));\n        CallbackValidation.verifyCallback(factory, decoded.poolKey);\n        require(\n            decoded.amount0 == 0 ||  decoded.amount1 == 0,\n            \"one of amounts must be 0\"\n        );\n        address loanAsset = decoded.amount0 > 0 ? decoded.poolKey.token0: decoded.poolKey.token1;\n        uint256 loanAmount = decoded.amount0 > 0 ? decoded.amount0: decoded.amount1;\n        uint256 fee = decoded.amount0 > 0 ? fee0 : fee1;\n        address payer = decoded.payer;\n        emit AssetBorrowedFromPool(msg.sender, loanAsset, loanAmount, fee);\n        // start trade\n        uint256 amountOut = tradeExecute(\n            address(this),\n            loanAsset,\n            loanAmount,\n            tradeAssets,\n            tradeDexs\n        );\n        emit AssetSwaped(loanAsset, amountOut);\n\n        // compute amount to pay back to pool \n        // loanAmount + fee\n        uint256 amountOwed = LowGasSafeMath.add(loanAmount, fee);\n        \n        // pay back pool the loan \n        // note: msg.sender == pool to pay back \n        if (amountOwed > 0) {\n            pay(loanAsset, address(this), msg.sender, amountOwed);\n            emit RepayedAssetToPool(msg.sender, loanAsset, amountOwed);\n        }\n        uint256 profit = LowGasSafeMath.sub(amountOut, amountOwed);\n        // if profitable pay profits to payer\n        if (profit > 0) {\n            pay(loanAsset, address(this), payer, profit);\n            emit TransferProfitToWallet(payer, loanAsset, profit);\n        }\n    }\n    function setFlashPoolFee(uint24 poolFee) public onlyOwner() {\n        flashPoolFee = poolFee;\n        emit ChangedFlashPoolFee(msg.sender, poolFee);\n    }\n    fallback() external payable {}\n}\n",
  "sourcePath": "D:\\MyWorks\\MySolidities\\SilvanShwarz\\FlashLoans\\uni-flashswap-trader\\contracts\\UniswapFlash.sol",
  "compiler": {
    "name": "solc",
    "version": "0.7.6+commit.7338295f.Emscripten.clang"
  },
  "schemaVersion": "3.4.7",
  "updatedAt": "2022-06-11T07:57:33.065Z",
  "networkType": "ethereum",
  "devdoc": {
    "kind": "dev",
    "methods": {
      "initUniFlashSwap(address[],uint256[],address[],uint16[])": {
        "params": {
          "loanAmounts": "array of assets amounts to loan. for example [amount0, amount1].         one of two amounts must be 0",
          "loanAssets": "array of assets pair to loan. for example [token0, token1].",
          "tradeAssets": "array of assets to trade. end asset must be equal to loaned assest",
          "tradeDexs": "array of dexes to trade."
        }
      },
      "owner()": {
        "details": "Returns the address of the current owner."
      },
      "refundETH()": {
        "details": "Useful for bundling with mint or increase liquidity that uses ether, or exact output swaps that use ether for the input amount"
      },
      "renounceOwnership()": {
        "details": "Leaves the contract without owner. It will not be possible to call `onlyOwner` functions anymore. Can only be called by the current owner. NOTE: Renouncing ownership will leave the contract without an owner, thereby removing any functionality that is only available to the owner."
      },
      "sweepToken(address,uint256,address)": {
        "details": "The amountMinimum parameter prevents malicious contracts from stealing the token from users",
        "params": {
          "amountMinimum": "The minimum amount of token required for a transfer",
          "recipient": "The destination address of the token",
          "token": "The contract address of the token which will be transferred to `recipient`"
        }
      },
      "transferOwnership(address)": {
        "details": "Transfers ownership of the contract to a new account (`newOwner`). Can only be called by the current owner."
      },
      "uniswapV3FlashCallback(uint256,uint256,bytes)": {
        "details": "fails if the flash is not profitable, meaning the amountOut from the flash is less than the amount borrowed",
        "params": {
          "data": "The data needed in the callback passed as FlashCallbackData from `initUniFlashSwap`",
          "fee0": "The fee from calling flash for token0",
          "fee1": "The fee from calling flash for token1"
        }
      },
      "unwrapWETH9(uint256,address)": {
        "details": "The amountMinimum parameter prevents malicious contracts from stealing WETH9 from users.",
        "params": {
          "amountMinimum": "The minimum amount of WETH9 to unwrap",
          "recipient": "The address receiving ETH"
        }
      }
    },
    "title": "Flash contract implementation",
    "version": 1
  },
  "userdoc": {
    "kind": "user",
    "methods": {
      "initUniFlashSwap(address[],uint256[],address[],uint16[])": {
        "notice": "Calls the pools flash function with data needed in `uniswapV3FlashCallback`"
      },
      "refundETH()": {
        "notice": "Refunds any ETH balance held by this contract to the `msg.sender`"
      },
      "sweepToken(address,uint256,address)": {
        "notice": "Transfers the full amount of a token held by this contract to recipient"
      },
      "uniswapV3FlashCallback(uint256,uint256,bytes)": {
        "notice": "implements the callback called from flash"
      },
      "unwrapWETH9(uint256,address)": {
        "notice": "Unwraps the contract's WETH9 balance and sends it to recipient as ETH."
      }
    },
    "notice": "An example contract using the Uniswap V3 flash function",
    "version": 1
  }
}