{
  "contractName": "UniswapFlash",
  "abi": [
    {
      "inputs": [
        {
          "internalType": "address",
          "name": "_factory",
          "type": "address"
        },
        {
          "internalType": "address",
          "name": "_WETH9",
          "type": "address"
        }
      ],
      "stateMutability": "nonpayable",
      "type": "constructor"
    },
    {
      "anonymous": false,
      "inputs": [
        {
          "indexed": true,
          "internalType": "address",
          "name": "_pool",
          "type": "address"
        },
        {
          "indexed": true,
          "internalType": "address",
          "name": "_loanAsset",
          "type": "address"
        },
        {
          "indexed": false,
          "internalType": "uint256",
          "name": "_loanAmount",
          "type": "uint256"
        },
        {
          "indexed": false,
          "internalType": "uint256",
          "name": "_fee",
          "type": "uint256"
        }
      ],
      "name": "AssetBorrowedFromPool",
      "type": "event"
    },
    {
      "anonymous": false,
      "inputs": [
        {
          "indexed": true,
          "internalType": "address",
          "name": "_swapAsset",
          "type": "address"
        },
        {
          "indexed": false,
          "internalType": "uint256",
          "name": "_swapAmount",
          "type": "uint256"
        }
      ],
      "name": "AssetSwaped",
      "type": "event"
    },
    {
      "anonymous": false,
      "inputs": [
        {
          "indexed": true,
          "internalType": "address",
          "name": "_sender",
          "type": "address"
        },
        {
          "indexed": false,
          "internalType": "uint24",
          "name": "_fee",
          "type": "uint24"
        }
      ],
      "name": "ChangedFlashPoolFee",
      "type": "event"
    },
    {
      "anonymous": false,
      "inputs": [
        {
          "indexed": true,
          "internalType": "address",
          "name": "_loanAsset",
          "type": "address"
        },
        {
          "indexed": false,
          "internalType": "uint256",
          "name": "_loanAmount",
          "type": "uint256"
        },
        {
          "indexed": true,
          "internalType": "address",
          "name": "_tradeAsset",
          "type": "address"
        },
        {
          "indexed": false,
          "internalType": "uint16",
          "name": "_tradeDex",
          "type": "uint16"
        }
      ],
      "name": "FalshloanInited",
      "type": "event"
    },
    {
      "anonymous": false,
      "inputs": [
        {
          "indexed": true,
          "internalType": "address",
          "name": "previousOwner",
          "type": "address"
        },
        {
          "indexed": true,
          "internalType": "address",
          "name": "newOwner",
          "type": "address"
        }
      ],
      "name": "OwnershipTransferred",
      "type": "event"
    },
    {
      "anonymous": false,
      "inputs": [
        {
          "indexed": true,
          "internalType": "address",
          "name": "_pool",
          "type": "address"
        },
        {
          "indexed": true,
          "internalType": "address",
          "name": "_repayedAsset",
          "type": "address"
        },
        {
          "indexed": false,
          "internalType": "uint256",
          "name": "_repayedAmount",
          "type": "uint256"
        }
      ],
      "name": "RepayedAssetToPool",
      "type": "event"
    },
    {
      "anonymous": false,
      "inputs": [
        {
          "indexed": false,
          "internalType": "uint16",
          "name": "_index",
          "type": "uint16"
        },
        {
          "indexed": true,
          "internalType": "address",
          "name": "_router",
          "type": "address"
        },
        {
          "indexed": true,
          "internalType": "address",
          "name": "_factory",
          "type": "address"
        },
        {
          "indexed": false,
          "internalType": "uint24",
          "name": "_poolFee",
          "type": "uint24"
        }
      ],
      "name": "RouterInfoSeted",
      "type": "event"
    },
    {
      "anonymous": false,
      "inputs": [
        {
          "indexed": true,
          "internalType": "address",
          "name": "_sender",
          "type": "address"
        },
        {
          "indexed": false,
          "internalType": "uint256",
          "name": "_amountIn",
          "type": "uint256"
        },
        {
          "indexed": false,
          "internalType": "uint256",
          "name": "_amountOut",
          "type": "uint256"
        }
      ],
      "name": "SwapedOnPancake",
      "type": "event"
    },
    {
      "anonymous": false,
      "inputs": [
        {
          "indexed": true,
          "internalType": "address",
          "name": "_sender",
          "type": "address"
        },
        {
          "indexed": false,
          "internalType": "uint256",
          "name": "_amountIn",
          "type": "uint256"
        },
        {
          "indexed": false,
          "internalType": "uint256",
          "name": "_amountOut",
          "type": "uint256"
        }
      ],
      "name": "SwapedOnUniswapV2",
      "type": "event"
    },
    {
      "anonymous": false,
      "inputs": [
        {
          "indexed": true,
          "internalType": "address",
          "name": "_sender",
          "type": "address"
        },
        {
          "indexed": false,
          "internalType": "uint256",
          "name": "_amountIn",
          "type": "uint256"
        },
        {
          "indexed": false,
          "internalType": "uint256",
          "name": "_amountOut",
          "type": "uint256"
        }
      ],
      "name": "SwapedOnUniswapV3",
      "type": "event"
    },
    {
      "anonymous": false,
      "inputs": [
        {
          "indexed": true,
          "internalType": "address",
          "name": "_owner",
          "type": "address"
        },
        {
          "indexed": true,
          "internalType": "address",
          "name": "_profitAsset",
          "type": "address"
        },
        {
          "indexed": false,
          "internalType": "uint256",
          "name": "_profitAmount",
          "type": "uint256"
        }
      ],
      "name": "TransferProfitToWallet",
      "type": "event"
    },
    {
      "stateMutability": "payable",
      "type": "fallback",
      "payable": true
    },
    {
      "inputs": [],
      "name": "APESWAP_ROUTER_ID",
      "outputs": [
        {
          "internalType": "uint16",
          "name": "",
          "type": "uint16"
        }
      ],
      "stateMutability": "view",
      "type": "function",
      "constant": true
    },
    {
      "inputs": [],
      "name": "KYBER_ROUTER_ID",
      "outputs": [
        {
          "internalType": "uint16",
          "name": "",
          "type": "uint16"
        }
      ],
      "stateMutability": "view",
      "type": "function",
      "constant": true
    },
    {
      "inputs": [],
      "name": "ONEINCHISWAP_ROUTER_ID",
      "outputs": [
        {
          "internalType": "uint16",
          "name": "",
          "type": "uint16"
        }
      ],
      "stateMutability": "view",
      "type": "function",
      "constant": true
    },
    {
      "inputs": [],
      "name": "PANCAKE_ROUTER_ID",
      "outputs": [
        {
          "internalType": "uint16",
          "name": "",
          "type": "uint16"
        }
      ],
      "stateMutability": "view",
      "type": "function",
      "constant": true
    },
    {
      "inputs": [],
      "name": "SIBASWAP_ROUTER_ID",
      "outputs": [
        {
          "internalType": "uint16",
          "name": "",
          "type": "uint16"
        }
      ],
      "stateMutability": "view",
      "type": "function",
      "constant": true
    },
    {
      "inputs": [],
      "name": "SUSHISWAP_ROUTER_ID",
      "outputs": [
        {
          "internalType": "uint16",
          "name": "",
          "type": "uint16"
        }
      ],
      "stateMutability": "view",
      "type": "function",
      "constant": true
    },
    {
      "inputs": [],
      "name": "UNISWAP_V2_ROUTER_ID",
      "outputs": [
        {
          "internalType": "uint16",
          "name": "",
          "type": "uint16"
        }
      ],
      "stateMutability": "view",
      "type": "function",
      "constant": true
    },
    {
      "inputs": [],
      "name": "UNISWAP_V3_ROUTER_ID",
      "outputs": [
        {
          "internalType": "uint16",
          "name": "",
          "type": "uint16"
        }
      ],
      "stateMutability": "view",
      "type": "function",
      "constant": true
    },
    {
      "inputs": [],
      "name": "WETH9",
      "outputs": [
        {
          "internalType": "address",
          "name": "",
          "type": "address"
        }
      ],
      "stateMutability": "view",
      "type": "function",
      "constant": true
    },
    {
      "inputs": [],
      "name": "factory",
      "outputs": [
        {
          "internalType": "address",
          "name": "",
          "type": "address"
        }
      ],
      "stateMutability": "view",
      "type": "function",
      "constant": true
    },
    {
      "inputs": [],
      "name": "flashPool",
      "outputs": [
        {
          "internalType": "contract IUniswapV3Pool",
          "name": "",
          "type": "address"
        }
      ],
      "stateMutability": "view",
      "type": "function",
      "constant": true
    },
    {
      "inputs": [],
      "name": "flashPoolFee",
      "outputs": [
        {
          "internalType": "uint24",
          "name": "",
          "type": "uint24"
        }
      ],
      "stateMutability": "view",
      "type": "function",
      "constant": true
    },
    {
      "inputs": [],
      "name": "owner",
      "outputs": [
        {
          "internalType": "address",
          "name": "",
          "type": "address"
        }
      ],
      "stateMutability": "view",
      "type": "function",
      "constant": true
    },
    {
      "inputs": [],
      "name": "pancakeswapRouter",
      "outputs": [
        {
          "internalType": "contract IPancakeRouter02",
          "name": "",
          "type": "address"
        }
      ],
      "stateMutability": "view",
      "type": "function",
      "constant": true
    },
    {
      "inputs": [],
      "name": "refundETH",
      "outputs": [],
      "stateMutability": "payable",
      "type": "function",
      "payable": true
    },
    {
      "inputs": [],
      "name": "renounceOwnership",
      "outputs": [],
      "stateMutability": "nonpayable",
      "type": "function"
    },
    {
      "inputs": [
        {
          "internalType": "uint16",
          "name": "routerID",
          "type": "uint16"
        },
        {
          "components": [
            {
              "internalType": "address",
              "name": "router",
              "type": "address"
            },
            {
              "internalType": "address",
              "name": "factory",
              "type": "address"
            },
            {
              "internalType": "uint24",
              "name": "poolFee",
              "type": "uint24"
            },
            {
              "internalType": "uint64",
              "name": "deadline",
              "type": "uint64"
            }
          ],
          "internalType": "struct SwapInforRegistry.SwapRouterInfo",
          "name": "routerInfo",
          "type": "tuple"
        }
      ],
      "name": "setSwapRouterInfo",
      "outputs": [],
      "stateMutability": "nonpayable",
      "type": "function"
    },
    {
      "inputs": [
        {
          "internalType": "uint16",
          "name": "",
          "type": "uint16"
        }
      ],
      "name": "swapRouterInfos",
      "outputs": [
        {
          "internalType": "address",
          "name": "router",
          "type": "address"
        },
        {
          "internalType": "address",
          "name": "factory",
          "type": "address"
        },
        {
          "internalType": "uint24",
          "name": "poolFee",
          "type": "uint24"
        },
        {
          "internalType": "uint64",
          "name": "deadline",
          "type": "uint64"
        }
      ],
      "stateMutability": "view",
      "type": "function",
      "constant": true
    },
    {
      "inputs": [
        {
          "internalType": "address",
          "name": "token",
          "type": "address"
        },
        {
          "internalType": "uint256",
          "name": "amountMinimum",
          "type": "uint256"
        },
        {
          "internalType": "address",
          "name": "recipient",
          "type": "address"
        }
      ],
      "name": "sweepToken",
      "outputs": [],
      "stateMutability": "payable",
      "type": "function",
      "payable": true
    },
    {
      "inputs": [
        {
          "internalType": "address",
          "name": "newOwner",
          "type": "address"
        }
      ],
      "name": "transferOwnership",
      "outputs": [],
      "stateMutability": "nonpayable",
      "type": "function"
    },
    {
      "inputs": [],
      "name": "uniswapV2Router",
      "outputs": [
        {
          "internalType": "contract IUniswapV2Router02",
          "name": "",
          "type": "address"
        }
      ],
      "stateMutability": "view",
      "type": "function",
      "constant": true
    },
    {
      "inputs": [],
      "name": "uniswapV3Router",
      "outputs": [
        {
          "internalType": "contract ISwapRouter",
          "name": "",
          "type": "address"
        }
      ],
      "stateMutability": "view",
      "type": "function",
      "constant": true
    },
    {
      "inputs": [
        {
          "internalType": "uint256",
          "name": "amountMinimum",
          "type": "uint256"
        },
        {
          "internalType": "address",
          "name": "recipient",
          "type": "address"
        }
      ],
      "name": "unwrapWETH9",
      "outputs": [],
      "stateMutability": "payable",
      "type": "function",
      "payable": true
    },
    {
      "stateMutability": "payable",
      "type": "receive",
      "payable": true
    },
    {
      "inputs": [
        {
          "internalType": "address[]",
          "name": "loanAssets",
          "type": "address[]"
        },
        {
          "internalType": "uint256[]",
          "name": "loanAmounts",
          "type": "uint256[]"
        },
        {
          "internalType": "address[]",
          "name": "tradeAssets",
          "type": "address[]"
        },
        {
          "internalType": "uint16[]",
          "name": "tradeDexs",
          "type": "uint16[]"
        }
      ],
      "name": "initUniFlashSwap",
      "outputs": [],
      "stateMutability": "nonpayable",
      "type": "function"
    },
    {
      "inputs": [
        {
          "internalType": "uint256",
          "name": "fee0",
          "type": "uint256"
        },
        {
          "internalType": "uint256",
          "name": "fee1",
          "type": "uint256"
        },
        {
          "internalType": "bytes",
          "name": "data",
          "type": "bytes"
        }
      ],
      "name": "uniswapV3FlashCallback",
      "outputs": [],
      "stateMutability": "nonpayable",
      "type": "function"
    },
    {
      "inputs": [
        {
          "internalType": "uint24",
          "name": "poolFee",
          "type": "uint24"
        }
      ],
      "name": "setFlashPoolFee",
      "outputs": [],
      "stateMutability": "nonpayable",
      "type": "function"
    }
  ],
  "bytecode": "0x60c06040523480156200001157600080fd5b50604051620048c9380380620048c9833981810160405281019062000037919062000181565b81818173ffffffffffffffffffffffffffffffffffffffff1660808173ffffffffffffffffffffffffffffffffffffffff1660601b815250508073ffffffffffffffffffffffffffffffffffffffff1660a08173ffffffffffffffffffffffffffffffffffffffff1660601b8152505050506000620000bb6200016260201b60201c565b905080600360006101000a81548173ffffffffffffffffffffffffffffffffffffffff021916908373ffffffffffffffffffffffffffffffffffffffff1602179055508073ffffffffffffffffffffffffffffffffffffffff16600073ffffffffffffffffffffffffffffffffffffffff167f8be0079c531659141344cd1fd0a4f28419497f9722a3daafe3b4186f6b6457e060405160405180910390a350505062000210565b600033905090565b6000815190506200017b81620001f6565b92915050565b600080604083850312156200019557600080fd5b6000620001a5858286016200016a565b9250506020620001b8858286016200016a565b9150509250929050565b6000620001cf82620001d6565b9050919050565b600073ffffffffffffffffffffffffffffffffffffffff82169050919050565b6200020181620001c2565b81146200020d57600080fd5b50565b60805160601c60a05160601c614667620002626000398061018c5280610a1e5280610b615280610c8f5280611fd3528061203352806120b4525080610f32528061124f52806113ed52506146676000f3fe6080604052600436106101855760003560e01c8063715018a6116100d1578063b18759e81161008a578063df2ab5bb11610064578063df2ab5bb146105cc578063e9cbafb0146105e8578063ea3b443114610611578063f2fde38b1461063c5761024d565b8063b18759e81461054d578063c45a015514610576578063db6754ed146105a15761024d565b8063715018a61461045f57806386c4571e146104765780638da5cb5b146104a15780639cd43160146104cc578063a8c5caab146104f7578063aa7f0ceb146105225761024d565b8063285978f41161013e57806349bae2ce1161011857806349bae2ce1461039e5780634aa4a4fc146103de5780634b39f49b146104095780636b79ed35146104345761024d565b8063285978f41461032c5780632c76d7a61461035757806349404b7c146103825761024d565b80630deed49d1461024f57806312210e8a146102785780631694505e1461028257806318c9cbd1146102ad578063208aec90146102d6578063279fd181146103015761024d565b3661024d577f000000000000000000000000000000000000000000000000000000000000000073ffffffffffffffffffffffffffffffffffffffff163373ffffffffffffffffffffffffffffffffffffffff161461024b576040517f08c379a00000000000000000000000000000000000000000000000000000000081526004018080602001828103825260098152602001807f4e6f74205745544839000000000000000000000000000000000000000000000081525060200191505060405180910390fd5b005b005b34801561025b57600080fd5b5061027660048036038101906102719190613a04565b610665565b005b610280610784565b005b34801561028e57600080fd5b5061029761079a565b6040516102a491906140c3565b60405180910390f35b3480156102b957600080fd5b506102d460048036038101906102cf91906139c8565b6107c0565b005b3480156102e257600080fd5b506102eb6109e7565b6040516102f8919061421f565b60405180910390f35b34801561030d57600080fd5b506103166109ec565b604051610323919061421f565b60405180910390f35b34801561033857600080fd5b506103416109f1565b60405161034e919061421f565b60405180910390f35b34801561036357600080fd5b5061036c6109f6565b60405161037991906140a8565b60405180910390f35b61039c60048036038101906103979190613a56565b610a1a565b005b3480156103aa57600080fd5b506103c560048036038101906103c0919061399f565b610bfa565b6040516103d59493929190614048565b60405180910390f35b3480156103ea57600080fd5b506103f3610c8d565b6040516104009190613fe1565b60405180910390f35b34801561041557600080fd5b5061041e610cb1565b60405161042b919061421f565b60405180910390f35b34801561044057600080fd5b50610449610cb6565b604051610456919061421f565b60405180910390f35b34801561046b57600080fd5b50610474610cbb565b005b34801561048257600080fd5b5061048b610e2b565b604051610498919061421f565b60405180910390f35b3480156104ad57600080fd5b506104b6610e30565b6040516104c39190613fe1565b60405180910390f35b3480156104d857600080fd5b506104e1610e5a565b6040516104ee919061421f565b60405180910390f35b34801561050357600080fd5b5061050c610e5f565b604051610519919061421f565b60405180910390f35b34801561052e57600080fd5b50610537610e64565b60405161054491906140de565b60405180910390f35b34801561055957600080fd5b50610574600480360381019061056f919061384a565b610e8a565b005b34801561058257600080fd5b5061058b61124d565b6040516105989190613fe1565b60405180910390f35b3480156105ad57600080fd5b506105b6611271565b6040516105c3919061408d565b60405180910390f35b6105e660048036038101906105e191906137fb565b611297565b005b3480156105f457600080fd5b5061060f600480360381019061060a9190613a92565b6113ce565b005b34801561061d57600080fd5b506106266116bb565b6040516106339190614263565b60405180910390f35b34801561064857600080fd5b50610663600480360381019061065e91906137d2565b6116d0565b005b61066d6118c5565b73ffffffffffffffffffffffffffffffffffffffff1661068b610e30565b73ffffffffffffffffffffffffffffffffffffffff1614610714576040517f08c379a00000000000000000000000000000000000000000000000000000000081526004018080602001828103825260208152602001807f4f776e61626c653a2063616c6c6572206973206e6f7420746865206f776e657281525060200191505060405180910390fd5b80600560146101000a81548162ffffff021916908362ffffff1602179055503373ffffffffffffffffffffffffffffffffffffffff167f60b90272866df655104677034305b0c7023abdc30f5e269f836d8dd8e4a597bb826040516107799190614263565b60405180910390a250565b60004711156107985761079733476118cd565b5b565b600160009054906101000a900473ffffffffffffffffffffffffffffffffffffffff1681565b6107c86118c5565b73ffffffffffffffffffffffffffffffffffffffff166107e6610e30565b73ffffffffffffffffffffffffffffffffffffffff161461086f576040517f08c379a00000000000000000000000000000000000000000000000000000000081526004018080602001828103825260208152602001807f4f776e61626c653a2063616c6c6572206973206e6f7420746865206f776e657281525060200191505060405180910390fd5b80600460008461ffff1661ffff16815260200190815260200160002060008201518160000160006101000a81548173ffffffffffffffffffffffffffffffffffffffff021916908373ffffffffffffffffffffffffffffffffffffffff16021790555060208201518160010160006101000a81548173ffffffffffffffffffffffffffffffffffffffff021916908373ffffffffffffffffffffffffffffffffffffffff16021790555060408201518160010160146101000a81548162ffffff021916908362ffffff16021790555060608201518160010160176101000a81548167ffffffffffffffff021916908367ffffffffffffffff160217905550905050806020015173ffffffffffffffffffffffffffffffffffffffff16816000015173ffffffffffffffffffffffffffffffffffffffff167fe36efa973a0f1ec46829d997f3c68ffcadaf826d5a9328ae39c0c57a281ae2908484604001516040516109db92919061423a565b60405180910390a35050565b600581565b600181565b600381565b60008054906101000a900473ffffffffffffffffffffffffffffffffffffffff1681565b60007f000000000000000000000000000000000000000000000000000000000000000073ffffffffffffffffffffffffffffffffffffffff166370a08231306040518263ffffffff1660e01b8152600401808273ffffffffffffffffffffffffffffffffffffffff16815260200191505060206040518083038186803b158015610aa357600080fd5b505afa158015610ab7573d6000803e3d6000fd5b505050506040513d6020811015610acd57600080fd5b8101908080519060200190929190505050905082811015610b56576040517f08c379a00000000000000000000000000000000000000000000000000000000081526004018080602001828103825260128152602001807f496e73756666696369656e74205745544839000000000000000000000000000081525060200191505060405180910390fd5b6000811115610bf5577f000000000000000000000000000000000000000000000000000000000000000073ffffffffffffffffffffffffffffffffffffffff16632e1a7d4d826040518263ffffffff1660e01b815260040180828152602001915050600060405180830381600087803b158015610bd257600080fd5b505af1158015610be6573d6000803e3d6000fd5b50505050610bf482826118cd565b5b505050565b60046020528060005260406000206000915090508060000160009054906101000a900473ffffffffffffffffffffffffffffffffffffffff16908060010160009054906101000a900473ffffffffffffffffffffffffffffffffffffffff16908060010160149054906101000a900462ffffff16908060010160179054906101000a900467ffffffffffffffff16905084565b7f000000000000000000000000000000000000000000000000000000000000000081565b600781565b600681565b610cc36118c5565b73ffffffffffffffffffffffffffffffffffffffff16610ce1610e30565b73ffffffffffffffffffffffffffffffffffffffff1614610d6a576040517f08c379a00000000000000000000000000000000000000000000000000000000081526004018080602001828103825260208152602001807f4f776e61626c653a2063616c6c6572206973206e6f7420746865206f776e657281525060200191505060405180910390fd5b600073ffffffffffffffffffffffffffffffffffffffff16600360009054906101000a900473ffffffffffffffffffffffffffffffffffffffff1673ffffffffffffffffffffffffffffffffffffffff167f8be0079c531659141344cd1fd0a4f28419497f9722a3daafe3b4186f6b6457e060405160405180910390a36000600360006101000a81548173ffffffffffffffffffffffffffffffffffffffff021916908373ffffffffffffffffffffffffffffffffffffffff160217905550565b600281565b6000600360009054906101000a900473ffffffffffffffffffffffffffffffffffffffff16905090565b600481565b600881565b600560009054906101000a900473ffffffffffffffffffffffffffffffffffffffff1681565b600060405180606001604052808a8a6000818110610ea457fe5b9050602002016020810190610eb991906137d2565b73ffffffffffffffffffffffffffffffffffffffff1681526020018a8a6001818110610ee157fe5b9050602002016020810190610ef691906137d2565b73ffffffffffffffffffffffffffffffffffffffff168152602001600560149054906101000a900462ffffff1662ffffff168152509050610f577f000000000000000000000000000000000000000000000000000000000000000082611a49565b600560006101000a81548173ffffffffffffffffffffffffffffffffffffffff021916908373ffffffffffffffffffffffffffffffffffffffff160217905550600073ffffffffffffffffffffffffffffffffffffffff16600560009054906101000a900473ffffffffffffffffffffffffffffffffffffffff1673ffffffffffffffffffffffffffffffffffffffff161415611029576040517f08c379a000000000000000000000000000000000000000000000000000000000815260040161102090614119565b60405180910390fd5b8484600081811061103657fe5b905060200201602081019061104b91906137d2565b73ffffffffffffffffffffffffffffffffffffffff168989600081811061106e57fe5b905060200201602081019061108391906137d2565b73ffffffffffffffffffffffffffffffffffffffff167f27a8dbde080481be7a4a40e47c18a132bd7edaf28aaaafa729d4d4593f822ce4898960008181106110c757fe5b90506020020135868660008181106110db57fe5b90506020020160208101906110f0919061399f565b6040516110fe929190614299565b60405180910390a3600560009054906101000a900473ffffffffffffffffffffffffffffffffffffffff1673ffffffffffffffffffffffffffffffffffffffff1663490e6cbc308989600081811061115257fe5b905060200201358a8a600181811061116657fe5b9050602002013560405180608001604052808d8d600081811061118557fe5b9050602002013581526020018d8d600181811061119e57fe5b9050602002013581526020013373ffffffffffffffffffffffffffffffffffffffff168152602001878152508a8a8a8a6040516020016111e29594939291906141d5565b6040516020818303038152906040526040518563ffffffff1660e01b81526004016112109493929190613ffc565b600060405180830381600087803b15801561122a57600080fd5b505af115801561123e573d6000803e3d6000fd5b50505050505050505050505050565b7f000000000000000000000000000000000000000000000000000000000000000081565b600260009054906101000a900473ffffffffffffffffffffffffffffffffffffffff1681565b60008373ffffffffffffffffffffffffffffffffffffffff166370a08231306040518263ffffffff1660e01b8152600401808273ffffffffffffffffffffffffffffffffffffffff16815260200191505060206040518083038186803b15801561130057600080fd5b505afa158015611314573d6000803e3d6000fd5b505050506040513d602081101561132a57600080fd5b81019080805190602001909291905050509050828110156113b3576040517f08c379a00000000000000000000000000000000000000000000000000000000081526004018080602001828103825260128152602001807f496e73756666696369656e7420746f6b656e000000000000000000000000000081525060200191505060405180910390fd5b60008111156113c8576113c7848383611ba4565b5b50505050565b600080600084848101906113e2919061391f565b9250925092506114167f00000000000000000000000000000000000000000000000000000000000000008460600151611da5565b5060008360000151148061142e575060008360200151145b61146d576040517f08c379a0000000000000000000000000000000000000000000000000000000008152600401611464906140f9565b60405180910390fd5b60008084600001511161148857836060015160200151611492565b8360600151600001515b90506000808560000151116114ab5784602001516114b1565b84600001515b90506000808660000151116114c657886114c8565b895b90506000866040015190508373ffffffffffffffffffffffffffffffffffffffff163373ffffffffffffffffffffffffffffffffffffffff167fe34b0e04ae052dd430a0a091513777d86e826ac191c765d4b2d220f5635e9aa985856040516115329291906142c2565b60405180910390a360006115493086868a8a611df1565b90508473ffffffffffffffffffffffffffffffffffffffff167fadeeeb0e210dd0c0566988a1165a67260d25475b265e25a51cf6dec9342a967b82604051611591919061427e565b60405180910390a260006115a58585611fb7565b90506000811115611622576115bc86303384611fd1565b8573ffffffffffffffffffffffffffffffffffffffff163373ffffffffffffffffffffffffffffffffffffffff167f108a8f2f13d6db03229ae1fb9d5dc799045c394a115f518f76d64b75abaade4383604051611619919061427e565b60405180910390a35b600061162e83836121dc565b905060008111156116ab5761164587308684611fd1565b8673ffffffffffffffffffffffffffffffffffffffff168473ffffffffffffffffffffffffffffffffffffffff167f58b534da795e18a747c883c055e0de342a000faea470ccdd0ea890e8f11e9d02836040516116a2919061427e565b60405180910390a35b5050505050505050505050505050565b600560149054906101000a900462ffffff1681565b6116d86118c5565b73ffffffffffffffffffffffffffffffffffffffff166116f6610e30565b73ffffffffffffffffffffffffffffffffffffffff161461177f576040517f08c379a00000000000000000000000000000000000000000000000000000000081526004018080602001828103825260208152602001807f4f776e61626c653a2063616c6c6572206973206e6f7420746865206f776e657281525060200191505060405180910390fd5b600073ffffffffffffffffffffffffffffffffffffffff168173ffffffffffffffffffffffffffffffffffffffff161415611805576040517f08c379a000000000000000000000000000000000000000000000000000000000815260040180806020018281038252602681526020018061460c6026913960400191505060405180910390fd5b8073ffffffffffffffffffffffffffffffffffffffff16600360009054906101000a900473ffffffffffffffffffffffffffffffffffffffff1673ffffffffffffffffffffffffffffffffffffffff167f8be0079c531659141344cd1fd0a4f28419497f9722a3daafe3b4186f6b6457e060405160405180910390a380600360006101000a81548173ffffffffffffffffffffffffffffffffffffffff021916908373ffffffffffffffffffffffffffffffffffffffff16021790555050565b600033905090565b60008273ffffffffffffffffffffffffffffffffffffffff1682600067ffffffffffffffff811180156118ff57600080fd5b506040519080825280601f01601f1916602001820160405280156119325781602001600182028036833780820191505090505b506040518082805190602001908083835b602083106119665780518252602082019150602081019050602083039250611943565b6001836020036101000a03801982511681845116808217855250505050505090500191505060006040518083038185875af1925050503d80600081146119c8576040519150601f19603f3d011682016040523d82523d6000602084013e6119cd565b606091505b5050905080611a44576040517f08c379a00000000000000000000000000000000000000000000000000000000081526004018080602001828103825260038152602001807f535445000000000000000000000000000000000000000000000000000000000081525060200191505060405180910390fd5b505050565b6000816020015173ffffffffffffffffffffffffffffffffffffffff16826000015173ffffffffffffffffffffffffffffffffffffffff1610611a8b57600080fd5b82826000015183602001518460400151604051602001808473ffffffffffffffffffffffffffffffffffffffff1681526020018373ffffffffffffffffffffffffffffffffffffffff1681526020018262ffffff1681526020019350505050604051602081830303815290604052805190602001207fe34f199b19b2b4f47f68442619d555527d244f78a3297ea89325f843f87b8b5460001b60405160200180807fff000000000000000000000000000000000000000000000000000000000000008152506001018473ffffffffffffffffffffffffffffffffffffffff1660601b815260140183815260200182815260200193505050506040516020818303038152906040528051906020012060001c905092915050565b6000808473ffffffffffffffffffffffffffffffffffffffff1663a9059cbb60e01b8585604051602401808373ffffffffffffffffffffffffffffffffffffffff16815260200182815260200192505050604051602081830303815290604052907bffffffffffffffffffffffffffffffffffffffffffffffffffffffff19166020820180517bffffffffffffffffffffffffffffffffffffffffffffffffffffffff83818316178352505050506040518082805190602001908083835b60208310611c855780518252602082019150602081019050602083039250611c62565b6001836020036101000a0380198251168184511680821785525050505050509050019150506000604051808303816000865af19150503d8060008114611ce7576040519150601f19603f3d011682016040523d82523d6000602084013e611cec565b606091505b5091509150818015611d2c5750600081511480611d2b5750808060200190516020811015611d1957600080fd5b81019080805190602001909291905050505b5b611d9e576040517f08c379a00000000000000000000000000000000000000000000000000000000081526004018080602001828103825260028152602001807f535400000000000000000000000000000000000000000000000000000000000081525060200191505060405180910390fd5b5050505050565b6000611db18383611a49565b90508073ffffffffffffffffffffffffffffffffffffffff163373ffffffffffffffffffffffffffffffffffffffff1614611deb57600080fd5b92915050565b6000808411611e35576040517f08c379a0000000000000000000000000000000000000000000000000000000008152600401611e2c90614139565b60405180910390fd5b8251825114611e79576040517f08c379a0000000000000000000000000000000000000000000000000000000008152600401611e7090614199565b60405180910390fd5b8473ffffffffffffffffffffffffffffffffffffffff1683600185510381518110611ea057fe5b602002602001015173ffffffffffffffffffffffffffffffffffffffff1614611efe576040517f08c379a0000000000000000000000000000000000000000000000000000000008152600401611ef590614179565b60405180910390fd5b611f3b86611f208786600081518110611f1357fe5b60200260200101516121f6565b8685600081518110611f2e57fe5b60200260200101516122de565b90506000600190505b8351811015611fad57611f9e87611f84866001850381518110611f6357fe5b6020026020010151878581518110611f7757fe5b60200260200101516121f6565b84868581518110611f9157fe5b60200260200101516122de565b91508080600101915050611f44565b5095945050505050565b6000828284019150811015611fcb57600080fd5b92915050565b7f000000000000000000000000000000000000000000000000000000000000000073ffffffffffffffffffffffffffffffffffffffff168473ffffffffffffffffffffffffffffffffffffffff1614801561202c5750804710155b15612184577f000000000000000000000000000000000000000000000000000000000000000073ffffffffffffffffffffffffffffffffffffffff1663d0e30db0826040518263ffffffff1660e01b81526004016000604051808303818588803b15801561209957600080fd5b505af11580156120ad573d6000803e3d6000fd5b50505050507f000000000000000000000000000000000000000000000000000000000000000073ffffffffffffffffffffffffffffffffffffffff1663a9059cbb83836040518363ffffffff1660e01b8152600401808373ffffffffffffffffffffffffffffffffffffffff16815260200182815260200192505050602060405180830381600087803b15801561214357600080fd5b505af1158015612157573d6000803e3d6000fd5b505050506040513d602081101561216d57600080fd5b8101908080519060200190929190505050506121d6565b3073ffffffffffffffffffffffffffffffffffffffff168373ffffffffffffffffffffffffffffffffffffffff1614156121c8576121c3848383611ba4565b6121d5565b6121d484848484612752565b5b5b50505050565b60008282840391508111156121f057600080fd5b92915050565b60606000600267ffffffffffffffff8111801561221257600080fd5b506040519080825280602002602001820160405280156122415781602001602082028036833780820191505090505b509050838160008151811061225257fe5b602002602001019073ffffffffffffffffffffffffffffffffffffffff16908173ffffffffffffffffffffffffffffffffffffffff1681525050828160018151811061229a57fe5b602002602001019073ffffffffffffffffffffffffffffffffffffffff16908173ffffffffffffffffffffffffffffffffffffffff16815250508091505092915050565b6000600161ffff168261ffff1614156123e657600460008361ffff1661ffff16815260200190815260200160002060000160009054906101000a900473ffffffffffffffffffffffffffffffffffffffff166000806101000a81548173ffffffffffffffffffffffffffffffffffffffff021916908373ffffffffffffffffffffffffffffffffffffffff1602179055506123df8585856000600460008861ffff1661ffff16815260200190815260200160002060010160149054906101000a900462ffffff16600460008961ffff1661ffff16815260200190815260200160002060010160179054906101000a900467ffffffffffffffff164201612972565b905061274a565b600261ffff168261ffff1614156124bf57600460008361ffff1661ffff16815260200190815260200160002060000160009054906101000a900473ffffffffffffffffffffffffffffffffffffffff16600160006101000a81548173ffffffffffffffffffffffffffffffffffffffff021916908373ffffffffffffffffffffffffffffffffffffffff1602179055506124b88585856000600460008861ffff1661ffff16815260200190815260200160002060010160179054906101000a900467ffffffffffffffff164201612bc6565b9050612749565b600361ffff168261ffff16141561259857600460008361ffff1661ffff16815260200190815260200160002060000160009054906101000a900473ffffffffffffffffffffffffffffffffffffffff16600160006101000a81548173ffffffffffffffffffffffffffffffffffffffff021916908373ffffffffffffffffffffffffffffffffffffffff1602179055506125918585856000600460008861ffff1661ffff16815260200190815260200160002060010160179054906101000a900467ffffffffffffffff164201612bc6565b9050612748565b600461ffff168261ffff16141561267157600460008361ffff1661ffff16815260200190815260200160002060000160009054906101000a900473ffffffffffffffffffffffffffffffffffffffff16600160006101000a81548173ffffffffffffffffffffffffffffffffffffffff021916908373ffffffffffffffffffffffffffffffffffffffff16021790555061266a8585856000600460008861ffff1661ffff16815260200190815260200160002060010160179054906101000a900467ffffffffffffffff164201612bc6565b9050612747565b600861ffff168261ffff16141561274657600460008361ffff1661ffff16815260200190815260200160002060000160009054906101000a900473ffffffffffffffffffffffffffffffffffffffff16600260006101000a81548173ffffffffffffffffffffffffffffffffffffffff021916908373ffffffffffffffffffffffffffffffffffffffff1602179055506127438585856000600460008861ffff1661ffff16815260200190815260200160002060010160179054906101000a900467ffffffffffffffff164201612ebe565b90505b5b5b5b5b949350505050565b6000808573ffffffffffffffffffffffffffffffffffffffff166323b872dd60e01b868686604051602401808473ffffffffffffffffffffffffffffffffffffffff1681526020018373ffffffffffffffffffffffffffffffffffffffff1681526020018281526020019350505050604051602081830303815290604052907bffffffffffffffffffffffffffffffffffffffffffffffffffffffff19166020820180517bffffffffffffffffffffffffffffffffffffffffffffffffffffffff83818316178352505050506040518082805190602001908083835b60208310612851578051825260208201915060208101905060208303925061282e565b6001836020036101000a0380198251168184511680821785525050505050509050019150506000604051808303816000865af19150503d80600081146128b3576040519150601f19603f3d011682016040523d82523d6000602084013e6128b8565b606091505b50915091508180156128f857506000815114806128f757508080602001905160208110156128e557600080fd5b81019080805190602001909291905050505b5b61296a576040517f08c379a00000000000000000000000000000000000000000000000000000000081526004018080602001828103825260038152602001807f535446000000000000000000000000000000000000000000000000000000000081525060200191505060405180910390fd5b505050505050565b60006129b38660008151811061298457fe5b602002602001015160008054906101000a900473ffffffffffffffffffffffffffffffffffffffff16876131b7565b60008054906101000a900473ffffffffffffffffffffffffffffffffffffffff1673ffffffffffffffffffffffffffffffffffffffff1663414bf38960405180610100016040528089600081518110612a0857fe5b602002602001015173ffffffffffffffffffffffffffffffffffffffff16815260200189600181518110612a3857fe5b602002602001015173ffffffffffffffffffffffffffffffffffffffff1681526020018662ffffff1681526020018a73ffffffffffffffffffffffffffffffffffffffff1681526020018567ffffffffffffffff168152602001888152602001878152602001600073ffffffffffffffffffffffffffffffffffffffff168152506040518263ffffffff1660e01b8152600401612ad591906141b9565b602060405180830381600087803b158015612aef57600080fd5b505af1158015612b03573d6000803e3d6000fd5b505050506040513d601f19601f82011682018060405250810190612b279190613a2d565b905060008111612b6c576040517f08c379a0000000000000000000000000000000000000000000000000000000008152600401612b6390614159565b60405180910390fd5b8673ffffffffffffffffffffffffffffffffffffffff167f2f7db10d9e424ce77a0061845a16d3b3e059bab8b01a40e50440082b9f53440e8683604051612bb49291906142c2565b60405180910390a29695505050505050565b6000612c0985600081518110612bd857fe5b6020026020010151600160009054906101000a900473ffffffffffffffffffffffffffffffffffffffff16866131b7565b600160009054906101000a900473ffffffffffffffffffffffffffffffffffffffff1673ffffffffffffffffffffffffffffffffffffffff166338ed17398585888a876040518663ffffffff1660e01b815260040180868152602001858152602001806020018473ffffffffffffffffffffffffffffffffffffffff1681526020018367ffffffffffffffff168152602001828103825285818151815260200191508051906020019060200280838360005b83811015612cd6578082015181840152602081019050612cbb565b505050509050019650505050505050600060405180830381600087803b158015612cff57600080fd5b505af1158015612d13573d6000803e3d6000fd5b505050506040513d6000823e3d601f19601f820116820180604052506020811015612d3d57600080fd5b8101908080516040519392919084640100000000821115612d5d57600080fd5b83820191506020820185811115612d7357600080fd5b8251866020820283011164010000000082111715612d9057600080fd5b8083526020830192505050908051906020019060200280838360005b83811015612dc7578082015181840152602081019050612dac565b50505050905001604052505050600181518110612de057fe5b6020026020010151905060008111612e60576040517f08c379a00000000000000000000000000000000000000000000000000000000081526004018080602001828103825260198152602001807f53776170206661696c6564206f6e20556e69737761705632210000000000000081525060200191505060405180910390fd5b8573ffffffffffffffffffffffffffffffffffffffff167e6ec893f76d098792a91544430044e42f2d16d5ae60e22346a2c5e5007cef5e8583604051808381526020018281526020019250505060405180910390a295945050505050565b6000612f0185600081518110612ed057fe5b6020026020010151600260009054906101000a900473ffffffffffffffffffffffffffffffffffffffff16866131b7565b600260009054906101000a900473ffffffffffffffffffffffffffffffffffffffff1673ffffffffffffffffffffffffffffffffffffffff166338ed17398585888a876040518663ffffffff1660e01b815260040180868152602001858152602001806020018473ffffffffffffffffffffffffffffffffffffffff1681526020018367ffffffffffffffff168152602001828103825285818151815260200191508051906020019060200280838360005b83811015612fce578082015181840152602081019050612fb3565b505050509050019650505050505050600060405180830381600087803b158015612ff757600080fd5b505af115801561300b573d6000803e3d6000fd5b505050506040513d6000823e3d601f19601f82011682018060405250602081101561303557600080fd5b810190808051604051939291908464010000000082111561305557600080fd5b8382019150602082018581111561306b57600080fd5b825186602082028301116401000000008211171561308857600080fd5b8083526020830192505050908051906020019060200280838360005b838110156130bf5780820151818401526020810190506130a4565b505050509050016040525050506001815181106130d857fe5b6020026020010151905060008111613158576040517f08c379a000000000000000000000000000000000000000000000000000000000815260040180806020018281038252601b8152602001807f53776170206661696c6564206f6e2050616e63616b657377617021000000000081525060200191505060405180910390fd5b8573ffffffffffffffffffffffffffffffffffffffff167f60ae8154795373429168354d0c690e29f0312b9022347fc86538667659bbb3a58583604051808381526020018281526020019250505060405180910390a295945050505050565b6000808473ffffffffffffffffffffffffffffffffffffffff1663095ea7b360e01b8585604051602401808373ffffffffffffffffffffffffffffffffffffffff16815260200182815260200192505050604051602081830303815290604052907bffffffffffffffffffffffffffffffffffffffffffffffffffffffff19166020820180517bffffffffffffffffffffffffffffffffffffffffffffffffffffffff83818316178352505050506040518082805190602001908083835b602083106132985780518252602082019150602081019050602083039250613275565b6001836020036101000a0380198251168184511680821785525050505050509050019150506000604051808303816000865af19150503d80600081146132fa576040519150601f19603f3d011682016040523d82523d6000602084013e6132ff565b606091505b509150915081801561333f575060008151148061333e575080806020019051602081101561332c57600080fd5b81019080805190602001909291905050505b5b6133b1576040517f08c379a00000000000000000000000000000000000000000000000000000000081526004018080602001828103825260028152602001807f534100000000000000000000000000000000000000000000000000000000000081525060200191505060405180910390fd5b5050505050565b60006133cb6133c68461431c565b6142eb565b905080838252602082019050828560208602820111156133ea57600080fd5b60005b8581101561341a57816134008882613490565b8452602084019350602083019250506001810190506133ed565b5050509392505050565b600061343761343284614348565b6142eb565b9050808382526020820190508285602086028201111561345657600080fd5b60005b85811015613486578161346c8882613769565b845260208401935060208301925050600181019050613459565b5050509392505050565b60008135905061349f81614598565b92915050565b60008083601f8401126134b757600080fd5b8235905067ffffffffffffffff8111156134d057600080fd5b6020830191508360208202830111156134e857600080fd5b9250929050565b600082601f83011261350057600080fd5b81356135108482602086016133b8565b91505092915050565b60008083601f84011261352b57600080fd5b8235905067ffffffffffffffff81111561354457600080fd5b60208301915083602082028301111561355c57600080fd5b9250929050565b600082601f83011261357457600080fd5b8135613584848260208601613424565b91505092915050565b60008083601f84011261359f57600080fd5b8235905067ffffffffffffffff8111156135b857600080fd5b6020830191508360208202830111156135d057600080fd5b9250929050565b60008083601f8401126135e957600080fd5b8235905067ffffffffffffffff81111561360257600080fd5b60208301915083600182028301111561361a57600080fd5b9250929050565b600060c0828403121561363357600080fd5b61363d60806142eb565b9050600061364d84828501613793565b600083015250602061366184828501613793565b602083015250604061367584828501613490565b604083015250606061368984828501613695565b60608301525092915050565b6000606082840312156136a757600080fd5b6136b160606142eb565b905060006136c184828501613490565b60008301525060206136d584828501613490565b60208301525060406136e98482850161377e565b60408301525092915050565b60006080828403121561370757600080fd5b61371160806142eb565b9050600061372184828501613490565b600083015250602061373584828501613490565b60208301525060406137498482850161377e565b604083015250606061375d848285016137bd565b60608301525092915050565b600081359050613778816145af565b92915050565b60008135905061378d816145c6565b92915050565b6000813590506137a2816145dd565b92915050565b6000815190506137b7816145dd565b92915050565b6000813590506137cc816145f4565b92915050565b6000602082840312156137e457600080fd5b60006137f284828501613490565b91505092915050565b60008060006060848603121561381057600080fd5b600061381e86828701613490565b935050602061382f86828701613793565b925050604061384086828701613490565b9150509250925092565b6000806000806000806000806080898b03121561386657600080fd5b600089013567ffffffffffffffff81111561388057600080fd5b61388c8b828c016134a5565b9850985050602089013567ffffffffffffffff8111156138ab57600080fd5b6138b78b828c0161358d565b9650965050604089013567ffffffffffffffff8111156138d657600080fd5b6138e28b828c016134a5565b9450945050606089013567ffffffffffffffff81111561390157600080fd5b61390d8b828c01613519565b92509250509295985092959890939650565b6000806000610100848603121561393557600080fd5b600061394386828701613621565b93505060c084013567ffffffffffffffff81111561396057600080fd5b61396c868287016134ef565b92505060e084013567ffffffffffffffff81111561398957600080fd5b61399586828701613563565b9150509250925092565b6000602082840312156139b157600080fd5b60006139bf84828501613769565b91505092915050565b60008060a083850312156139db57600080fd5b60006139e985828601613769565b92505060206139fa858286016136f5565b9150509250929050565b600060208284031215613a1657600080fd5b6000613a248482850161377e565b91505092915050565b600060208284031215613a3f57600080fd5b6000613a4d848285016137a8565b91505092915050565b60008060408385031215613a6957600080fd5b6000613a7785828601613793565b9250506020613a8885828601613490565b9150509250929050565b60008060008060608587031215613aa857600080fd5b6000613ab687828801613793565b9450506020613ac787828801613793565b935050604085013567ffffffffffffffff811115613ae457600080fd5b613af0878288016135d7565b925092505092959194509250565b6000613b0a8383613b3d565b60208301905092915050565b6000613b228383613f78565b60208301905092915050565b613b378161448c565b82525050565b613b468161441f565b82525050565b613b558161441f565b82525050565b6000613b6783856143ad565b9350613b7282614374565b8060005b85811015613bab57613b8882846143f1565b613b928882613afe565b9750613b9d83614393565b925050600181019050613b76565b5085925050509392505050565b6000613bc483856143be565b9350613bcf8261437e565b8060005b85811015613c0857613be58284614408565b613bef8882613b16565b9750613bfa836143a0565b925050600181019050613bd3565b5085925050509392505050565b6000613c2082614388565b613c2a81856143cf565b9350613c3a818560208601614552565b613c4381614587565b840191505092915050565b613c578161449e565b82525050565b613c66816144c2565b82525050565b613c75816144e6565b82525050565b613c848161450a565b82525050565b6000613c976018836143e0565b91507f6f6e65206f6620616d6f756e7473206d757374206265203000000000000000006000830152602082019050919050565b6000613cd76013836143e0565b91507f496e76616c696420666c61736820706f6f6c21000000000000000000000000006000830152602082019050919050565b6000613d176012836143e0565b91507f6c6f616e656420616d6f756e74206973203000000000000000000000000000006000830152602082019050919050565b6000613d576019836143e0565b91507f53776170206661696c6564206f6e20556e6973776170563321000000000000006000830152602082019050919050565b6000613d97602f836143e0565b91507f656e6420747261646520617373657374206d75737420626520657175616c207460008301527f6f206c6f616e65642061737365737400000000000000000000000000000000006020830152604082019050919050565b6000613dfd6014836143e0565b91507f496e76616c696420747261646520706172616d730000000000000000000000006000830152602082019050919050565b61010082016000820151613e476000850182613b3d565b506020820151613e5a6020850182613b3d565b506040820151613e6d6040850182613f96565b506060820151613e806060850182613b3d565b506080820151613e936080850182613fb4565b5060a0820151613ea660a0850182613fb4565b5060c0820151613eb960c0850182613fb4565b5060e0820151613ecc60e0850182613f69565b50505050565b60c082016000820151613ee86000850182613fb4565b506020820151613efb6020850182613fb4565b506040820151613f0e6040850182613b3d565b506060820151613f216060850182613f27565b50505050565b606082016000820151613f3d6000850182613b3d565b506020820151613f506020850182613b3d565b506040820151613f636040850182613f96565b50505050565b613f728161443f565b82525050565b613f8181614431565b82525050565b613f9081614431565b82525050565b613f9f8161445f565b82525050565b613fae8161445f565b82525050565b613fbd8161446e565b82525050565b613fcc8161446e565b82525050565b613fdb81614478565b82525050565b6000602082019050613ff66000830184613b4c565b92915050565b60006080820190506140116000830187613b2e565b61401e6020830186613fc3565b61402b6040830185613fc3565b818103606083015261403d8184613c15565b905095945050505050565b600060808201905061405d6000830187613b4c565b61406a6020830186613b4c565b6140776040830185613fa5565b6140846060830184613fd2565b95945050505050565b60006020820190506140a26000830184613c4e565b92915050565b60006020820190506140bd6000830184613c5d565b92915050565b60006020820190506140d86000830184613c6c565b92915050565b60006020820190506140f36000830184613c7b565b92915050565b6000602082019050818103600083015261411281613c8a565b9050919050565b6000602082019050818103600083015261413281613cca565b9050919050565b6000602082019050818103600083015261415281613d0a565b9050919050565b6000602082019050818103600083015261417281613d4a565b9050919050565b6000602082019050818103600083015261419281613d8a565b9050919050565b600060208201905081810360008301526141b281613df0565b9050919050565b6000610100820190506141cf6000830184613e30565b92915050565b6000610100820190506141eb6000830188613ed2565b81810360c08301526141fe818688613b5b565b905081810360e0830152614213818486613bb8565b90509695505050505050565b60006020820190506142346000830184613f87565b92915050565b600060408201905061424f6000830185613f87565b61425c6020830184613fa5565b9392505050565b60006020820190506142786000830184613fa5565b92915050565b60006020820190506142936000830184613fc3565b92915050565b60006040820190506142ae6000830185613fc3565b6142bb6020830184613f87565b9392505050565b60006040820190506142d76000830185613fc3565b6142e46020830184613fc3565b9392505050565b6000604051905081810181811067ffffffffffffffff8211171561431257614311614585565b5b8060405250919050565b600067ffffffffffffffff82111561433757614336614585565b5b602082029050602081019050919050565b600067ffffffffffffffff82111561436357614362614585565b5b602082029050602081019050919050565b6000819050919050565b6000819050919050565b600081519050919050565b6000602082019050919050565b6000602082019050919050565b600082825260208201905092915050565b600082825260208201905092915050565b600082825260208201905092915050565b600082825260208201905092915050565b60006144006020840184613490565b905092915050565b60006144176020840184613769565b905092915050565b600061442a8261443f565b9050919050565b600061ffff82169050919050565b600073ffffffffffffffffffffffffffffffffffffffff82169050919050565b600062ffffff82169050919050565b6000819050919050565b600067ffffffffffffffff82169050919050565b60006144978261452e565b9050919050565b60006144a9826144b0565b9050919050565b60006144bb8261443f565b9050919050565b60006144cd826144d4565b9050919050565b60006144df8261443f565b9050919050565b60006144f1826144f8565b9050919050565b60006145038261443f565b9050919050565b60006145158261451c565b9050919050565b60006145278261443f565b9050919050565b600061453982614540565b9050919050565b600061454b8261443f565b9050919050565b60005b83811015614570578082015181840152602081019050614555565b8381111561457f576000848401525b50505050565bfe5b6000601f19601f8301169050919050565b6145a18161441f565b81146145ac57600080fd5b50565b6145b881614431565b81146145c357600080fd5b50565b6145cf8161445f565b81146145da57600080fd5b50565b6145e68161446e565b81146145f157600080fd5b50565b6145fd81614478565b811461460857600080fd5b5056fe4f776e61626c653a206e6577206f776e657220697320746865207a65726f2061646472657373a2646970667358221220ca9f9c400f1b80a7173afa2ac05c89dee4ff7ed272930c61aeed918b0271625664736f6c63430007060033",
  "immutableReferences": {
    "1782": [
      {
        "length": 32,
        "start": 3890
      },
      {
        "length": 32,
        "start": 4687
      },
      {
        "length": 32,
        "start": 5101
      }
    ],
    "1786": [
      {
        "length": 32,
        "start": 396
      },
      {
        "length": 32,
        "start": 2590
      },
      {
        "length": 32,
        "start": 2913
      },
      {
        "length": 32,
        "start": 3215
      },
      {
        "length": 32,
        "start": 8147
      },
      {
        "length": 32,
        "start": 8243
      },
      {
        "length": 32,
        "start": 8372
      }
    ]
  },
  "source": "// SPDX-License-Identifier: GPL-2.0-or-later\npragma solidity >=0.7.6;\npragma abicoder v2;\n\nimport \"@uniswap/v3-core/contracts/interfaces/callback/IUniswapV3FlashCallback.sol\";\nimport \"@uniswap/v3-core/contracts/interfaces/IUniswapV3Factory.sol\";\nimport \"@uniswap/v3-core/contracts/libraries/LowGasSafeMath.sol\";\nimport \"@uniswap/v2-periphery/contracts/interfaces/IUniswapV2Router02.sol\";\nimport \"@uniswap/v3-periphery/contracts/base/PeripheryPayments.sol\";\nimport \"@uniswap/v3-periphery/contracts/base/PeripheryImmutableState.sol\";\nimport \"@uniswap/v3-periphery/contracts/libraries/PoolAddress.sol\";\nimport \"@uniswap/v3-periphery/contracts/libraries/CallbackValidation.sol\";\nimport \"@uniswap/v3-periphery/contracts/interfaces/ISwapRouter.sol\";\nimport \"@openzeppelin/contracts/token/ERC20/IERC20.sol\";\nimport \"./utils/Helpers.sol\";\nimport \"./utils/SwapAssets.sol\";\n\n/// @title Flash contract implementation\n/// @notice An example contract using the Uniswap V3 flash function\ncontract UniswapFlash is \n    IUniswapV3FlashCallback,\n    PeripheryImmutableState,\n    PeripheryPayments,\n    SwapAssets {\n    \n\n    // fee2 and fee3 are the two other fees associated with the two other pools of token0 and token1\n    struct FlashCallbackData {\n        uint256 amount0;\n        uint256 amount1;\n        address payer;\n        PoolAddress.PoolKey poolKey;\n        // uint24 poolFee2;\n        // uint24 poolFee3;\n    }\n\n    using LowGasSafeMath for uint256;\n    IUniswapV3Pool public flashPool;\n    uint24 public flashPoolFee;  //  flash from the 0.05% fee of pool\n\n    event FalshloanInited(\n        address indexed _loanAsset,\n        uint256 _loanAmount,\n        address indexed _tradeAsset,\n        uint16 _tradeDex\n    );\n    event AssetBorrowedFromPool(\n        address indexed _pool,\n        address indexed _loanAsset,\n        uint256 _loanAmount,\n        uint256 _fee\n    );\n    event AssetSwaped(\n        address indexed _swapAsset,\n        uint256 _swapAmount\n    );\n    event RepayedAssetToPool(\n        address indexed _pool,\n        address indexed _repayedAsset,\n        uint256 _repayedAmount\n    );\n    event TransferProfitToWallet(\n        address indexed _owner,\n        address indexed _profitAsset,\n        uint256 _profitAmount\n    );\n    event ChangedFlashPoolFee(address indexed _sender, uint24 _fee);\n    constructor(\n        address _factory,\n        address _WETH9\n    ) PeripheryImmutableState(_factory, _WETH9) {\n     \n    }\n\n    /// @param loanAssets array of assets pair to loan. for example [token0, token1].\n    /// @param loanAmounts array of assets amounts to loan. for example [amount0, amount1].\n    ///         one of two amounts must be 0\n    /// @param tradeAssets array of assets to trade. end asset must be equal to loaned assest\n    /// @param tradeDexs array of dexes to trade.\n    /// @notice Calls the pools flash function with data needed in `uniswapV3FlashCallback`\n    function initUniFlashSwap(\n        address[] calldata loanAssets,\n        uint256[] calldata loanAmounts,\n        address[] calldata tradeAssets,\n        uint16[] calldata tradeDexs\n    ) external {\n        PoolAddress.PoolKey memory poolKey = PoolAddress.PoolKey(\n            {\n                token0: loanAssets[0],\n                token1: loanAssets[1],\n                fee: flashPoolFee\n            }\n        );\n        flashPool = IUniswapV3Pool(PoolAddress.computeAddress(factory, poolKey));\n        require(address(flashPool) != address(0), \"Invalid flash pool!\");\n        emit FalshloanInited(loanAssets[0], loanAmounts[0], tradeAssets[0], tradeDexs[0]);\n\n        // recipient of borrowed amounts (should be (this) contract)\n        // amount of token0 requested to borrow\n        // amount of token1 requested to borrow\n        // need amount 0 and amount1 in callback to pay back pool\n        // recipient of flash should be THIS contract\n        flashPool.flash(\n            address(this),\n            loanAmounts[0],\n            loanAmounts[1],\n            abi.encode(\n                FlashCallbackData({\n                    amount0: loanAmounts[0],\n                    amount1: loanAmounts[1],\n                    payer: msg.sender,\n                    poolKey: poolKey\n                    // poolFee2: params.fee2,\n                    // poolFee3: params.fee3\n                }),\n                tradeAssets,\n                tradeDexs\n            )\n        );\n    }\n\n    /// @param fee0 The fee from calling flash for token0\n    /// @param fee1 The fee from calling flash for token1\n    /// @param data The data needed in the callback passed as FlashCallbackData from `initUniFlashSwap`\n    /// @notice implements the callback called from flash\n    /// @dev fails if the flash is not profitable, meaning the amountOut from the flash is less than the amount borrowed\n    function uniswapV3FlashCallback(\n        uint256 fee0,\n        uint256 fee1,\n        bytes calldata data\n    ) external override {\n       \n        (\n            FlashCallbackData memory decoded,\n            address[] memory tradeAssets,\n            uint16[] memory tradeDexs\n        ) = abi.decode(data, (FlashCallbackData, address[], uint16[]));\n        CallbackValidation.verifyCallback(factory, decoded.poolKey);\n        require(\n            decoded.amount0 == 0 ||  decoded.amount1 == 0,\n            \"one of amounts must be 0\"\n        );\n        address loanAsset = decoded.amount0 > 0 ? decoded.poolKey.token0: decoded.poolKey.token1;\n        uint256 loanAmount = decoded.amount0 > 0 ? decoded.amount0: decoded.amount1;\n        uint256 fee = decoded.amount0 > 0 ? fee0 : fee1;\n        address payer = decoded.payer;\n        emit AssetBorrowedFromPool(msg.sender, loanAsset, loanAmount, fee);\n        // start trade\n        uint256 amountOut = tradeExecute(\n            address(this),\n            loanAsset,\n            loanAmount,\n            tradeAssets,\n            tradeDexs\n        );\n        emit AssetSwaped(loanAsset, amountOut);\n\n        // compute amount to pay back to pool \n        // loanAmount + fee\n        uint256 amountOwed = LowGasSafeMath.add(loanAmount, fee);\n        \n        // pay back pool the loan \n        // note: msg.sender == pool to pay back \n        if (amountOwed > 0) {\n            pay(loanAsset, address(this), msg.sender, amountOwed);\n            emit RepayedAssetToPool(msg.sender, loanAsset, amountOwed);\n        }\n        uint256 profit = LowGasSafeMath.sub(amountOut, amountOwed);\n        // if profitable pay profits to payer\n        if (profit > 0) {\n            pay(loanAsset, address(this), payer, profit);\n            emit TransferProfitToWallet(payer, loanAsset, profit);\n        }\n    }\n    function setFlashPoolFee(uint24 poolFee) public onlyOwner() {\n        flashPoolFee = poolFee;\n        emit ChangedFlashPoolFee(msg.sender, poolFee);\n    }\n    fallback() external payable {}\n}\n",
  "sourcePath": "/Users/silvan/Documents/GitHub/flashloancontract/contracts/UniswapFlash.sol",
  "compiler": {
    "name": "solc",
    "version": "0.7.6+commit.7338295f.Emscripten.clang"
  },
  "schemaVersion": "3.4.7",
  "updatedAt": "2022-06-17T21:48:05.607Z",
  "networkType": "ethereum",
  "devdoc": {
    "kind": "dev",
    "methods": {
      "initUniFlashSwap(address[],uint256[],address[],uint16[])": {
        "params": {
          "loanAmounts": "array of assets amounts to loan. for example [amount0, amount1].         one of two amounts must be 0",
          "loanAssets": "array of assets pair to loan. for example [token0, token1].",
          "tradeAssets": "array of assets to trade. end asset must be equal to loaned assest",
          "tradeDexs": "array of dexes to trade."
        }
      },
      "owner()": {
        "details": "Returns the address of the current owner."
      },
      "refundETH()": {
        "details": "Useful for bundling with mint or increase liquidity that uses ether, or exact output swaps that use ether for the input amount"
      },
      "renounceOwnership()": {
        "details": "Leaves the contract without owner. It will not be possible to call `onlyOwner` functions anymore. Can only be called by the current owner. NOTE: Renouncing ownership will leave the contract without an owner, thereby removing any functionality that is only available to the owner."
      },
      "sweepToken(address,uint256,address)": {
        "details": "The amountMinimum parameter prevents malicious contracts from stealing the token from users",
        "params": {
          "amountMinimum": "The minimum amount of token required for a transfer",
          "recipient": "The destination address of the token",
          "token": "The contract address of the token which will be transferred to `recipient`"
        }
      },
      "transferOwnership(address)": {
        "details": "Transfers ownership of the contract to a new account (`newOwner`). Can only be called by the current owner."
      },
      "uniswapV3FlashCallback(uint256,uint256,bytes)": {
        "details": "fails if the flash is not profitable, meaning the amountOut from the flash is less than the amount borrowed",
        "params": {
          "data": "The data needed in the callback passed as FlashCallbackData from `initUniFlashSwap`",
          "fee0": "The fee from calling flash for token0",
          "fee1": "The fee from calling flash for token1"
        }
      },
      "unwrapWETH9(uint256,address)": {
        "details": "The amountMinimum parameter prevents malicious contracts from stealing WETH9 from users.",
        "params": {
          "amountMinimum": "The minimum amount of WETH9 to unwrap",
          "recipient": "The address receiving ETH"
        }
      }
    },
    "title": "Flash contract implementation",
    "version": 1
  },
  "userdoc": {
    "kind": "user",
    "methods": {
      "initUniFlashSwap(address[],uint256[],address[],uint16[])": {
        "notice": "Calls the pools flash function with data needed in `uniswapV3FlashCallback`"
      },
      "refundETH()": {
        "notice": "Refunds any ETH balance held by this contract to the `msg.sender`"
      },
      "sweepToken(address,uint256,address)": {
        "notice": "Transfers the full amount of a token held by this contract to recipient"
      },
      "uniswapV3FlashCallback(uint256,uint256,bytes)": {
        "notice": "implements the callback called from flash"
      },
      "unwrapWETH9(uint256,address)": {
        "notice": "Unwraps the contract's WETH9 balance and sends it to recipient as ETH."
      }
    },
    "notice": "An example contract using the Uniswap V3 flash function",
    "version": 1
  }
}