{
  "contractName": "UniswapFlash1Inch",
  "abi": [
    {
      "inputs": [
        {
          "internalType": "address",
          "name": "_factory",
          "type": "address"
        },
        {
          "internalType": "address",
          "name": "_WETH9",
          "type": "address"
        }
      ],
      "stateMutability": "nonpayable",
      "type": "constructor"
    },
    {
      "anonymous": false,
      "inputs": [
        {
          "indexed": true,
          "internalType": "address",
          "name": "previousOwner",
          "type": "address"
        },
        {
          "indexed": true,
          "internalType": "address",
          "name": "newOwner",
          "type": "address"
        }
      ],
      "name": "OwnershipTransferred",
      "type": "event"
    },
    {
      "stateMutability": "payable",
      "type": "fallback",
      "payable": true
    },
    {
      "inputs": [],
      "name": "WETH9",
      "outputs": [
        {
          "internalType": "address",
          "name": "",
          "type": "address"
        }
      ],
      "stateMutability": "view",
      "type": "function",
      "constant": true
    },
    {
      "inputs": [],
      "name": "factory",
      "outputs": [
        {
          "internalType": "address",
          "name": "",
          "type": "address"
        }
      ],
      "stateMutability": "view",
      "type": "function",
      "constant": true
    },
    {
      "inputs": [],
      "name": "flashPool",
      "outputs": [
        {
          "internalType": "contract IUniswapV3Pool",
          "name": "",
          "type": "address"
        }
      ],
      "stateMutability": "view",
      "type": "function",
      "constant": true
    },
    {
      "inputs": [],
      "name": "flashPoolFee",
      "outputs": [
        {
          "internalType": "uint24",
          "name": "",
          "type": "uint24"
        }
      ],
      "stateMutability": "view",
      "type": "function",
      "constant": true
    },
    {
      "inputs": [],
      "name": "owner",
      "outputs": [
        {
          "internalType": "address",
          "name": "",
          "type": "address"
        }
      ],
      "stateMutability": "view",
      "type": "function",
      "constant": true
    },
    {
      "inputs": [],
      "name": "refundETH",
      "outputs": [],
      "stateMutability": "payable",
      "type": "function",
      "payable": true
    },
    {
      "inputs": [],
      "name": "renounceOwnership",
      "outputs": [],
      "stateMutability": "nonpayable",
      "type": "function"
    },
    {
      "inputs": [
        {
          "internalType": "address",
          "name": "token",
          "type": "address"
        },
        {
          "internalType": "uint256",
          "name": "amountMinimum",
          "type": "uint256"
        },
        {
          "internalType": "address",
          "name": "recipient",
          "type": "address"
        }
      ],
      "name": "sweepToken",
      "outputs": [],
      "stateMutability": "payable",
      "type": "function",
      "payable": true
    },
    {
      "inputs": [
        {
          "internalType": "address",
          "name": "newOwner",
          "type": "address"
        }
      ],
      "name": "transferOwnership",
      "outputs": [],
      "stateMutability": "nonpayable",
      "type": "function"
    },
    {
      "inputs": [
        {
          "internalType": "uint256",
          "name": "amountMinimum",
          "type": "uint256"
        },
        {
          "internalType": "address",
          "name": "recipient",
          "type": "address"
        }
      ],
      "name": "unwrapWETH9",
      "outputs": [],
      "stateMutability": "payable",
      "type": "function",
      "payable": true
    },
    {
      "stateMutability": "payable",
      "type": "receive",
      "payable": true
    },
    {
      "inputs": [
        {
          "internalType": "address[]",
          "name": "loanAssets",
          "type": "address[]"
        },
        {
          "internalType": "uint256[]",
          "name": "loanAmounts",
          "type": "uint256[]"
        },
        {
          "internalType": "address[]",
          "name": "tokenPath",
          "type": "address[]"
        },
        {
          "internalType": "address[]",
          "name": "oneInchRouters",
          "type": "address[]"
        },
        {
          "internalType": "bytes[]",
          "name": "tradeDatas",
          "type": "bytes[]"
        }
      ],
      "name": "initUniFlashSwap",
      "outputs": [],
      "stateMutability": "nonpayable",
      "type": "function"
    },
    {
      "inputs": [
        {
          "internalType": "uint256",
          "name": "fee0",
          "type": "uint256"
        },
        {
          "internalType": "uint256",
          "name": "fee1",
          "type": "uint256"
        },
        {
          "internalType": "bytes",
          "name": "data",
          "type": "bytes"
        }
      ],
      "name": "uniswapV3FlashCallback",
      "outputs": [],
      "stateMutability": "nonpayable",
      "type": "function"
    },
    {
      "inputs": [
        {
          "internalType": "uint24",
          "name": "poolFee",
          "type": "uint24"
        }
      ],
      "name": "setFlashPoolFee",
      "outputs": [],
      "stateMutability": "nonpayable",
      "type": "function"
    }
  ],
  "bytecode": "0x60c06040523480156200001157600080fd5b50604051620030ac380380620030ac833981810160405281019062000037919062000189565b81818173ffffffffffffffffffffffffffffffffffffffff1660808173ffffffffffffffffffffffffffffffffffffffff1660601b815250508073ffffffffffffffffffffffffffffffffffffffff1660a08173ffffffffffffffffffffffffffffffffffffffff1660601b81525050505060016000819055506000620000c36200016a60201b60201c565b905080600160006101000a81548173ffffffffffffffffffffffffffffffffffffffff021916908373ffffffffffffffffffffffffffffffffffffffff1602179055508073ffffffffffffffffffffffffffffffffffffffff16600073ffffffffffffffffffffffffffffffffffffffff167f8be0079c531659141344cd1fd0a4f28419497f9722a3daafe3b4186f6b6457e060405160405180910390a350505062000218565b600033905090565b6000815190506200018381620001fe565b92915050565b600080604083850312156200019d57600080fd5b6000620001ad8582860162000172565b9250506020620001c08582860162000172565b9150509250929050565b6000620001d782620001de565b9050919050565b600073ffffffffffffffffffffffffffffffffffffffff82169050919050565b6200020981620001ca565b81146200021557600080fd5b50565b60805160601c60a05160601c612e43620002696000398060cd52806107c4528061090752806109a25280611a545280611ab45280611b355250806105745280610b865280610d915250612e436000f3fe6080604052600436106100c65760003560e01c80638da5cb5b1161007f578063df2ab5bb11610059578063df2ab5bb146102cb578063e9cbafb0146102e7578063ea3b443114610310578063f2fde38b1461033b5761018e565b80638da5cb5b1461024a578063aa7f0ceb14610275578063c45a0155146102a05761018e565b80630deed49d1461019057806312210e8a146101b9578063139c7f8f146101c357806349404b7c146101ec5780634aa4a4fc14610208578063715018a6146102335761018e565b3661018e577f000000000000000000000000000000000000000000000000000000000000000073ffffffffffffffffffffffffffffffffffffffff163373ffffffffffffffffffffffffffffffffffffffff161461018c576040517f08c379a00000000000000000000000000000000000000000000000000000000081526004018080602001828103825260098152602001807f4e6f74205745544839000000000000000000000000000000000000000000000081525060200191505060405180910390fd5b005b005b34801561019c57600080fd5b506101b760048036038101906101b29190612496565b610364565b005b6101c1610435565b005b3480156101cf57600080fd5b506101ea60048036038101906101e591906122e4565b61044b565b005b610206600480360381019061020191906124e8565b6107c0565b005b34801561021457600080fd5b5061021d6109a0565b60405161022a919061294e565b60405180910390f35b34801561023f57600080fd5b506102486109c4565b005b34801561025657600080fd5b5061025f610b34565b60405161026c919061294e565b60405180910390f35b34801561028157600080fd5b5061028a610b5e565b60405161029791906129d0565b60405180910390f35b3480156102ac57600080fd5b506102b5610b84565b6040516102c2919061294e565b60405180910390f35b6102e560048036038101906102e09190612295565b610ba8565b005b3480156102f357600080fd5b5061030e60048036038101906103099190612524565b610cdf565b005b34801561031c57600080fd5b50610325611101565b6040516103329190612acd565b60405180910390f35b34801561034757600080fd5b50610362600480360381019061035d919061226c565b611116565b005b61036c61130b565b73ffffffffffffffffffffffffffffffffffffffff1661038a610b34565b73ffffffffffffffffffffffffffffffffffffffff1614610413576040517f08c379a00000000000000000000000000000000000000000000000000000000081526004018080602001828103825260208152602001807f4f776e61626c653a2063616c6c6572206973206e6f7420746865206f776e657281525060200191505060405180910390fd5b80600260146101000a81548162ffffff021916908362ffffff16021790555050565b6000471115610449576104483347611313565b5b565b600260005414156104c4576040517f08c379a000000000000000000000000000000000000000000000000000000000815260040180806020018281038252601f8152602001807f5265656e7472616e637947756172643a207265656e7472616e742063616c6c0081525060200191505060405180910390fd5b6002600081905550600060405180606001604052808c8c60008181106104e657fe5b90506020020160208101906104fb919061226c565b73ffffffffffffffffffffffffffffffffffffffff1681526020018c8c600181811061052357fe5b9050602002016020810190610538919061226c565b73ffffffffffffffffffffffffffffffffffffffff168152602001600260149054906101000a900462ffffff1662ffffff1681525090506105997f00000000000000000000000000000000000000000000000000000000000000008261148f565b600260006101000a81548173ffffffffffffffffffffffffffffffffffffffff021916908373ffffffffffffffffffffffffffffffffffffffff160217905550600073ffffffffffffffffffffffffffffffffffffffff16600260009054906101000a900473ffffffffffffffffffffffffffffffffffffffff1673ffffffffffffffffffffffffffffffffffffffff16141561066b576040517f08c379a000000000000000000000000000000000000000000000000000000000815260040161066290612a0b565b60405180910390fd5b600260009054906101000a900473ffffffffffffffffffffffffffffffffffffffff1673ffffffffffffffffffffffffffffffffffffffff1663490e6cbc308b8b60008181106106b757fe5b905060200201358c8c60018181106106cb57fe5b9050602002013560405180608001604052808f8f60008181106106ea57fe5b9050602002013581526020018f8f600181811061070357fe5b9050602002013581526020013373ffffffffffffffffffffffffffffffffffffffff168152602001878152508c8c8c8c8c8c60405160200161074b9796959493929190612a6b565b6040516020818303038152906040526040518563ffffffff1660e01b81526004016107799493929190612984565b600060405180830381600087803b15801561079357600080fd5b505af11580156107a7573d6000803e3d6000fd5b5050505050600160008190555050505050505050505050565b60007f000000000000000000000000000000000000000000000000000000000000000073ffffffffffffffffffffffffffffffffffffffff166370a08231306040518263ffffffff1660e01b8152600401808273ffffffffffffffffffffffffffffffffffffffff16815260200191505060206040518083038186803b15801561084957600080fd5b505afa15801561085d573d6000803e3d6000fd5b505050506040513d602081101561087357600080fd5b81019080805190602001909291905050509050828110156108fc576040517f08c379a00000000000000000000000000000000000000000000000000000000081526004018080602001828103825260128152602001807f496e73756666696369656e74205745544839000000000000000000000000000081525060200191505060405180910390fd5b600081111561099b577f000000000000000000000000000000000000000000000000000000000000000073ffffffffffffffffffffffffffffffffffffffff16632e1a7d4d826040518263ffffffff1660e01b815260040180828152602001915050600060405180830381600087803b15801561097857600080fd5b505af115801561098c573d6000803e3d6000fd5b5050505061099a8282611313565b5b505050565b7f000000000000000000000000000000000000000000000000000000000000000081565b6109cc61130b565b73ffffffffffffffffffffffffffffffffffffffff166109ea610b34565b73ffffffffffffffffffffffffffffffffffffffff1614610a73576040517f08c379a00000000000000000000000000000000000000000000000000000000081526004018080602001828103825260208152602001807f4f776e61626c653a2063616c6c6572206973206e6f7420746865206f776e657281525060200191505060405180910390fd5b600073ffffffffffffffffffffffffffffffffffffffff16600160009054906101000a900473ffffffffffffffffffffffffffffffffffffffff1673ffffffffffffffffffffffffffffffffffffffff167f8be0079c531659141344cd1fd0a4f28419497f9722a3daafe3b4186f6b6457e060405160405180910390a36000600160006101000a81548173ffffffffffffffffffffffffffffffffffffffff021916908373ffffffffffffffffffffffffffffffffffffffff160217905550565b6000600160009054906101000a900473ffffffffffffffffffffffffffffffffffffffff16905090565b600260009054906101000a900473ffffffffffffffffffffffffffffffffffffffff1681565b7f000000000000000000000000000000000000000000000000000000000000000081565b60008373ffffffffffffffffffffffffffffffffffffffff166370a08231306040518263ffffffff1660e01b8152600401808273ffffffffffffffffffffffffffffffffffffffff16815260200191505060206040518083038186803b158015610c1157600080fd5b505afa158015610c25573d6000803e3d6000fd5b505050506040513d6020811015610c3b57600080fd5b8101908080519060200190929190505050905082811015610cc4576040517f08c379a00000000000000000000000000000000000000000000000000000000081526004018080602001828103825260128152602001807f496e73756666696369656e7420746f6b656e000000000000000000000000000081525060200191505060405180910390fd5b6000811115610cd957610cd88483836115ea565b5b50505050565b600260009054906101000a900473ffffffffffffffffffffffffffffffffffffffff1673ffffffffffffffffffffffffffffffffffffffff163373ffffffffffffffffffffffffffffffffffffffff1614610d6f576040517f08c379a0000000000000000000000000000000000000000000000000000000008152600401610d6690612a2b565b60405180910390fd5b6000806000808585810190610d8491906123e9565b9350935093509350610dba7f000000000000000000000000000000000000000000000000000000000000000085606001516117eb565b50600084600001511480610dd2575060008460200151145b610e11576040517f08c379a0000000000000000000000000000000000000000000000000000000008152600401610e08906129eb565b60405180910390fd5b600080856000015111610e2c57846060015160200151610e36565b8460600151600001515b9050600080866000015111610e4f578560200151610e55565b85600001515b9050600080876000015111610e6a5789610e6c565b8a5b905060008760400151905060005b875181101561101c576000878281518110610e9157fe5b602002602001015190506000898381518110610ea957fe5b6020026020010151905060008173ffffffffffffffffffffffffffffffffffffffff166370a08231306040518263ffffffff1660e01b8152600401610eee9190612969565b60206040518083038186803b158015610f0657600080fd5b505afa158015610f1a573d6000803e3d6000fd5b505050506040513d601f19601f82011682018060405250810190610f3e91906124bf565b9050610f4b828483611837565b60008373ffffffffffffffffffffffffffffffffffffffff168a8681518110610f7057fe5b6020026020010151604051610f859190612937565b6000604051808303816000865af19150503d8060008114610fc2576040519150601f19603f3d011682016040523d82523d6000602084013e610fc7565b606091505b505090508061100b576040517f08c379a000000000000000000000000000000000000000000000000000000000815260040161100290612a4b565b60405180910390fd5b505050508080600101915050610e7a565b5060008473ffffffffffffffffffffffffffffffffffffffff166370a08231306040518263ffffffff1660e01b81526004016110589190612969565b60206040518083038186803b15801561107057600080fd5b505afa158015611084573d6000803e3d6000fd5b505050506040513d601f19601f820116820180604052508101906110a891906124bf565b905060006110b68585611a38565b90508082106110cc576110cb86303384611a52565b5b60006110d88383611c5d565b905060008111156110f0576110ef87308684611a52565b5b505050505050505050505050505050565b600260149054906101000a900462ffffff1681565b61111e61130b565b73ffffffffffffffffffffffffffffffffffffffff1661113c610b34565b73ffffffffffffffffffffffffffffffffffffffff16146111c5576040517f08c379a00000000000000000000000000000000000000000000000000000000081526004018080602001828103825260208152602001807f4f776e61626c653a2063616c6c6572206973206e6f7420746865206f776e657281525060200191505060405180910390fd5b600073ffffffffffffffffffffffffffffffffffffffff168173ffffffffffffffffffffffffffffffffffffffff16141561124b576040517f08c379a0000000000000000000000000000000000000000000000000000000008152600401808060200182810382526026815260200180612de86026913960400191505060405180910390fd5b8073ffffffffffffffffffffffffffffffffffffffff16600160009054906101000a900473ffffffffffffffffffffffffffffffffffffffff1673ffffffffffffffffffffffffffffffffffffffff167f8be0079c531659141344cd1fd0a4f28419497f9722a3daafe3b4186f6b6457e060405160405180910390a380600160006101000a81548173ffffffffffffffffffffffffffffffffffffffff021916908373ffffffffffffffffffffffffffffffffffffffff16021790555050565b600033905090565b60008273ffffffffffffffffffffffffffffffffffffffff1682600067ffffffffffffffff8111801561134557600080fd5b506040519080825280601f01601f1916602001820160405280156113785781602001600182028036833780820191505090505b506040518082805190602001908083835b602083106113ac5780518252602082019150602081019050602083039250611389565b6001836020036101000a03801982511681845116808217855250505050505090500191505060006040518083038185875af1925050503d806000811461140e576040519150601f19603f3d011682016040523d82523d6000602084013e611413565b606091505b505090508061148a576040517f08c379a00000000000000000000000000000000000000000000000000000000081526004018080602001828103825260038152602001807f535445000000000000000000000000000000000000000000000000000000000081525060200191505060405180910390fd5b505050565b6000816020015173ffffffffffffffffffffffffffffffffffffffff16826000015173ffffffffffffffffffffffffffffffffffffffff16106114d157600080fd5b82826000015183602001518460400151604051602001808473ffffffffffffffffffffffffffffffffffffffff1681526020018373ffffffffffffffffffffffffffffffffffffffff1681526020018262ffffff1681526020019350505050604051602081830303815290604052805190602001207fe34f199b19b2b4f47f68442619d555527d244f78a3297ea89325f843f87b8b5460001b60405160200180807fff000000000000000000000000000000000000000000000000000000000000008152506001018473ffffffffffffffffffffffffffffffffffffffff1660601b815260140183815260200182815260200193505050506040516020818303038152906040528051906020012060001c905092915050565b6000808473ffffffffffffffffffffffffffffffffffffffff1663a9059cbb60e01b8585604051602401808373ffffffffffffffffffffffffffffffffffffffff16815260200182815260200192505050604051602081830303815290604052907bffffffffffffffffffffffffffffffffffffffffffffffffffffffff19166020820180517bffffffffffffffffffffffffffffffffffffffffffffffffffffffff83818316178352505050506040518082805190602001908083835b602083106116cb57805182526020820191506020810190506020830392506116a8565b6001836020036101000a0380198251168184511680821785525050505050509050019150506000604051808303816000865af19150503d806000811461172d576040519150601f19603f3d011682016040523d82523d6000602084013e611732565b606091505b50915091508180156117725750600081511480611771575080806020019051602081101561175f57600080fd5b81019080805190602001909291905050505b5b6117e4576040517f08c379a00000000000000000000000000000000000000000000000000000000081526004018080602001828103825260028152602001807f535400000000000000000000000000000000000000000000000000000000000081525060200191505060405180910390fd5b5050505050565b60006117f7838361148f565b90508073ffffffffffffffffffffffffffffffffffffffff163373ffffffffffffffffffffffffffffffffffffffff161461183157600080fd5b92915050565b6000808473ffffffffffffffffffffffffffffffffffffffff1663095ea7b360e01b8585604051602401808373ffffffffffffffffffffffffffffffffffffffff16815260200182815260200192505050604051602081830303815290604052907bffffffffffffffffffffffffffffffffffffffffffffffffffffffff19166020820180517bffffffffffffffffffffffffffffffffffffffffffffffffffffffff83818316178352505050506040518082805190602001908083835b6020831061191857805182526020820191506020810190506020830392506118f5565b6001836020036101000a0380198251168184511680821785525050505050509050019150506000604051808303816000865af19150503d806000811461197a576040519150601f19603f3d011682016040523d82523d6000602084013e61197f565b606091505b50915091508180156119bf57506000815114806119be57508080602001905160208110156119ac57600080fd5b81019080805190602001909291905050505b5b611a31576040517f08c379a00000000000000000000000000000000000000000000000000000000081526004018080602001828103825260028152602001807f534100000000000000000000000000000000000000000000000000000000000081525060200191505060405180910390fd5b5050505050565b6000828284019150811015611a4c57600080fd5b92915050565b7f000000000000000000000000000000000000000000000000000000000000000073ffffffffffffffffffffffffffffffffffffffff168473ffffffffffffffffffffffffffffffffffffffff16148015611aad5750804710155b15611c05577f000000000000000000000000000000000000000000000000000000000000000073ffffffffffffffffffffffffffffffffffffffff1663d0e30db0826040518263ffffffff1660e01b81526004016000604051808303818588803b158015611b1a57600080fd5b505af1158015611b2e573d6000803e3d6000fd5b50505050507f000000000000000000000000000000000000000000000000000000000000000073ffffffffffffffffffffffffffffffffffffffff1663a9059cbb83836040518363ffffffff1660e01b8152600401808373ffffffffffffffffffffffffffffffffffffffff16815260200182815260200192505050602060405180830381600087803b158015611bc457600080fd5b505af1158015611bd8573d6000803e3d6000fd5b505050506040513d6020811015611bee57600080fd5b810190808051906020019092919050505050611c57565b3073ffffffffffffffffffffffffffffffffffffffff168373ffffffffffffffffffffffffffffffffffffffff161415611c4957611c448483836115ea565b611c56565b611c5584848484611c77565b5b5b50505050565b6000828284039150811115611c7157600080fd5b92915050565b6000808573ffffffffffffffffffffffffffffffffffffffff166323b872dd60e01b868686604051602401808473ffffffffffffffffffffffffffffffffffffffff1681526020018373ffffffffffffffffffffffffffffffffffffffff1681526020018281526020019350505050604051602081830303815290604052907bffffffffffffffffffffffffffffffffffffffffffffffffffffffff19166020820180517bffffffffffffffffffffffffffffffffffffffffffffffffffffffff83818316178352505050506040518082805190602001908083835b60208310611d765780518252602082019150602081019050602083039250611d53565b6001836020036101000a0380198251168184511680821785525050505050509050019150506000604051808303816000865af19150503d8060008114611dd8576040519150601f19603f3d011682016040523d82523d6000602084013e611ddd565b606091505b5091509150818015611e1d5750600081511480611e1c5750808060200190516020811015611e0a57600080fd5b81019080805190602001909291905050505b5b611e8f576040517f08c379a00000000000000000000000000000000000000000000000000000000081526004018080602001828103825260038152602001807f535446000000000000000000000000000000000000000000000000000000000081525060200191505060405180910390fd5b505050505050565b6000611eaa611ea584612b19565b612ae8565b90508083825260208201905082856020860282011115611ec957600080fd5b60005b85811015611ef95781611edf8882611f9e565b845260208401935060208301925050600181019050611ecc565b5050509392505050565b6000611f16611f1184612b45565b612ae8565b9050808382526020820190508260005b85811015611f565781358501611f3c888261212f565b845260208401935060208301925050600181019050611f26565b5050509392505050565b6000611f73611f6e84612b71565b612ae8565b905082815260208101848484011115611f8b57600080fd5b611f96848285612d4d565b509392505050565b600081359050611fad81612da2565b92915050565b60008083601f840112611fc557600080fd5b8235905067ffffffffffffffff811115611fde57600080fd5b602083019150836020820283011115611ff657600080fd5b9250929050565b600082601f83011261200e57600080fd5b813561201e848260208601611e97565b91505092915050565b60008083601f84011261203957600080fd5b8235905067ffffffffffffffff81111561205257600080fd5b60208301915083602082028301111561206a57600080fd5b9250929050565b600082601f83011261208257600080fd5b8135612092848260208601611f03565b91505092915050565b60008083601f8401126120ad57600080fd5b8235905067ffffffffffffffff8111156120c657600080fd5b6020830191508360208202830111156120de57600080fd5b9250929050565b60008083601f8401126120f757600080fd5b8235905067ffffffffffffffff81111561211057600080fd5b60208301915083600182028301111561212857600080fd5b9250929050565b600082601f83011261214057600080fd5b8135612150848260208601611f60565b91505092915050565b600060c0828403121561216b57600080fd5b6121756080612ae8565b9050600061218584828501612242565b600083015250602061219984828501612242565b60208301525060406121ad84828501611f9e565b60408301525060606121c1848285016121cd565b60608301525092915050565b6000606082840312156121df57600080fd5b6121e96060612ae8565b905060006121f984828501611f9e565b600083015250602061220d84828501611f9e565b60208301525060406122218482850161222d565b60408301525092915050565b60008135905061223c81612db9565b92915050565b60008135905061225181612dd0565b92915050565b60008151905061226681612dd0565b92915050565b60006020828403121561227e57600080fd5b600061228c84828501611f9e565b91505092915050565b6000806000606084860312156122aa57600080fd5b60006122b886828701611f9e565b93505060206122c986828701612242565b92505060406122da86828701611f9e565b9150509250925092565b60008060008060008060008060008060a08b8d03121561230357600080fd5b60008b013567ffffffffffffffff81111561231d57600080fd5b6123298d828e01611fb3565b9a509a505060208b013567ffffffffffffffff81111561234857600080fd5b6123548d828e0161209b565b985098505060408b013567ffffffffffffffff81111561237357600080fd5b61237f8d828e01611fb3565b965096505060608b013567ffffffffffffffff81111561239e57600080fd5b6123aa8d828e01611fb3565b945094505060808b013567ffffffffffffffff8111156123c957600080fd5b6123d58d828e01612027565b92509250509295989b9194979a5092959850565b600080600080610120858703121561240057600080fd5b600061240e87828801612159565b94505060c085013567ffffffffffffffff81111561242b57600080fd5b61243787828801611ffd565b93505060e085013567ffffffffffffffff81111561245457600080fd5b61246087828801611ffd565b92505061010085013567ffffffffffffffff81111561247e57600080fd5b61248a87828801612071565b91505092959194509250565b6000602082840312156124a857600080fd5b60006124b68482850161222d565b91505092915050565b6000602082840312156124d157600080fd5b60006124df84828501612257565b91505092915050565b600080604083850312156124fb57600080fd5b600061250985828601612242565b925050602061251a85828601611f9e565b9150509250929050565b6000806000806060858703121561253a57600080fd5b600061254887828801612242565b945050602061255987828801612242565b935050604085013567ffffffffffffffff81111561257657600080fd5b612582878288016120e5565b925092505092959194509250565b600061259c83836125cd565b60208301905092915050565b60006125b58484846126be565b90509392505050565b6125c781612cf3565b82525050565b6125d681612ca8565b82525050565b6125e581612ca8565b82525050565b60006125f78385612bda565b935061260282612ba1565b8060005b8581101561263b576126188284612c3a565b6126228882612590565b975061262d83612bc0565b925050600181019050612606565b5085925050509392505050565b60006126548385612beb565b93508360208402850161266684612bab565b8060005b878110156126ac5784840389526126818284612c51565b61268c8682846125a8565b955061269784612bcd565b935060208b019a50505060018101905061266a565b50829750879450505050509392505050565b60006126ca8385612bfc565b93506126d7838584612d4d565b6126e083612d91565b840190509392505050565b60006126f682612bb5565b6127008185612c0d565b9350612710818560208601612d5c565b61271981612d91565b840191505092915050565b600061272f82612bb5565b6127398185612c1e565b9350612749818560208601612d5c565b80840191505092915050565b61275e81612d05565b82525050565b6000612771601883612c29565b91507f6f6e65206f6620616d6f756e7473206d757374206265203000000000000000006000830152602082019050919050565b60006127b1601383612c29565b91507f496e76616c696420666c61736820706f6f6c21000000000000000000000000006000830152602082019050919050565b60006127f1601383612c29565b91507f4f6e6c7920506f6f6c2063616e2063616c6c21000000000000000000000000006000830152602082019050919050565b6000612831600c83612c29565b91507f53776170204661696c75652100000000000000000000000000000000000000006000830152602082019050919050565b60c08201600082015161287a6000850182612919565b50602082015161288d6020850182612919565b5060408201516128a060408501826125cd565b5060608201516128b360608501826128b9565b50505050565b6060820160008201516128cf60008501826125cd565b5060208201516128e260208501826125cd565b5060408201516128f560408501826128fb565b50505050565b61290481612cda565b82525050565b61291381612cda565b82525050565b61292281612ce9565b82525050565b61293181612ce9565b82525050565b60006129438284612724565b915081905092915050565b600060208201905061296360008301846125dc565b92915050565b600060208201905061297e60008301846125be565b92915050565b600060808201905061299960008301876125be565b6129a66020830186612928565b6129b36040830185612928565b81810360608301526129c581846126eb565b905095945050505050565b60006020820190506129e56000830184612755565b92915050565b60006020820190508181036000830152612a0481612764565b9050919050565b60006020820190508181036000830152612a24816127a4565b9050919050565b60006020820190508181036000830152612a44816127e4565b9050919050565b60006020820190508181036000830152612a6481612824565b9050919050565b600061012082019050612a81600083018a612864565b81810360c0830152612a9481888a6125eb565b905081810360e0830152612aa98186886125eb565b9050818103610100830152612abf818486612648565b905098975050505050505050565b6000602082019050612ae2600083018461290a565b92915050565b6000604051905081810181811067ffffffffffffffff82111715612b0f57612b0e612d8f565b5b8060405250919050565b600067ffffffffffffffff821115612b3457612b33612d8f565b5b602082029050602081019050919050565b600067ffffffffffffffff821115612b6057612b5f612d8f565b5b602082029050602081019050919050565b600067ffffffffffffffff821115612b8c57612b8b612d8f565b5b601f19601f8301169050602081019050919050565b6000819050919050565b6000819050919050565b600081519050919050565b6000602082019050919050565b6000602082019050919050565b600082825260208201905092915050565b600082825260208201905092915050565b600082825260208201905092915050565b600082825260208201905092915050565b600081905092915050565b600082825260208201905092915050565b6000612c496020840184611f9e565b905092915050565b60008083356001602003843603038112612c6a57600080fd5b83810192508235915060208301925067ffffffffffffffff821115612c8e57600080fd5b600182023603841315612ca057600080fd5b509250929050565b6000612cb382612cba565b9050919050565b600073ffffffffffffffffffffffffffffffffffffffff82169050919050565b600062ffffff82169050919050565b6000819050919050565b6000612cfe82612d29565b9050919050565b6000612d1082612d17565b9050919050565b6000612d2282612cba565b9050919050565b6000612d3482612d3b565b9050919050565b6000612d4682612cba565b9050919050565b82818337600083830152505050565b60005b83811015612d7a578082015181840152602081019050612d5f565b83811115612d89576000848401525b50505050565bfe5b6000601f19601f8301169050919050565b612dab81612ca8565b8114612db657600080fd5b50565b612dc281612cda565b8114612dcd57600080fd5b50565b612dd981612ce9565b8114612de457600080fd5b5056fe4f776e61626c653a206e6577206f776e657220697320746865207a65726f2061646472657373a264697066735822122003c757052346b33895ed081310ad0bc090fd84b223fa24fb1caa2c83ee3ad1e364736f6c63430007060033",
  "immutableReferences": {
    "889": [
      {
        "length": 32,
        "start": 1396
      },
      {
        "length": 32,
        "start": 2950
      },
      {
        "length": 32,
        "start": 3473
      }
    ],
    "893": [
      {
        "length": 32,
        "start": 205
      },
      {
        "length": 32,
        "start": 1988
      },
      {
        "length": 32,
        "start": 2311
      },
      {
        "length": 32,
        "start": 2466
      },
      {
        "length": 32,
        "start": 6740
      },
      {
        "length": 32,
        "start": 6836
      },
      {
        "length": 32,
        "start": 6965
      }
    ]
  },
  "source": "// SPDX-License-Identifier: MIT;\r\npragma solidity >=0.7.6;\r\npragma experimental ABIEncoderV2;\r\n\r\nimport \"@uniswap/v3-core/contracts/interfaces/callback/IUniswapV3FlashCallback.sol\";\r\nimport \"@uniswap/v3-core/contracts/interfaces/IUniswapV3Factory.sol\";\r\nimport \"@uniswap/v3-core/contracts/libraries/LowGasSafeMath.sol\";\r\nimport \"@uniswap/v3-periphery/contracts/base/PeripheryPayments.sol\";\r\nimport \"@uniswap/v3-periphery/contracts/base/PeripheryImmutableState.sol\";\r\nimport \"@uniswap/v3-periphery/contracts/libraries/PoolAddress.sol\";\r\nimport \"@uniswap/v3-periphery/contracts/libraries/CallbackValidation.sol\";\r\nimport \"@openzeppelin/contracts/access/Ownable.sol\";\r\nimport \"../interfaces/IOneinchRouter.sol\";\r\nimport \"../utils/ReentrancyGuard.sol\";\r\n/// @title Flashloan contract implementation\r\n/// @notice contract using the Uniswap V3 flash function\r\ncontract UniswapFlash1Inch is \r\n    IUniswapV3FlashCallback,\r\n    PeripheryImmutableState,\r\n    PeripheryPayments,\r\n    ReentrancyGuard,\r\n    Ownable {\r\n    struct FlashCallbackData {\r\n        uint256 amount0;\r\n        uint256 amount1;\r\n        address payer;\r\n        PoolAddress.PoolKey poolKey;\r\n    }\r\n    using LowGasSafeMath for uint256;\r\n    IUniswapV3Pool public flashPool;\r\n    uint24 public flashPoolFee;  //  flash from the 0.05% fee of pool\r\n    constructor(\r\n        address _factory,\r\n        address _WETH9\r\n    ) PeripheryImmutableState(_factory, _WETH9) {}\r\n    function initUniFlashSwap(\r\n        address[] calldata loanAssets,\r\n        uint256[] calldata loanAmounts,\r\n        address[] calldata tokenPath,\r\n        address[] calldata oneInchRouters,\r\n        bytes[] calldata tradeDatas\r\n    ) external nonReentrant {\r\n        PoolAddress.PoolKey memory poolKey = PoolAddress.PoolKey(\r\n            {\r\n                token0: loanAssets[0],\r\n                token1: loanAssets[1],\r\n                fee: flashPoolFee\r\n            }\r\n        );\r\n        flashPool = IUniswapV3Pool(PoolAddress.computeAddress(factory, poolKey));\r\n        require(address(flashPool) != address(0), \"Invalid flash pool!\");\r\n\r\n        flashPool.flash(\r\n            address(this),\r\n            loanAmounts[0],\r\n            loanAmounts[1],\r\n            abi.encode(\r\n                FlashCallbackData({\r\n                    amount0: loanAmounts[0],\r\n                    amount1: loanAmounts[1],\r\n                    payer: msg.sender,\r\n                    poolKey: poolKey\r\n                }),\r\n                tokenPath,\r\n                oneInchRouters,\r\n                tradeDatas\r\n            )\r\n        );\r\n    }\r\n\r\n    function uniswapV3FlashCallback(\r\n        uint256 fee0,\r\n        uint256 fee1,\r\n        bytes calldata data\r\n    ) external override {\r\n        require(msg.sender == address(flashPool), \"Only Pool can call!\");\r\n        (\r\n            FlashCallbackData memory callback,\r\n            address[] memory tokenPath,\r\n            address[] memory routers,\r\n            bytes[] memory tradeDatas\r\n        ) = abi.decode(data, (FlashCallbackData, address[],  address[], bytes[]));\r\n        CallbackValidation.verifyCallback(factory, callback.poolKey);\r\n        require(\r\n            callback.amount0 == 0 ||  callback.amount1 == 0,\r\n            \"one of amounts must be 0\"\r\n        );\r\n        address loanAsset = callback.amount0 > 0 ? callback.poolKey.token0: callback.poolKey.token1;\r\n        uint256 loanAmount = callback.amount0 > 0 ? callback.amount0: callback.amount1;\r\n        uint256 fee = callback.amount0 > 0 ? fee0 : fee1;\r\n        address payer = callback.payer;\r\n        // start trade\r\n        for (uint i; i < tokenPath.length; i++) {\r\n            address router = routers[i];\r\n            address tokenIn = tokenPath[i];\r\n            uint256 amountIn = IERC20(tokenIn).balanceOf(address(this));\r\n            TransferHelper.safeApprove(tokenIn, router, amountIn);\r\n            (bool success, ) = router.call(tradeDatas[i]);\r\n            require(success, \"Swap Failue!\");\r\n\r\n        }\r\n        uint256 amountOut = IERC20(loanAsset).balanceOf(address(this));\r\n        uint256 amountOwed = LowGasSafeMath.add(loanAmount, fee);\r\n        \r\n        if (amountOut >= amountOwed) {\r\n            pay(loanAsset, address(this), msg.sender, amountOwed);\r\n        }\r\n        uint256 profit = LowGasSafeMath.sub(amountOut, amountOwed);\r\n        if (profit > 0) {\r\n            pay(loanAsset, address(this), payer, profit);\r\n        }\r\n    }\r\n    \r\n    function setFlashPoolFee(uint24 poolFee) public onlyOwner() {\r\n        flashPoolFee = poolFee;\r\n    }\r\n    fallback() external payable {}\r\n}\r\n",
  "sourcePath": "D:\\MyWorks\\MySolidities\\SilvanShwarz\\FlashLoans\\uni-flashswap-truffle\\contracts\\flashloans\\UniswapFlash1Inch.sol",
  "compiler": {
    "name": "solc",
    "version": "0.7.6+commit.7338295f.Emscripten.clang"
  },
  "schemaVersion": "3.4.7",
  "updatedAt": "2022-07-01T22:11:12.917Z",
  "networkType": "ethereum",
  "devdoc": {
    "kind": "dev",
    "methods": {
      "owner()": {
        "details": "Returns the address of the current owner."
      },
      "refundETH()": {
        "details": "Useful for bundling with mint or increase liquidity that uses ether, or exact output swaps that use ether for the input amount"
      },
      "renounceOwnership()": {
        "details": "Leaves the contract without owner. It will not be possible to call `onlyOwner` functions anymore. Can only be called by the current owner. NOTE: Renouncing ownership will leave the contract without an owner, thereby removing any functionality that is only available to the owner."
      },
      "sweepToken(address,uint256,address)": {
        "details": "The amountMinimum parameter prevents malicious contracts from stealing the token from users",
        "params": {
          "amountMinimum": "The minimum amount of token required for a transfer",
          "recipient": "The destination address of the token",
          "token": "The contract address of the token which will be transferred to `recipient`"
        }
      },
      "transferOwnership(address)": {
        "details": "Transfers ownership of the contract to a new account (`newOwner`). Can only be called by the current owner."
      },
      "uniswapV3FlashCallback(uint256,uint256,bytes)": {
        "details": "In the implementation you must repay the pool the tokens sent by flash plus the computed fee amounts. The caller of this method must be checked to be a UniswapV3Pool deployed by the canonical UniswapV3Factory.",
        "params": {
          "data": "Any data passed through by the caller via the IUniswapV3PoolActions#flash call",
          "fee0": "The fee amount in token0 due to the pool by the end of the flash",
          "fee1": "The fee amount in token1 due to the pool by the end of the flash"
        }
      },
      "unwrapWETH9(uint256,address)": {
        "details": "The amountMinimum parameter prevents malicious contracts from stealing WETH9 from users.",
        "params": {
          "amountMinimum": "The minimum amount of WETH9 to unwrap",
          "recipient": "The address receiving ETH"
        }
      }
    },
    "title": "Flashloan contract implementation",
    "version": 1
  },
  "userdoc": {
    "kind": "user",
    "methods": {
      "refundETH()": {
        "notice": "Refunds any ETH balance held by this contract to the `msg.sender`"
      },
      "sweepToken(address,uint256,address)": {
        "notice": "Transfers the full amount of a token held by this contract to recipient"
      },
      "uniswapV3FlashCallback(uint256,uint256,bytes)": {
        "notice": "Called to `msg.sender` after transferring to the recipient from IUniswapV3Pool#flash."
      },
      "unwrapWETH9(uint256,address)": {
        "notice": "Unwraps the contract's WETH9 balance and sends it to recipient as ETH."
      }
    },
    "notice": "contract using the Uniswap V3 flash function",
    "version": 1
  }
}