{
  "contractName": "UniswapFlash1Inch",
  "abi": [
    {
      "inputs": [
        {
          "internalType": "address",
          "name": "_factory",
          "type": "address"
        },
        {
          "internalType": "address",
          "name": "_WETH9",
          "type": "address"
        }
      ],
      "stateMutability": "nonpayable",
      "type": "constructor"
    },
    {
      "anonymous": false,
      "inputs": [
        {
          "indexed": true,
          "internalType": "address",
          "name": "previousOwner",
          "type": "address"
        },
        {
          "indexed": true,
          "internalType": "address",
          "name": "newOwner",
          "type": "address"
        }
      ],
      "name": "OwnershipTransferred",
      "type": "event"
    },
    {
      "stateMutability": "payable",
      "type": "fallback",
      "payable": true
    },
    {
      "inputs": [],
      "name": "WETH9",
      "outputs": [
        {
          "internalType": "address",
          "name": "",
          "type": "address"
        }
      ],
      "stateMutability": "view",
      "type": "function",
      "constant": true
    },
    {
      "inputs": [],
      "name": "factory",
      "outputs": [
        {
          "internalType": "address",
          "name": "",
          "type": "address"
        }
      ],
      "stateMutability": "view",
      "type": "function",
      "constant": true
    },
    {
      "inputs": [],
      "name": "flashPoolFee",
      "outputs": [
        {
          "internalType": "uint24",
          "name": "",
          "type": "uint24"
        }
      ],
      "stateMutability": "view",
      "type": "function",
      "constant": true
    },
    {
      "inputs": [],
      "name": "oneInchRouter",
      "outputs": [
        {
          "internalType": "address",
          "name": "",
          "type": "address"
        }
      ],
      "stateMutability": "view",
      "type": "function",
      "constant": true
    },
    {
      "inputs": [],
      "name": "owner",
      "outputs": [
        {
          "internalType": "address",
          "name": "",
          "type": "address"
        }
      ],
      "stateMutability": "view",
      "type": "function",
      "constant": true
    },
    {
      "inputs": [],
      "name": "refundETH",
      "outputs": [],
      "stateMutability": "payable",
      "type": "function",
      "payable": true
    },
    {
      "inputs": [],
      "name": "renounceOwnership",
      "outputs": [],
      "stateMutability": "nonpayable",
      "type": "function"
    },
    {
      "inputs": [
        {
          "internalType": "address",
          "name": "token",
          "type": "address"
        },
        {
          "internalType": "uint256",
          "name": "amountMinimum",
          "type": "uint256"
        },
        {
          "internalType": "address",
          "name": "recipient",
          "type": "address"
        }
      ],
      "name": "sweepToken",
      "outputs": [],
      "stateMutability": "payable",
      "type": "function",
      "payable": true
    },
    {
      "inputs": [
        {
          "internalType": "address",
          "name": "newOwner",
          "type": "address"
        }
      ],
      "name": "transferOwnership",
      "outputs": [],
      "stateMutability": "nonpayable",
      "type": "function"
    },
    {
      "inputs": [
        {
          "internalType": "uint256",
          "name": "amountMinimum",
          "type": "uint256"
        },
        {
          "internalType": "address",
          "name": "recipient",
          "type": "address"
        }
      ],
      "name": "unwrapWETH9",
      "outputs": [],
      "stateMutability": "payable",
      "type": "function",
      "payable": true
    },
    {
      "stateMutability": "payable",
      "type": "receive",
      "payable": true
    },
    {
      "inputs": [
        {
          "internalType": "address[]",
          "name": "loanAssets",
          "type": "address[]"
        },
        {
          "internalType": "uint256[]",
          "name": "loanAmounts",
          "type": "uint256[]"
        },
        {
          "internalType": "address[]",
          "name": "tokenPath",
          "type": "address[]"
        },
        {
          "internalType": "bytes[]",
          "name": "tradeDatas",
          "type": "bytes[]"
        }
      ],
      "name": "initUniFlashSwap",
      "outputs": [],
      "stateMutability": "nonpayable",
      "type": "function"
    },
    {
      "inputs": [
        {
          "internalType": "uint256",
          "name": "fee0",
          "type": "uint256"
        },
        {
          "internalType": "uint256",
          "name": "fee1",
          "type": "uint256"
        },
        {
          "internalType": "bytes",
          "name": "data",
          "type": "bytes"
        }
      ],
      "name": "uniswapV3FlashCallback",
      "outputs": [],
      "stateMutability": "nonpayable",
      "type": "function"
    },
    {
      "inputs": [
        {
          "internalType": "address",
          "name": "factory",
          "type": "address"
        },
        {
          "components": [
            {
              "internalType": "address",
              "name": "token0",
              "type": "address"
            },
            {
              "internalType": "address",
              "name": "token1",
              "type": "address"
            },
            {
              "internalType": "uint24",
              "name": "fee",
              "type": "uint24"
            }
          ],
          "internalType": "struct PoolAddress.PoolKey",
          "name": "poolKey",
          "type": "tuple"
        }
      ],
      "name": "getFlashPool",
      "outputs": [
        {
          "internalType": "address",
          "name": "",
          "type": "address"
        }
      ],
      "stateMutability": "pure",
      "type": "function",
      "constant": true
    },
    {
      "inputs": [
        {
          "internalType": "address",
          "name": "token",
          "type": "address"
        }
      ],
      "name": "approveToken",
      "outputs": [],
      "stateMutability": "nonpayable",
      "type": "function"
    },
    {
      "inputs": [
        {
          "internalType": "uint24",
          "name": "poolFee",
          "type": "uint24"
        }
      ],
      "name": "setFlashPoolFee",
      "outputs": [],
      "stateMutability": "nonpayable",
      "type": "function"
    },
    {
      "inputs": [
        {
          "internalType": "address",
          "name": "router",
          "type": "address"
        }
      ],
      "name": "changeOneInchRouter",
      "outputs": [],
      "stateMutability": "nonpayable",
      "type": "function"
    }
  ],
  "bytecode": "0x60c0604052731111111254fb6c44bac0bed2854e76f90643097d600260006101000a81548173ffffffffffffffffffffffffffffffffffffffff021916908373ffffffffffffffffffffffffffffffffffffffff1602179055506101f4600260146101000a81548162ffffff021916908362ffffff1602179055503480156200008757600080fd5b5060405162003252380380620032528339818101604052810190620000ad9190620001ff565b81818173ffffffffffffffffffffffffffffffffffffffff1660808173ffffffffffffffffffffffffffffffffffffffff1660601b815250508073ffffffffffffffffffffffffffffffffffffffff1660a08173ffffffffffffffffffffffffffffffffffffffff1660601b8152505050506001600081905550600062000139620001e060201b60201c565b905080600160006101000a81548173ffffffffffffffffffffffffffffffffffffffff021916908373ffffffffffffffffffffffffffffffffffffffff1602179055508073ffffffffffffffffffffffffffffffffffffffff16600073ffffffffffffffffffffffffffffffffffffffff167f8be0079c531659141344cd1fd0a4f28419497f9722a3daafe3b4186f6b6457e060405160405180910390a35050506200028e565b600033905090565b600081519050620001f98162000274565b92915050565b600080604083850312156200021357600080fd5b60006200022385828601620001e8565b92505060206200023685828601620001e8565b9150509250929050565b60006200024d8262000254565b9050919050565b600073ffffffffffffffffffffffffffffffffffffffff82169050919050565b6200027f8162000240565b81146200028b57600080fd5b50565b60805160601c60a05160601c612f73620002df6000398060fe52806107f9528061093c52806109d75280611bbd5280611c1d5280611c9e5250806106505280610cfe5280610e7b5250612f736000f3fe6080604052600436106100f75760003560e01c806382529ab21161008a578063df2ab5bb11610059578063df2ab5bb1461038b578063e9cbafb0146103a7578063ea3b4431146103d0578063f2fde38b146103fb576101bf565b806382529ab2146102e15780638da5cb5b1461030a578063ac3af20814610335578063c45a015514610360576101bf565b806349404b7c116100c657806349404b7c1461025a5780634aa4a4fc14610276578063715018a6146102a157806380b2edd8146102b8576101bf565b80630deed49d146101c15780630f049590146101ea57806312210e8a14610213578063343830c81461021d576101bf565b366101bf577f000000000000000000000000000000000000000000000000000000000000000073ffffffffffffffffffffffffffffffffffffffff163373ffffffffffffffffffffffffffffffffffffffff16146101bd576040517f08c379a00000000000000000000000000000000000000000000000000000000081526004018080602001828103825260098152602001807f4e6f74205745544839000000000000000000000000000000000000000000000081525060200191505060405180910390fd5b005b005b3480156101cd57600080fd5b506101e860048036038101906101e39190612647565b610424565b005b3480156101f657600080fd5b50610211600480360381019061020c91906124f2565b6104f5565b005b61021b6107cb565b005b34801561022957600080fd5b50610244600480360381019061023f9190612467565b6107e1565b6040516102519190612af0565b60405180910390f35b610274600480360381019061026f9190612699565b6107f5565b005b34801561028257600080fd5b5061028b6109d5565b6040516102989190612af0565b60405180910390f35b3480156102ad57600080fd5b506102b66109f9565b005b3480156102c457600080fd5b506102df60048036038101906102da919061243e565b610b69565b005b3480156102ed57600080fd5b506103086004803603810190610303919061243e565b610bb9565b005b34801561031657600080fd5b5061031f610cac565b60405161032c9190612af0565b60405180910390f35b34801561034157600080fd5b5061034a610cd6565b6040516103579190612af0565b60405180910390f35b34801561036c57600080fd5b50610375610cfc565b6040516103829190612af0565b60405180910390f35b6103a560048036038101906103a091906124a3565b610d20565b005b3480156103b357600080fd5b506103ce60048036038101906103c991906126d5565b610e57565b005b3480156103dc57600080fd5b506103e5611248565b6040516103f29190612c21565b60405180910390f35b34801561040757600080fd5b50610422600480360381019061041d919061243e565b61125d565b005b61042c611452565b73ffffffffffffffffffffffffffffffffffffffff1661044a610cac565b73ffffffffffffffffffffffffffffffffffffffff16146104d3576040517f08c379a00000000000000000000000000000000000000000000000000000000081526004018080602001828103825260208152602001807f4f776e61626c653a2063616c6c6572206973206e6f7420746865206f776e657281525060200191505060405180910390fd5b80600260146101000a81548162ffffff021916908362ffffff16021790555050565b6002600054141561056e576040517f08c379a000000000000000000000000000000000000000000000000000000000815260040180806020018281038252601f8152602001807f5265656e7472616e637947756172643a207265656e7472616e742063616c6c0081525060200191505060405180910390fd5b6002600081905550600060405180606001604052808a8a600081811061059057fe5b90506020020160208101906105a5919061243e565b73ffffffffffffffffffffffffffffffffffffffff1681526020018a8a60018181106105cd57fe5b90506020020160208101906105e2919061243e565b73ffffffffffffffffffffffffffffffffffffffff168152602001600260149054906101000a900462ffffff1662ffffff16815250905060008787600081811061062857fe5b90506020020135905060008888600181811061064057fe5b90506020020135905060006106757f0000000000000000000000000000000000000000000000000000000000000000856107e1565b9050600073ffffffffffffffffffffffffffffffffffffffff168173ffffffffffffffffffffffffffffffffffffffff1614156106e7576040517f08c379a00000000000000000000000000000000000000000000000000000000081526004016106de90612b57565b60405180910390fd5b8073ffffffffffffffffffffffffffffffffffffffff1663490e6cbc30858560405180608001604052808981526020018881526020013373ffffffffffffffffffffffffffffffffffffffff1681526020018a8152508d8d8d8d604051602001610755959493929190612bd7565b6040516020818303038152906040526040518563ffffffff1660e01b81526004016107839493929190612b0b565b600060405180830381600087803b15801561079d57600080fd5b505af11580156107b1573d6000803e3d6000fd5b505050505050505060016000819055505050505050505050565b60004711156107df576107de334761145a565b5b565b60006107ed83836115d6565b905092915050565b60007f000000000000000000000000000000000000000000000000000000000000000073ffffffffffffffffffffffffffffffffffffffff166370a08231306040518263ffffffff1660e01b8152600401808273ffffffffffffffffffffffffffffffffffffffff16815260200191505060206040518083038186803b15801561087e57600080fd5b505afa158015610892573d6000803e3d6000fd5b505050506040513d60208110156108a857600080fd5b8101908080519060200190929190505050905082811015610931576040517f08c379a00000000000000000000000000000000000000000000000000000000081526004018080602001828103825260128152602001807f496e73756666696369656e74205745544839000000000000000000000000000081525060200191505060405180910390fd5b60008111156109d0577f000000000000000000000000000000000000000000000000000000000000000073ffffffffffffffffffffffffffffffffffffffff16632e1a7d4d826040518263ffffffff1660e01b815260040180828152602001915050600060405180830381600087803b1580156109ad57600080fd5b505af11580156109c1573d6000803e3d6000fd5b505050506109cf828261145a565b5b505050565b7f000000000000000000000000000000000000000000000000000000000000000081565b610a01611452565b73ffffffffffffffffffffffffffffffffffffffff16610a1f610cac565b73ffffffffffffffffffffffffffffffffffffffff1614610aa8576040517f08c379a00000000000000000000000000000000000000000000000000000000081526004018080602001828103825260208152602001807f4f776e61626c653a2063616c6c6572206973206e6f7420746865206f776e657281525060200191505060405180910390fd5b600073ffffffffffffffffffffffffffffffffffffffff16600160009054906101000a900473ffffffffffffffffffffffffffffffffffffffff1673ffffffffffffffffffffffffffffffffffffffff167f8be0079c531659141344cd1fd0a4f28419497f9722a3daafe3b4186f6b6457e060405160405180910390a36000600160006101000a81548173ffffffffffffffffffffffffffffffffffffffff021916908373ffffffffffffffffffffffffffffffffffffffff160217905550565b610bb681600260009054906101000a900473ffffffffffffffffffffffffffffffffffffffff167fffffffffffffffffffffffffffffffffffffffffffffffffffffffffffffffff611731565b50565b610bc1611452565b73ffffffffffffffffffffffffffffffffffffffff16610bdf610cac565b73ffffffffffffffffffffffffffffffffffffffff1614610c68576040517f08c379a00000000000000000000000000000000000000000000000000000000081526004018080602001828103825260208152602001807f4f776e61626c653a2063616c6c6572206973206e6f7420746865206f776e657281525060200191505060405180910390fd5b80600260006101000a81548173ffffffffffffffffffffffffffffffffffffffff021916908373ffffffffffffffffffffffffffffffffffffffff16021790555050565b6000600160009054906101000a900473ffffffffffffffffffffffffffffffffffffffff16905090565b600260009054906101000a900473ffffffffffffffffffffffffffffffffffffffff1681565b7f000000000000000000000000000000000000000000000000000000000000000081565b60008373ffffffffffffffffffffffffffffffffffffffff166370a08231306040518263ffffffff1660e01b8152600401808273ffffffffffffffffffffffffffffffffffffffff16815260200191505060206040518083038186803b158015610d8957600080fd5b505afa158015610d9d573d6000803e3d6000fd5b505050506040513d6020811015610db357600080fd5b8101908080519060200190929190505050905082811015610e3c576040517f08c379a00000000000000000000000000000000000000000000000000000000081526004018080602001828103825260128152602001807f496e73756666696369656e7420746f6b656e000000000000000000000000000081525060200191505060405180910390fd5b6000811115610e5157610e50848383611932565b5b50505050565b600030905060008060008585810190610e7091906125c7565b925092509250610ea47f000000000000000000000000000000000000000000000000000000000000000084606001516107e1565b73ffffffffffffffffffffffffffffffffffffffff163373ffffffffffffffffffffffffffffffffffffffff1614610f11576040517f08c379a0000000000000000000000000000000000000000000000000000000008152600401610f0890612b97565b60405180910390fd5b600080846000015111610f2c57836060015160200151610f36565b8360600151600001515b9050600080856000015111610f4f578460200151610f55565b84600001515b9050600080866000015111610f6a5789610f6c565b8a5b905060005b845181101561114e576000868281518110610f8857fe5b602002602001015173ffffffffffffffffffffffffffffffffffffffff166370a082318a6040518263ffffffff1660e01b8152600401610fc89190612af0565b60206040518083038186803b158015610fe057600080fd5b505afa158015610ff4573d6000803e3d6000fd5b505050506040513d601f19601f820116820180604052508101906110189190612670565b90506000811161105d576040517f08c379a000000000000000000000000000000000000000000000000000000000815260040161105490612b77565b60405180910390fd5b6000600260009054906101000a900473ffffffffffffffffffffffffffffffffffffffff1673ffffffffffffffffffffffffffffffffffffffff168784815181106110a457fe5b60200260200101516040516110b99190612ad9565b6000604051808303816000865af19150503d80600081146110f6576040519150601f19603f3d011682016040523d82523d6000602084013e6110fb565b606091505b505090508061113f576040517f08c379a000000000000000000000000000000000000000000000000000000000815260040161113690612bb7565b60405180910390fd5b50508080600101915050610f71565b5060008373ffffffffffffffffffffffffffffffffffffffff166370a08231896040518263ffffffff1660e01b815260040161118a9190612af0565b60206040518083038186803b1580156111a257600080fd5b505afa1580156111b6573d6000803e3d6000fd5b505050506040513d601f19601f820116820180604052508101906111da9190612670565b905060006111f18385611b3390919063ffffffff16565b905080821061120757611206858a3384611bbb565b5b600061121c8284611dc690919063ffffffff16565b9050600081111561123857611237868b8b6040015184611bbb565b5b5050505050505050505050505050565b600260149054906101000a900462ffffff1681565b611265611452565b73ffffffffffffffffffffffffffffffffffffffff16611283610cac565b73ffffffffffffffffffffffffffffffffffffffff161461130c576040517f08c379a00000000000000000000000000000000000000000000000000000000081526004018080602001828103825260208152602001807f4f776e61626c653a2063616c6c6572206973206e6f7420746865206f776e657281525060200191505060405180910390fd5b600073ffffffffffffffffffffffffffffffffffffffff168173ffffffffffffffffffffffffffffffffffffffff161415611392576040517f08c379a0000000000000000000000000000000000000000000000000000000008152600401808060200182810382526026815260200180612f186026913960400191505060405180910390fd5b8073ffffffffffffffffffffffffffffffffffffffff16600160009054906101000a900473ffffffffffffffffffffffffffffffffffffffff1673ffffffffffffffffffffffffffffffffffffffff167f8be0079c531659141344cd1fd0a4f28419497f9722a3daafe3b4186f6b6457e060405160405180910390a380600160006101000a81548173ffffffffffffffffffffffffffffffffffffffff021916908373ffffffffffffffffffffffffffffffffffffffff16021790555050565b600033905090565b60008273ffffffffffffffffffffffffffffffffffffffff1682600067ffffffffffffffff8111801561148c57600080fd5b506040519080825280601f01601f1916602001820160405280156114bf5781602001600182028036833780820191505090505b506040518082805190602001908083835b602083106114f357805182526020820191506020810190506020830392506114d0565b6001836020036101000a03801982511681845116808217855250505050505090500191505060006040518083038185875af1925050503d8060008114611555576040519150601f19603f3d011682016040523d82523d6000602084013e61155a565b606091505b50509050806115d1576040517f08c379a00000000000000000000000000000000000000000000000000000000081526004018080602001828103825260038152602001807f535445000000000000000000000000000000000000000000000000000000000081525060200191505060405180910390fd5b505050565b6000816020015173ffffffffffffffffffffffffffffffffffffffff16826000015173ffffffffffffffffffffffffffffffffffffffff161061161857600080fd5b82826000015183602001518460400151604051602001808473ffffffffffffffffffffffffffffffffffffffff1681526020018373ffffffffffffffffffffffffffffffffffffffff1681526020018262ffffff1681526020019350505050604051602081830303815290604052805190602001207fe34f199b19b2b4f47f68442619d555527d244f78a3297ea89325f843f87b8b5460001b60405160200180807fff000000000000000000000000000000000000000000000000000000000000008152506001018473ffffffffffffffffffffffffffffffffffffffff1660601b815260140183815260200182815260200193505050506040516020818303038152906040528051906020012060001c905092915050565b6000808473ffffffffffffffffffffffffffffffffffffffff1663095ea7b360e01b8585604051602401808373ffffffffffffffffffffffffffffffffffffffff16815260200182815260200192505050604051602081830303815290604052907bffffffffffffffffffffffffffffffffffffffffffffffffffffffff19166020820180517bffffffffffffffffffffffffffffffffffffffffffffffffffffffff83818316178352505050506040518082805190602001908083835b6020831061181257805182526020820191506020810190506020830392506117ef565b6001836020036101000a0380198251168184511680821785525050505050509050019150506000604051808303816000865af19150503d8060008114611874576040519150601f19603f3d011682016040523d82523d6000602084013e611879565b606091505b50915091508180156118b957506000815114806118b857508080602001905160208110156118a657600080fd5b81019080805190602001909291905050505b5b61192b576040517f08c379a00000000000000000000000000000000000000000000000000000000081526004018080602001828103825260028152602001807f534100000000000000000000000000000000000000000000000000000000000081525060200191505060405180910390fd5b5050505050565b6000808473ffffffffffffffffffffffffffffffffffffffff1663a9059cbb60e01b8585604051602401808373ffffffffffffffffffffffffffffffffffffffff16815260200182815260200192505050604051602081830303815290604052907bffffffffffffffffffffffffffffffffffffffffffffffffffffffff19166020820180517bffffffffffffffffffffffffffffffffffffffffffffffffffffffff83818316178352505050506040518082805190602001908083835b60208310611a1357805182526020820191506020810190506020830392506119f0565b6001836020036101000a0380198251168184511680821785525050505050509050019150506000604051808303816000865af19150503d8060008114611a75576040519150601f19603f3d011682016040523d82523d6000602084013e611a7a565b606091505b5091509150818015611aba5750600081511480611ab95750808060200190516020811015611aa757600080fd5b81019080805190602001909291905050505b5b611b2c576040517f08c379a00000000000000000000000000000000000000000000000000000000081526004018080602001828103825260028152602001807f535400000000000000000000000000000000000000000000000000000000000081525060200191505060405180910390fd5b5050505050565b600080828401905083811015611bb1576040517f08c379a000000000000000000000000000000000000000000000000000000000815260040180806020018281038252601b8152602001807f536166654d6174683a206164646974696f6e206f766572666c6f77000000000081525060200191505060405180910390fd5b8091505092915050565b7f000000000000000000000000000000000000000000000000000000000000000073ffffffffffffffffffffffffffffffffffffffff168473ffffffffffffffffffffffffffffffffffffffff16148015611c165750804710155b15611d6e577f000000000000000000000000000000000000000000000000000000000000000073ffffffffffffffffffffffffffffffffffffffff1663d0e30db0826040518263ffffffff1660e01b81526004016000604051808303818588803b158015611c8357600080fd5b505af1158015611c97573d6000803e3d6000fd5b50505050507f000000000000000000000000000000000000000000000000000000000000000073ffffffffffffffffffffffffffffffffffffffff1663a9059cbb83836040518363ffffffff1660e01b8152600401808373ffffffffffffffffffffffffffffffffffffffff16815260200182815260200192505050602060405180830381600087803b158015611d2d57600080fd5b505af1158015611d41573d6000803e3d6000fd5b505050506040513d6020811015611d5757600080fd5b810190808051906020019092919050505050611dc0565b3073ffffffffffffffffffffffffffffffffffffffff168373ffffffffffffffffffffffffffffffffffffffff161415611db257611dad848383611932565b611dbf565b611dbe84848484611e49565b5b5b50505050565b600082821115611e3e576040517f08c379a000000000000000000000000000000000000000000000000000000000815260040180806020018281038252601e8152602001807f536166654d6174683a207375627472616374696f6e206f766572666c6f77000081525060200191505060405180910390fd5b818303905092915050565b6000808573ffffffffffffffffffffffffffffffffffffffff166323b872dd60e01b868686604051602401808473ffffffffffffffffffffffffffffffffffffffff1681526020018373ffffffffffffffffffffffffffffffffffffffff1681526020018281526020019350505050604051602081830303815290604052907bffffffffffffffffffffffffffffffffffffffffffffffffffffffff19166020820180517bffffffffffffffffffffffffffffffffffffffffffffffffffffffff83818316178352505050506040518082805190602001908083835b60208310611f485780518252602082019150602081019050602083039250611f25565b6001836020036101000a0380198251168184511680821785525050505050509050019150506000604051808303816000865af19150503d8060008114611faa576040519150601f19603f3d011682016040523d82523d6000602084013e611faf565b606091505b5091509150818015611fef5750600081511480611fee5750808060200190516020811015611fdc57600080fd5b81019080805190602001909291905050505b5b612061576040517f08c379a00000000000000000000000000000000000000000000000000000000081526004018080602001828103825260038152602001807f535446000000000000000000000000000000000000000000000000000000000081525060200191505060405180910390fd5b505050505050565b600061207c61207784612c6d565b612c3c565b9050808382526020820190508285602086028201111561209b57600080fd5b60005b858110156120cb57816120b18882612170565b84526020840193506020830192505060018101905061209e565b5050509392505050565b60006120e86120e384612c99565b612c3c565b9050808382526020820190508260005b85811015612128578135850161210e8882612301565b8452602084019350602083019250506001810190506120f8565b5050509392505050565b600061214561214084612cc5565b612c3c565b90508281526020810184848401111561215d57600080fd5b612168848285612e7d565b509392505050565b60008135905061217f81612ed2565b92915050565b60008083601f84011261219757600080fd5b8235905067ffffffffffffffff8111156121b057600080fd5b6020830191508360208202830111156121c857600080fd5b9250929050565b600082601f8301126121e057600080fd5b81356121f0848260208601612069565b91505092915050565b60008083601f84011261220b57600080fd5b8235905067ffffffffffffffff81111561222457600080fd5b60208301915083602082028301111561223c57600080fd5b9250929050565b600082601f83011261225457600080fd5b81356122648482602086016120d5565b91505092915050565b60008083601f84011261227f57600080fd5b8235905067ffffffffffffffff81111561229857600080fd5b6020830191508360208202830111156122b057600080fd5b9250929050565b60008083601f8401126122c957600080fd5b8235905067ffffffffffffffff8111156122e257600080fd5b6020830191508360018202830111156122fa57600080fd5b9250929050565b600082601f83011261231257600080fd5b8135612322848260208601612132565b91505092915050565b600060c0828403121561233d57600080fd5b6123476080612c3c565b9050600061235784828501612414565b600083015250602061236b84828501612414565b602083015250604061237f84828501612170565b60408301525060606123938482850161239f565b60608301525092915050565b6000606082840312156123b157600080fd5b6123bb6060612c3c565b905060006123cb84828501612170565b60008301525060206123df84828501612170565b60208301525060406123f3848285016123ff565b60408301525092915050565b60008135905061240e81612ee9565b92915050565b60008135905061242381612f00565b92915050565b60008151905061243881612f00565b92915050565b60006020828403121561245057600080fd5b600061245e84828501612170565b91505092915050565b6000806080838503121561247a57600080fd5b600061248885828601612170565b92505060206124998582860161239f565b9150509250929050565b6000806000606084860312156124b857600080fd5b60006124c686828701612170565b93505060206124d786828701612414565b92505060406124e886828701612170565b9150509250925092565b6000806000806000806000806080898b03121561250e57600080fd5b600089013567ffffffffffffffff81111561252857600080fd5b6125348b828c01612185565b9850985050602089013567ffffffffffffffff81111561255357600080fd5b61255f8b828c0161226d565b9650965050604089013567ffffffffffffffff81111561257e57600080fd5b61258a8b828c01612185565b9450945050606089013567ffffffffffffffff8111156125a957600080fd5b6125b58b828c016121f9565b92509250509295985092959890939650565b600080600061010084860312156125dd57600080fd5b60006125eb8682870161232b565b93505060c084013567ffffffffffffffff81111561260857600080fd5b612614868287016121cf565b92505060e084013567ffffffffffffffff81111561263157600080fd5b61263d86828701612243565b9150509250925092565b60006020828403121561265957600080fd5b6000612667848285016123ff565b91505092915050565b60006020828403121561268257600080fd5b600061269084828501612429565b91505092915050565b600080604083850312156126ac57600080fd5b60006126ba85828601612414565b92505060206126cb85828601612170565b9150509250929050565b600080600080606085870312156126eb57600080fd5b60006126f987828801612414565b945050602061270a87828801612414565b935050604085013567ffffffffffffffff81111561272757600080fd5b612733878288016122b7565b925092505092959194509250565b600061274d838361277e565b60208301905092915050565b600061276684848461286f565b90509392505050565b61277881612e47565b82525050565b61278781612dfc565b82525050565b61279681612dfc565b82525050565b60006127a88385612d2e565b93506127b382612cf5565b8060005b858110156127ec576127c98284612d8e565b6127d38882612741565b97506127de83612d14565b9250506001810190506127b7565b5085925050509392505050565b60006128058385612d3f565b93508360208402850161281784612cff565b8060005b8781101561285d5784840389526128328284612da5565b61283d868284612759565b955061284884612d21565b935060208b019a50505060018101905061281b565b50829750879450505050509392505050565b600061287b8385612d50565b9350612888838584612e7d565b61289183612ec1565b840190509392505050565b60006128a782612d09565b6128b18185612d61565b93506128c1818560208601612e8c565b6128ca81612ec1565b840191505092915050565b60006128e082612d09565b6128ea8185612d72565b93506128fa818560208601612e8c565b80840191505092915050565b6000612913601383612d7d565b91507f496e76616c696420666c61736820706f6f6c21000000000000000000000000006000830152602082019050919050565b6000612953600e83612d7d565b91507f42616c616e6163652069732030210000000000000000000000000000000000006000830152602082019050919050565b6000612993601383612d7d565b91507f4f6e6c7920506f6f6c2063616e2063616c6c21000000000000000000000000006000830152602082019050919050565b60006129d3600c83612d7d565b91507f53776170204661696c75652100000000000000000000000000000000000000006000830152602082019050919050565b60c082016000820151612a1c6000850182612abb565b506020820151612a2f6020850182612abb565b506040820151612a42604085018261277e565b506060820151612a556060850182612a5b565b50505050565b606082016000820151612a71600085018261277e565b506020820151612a84602085018261277e565b506040820151612a976040850182612a9d565b50505050565b612aa681612e2e565b82525050565b612ab581612e2e565b82525050565b612ac481612e3d565b82525050565b612ad381612e3d565b82525050565b6000612ae582846128d5565b915081905092915050565b6000602082019050612b05600083018461278d565b92915050565b6000608082019050612b20600083018761276f565b612b2d6020830186612aca565b612b3a6040830185612aca565b8181036060830152612b4c818461289c565b905095945050505050565b60006020820190508181036000830152612b7081612906565b9050919050565b60006020820190508181036000830152612b9081612946565b9050919050565b60006020820190508181036000830152612bb081612986565b9050919050565b60006020820190508181036000830152612bd0816129c6565b9050919050565b600061010082019050612bed6000830188612a06565b81810360c0830152612c0081868861279c565b905081810360e0830152612c158184866127f9565b90509695505050505050565b6000602082019050612c366000830184612aac565b92915050565b6000604051905081810181811067ffffffffffffffff82111715612c6357612c62612ebf565b5b8060405250919050565b600067ffffffffffffffff821115612c8857612c87612ebf565b5b602082029050602081019050919050565b600067ffffffffffffffff821115612cb457612cb3612ebf565b5b602082029050602081019050919050565b600067ffffffffffffffff821115612ce057612cdf612ebf565b5b601f19601f8301169050602081019050919050565b6000819050919050565b6000819050919050565b600081519050919050565b6000602082019050919050565b6000602082019050919050565b600082825260208201905092915050565b600082825260208201905092915050565b600082825260208201905092915050565b600082825260208201905092915050565b600081905092915050565b600082825260208201905092915050565b6000612d9d6020840184612170565b905092915050565b60008083356001602003843603038112612dbe57600080fd5b83810192508235915060208301925067ffffffffffffffff821115612de257600080fd5b600182023603841315612df457600080fd5b509250929050565b6000612e0782612e0e565b9050919050565b600073ffffffffffffffffffffffffffffffffffffffff82169050919050565b600062ffffff82169050919050565b6000819050919050565b6000612e5282612e59565b9050919050565b6000612e6482612e6b565b9050919050565b6000612e7682612e0e565b9050919050565b82818337600083830152505050565b60005b83811015612eaa578082015181840152602081019050612e8f565b83811115612eb9576000848401525b50505050565bfe5b6000601f19601f8301169050919050565b612edb81612dfc565b8114612ee657600080fd5b50565b612ef281612e2e565b8114612efd57600080fd5b50565b612f0981612e3d565b8114612f1457600080fd5b5056fe4f776e61626c653a206e6577206f776e657220697320746865207a65726f2061646472657373a2646970667358221220a16a92503f9a5bd8567ca354fab3d5590fe263fc498882dfd888438ba8a2da9864736f6c63430007060033",
  "immutableReferences": {
    "693": [
      {
        "length": 32,
        "start": 1616
      },
      {
        "length": 32,
        "start": 3326
      },
      {
        "length": 32,
        "start": 3707
      }
    ],
    "695": [
      {
        "length": 32,
        "start": 254
      },
      {
        "length": 32,
        "start": 2041
      },
      {
        "length": 32,
        "start": 2364
      },
      {
        "length": 32,
        "start": 2519
      },
      {
        "length": 32,
        "start": 7101
      },
      {
        "length": 32,
        "start": 7197
      },
      {
        "length": 32,
        "start": 7326
      }
    ]
  },
  "source": "// SPDX-License-Identifier: MIT;\r\npragma solidity >=0.7.6;\r\npragma experimental ABIEncoderV2;\r\n\r\nimport { IUniswapV3FlashCallback } from \"../interfaces/IUniswapV3FlashCallback.sol\";\r\nimport { IUniswapV3Pool } from \"../interfaces/IUniswapV3Pool.sol\";\r\nimport { PeripheryPayments, IERC20, TransferHelper } from \"../utils/PeripheryPayments.sol\";\r\nimport { PeripheryImmutableState } from \"../utils/PeripheryImmutableState.sol\";\r\nimport { PoolAddress } from \"../utils/PoolAddress.sol\";\r\nimport { SafeMath } from \"../utils/SafeMath.sol\";\r\nimport { Ownable } from \"@openzeppelin/contracts/access/Ownable.sol\";\r\nimport { ReentrancyGuard } from \"@openzeppelin/contracts/utils/ReentrancyGuard.sol\";\r\n\r\n/// @title Flashloan contract implementation\r\n/// @notice contract using the Uniswap V3 flash function\r\ncontract UniswapFlash1Inch is \r\n    IUniswapV3FlashCallback,\r\n    PeripheryImmutableState,\r\n    PeripheryPayments,\r\n    ReentrancyGuard,\r\n    Ownable {\r\n    using SafeMath for uint256;\r\n    struct FlashCallbackData {\r\n        uint256 amount0;\r\n        uint256 amount1;\r\n        address payer;\r\n        PoolAddress.PoolKey poolKey;\r\n    }\r\n    address public oneInchRouter = 0x1111111254fb6c44bAC0beD2854e76F90643097d;\r\n    uint24 public flashPoolFee = 500;  //  flash from the 0.05% fee of pool\r\n    constructor(\r\n        address _factory,\r\n        address _WETH9\r\n    ) PeripheryImmutableState(_factory, _WETH9) {}\r\n    function initUniFlashSwap(\r\n        address[] calldata loanAssets,\r\n        uint256[] calldata loanAmounts,\r\n        address[] calldata tokenPath,\r\n        // address[] calldata oneInchRouters,\r\n        bytes[] calldata tradeDatas\r\n    ) external nonReentrant {\r\n        PoolAddress.PoolKey memory poolKey = PoolAddress.PoolKey(\r\n            {\r\n                token0: loanAssets[0],\r\n                token1: loanAssets[1],\r\n                fee: flashPoolFee\r\n            }\r\n        );\r\n        uint amount0 = loanAmounts[0];\r\n        uint amount1 = loanAmounts[1];\r\n        address flashPool = getFlashPool(factory, poolKey);\r\n        require(flashPool != address(0), \"Invalid flash pool!\");\r\n\r\n        IUniswapV3Pool(flashPool).flash(\r\n            address(this),\r\n            amount0,\r\n            amount1,\r\n            abi.encode(\r\n                FlashCallbackData({\r\n                    amount0: amount0,\r\n                    amount1: amount1,\r\n                    payer: msg.sender,\r\n                    poolKey: poolKey\r\n                }),\r\n                tokenPath,\r\n                // oneInchRouters,\r\n                tradeDatas\r\n            )\r\n        );\r\n    }\r\n\r\n    function uniswapV3FlashCallback(\r\n        uint256 fee0,\r\n        uint256 fee1,\r\n        bytes calldata data\r\n    ) external override {\r\n        address self = address(this); \r\n        (\r\n            FlashCallbackData memory callback,\r\n            address[] memory tokenPath,\r\n            // address[] memory routers,\r\n            bytes[] memory tradeDatas\r\n        ) = abi.decode(data, (FlashCallbackData, address[], bytes[]));\r\n        require(msg.sender == getFlashPool(factory, callback.poolKey), \"Only Pool can call!\");\r\n        // CallbackValidation.verifyCallback(factory, callback.poolKey);\r\n        // require(\r\n        //     callback.amount0 == 0 ||  callback.amount1 == 0,\r\n        //     \"one of amounts must be 0\"\r\n        // );\r\n        address loanToken = callback.amount0 > 0 ? callback.poolKey.token0: callback.poolKey.token1;\r\n        uint256 loanAmount = callback.amount0 > 0 ? callback.amount0: callback.amount1;\r\n        uint256 fee = callback.amount0 > 0 ? fee0 : fee1;\r\n        // address payer = callback.payer;\r\n        // start trade\r\n        for (uint i; i < tradeDatas.length; i++) {\r\n            // address router = routers[i];\r\n            // address tokenIn = tokenPath[i];\r\n            uint256 amountIn = IERC20(tokenPath[i]).balanceOf(self);\r\n            require(amountIn > 0, \"Balanace is 0!\");\r\n            // approveToken(tokenIn, router);\r\n            (bool success, ) = oneInchRouter.call(tradeDatas[i]);\r\n            require(success, \"Swap Failue!\");\r\n        }\r\n        uint256 amountOut = IERC20(loanToken).balanceOf(self);\r\n        uint256 amountOwed = loanAmount.add(fee);\r\n        \r\n        if (amountOut >= amountOwed) {\r\n            pay(loanToken, self, msg.sender, amountOwed);\r\n        }\r\n        uint256 profit = amountOut.sub(amountOwed);\r\n        if (profit > 0) {\r\n            pay(loanToken, self, callback.payer, profit);\r\n        }\r\n    }\r\n    function getFlashPool(\r\n        address factory, \r\n        PoolAddress.PoolKey memory poolKey\r\n    ) public pure returns (address) {\r\n        return PoolAddress.computeAddress(factory, poolKey);\r\n    }\r\n    function approveToken(address token) public {\r\n        TransferHelper.safeApprove(token, oneInchRouter, uint(-1));\r\n    }\r\n    function setFlashPoolFee(uint24 poolFee) public onlyOwner() {\r\n        flashPoolFee = poolFee;\r\n    }\r\n    function changeOneInchRouter(address router) public onlyOwner() {\r\n        oneInchRouter = router;\r\n    }\r\n    fallback() external payable {}\r\n//     receive() external payable {\r\n//         // solhint-disable-next-line avoid-tx-origin\r\n//         require(msg.sender != tx.origin, \"ETH deposit rejected\");\r\n//     }\r\n}\r\n",
  "sourcePath": "D:\\MyWorks\\MySolidities\\SilvanShwarz\\FlashLoans\\uni-flashswap-truffle\\contracts\\flashloans\\UniswapFlash1Inch.sol",
  "compiler": {
    "name": "solc",
    "version": "0.7.6+commit.7338295f.Emscripten.clang"
  },
  "schemaVersion": "3.4.7",
  "updatedAt": "2022-07-07T13:13:41.326Z",
  "networkType": "ethereum",
  "devdoc": {
    "kind": "dev",
    "methods": {
      "owner()": {
        "details": "Returns the address of the current owner."
      },
      "renounceOwnership()": {
        "details": "Leaves the contract without owner. It will not be possible to call `onlyOwner` functions anymore. Can only be called by the current owner. NOTE: Renouncing ownership will leave the contract without an owner, thereby removing any functionality that is only available to the owner."
      },
      "transferOwnership(address)": {
        "details": "Transfers ownership of the contract to a new account (`newOwner`). Can only be called by the current owner."
      },
      "uniswapV3FlashCallback(uint256,uint256,bytes)": {
        "details": "In the implementation you must repay the pool the tokens sent by flash plus the computed fee amounts. The caller of this method must be checked to be a UniswapV3Pool deployed by the canonical UniswapV3Factory.",
        "params": {
          "data": "Any data passed through by the caller via the IUniswapV3PoolActions#flash call",
          "fee0": "The fee amount in token0 due to the pool by the end of the flash",
          "fee1": "The fee amount in token1 due to the pool by the end of the flash"
        }
      }
    },
    "title": "Flashloan contract implementation",
    "version": 1
  },
  "userdoc": {
    "kind": "user",
    "methods": {
      "uniswapV3FlashCallback(uint256,uint256,bytes)": {
        "notice": "Called to `msg.sender` after transferring to the recipient from IUniswapV3Pool#flash."
      }
    },
    "notice": "contract using the Uniswap V3 flash function",
    "version": 1
  }
}