{
  "contractName": "UniswapFlash",
  "abi": [
    {
      "inputs": [
        {
          "internalType": "address",
          "name": "_factory",
          "type": "address"
        },
        {
          "internalType": "address",
          "name": "_WETH9",
          "type": "address"
        }
      ],
      "stateMutability": "nonpayable",
      "type": "constructor"
    },
    {
      "anonymous": false,
      "inputs": [
        {
          "indexed": true,
          "internalType": "address",
          "name": "_pool",
          "type": "address"
        },
        {
          "indexed": true,
          "internalType": "address",
          "name": "_loanAsset",
          "type": "address"
        },
        {
          "indexed": false,
          "internalType": "uint256",
          "name": "_loanAmount",
          "type": "uint256"
        },
        {
          "indexed": false,
          "internalType": "uint256",
          "name": "_fee",
          "type": "uint256"
        }
      ],
      "name": "AssetBorrowedFromPool",
      "type": "event"
    },
    {
      "anonymous": false,
      "inputs": [
        {
          "indexed": true,
          "internalType": "address",
          "name": "_swapAsset",
          "type": "address"
        },
        {
          "indexed": false,
          "internalType": "uint256",
          "name": "_swapAmount",
          "type": "uint256"
        }
      ],
      "name": "AssetSwaped",
      "type": "event"
    },
    {
      "anonymous": false,
      "inputs": [
        {
          "indexed": true,
          "internalType": "address",
          "name": "_sender",
          "type": "address"
        },
        {
          "indexed": false,
          "internalType": "uint24",
          "name": "_fee",
          "type": "uint24"
        }
      ],
      "name": "ChangedFlashPoolFee",
      "type": "event"
    },
    {
      "anonymous": false,
      "inputs": [
        {
          "indexed": true,
          "internalType": "address",
          "name": "_loanAsset",
          "type": "address"
        },
        {
          "indexed": false,
          "internalType": "uint256",
          "name": "_loanAmount",
          "type": "uint256"
        },
        {
          "indexed": true,
          "internalType": "address",
          "name": "_tradeAsset",
          "type": "address"
        },
        {
          "indexed": false,
          "internalType": "uint16",
          "name": "_tradeDex",
          "type": "uint16"
        }
      ],
      "name": "FalshloanInited",
      "type": "event"
    },
    {
      "anonymous": false,
      "inputs": [
        {
          "indexed": true,
          "internalType": "address",
          "name": "previousOwner",
          "type": "address"
        },
        {
          "indexed": true,
          "internalType": "address",
          "name": "newOwner",
          "type": "address"
        }
      ],
      "name": "OwnershipTransferred",
      "type": "event"
    },
    {
      "anonymous": false,
      "inputs": [
        {
          "indexed": true,
          "internalType": "address",
          "name": "_pool",
          "type": "address"
        },
        {
          "indexed": true,
          "internalType": "address",
          "name": "_repayedAsset",
          "type": "address"
        },
        {
          "indexed": false,
          "internalType": "uint256",
          "name": "_repayedAmount",
          "type": "uint256"
        }
      ],
      "name": "RepayedAssetToPool",
      "type": "event"
    },
    {
      "anonymous": false,
      "inputs": [
        {
          "indexed": false,
          "internalType": "uint16",
          "name": "_index",
          "type": "uint16"
        },
        {
          "indexed": true,
          "internalType": "address",
          "name": "_router",
          "type": "address"
        },
        {
          "indexed": false,
          "internalType": "uint24",
          "name": "_poolFee",
          "type": "uint24"
        }
      ],
      "name": "RouterInfoSeted",
      "type": "event"
    },
    {
      "anonymous": false,
      "inputs": [
        {
          "indexed": true,
          "internalType": "address",
          "name": "_sender",
          "type": "address"
        },
        {
          "indexed": false,
          "internalType": "uint256",
          "name": "_amountIn",
          "type": "uint256"
        },
        {
          "indexed": false,
          "internalType": "uint256",
          "name": "_amountOut",
          "type": "uint256"
        }
      ],
      "name": "SwapedOnUniswapV2",
      "type": "event"
    },
    {
      "anonymous": false,
      "inputs": [
        {
          "indexed": true,
          "internalType": "address",
          "name": "_sender",
          "type": "address"
        },
        {
          "indexed": false,
          "internalType": "uint256",
          "name": "_amountIn",
          "type": "uint256"
        },
        {
          "indexed": false,
          "internalType": "uint256",
          "name": "_amountOut",
          "type": "uint256"
        }
      ],
      "name": "SwapedOnUniswapV3",
      "type": "event"
    },
    {
      "anonymous": false,
      "inputs": [
        {
          "indexed": true,
          "internalType": "address",
          "name": "_owner",
          "type": "address"
        },
        {
          "indexed": true,
          "internalType": "address",
          "name": "_profitAsset",
          "type": "address"
        },
        {
          "indexed": false,
          "internalType": "uint256",
          "name": "_profitAmount",
          "type": "uint256"
        }
      ],
      "name": "TransferProfitToWallet",
      "type": "event"
    },
    {
      "stateMutability": "payable",
      "type": "fallback",
      "payable": true
    },
    {
      "inputs": [],
      "name": "KYBER_ROUTER_ID",
      "outputs": [
        {
          "internalType": "uint16",
          "name": "",
          "type": "uint16"
        }
      ],
      "stateMutability": "view",
      "type": "function",
      "constant": true
    },
    {
      "inputs": [],
      "name": "ONEINCHISWAP_ROUTER_ID",
      "outputs": [
        {
          "internalType": "uint16",
          "name": "",
          "type": "uint16"
        }
      ],
      "stateMutability": "view",
      "type": "function",
      "constant": true
    },
    {
      "inputs": [],
      "name": "SIBASWAP_ROUTER_ID",
      "outputs": [
        {
          "internalType": "uint16",
          "name": "",
          "type": "uint16"
        }
      ],
      "stateMutability": "view",
      "type": "function",
      "constant": true
    },
    {
      "inputs": [],
      "name": "SUSHISWAP_ROUTER_ID",
      "outputs": [
        {
          "internalType": "uint16",
          "name": "",
          "type": "uint16"
        }
      ],
      "stateMutability": "view",
      "type": "function",
      "constant": true
    },
    {
      "inputs": [],
      "name": "UNISWAP_V2_ROUTER_ID",
      "outputs": [
        {
          "internalType": "uint16",
          "name": "",
          "type": "uint16"
        }
      ],
      "stateMutability": "view",
      "type": "function",
      "constant": true
    },
    {
      "inputs": [],
      "name": "UNISWAP_V3_ROUTER_ID",
      "outputs": [
        {
          "internalType": "uint16",
          "name": "",
          "type": "uint16"
        }
      ],
      "stateMutability": "view",
      "type": "function",
      "constant": true
    },
    {
      "inputs": [],
      "name": "WETH9",
      "outputs": [
        {
          "internalType": "address",
          "name": "",
          "type": "address"
        }
      ],
      "stateMutability": "view",
      "type": "function",
      "constant": true
    },
    {
      "inputs": [],
      "name": "factory",
      "outputs": [
        {
          "internalType": "address",
          "name": "",
          "type": "address"
        }
      ],
      "stateMutability": "view",
      "type": "function",
      "constant": true
    },
    {
      "inputs": [],
      "name": "flashPool",
      "outputs": [
        {
          "internalType": "contract IUniswapV3Pool",
          "name": "",
          "type": "address"
        }
      ],
      "stateMutability": "view",
      "type": "function",
      "constant": true
    },
    {
      "inputs": [],
      "name": "flashPoolFee",
      "outputs": [
        {
          "internalType": "uint24",
          "name": "",
          "type": "uint24"
        }
      ],
      "stateMutability": "view",
      "type": "function",
      "constant": true
    },
    {
      "inputs": [],
      "name": "owner",
      "outputs": [
        {
          "internalType": "address",
          "name": "",
          "type": "address"
        }
      ],
      "stateMutability": "view",
      "type": "function",
      "constant": true
    },
    {
      "inputs": [],
      "name": "refundETH",
      "outputs": [],
      "stateMutability": "payable",
      "type": "function",
      "payable": true
    },
    {
      "inputs": [],
      "name": "renounceOwnership",
      "outputs": [],
      "stateMutability": "nonpayable",
      "type": "function"
    },
    {
      "inputs": [
        {
          "internalType": "uint16",
          "name": "routerID",
          "type": "uint16"
        },
        {
          "components": [
            {
              "internalType": "address",
              "name": "router",
              "type": "address"
            },
            {
              "internalType": "uint24",
              "name": "poolFee",
              "type": "uint24"
            },
            {
              "internalType": "uint64",
              "name": "deadline",
              "type": "uint64"
            },
            {
              "internalType": "enum SwapInforRegistry.DexSeries",
              "name": "series",
              "type": "uint8"
            }
          ],
          "internalType": "struct SwapInforRegistry.SwapRouterInfo",
          "name": "routerInfo",
          "type": "tuple"
        }
      ],
      "name": "setSwapRouterInfo",
      "outputs": [],
      "stateMutability": "nonpayable",
      "type": "function"
    },
    {
      "inputs": [
        {
          "internalType": "uint16",
          "name": "",
          "type": "uint16"
        }
      ],
      "name": "swapRouterInfos",
      "outputs": [
        {
          "internalType": "address",
          "name": "router",
          "type": "address"
        },
        {
          "internalType": "uint24",
          "name": "poolFee",
          "type": "uint24"
        },
        {
          "internalType": "uint64",
          "name": "deadline",
          "type": "uint64"
        },
        {
          "internalType": "enum SwapInforRegistry.DexSeries",
          "name": "series",
          "type": "uint8"
        }
      ],
      "stateMutability": "view",
      "type": "function",
      "constant": true
    },
    {
      "inputs": [
        {
          "internalType": "address",
          "name": "token",
          "type": "address"
        },
        {
          "internalType": "uint256",
          "name": "amountMinimum",
          "type": "uint256"
        },
        {
          "internalType": "address",
          "name": "recipient",
          "type": "address"
        }
      ],
      "name": "sweepToken",
      "outputs": [],
      "stateMutability": "payable",
      "type": "function",
      "payable": true
    },
    {
      "inputs": [
        {
          "internalType": "address",
          "name": "newOwner",
          "type": "address"
        }
      ],
      "name": "transferOwnership",
      "outputs": [],
      "stateMutability": "nonpayable",
      "type": "function"
    },
    {
      "inputs": [],
      "name": "uniswapV2Router",
      "outputs": [
        {
          "internalType": "contract IUniswapV2Router02",
          "name": "",
          "type": "address"
        }
      ],
      "stateMutability": "view",
      "type": "function",
      "constant": true
    },
    {
      "inputs": [],
      "name": "uniswapV3Router",
      "outputs": [
        {
          "internalType": "contract ISwapRouter",
          "name": "",
          "type": "address"
        }
      ],
      "stateMutability": "view",
      "type": "function",
      "constant": true
    },
    {
      "inputs": [
        {
          "internalType": "uint256",
          "name": "amountMinimum",
          "type": "uint256"
        },
        {
          "internalType": "address",
          "name": "recipient",
          "type": "address"
        }
      ],
      "name": "unwrapWETH9",
      "outputs": [],
      "stateMutability": "payable",
      "type": "function",
      "payable": true
    },
    {
      "stateMutability": "payable",
      "type": "receive",
      "payable": true
    },
    {
      "inputs": [
        {
          "internalType": "address[]",
          "name": "loanAssets",
          "type": "address[]"
        },
        {
          "internalType": "uint256[]",
          "name": "loanAmounts",
          "type": "uint256[]"
        },
        {
          "internalType": "address[]",
          "name": "tradeAssets",
          "type": "address[]"
        },
        {
          "internalType": "uint16[]",
          "name": "tradeDexs",
          "type": "uint16[]"
        }
      ],
      "name": "initUniFlashSwap",
      "outputs": [],
      "stateMutability": "nonpayable",
      "type": "function"
    },
    {
      "inputs": [
        {
          "internalType": "uint256",
          "name": "fee0",
          "type": "uint256"
        },
        {
          "internalType": "uint256",
          "name": "fee1",
          "type": "uint256"
        },
        {
          "internalType": "bytes",
          "name": "data",
          "type": "bytes"
        }
      ],
      "name": "uniswapV3FlashCallback",
      "outputs": [],
      "stateMutability": "nonpayable",
      "type": "function"
    },
    {
      "inputs": [
        {
          "internalType": "uint24",
          "name": "poolFee",
          "type": "uint24"
        }
      ],
      "name": "setFlashPoolFee",
      "outputs": [],
      "stateMutability": "nonpayable",
      "type": "function"
    }
  ],
  "bytecode": "0x60c06040523480156200001157600080fd5b506040516200433a3803806200433a833981810160405281019062000037919062000181565b81818173ffffffffffffffffffffffffffffffffffffffff1660808173ffffffffffffffffffffffffffffffffffffffff1660601b815250508073ffffffffffffffffffffffffffffffffffffffff1660a08173ffffffffffffffffffffffffffffffffffffffff1660601b8152505050506000620000bb6200016260201b60201c565b905080600260006101000a81548173ffffffffffffffffffffffffffffffffffffffff021916908373ffffffffffffffffffffffffffffffffffffffff1602179055508073ffffffffffffffffffffffffffffffffffffffff16600073ffffffffffffffffffffffffffffffffffffffff167f8be0079c531659141344cd1fd0a4f28419497f9722a3daafe3b4186f6b6457e060405160405180910390a350505062000210565b600033905090565b6000815190506200017b81620001f6565b92915050565b600080604083850312156200019557600080fd5b6000620001a5858286016200016a565b9250506020620001b8858286016200016a565b9150509250929050565b6000620001cf82620001d6565b9050919050565b600073ffffffffffffffffffffffffffffffffffffffff82169050919050565b6200020181620001c2565b81146200020d57600080fd5b50565b60805160601c60a05160601c6140d8620002626000398061014b5280610735528061087852806109935280611e955280611ef55280611f76525080610e1a528061113752806112af52506140d86000f3fe6080604052600436106101445760003560e01c8063715018a6116100b6578063b18759e81161006f578063b18759e8146104b6578063c45a0155146104df578063df2ab5bb1461050a578063e9cbafb014610526578063ea3b44311461054f578063f2fde38b1461057a5761020c565b8063715018a6146103ca57806386c4571e146103e15780638da5cb5b1461040c5780639cd4316014610437578063a0336d1514610462578063aa7f0ceb1461048b5761020c565b8063285978f411610108578063285978f4146102c25780632c76d7a6146102ed57806349404b7c1461031857806349bae2ce146103345780634aa4a4fc146103745780634b39f49b1461039f5761020c565b80630deed49d1461020e57806312210e8a146102375780631694505e14610241578063208aec901461026c578063279fd181146102975761020c565b3661020c577f000000000000000000000000000000000000000000000000000000000000000073ffffffffffffffffffffffffffffffffffffffff163373ffffffffffffffffffffffffffffffffffffffff161461020a576040517f08c379a00000000000000000000000000000000000000000000000000000000081526004018080602001828103825260098152602001807f4e6f74205745544839000000000000000000000000000000000000000000000081525060200191505060405180910390fd5b005b005b34801561021a57600080fd5b506102356004803603810190610230919061340b565b6105a3565b005b61023f6106c2565b005b34801561024d57600080fd5b506102566106d8565b6040516102639190613aef565b60405180910390f35b34801561027857600080fd5b506102816106fe565b60405161028e9190613c6b565b60405180910390f35b3480156102a357600080fd5b506102ac610703565b6040516102b99190613c6b565b60405180910390f35b3480156102ce57600080fd5b506102d7610708565b6040516102e49190613c6b565b60405180910390f35b3480156102f957600080fd5b5061030261070d565b60405161030f9190613ad4565b60405180910390f35b610332600480360381019061032d919061345d565b610731565b005b34801561034057600080fd5b5061035b600480360381019061035691906133a6565b610911565b60405161036b9493929190613a8f565b60405180910390f35b34801561038057600080fd5b50610389610991565b6040516103969190613a28565b60405180910390f35b3480156103ab57600080fd5b506103b46109b5565b6040516103c19190613c6b565b60405180910390f35b3480156103d657600080fd5b506103df6109ba565b005b3480156103ed57600080fd5b506103f6610b2a565b6040516104039190613c6b565b60405180910390f35b34801561041857600080fd5b50610421610b2f565b60405161042e9190613a28565b60405180910390f35b34801561044357600080fd5b5061044c610b59565b6040516104599190613c6b565b60405180910390f35b34801561046e57600080fd5b50610489600480360381019061048491906133cf565b610b5e565b005b34801561049757600080fd5b506104a0610d4c565b6040516104ad9190613b0a565b60405180910390f35b3480156104c257600080fd5b506104dd60048036038101906104d89190613251565b610d72565b005b3480156104eb57600080fd5b506104f4611135565b6040516105019190613a28565b60405180910390f35b610524600480360381019061051f9190613202565b611159565b005b34801561053257600080fd5b5061054d60048036038101906105489190613499565b611290565b005b34801561055b57600080fd5b5061056461157d565b6040516105719190613caf565b60405180910390f35b34801561058657600080fd5b506105a1600480360381019061059c91906131d9565b611592565b005b6105ab611787565b73ffffffffffffffffffffffffffffffffffffffff166105c9610b2f565b73ffffffffffffffffffffffffffffffffffffffff1614610652576040517f08c379a00000000000000000000000000000000000000000000000000000000081526004018080602001828103825260208152602001807f4f776e61626c653a2063616c6c6572206973206e6f7420746865206f776e657281525060200191505060405180910390fd5b80600460146101000a81548162ffffff021916908362ffffff1602179055503373ffffffffffffffffffffffffffffffffffffffff167f60b90272866df655104677034305b0c7023abdc30f5e269f836d8dd8e4a597bb826040516106b79190613caf565b60405180910390a250565b60004711156106d6576106d5334761178f565b5b565b600160009054906101000a900473ffffffffffffffffffffffffffffffffffffffff1681565b600581565b600181565b600381565b60008054906101000a900473ffffffffffffffffffffffffffffffffffffffff1681565b60007f000000000000000000000000000000000000000000000000000000000000000073ffffffffffffffffffffffffffffffffffffffff166370a08231306040518263ffffffff1660e01b8152600401808273ffffffffffffffffffffffffffffffffffffffff16815260200191505060206040518083038186803b1580156107ba57600080fd5b505afa1580156107ce573d6000803e3d6000fd5b505050506040513d60208110156107e457600080fd5b810190808051906020019092919050505090508281101561086d576040517f08c379a00000000000000000000000000000000000000000000000000000000081526004018080602001828103825260128152602001807f496e73756666696369656e74205745544839000000000000000000000000000081525060200191505060405180910390fd5b600081111561090c577f000000000000000000000000000000000000000000000000000000000000000073ffffffffffffffffffffffffffffffffffffffff16632e1a7d4d826040518263ffffffff1660e01b815260040180828152602001915050600060405180830381600087803b1580156108e957600080fd5b505af11580156108fd573d6000803e3d6000fd5b5050505061090b828261178f565b5b505050565b60036020528060005260406000206000915090508060000160009054906101000a900473ffffffffffffffffffffffffffffffffffffffff16908060000160149054906101000a900462ffffff16908060000160179054906101000a900467ffffffffffffffff169080600001601f9054906101000a900460ff16905084565b7f000000000000000000000000000000000000000000000000000000000000000081565b600681565b6109c2611787565b73ffffffffffffffffffffffffffffffffffffffff166109e0610b2f565b73ffffffffffffffffffffffffffffffffffffffff1614610a69576040517f08c379a00000000000000000000000000000000000000000000000000000000081526004018080602001828103825260208152602001807f4f776e61626c653a2063616c6c6572206973206e6f7420746865206f776e657281525060200191505060405180910390fd5b600073ffffffffffffffffffffffffffffffffffffffff16600260009054906101000a900473ffffffffffffffffffffffffffffffffffffffff1673ffffffffffffffffffffffffffffffffffffffff167f8be0079c531659141344cd1fd0a4f28419497f9722a3daafe3b4186f6b6457e060405160405180910390a36000600260006101000a81548173ffffffffffffffffffffffffffffffffffffffff021916908373ffffffffffffffffffffffffffffffffffffffff160217905550565b600281565b6000600260009054906101000a900473ffffffffffffffffffffffffffffffffffffffff16905090565b600481565b610b66611787565b73ffffffffffffffffffffffffffffffffffffffff16610b84610b2f565b73ffffffffffffffffffffffffffffffffffffffff1614610c0d576040517f08c379a00000000000000000000000000000000000000000000000000000000081526004018080602001828103825260208152602001807f4f776e61626c653a2063616c6c6572206973206e6f7420746865206f776e657281525060200191505060405180910390fd5b80600360008461ffff1661ffff16815260200190815260200160002060008201518160000160006101000a81548173ffffffffffffffffffffffffffffffffffffffff021916908373ffffffffffffffffffffffffffffffffffffffff16021790555060208201518160000160146101000a81548162ffffff021916908362ffffff16021790555060408201518160000160176101000a81548167ffffffffffffffff021916908367ffffffffffffffff160217905550606082015181600001601f6101000a81548160ff02191690836002811115610ce857fe5b0217905550905050806000015173ffffffffffffffffffffffffffffffffffffffff167f5abf221579b58ae5badbbe69de8ff53a038c6999adafded3804fabe83a15b2a6838360200151604051610d40929190613c86565b60405180910390a25050565b600460009054906101000a900473ffffffffffffffffffffffffffffffffffffffff1681565b600060405180606001604052808a8a6000818110610d8c57fe5b9050602002016020810190610da191906131d9565b73ffffffffffffffffffffffffffffffffffffffff1681526020018a8a6001818110610dc957fe5b9050602002016020810190610dde91906131d9565b73ffffffffffffffffffffffffffffffffffffffff168152602001600460149054906101000a900462ffffff1662ffffff168152509050610e3f7f00000000000000000000000000000000000000000000000000000000000000008261190b565b600460006101000a81548173ffffffffffffffffffffffffffffffffffffffff021916908373ffffffffffffffffffffffffffffffffffffffff160217905550600073ffffffffffffffffffffffffffffffffffffffff16600460009054906101000a900473ffffffffffffffffffffffffffffffffffffffff1673ffffffffffffffffffffffffffffffffffffffff161415610f11576040517f08c379a0000000000000000000000000000000000000000000000000000000008152600401610f0890613b45565b60405180910390fd5b84846000818110610f1e57fe5b9050602002016020810190610f3391906131d9565b73ffffffffffffffffffffffffffffffffffffffff1689896000818110610f5657fe5b9050602002016020810190610f6b91906131d9565b73ffffffffffffffffffffffffffffffffffffffff167f27a8dbde080481be7a4a40e47c18a132bd7edaf28aaaafa729d4d4593f822ce489896000818110610faf57fe5b9050602002013586866000818110610fc357fe5b9050602002016020810190610fd891906133a6565b604051610fe6929190613ce5565b60405180910390a3600460009054906101000a900473ffffffffffffffffffffffffffffffffffffffff1673ffffffffffffffffffffffffffffffffffffffff1663490e6cbc308989600081811061103a57fe5b905060200201358a8a600181811061104e57fe5b9050602002013560405180608001604052808d8d600081811061106d57fe5b9050602002013581526020018d8d600181811061108657fe5b9050602002013581526020013373ffffffffffffffffffffffffffffffffffffffff168152602001878152508a8a8a8a6040516020016110ca959493929190613c21565b6040516020818303038152906040526040518563ffffffff1660e01b81526004016110f89493929190613a43565b600060405180830381600087803b15801561111257600080fd5b505af1158015611126573d6000803e3d6000fd5b50505050505050505050505050565b7f000000000000000000000000000000000000000000000000000000000000000081565b60008373ffffffffffffffffffffffffffffffffffffffff166370a08231306040518263ffffffff1660e01b8152600401808273ffffffffffffffffffffffffffffffffffffffff16815260200191505060206040518083038186803b1580156111c257600080fd5b505afa1580156111d6573d6000803e3d6000fd5b505050506040513d60208110156111ec57600080fd5b8101908080519060200190929190505050905082811015611275576040517f08c379a00000000000000000000000000000000000000000000000000000000081526004018080602001828103825260128152602001807f496e73756666696369656e7420746f6b656e000000000000000000000000000081525060200191505060405180910390fd5b600081111561128a57611289848383611a66565b5b50505050565b600080600084848101906112a49190613326565b9250925092506112d87f00000000000000000000000000000000000000000000000000000000000000008460600151611c67565b506000836000015114806112f0575060008360200151145b61132f576040517f08c379a000000000000000000000000000000000000000000000000000000000815260040161132690613b25565b60405180910390fd5b60008084600001511161134a57836060015160200151611354565b8360600151600001515b905060008085600001511161136d578460200151611373565b84600001515b9050600080866000015111611388578861138a565b895b90506000866040015190508373ffffffffffffffffffffffffffffffffffffffff163373ffffffffffffffffffffffffffffffffffffffff167fe34b0e04ae052dd430a0a091513777d86e826ac191c765d4b2d220f5635e9aa985856040516113f4929190613d0e565b60405180910390a3600061140b3086868a8a611cb3565b90508473ffffffffffffffffffffffffffffffffffffffff167fadeeeb0e210dd0c0566988a1165a67260d25475b265e25a51cf6dec9342a967b826040516114539190613cca565b60405180910390a260006114678585611e79565b905060008111156114e45761147e86303384611e93565b8573ffffffffffffffffffffffffffffffffffffffff163373ffffffffffffffffffffffffffffffffffffffff167f108a8f2f13d6db03229ae1fb9d5dc799045c394a115f518f76d64b75abaade43836040516114db9190613cca565b60405180910390a35b60006114f0838361209e565b9050600081111561156d5761150787308684611e93565b8673ffffffffffffffffffffffffffffffffffffffff168473ffffffffffffffffffffffffffffffffffffffff167f58b534da795e18a747c883c055e0de342a000faea470ccdd0ea890e8f11e9d02836040516115649190613cca565b60405180910390a35b5050505050505050505050505050565b600460149054906101000a900462ffffff1681565b61159a611787565b73ffffffffffffffffffffffffffffffffffffffff166115b8610b2f565b73ffffffffffffffffffffffffffffffffffffffff1614611641576040517f08c379a00000000000000000000000000000000000000000000000000000000081526004018080602001828103825260208152602001807f4f776e61626c653a2063616c6c6572206973206e6f7420746865206f776e657281525060200191505060405180910390fd5b600073ffffffffffffffffffffffffffffffffffffffff168173ffffffffffffffffffffffffffffffffffffffff1614156116c7576040517f08c379a000000000000000000000000000000000000000000000000000000000815260040180806020018281038252602681526020018061407d6026913960400191505060405180910390fd5b8073ffffffffffffffffffffffffffffffffffffffff16600260009054906101000a900473ffffffffffffffffffffffffffffffffffffffff1673ffffffffffffffffffffffffffffffffffffffff167f8be0079c531659141344cd1fd0a4f28419497f9722a3daafe3b4186f6b6457e060405160405180910390a380600260006101000a81548173ffffffffffffffffffffffffffffffffffffffff021916908373ffffffffffffffffffffffffffffffffffffffff16021790555050565b600033905090565b60008273ffffffffffffffffffffffffffffffffffffffff1682600067ffffffffffffffff811180156117c157600080fd5b506040519080825280601f01601f1916602001820160405280156117f45781602001600182028036833780820191505090505b506040518082805190602001908083835b602083106118285780518252602082019150602081019050602083039250611805565b6001836020036101000a03801982511681845116808217855250505050505090500191505060006040518083038185875af1925050503d806000811461188a576040519150601f19603f3d011682016040523d82523d6000602084013e61188f565b606091505b5050905080611906576040517f08c379a00000000000000000000000000000000000000000000000000000000081526004018080602001828103825260038152602001807f535445000000000000000000000000000000000000000000000000000000000081525060200191505060405180910390fd5b505050565b6000816020015173ffffffffffffffffffffffffffffffffffffffff16826000015173ffffffffffffffffffffffffffffffffffffffff161061194d57600080fd5b82826000015183602001518460400151604051602001808473ffffffffffffffffffffffffffffffffffffffff1681526020018373ffffffffffffffffffffffffffffffffffffffff1681526020018262ffffff1681526020019350505050604051602081830303815290604052805190602001207fe34f199b19b2b4f47f68442619d555527d244f78a3297ea89325f843f87b8b5460001b60405160200180807fff000000000000000000000000000000000000000000000000000000000000008152506001018473ffffffffffffffffffffffffffffffffffffffff1660601b815260140183815260200182815260200193505050506040516020818303038152906040528051906020012060001c905092915050565b6000808473ffffffffffffffffffffffffffffffffffffffff1663a9059cbb60e01b8585604051602401808373ffffffffffffffffffffffffffffffffffffffff16815260200182815260200192505050604051602081830303815290604052907bffffffffffffffffffffffffffffffffffffffffffffffffffffffff19166020820180517bffffffffffffffffffffffffffffffffffffffffffffffffffffffff83818316178352505050506040518082805190602001908083835b60208310611b475780518252602082019150602081019050602083039250611b24565b6001836020036101000a0380198251168184511680821785525050505050509050019150506000604051808303816000865af19150503d8060008114611ba9576040519150601f19603f3d011682016040523d82523d6000602084013e611bae565b606091505b5091509150818015611bee5750600081511480611bed5750808060200190516020811015611bdb57600080fd5b81019080805190602001909291905050505b5b611c60576040517f08c379a00000000000000000000000000000000000000000000000000000000081526004018080602001828103825260028152602001807f535400000000000000000000000000000000000000000000000000000000000081525060200191505060405180910390fd5b5050505050565b6000611c73838361190b565b90508073ffffffffffffffffffffffffffffffffffffffff163373ffffffffffffffffffffffffffffffffffffffff1614611cad57600080fd5b92915050565b6000808411611cf7576040517f08c379a0000000000000000000000000000000000000000000000000000000008152600401611cee90613b65565b60405180910390fd5b8251825114611d3b576040517f08c379a0000000000000000000000000000000000000000000000000000000008152600401611d3290613be5565b60405180910390fd5b8473ffffffffffffffffffffffffffffffffffffffff1683600185510381518110611d6257fe5b602002602001015173ffffffffffffffffffffffffffffffffffffffff1614611dc0576040517f08c379a0000000000000000000000000000000000000000000000000000000008152600401611db790613bc5565b60405180910390fd5b611dfd86611de28786600081518110611dd557fe5b60200260200101516120b8565b8685600081518110611df057fe5b60200260200101516121a0565b90506000600190505b8351811015611e6f57611e6087611e46866001850381518110611e2557fe5b6020026020010151878581518110611e3957fe5b60200260200101516120b8565b84868581518110611e5357fe5b60200260200101516121a0565b91508080600101915050611e06565b5095945050505050565b6000828284019150811015611e8d57600080fd5b92915050565b7f000000000000000000000000000000000000000000000000000000000000000073ffffffffffffffffffffffffffffffffffffffff168473ffffffffffffffffffffffffffffffffffffffff16148015611eee5750804710155b15612046577f000000000000000000000000000000000000000000000000000000000000000073ffffffffffffffffffffffffffffffffffffffff1663d0e30db0826040518263ffffffff1660e01b81526004016000604051808303818588803b158015611f5b57600080fd5b505af1158015611f6f573d6000803e3d6000fd5b50505050507f000000000000000000000000000000000000000000000000000000000000000073ffffffffffffffffffffffffffffffffffffffff1663a9059cbb83836040518363ffffffff1660e01b8152600401808373ffffffffffffffffffffffffffffffffffffffff16815260200182815260200192505050602060405180830381600087803b15801561200557600080fd5b505af1158015612019573d6000803e3d6000fd5b505050506040513d602081101561202f57600080fd5b810190808051906020019092919050505050612098565b3073ffffffffffffffffffffffffffffffffffffffff168373ffffffffffffffffffffffffffffffffffffffff16141561208a57612085848383611a66565b612097565b6120968484848461240b565b5b5b50505050565b60008282840391508111156120b257600080fd5b92915050565b60606000600267ffffffffffffffff811180156120d457600080fd5b506040519080825280602002602001820160405280156121035781602001602082028036833780820191505090505b509050838160008151811061211457fe5b602002602001019073ffffffffffffffffffffffffffffffffffffffff16908173ffffffffffffffffffffffffffffffffffffffff1681525050828160018151811061215c57fe5b602002602001019073ffffffffffffffffffffffffffffffffffffffff16908173ffffffffffffffffffffffffffffffffffffffff16815250508091505092915050565b6000600160028111156121af57fe5b600360008461ffff1661ffff168152602001908152602001600020600001601f9054906101000a900460ff1660028111156121e657fe5b14156122eb57600360008361ffff1661ffff16815260200190815260200160002060000160009054906101000a900473ffffffffffffffffffffffffffffffffffffffff166000806101000a81548173ffffffffffffffffffffffffffffffffffffffff021916908373ffffffffffffffffffffffffffffffffffffffff1602179055506122e48585856000600360008861ffff1661ffff16815260200190815260200160002060000160149054906101000a900462ffffff16600360008961ffff1661ffff16815260200190815260200160002060000160179054906101000a900467ffffffffffffffff16420167ffffffffffffffff1661262b565b9050612403565b6002808111156122f757fe5b600360008461ffff1661ffff168152602001908152602001600020600001601f9054906101000a900460ff16600281111561232e57fe5b141561240257600360008361ffff1661ffff16815260200190815260200160002060000160009054906101000a900473ffffffffffffffffffffffffffffffffffffffff16600160006101000a81548173ffffffffffffffffffffffffffffffffffffffff021916908373ffffffffffffffffffffffffffffffffffffffff1602179055506123ff8585856000600360008861ffff1661ffff16815260200190815260200160002060000160179054906101000a900467ffffffffffffffff16420167ffffffffffffffff166128b8565b90505b5b949350505050565b6000808573ffffffffffffffffffffffffffffffffffffffff166323b872dd60e01b868686604051602401808473ffffffffffffffffffffffffffffffffffffffff1681526020018373ffffffffffffffffffffffffffffffffffffffff1681526020018281526020019350505050604051602081830303815290604052907bffffffffffffffffffffffffffffffffffffffffffffffffffffffff19166020820180517bffffffffffffffffffffffffffffffffffffffffffffffffffffffff83818316178352505050506040518082805190602001908083835b6020831061250a57805182526020820191506020810190506020830392506124e7565b6001836020036101000a0380198251168184511680821785525050505050509050019150506000604051808303816000865af19150503d806000811461256c576040519150601f19603f3d011682016040523d82523d6000602084013e612571565b606091505b50915091508180156125b157506000815114806125b0575080806020019051602081101561259e57600080fd5b81019080805190602001909291905050505b5b612623576040517f08c379a00000000000000000000000000000000000000000000000000000000081526004018080602001828103825260038152602001807f535446000000000000000000000000000000000000000000000000000000000081525060200191505060405180910390fd5b505050505050565b600061266c8660008151811061263d57fe5b602002602001015160008054906101000a900473ffffffffffffffffffffffffffffffffffffffff1687612ba9565b600084116126af576040517f08c379a00000000000000000000000000000000000000000000000000000000081526004016126a690613b85565b60405180910390fd5b60008054906101000a900473ffffffffffffffffffffffffffffffffffffffff1673ffffffffffffffffffffffffffffffffffffffff1663414bf3896040518061010001604052808960008151811061270457fe5b602002602001015173ffffffffffffffffffffffffffffffffffffffff1681526020018960018151811061273457fe5b602002602001015173ffffffffffffffffffffffffffffffffffffffff1681526020018662ffffff1681526020018a73ffffffffffffffffffffffffffffffffffffffff168152602001858152602001888152602001878152602001600073ffffffffffffffffffffffffffffffffffffffff168152506040518263ffffffff1660e01b81526004016127c79190613c05565b602060405180830381600087803b1580156127e157600080fd5b505af11580156127f5573d6000803e3d6000fd5b505050506040513d601f19601f820116820180604052508101906128199190613434565b90506000811161285e576040517f08c379a000000000000000000000000000000000000000000000000000000000815260040161285590613ba5565b60405180910390fd5b8673ffffffffffffffffffffffffffffffffffffffff167f2f7db10d9e424ce77a0061845a16d3b3e059bab8b01a40e50440082b9f53440e86836040516128a6929190613d0e565b60405180910390a29695505050505050565b60006128fb856000815181106128ca57fe5b6020026020010151600160009054906101000a900473ffffffffffffffffffffffffffffffffffffffff1686612ba9565b600160009054906101000a900473ffffffffffffffffffffffffffffffffffffffff1673ffffffffffffffffffffffffffffffffffffffff166338ed17398585888a876040518663ffffffff1660e01b815260040180868152602001858152602001806020018473ffffffffffffffffffffffffffffffffffffffff168152602001838152602001828103825285818151815260200191508051906020019060200280838360005b838110156129be5780820151818401526020810190506129a3565b505050509050019650505050505050600060405180830381600087803b1580156129e757600080fd5b505af11580156129fb573d6000803e3d6000fd5b505050506040513d6000823e3d601f19601f820116820180604052506020811015612a2557600080fd5b8101908080516040519392919084640100000000821115612a4557600080fd5b83820191506020820185811115612a5b57600080fd5b8251866020820283011164010000000082111715612a7857600080fd5b8083526020830192505050908051906020019060200280838360005b83811015612aaf578082015181840152602081019050612a94565b50505050905001604052505050600186510381518110612acb57fe5b6020026020010151905060008111612b4b576040517f08c379a00000000000000000000000000000000000000000000000000000000081526004018080602001828103825260198152602001807f53776170206661696c6564206f6e20556e69737761705632210000000000000081525060200191505060405180910390fd5b8573ffffffffffffffffffffffffffffffffffffffff167e6ec893f76d098792a91544430044e42f2d16d5ae60e22346a2c5e5007cef5e8583604051808381526020018281526020019250505060405180910390a295945050505050565b6000808473ffffffffffffffffffffffffffffffffffffffff1663095ea7b360e01b8585604051602401808373ffffffffffffffffffffffffffffffffffffffff16815260200182815260200192505050604051602081830303815290604052907bffffffffffffffffffffffffffffffffffffffffffffffffffffffff19166020820180517bffffffffffffffffffffffffffffffffffffffffffffffffffffffff83818316178352505050506040518082805190602001908083835b60208310612c8a5780518252602082019150602081019050602083039250612c67565b6001836020036101000a0380198251168184511680821785525050505050509050019150506000604051808303816000865af19150503d8060008114612cec576040519150601f19603f3d011682016040523d82523d6000602084013e612cf1565b606091505b5091509150818015612d315750600081511480612d305750808060200190516020811015612d1e57600080fd5b81019080805190602001909291905050505b5b612da3576040517f08c379a00000000000000000000000000000000000000000000000000000000081526004018080602001828103825260028152602001807f534100000000000000000000000000000000000000000000000000000000000081525060200191505060405180910390fd5b5050505050565b6000612dbd612db884613d68565b613d37565b90508083825260208201905082856020860282011115612ddc57600080fd5b60005b85811015612e0c5781612df28882612e82565b845260208401935060208301925050600181019050612ddf565b5050509392505050565b6000612e29612e2484613d94565b613d37565b90508083825260208201905082856020860282011115612e4857600080fd5b60005b85811015612e785781612e5e8882613170565b845260208401935060208301925050600181019050612e4b565b5050509392505050565b600081359050612e9181613ff9565b92915050565b60008083601f840112612ea957600080fd5b8235905067ffffffffffffffff811115612ec257600080fd5b602083019150836020820283011115612eda57600080fd5b9250929050565b600082601f830112612ef257600080fd5b8135612f02848260208601612daa565b91505092915050565b60008083601f840112612f1d57600080fd5b8235905067ffffffffffffffff811115612f3657600080fd5b602083019150836020820283011115612f4e57600080fd5b9250929050565b600082601f830112612f6657600080fd5b8135612f76848260208601612e16565b91505092915050565b60008083601f840112612f9157600080fd5b8235905067ffffffffffffffff811115612faa57600080fd5b602083019150836020820283011115612fc257600080fd5b9250929050565b60008083601f840112612fdb57600080fd5b8235905067ffffffffffffffff811115612ff457600080fd5b60208301915083600182028301111561300c57600080fd5b9250929050565b60008135905061302281614010565b92915050565b600060c0828403121561303a57600080fd5b6130446080613d37565b905060006130548482850161319a565b60008301525060206130688482850161319a565b602083015250604061307c84828501612e82565b60408301525060606130908482850161309c565b60608301525092915050565b6000606082840312156130ae57600080fd5b6130b86060613d37565b905060006130c884828501612e82565b60008301525060206130dc84828501612e82565b60208301525060406130f084828501613185565b60408301525092915050565b60006080828403121561310e57600080fd5b6131186080613d37565b9050600061312884828501612e82565b600083015250602061313c84828501613185565b6020830152506040613150848285016131c4565b604083015250606061316484828501613013565b60608301525092915050565b60008135905061317f81614020565b92915050565b60008135905061319481614037565b92915050565b6000813590506131a98161404e565b92915050565b6000815190506131be8161404e565b92915050565b6000813590506131d381614065565b92915050565b6000602082840312156131eb57600080fd5b60006131f984828501612e82565b91505092915050565b60008060006060848603121561321757600080fd5b600061322586828701612e82565b93505060206132368682870161319a565b925050604061324786828701612e82565b9150509250925092565b6000806000806000806000806080898b03121561326d57600080fd5b600089013567ffffffffffffffff81111561328757600080fd5b6132938b828c01612e97565b9850985050602089013567ffffffffffffffff8111156132b257600080fd5b6132be8b828c01612f7f565b9650965050604089013567ffffffffffffffff8111156132dd57600080fd5b6132e98b828c01612e97565b9450945050606089013567ffffffffffffffff81111561330857600080fd5b6133148b828c01612f0b565b92509250509295985092959890939650565b6000806000610100848603121561333c57600080fd5b600061334a86828701613028565b93505060c084013567ffffffffffffffff81111561336757600080fd5b61337386828701612ee1565b92505060e084013567ffffffffffffffff81111561339057600080fd5b61339c86828701612f55565b9150509250925092565b6000602082840312156133b857600080fd5b60006133c684828501613170565b91505092915050565b60008060a083850312156133e257600080fd5b60006133f085828601613170565b9250506020613401858286016130fc565b9150509250929050565b60006020828403121561341d57600080fd5b600061342b84828501613185565b91505092915050565b60006020828403121561344657600080fd5b6000613454848285016131af565b91505092915050565b6000806040838503121561347057600080fd5b600061347e8582860161319a565b925050602061348f85828601612e82565b9150509250929050565b600080600080606085870312156134af57600080fd5b60006134bd8782880161319a565b94505060206134ce8782880161319a565b935050604085013567ffffffffffffffff8111156134eb57600080fd5b6134f787828801612fc9565b925092505092959194509250565b60006135118383613544565b60208301905092915050565b600061352983836139bf565b60208301905092915050565b61353e81613eeb565b82525050565b61354d81613e6b565b82525050565b61355c81613e6b565b82525050565b600061356e8385613df9565b935061357982613dc0565b8060005b858110156135b25761358f8284613e3d565b6135998882613505565b97506135a483613ddf565b92505060018101905061357d565b5085925050509392505050565b60006135cb8385613e0a565b93506135d682613dca565b8060005b8581101561360f576135ec8284613e54565b6135f6888261351d565b975061360183613dec565b9250506001810190506135da565b5085925050509392505050565b600061362782613dd4565b6136318185613e1b565b9350613641818560208601613f9f565b61364a81613fd4565b840191505092915050565b61365e81613efd565b82525050565b61366d81613f21565b82525050565b61367c81613f45565b82525050565b61368b81613f69565b82525050565b600061369e601883613e2c565b91507f6f6e65206f6620616d6f756e7473206d757374206265203000000000000000006000830152602082019050919050565b60006136de601383613e2c565b91507f496e76616c696420666c61736820706f6f6c21000000000000000000000000006000830152602082019050919050565b600061371e601283613e2c565b91507f6c6f616e656420616d6f756e74206973203000000000000000000000000000006000830152602082019050919050565b600061375e601183613e2c565b91507f616d6f756e744f75744d696e20697320300000000000000000000000000000006000830152602082019050919050565b600061379e601983613e2c565b91507f53776170206661696c6564206f6e20556e6973776170563321000000000000006000830152602082019050919050565b60006137de602f83613e2c565b91507f656e6420747261646520617373657374206d75737420626520657175616c207460008301527f6f206c6f616e65642061737365737400000000000000000000000000000000006020830152604082019050919050565b6000613844601483613e2c565b91507f496e76616c696420747261646520706172616d730000000000000000000000006000830152602082019050919050565b6101008201600082015161388e6000850182613544565b5060208201516138a16020850182613544565b5060408201516138b460408501826139dd565b5060608201516138c76060850182613544565b5060808201516138da60808501826139fb565b5060a08201516138ed60a08501826139fb565b5060c082015161390060c08501826139fb565b5060e082015161391360e08501826139b0565b50505050565b60c08201600082015161392f60008501826139fb565b50602082015161394260208501826139fb565b5060408201516139556040850182613544565b506060820151613968606085018261396e565b50505050565b6060820160008201516139846000850182613544565b5060208201516139976020850182613544565b5060408201516139aa60408501826139dd565b50505050565b6139b981613e9e565b82525050565b6139c881613e90565b82525050565b6139d781613e90565b82525050565b6139e681613ebe565b82525050565b6139f581613ebe565b82525050565b613a0481613ecd565b82525050565b613a1381613ecd565b82525050565b613a2281613ed7565b82525050565b6000602082019050613a3d6000830184613553565b92915050565b6000608082019050613a586000830187613535565b613a656020830186613a0a565b613a726040830185613a0a565b8181036060830152613a84818461361c565b905095945050505050565b6000608082019050613aa46000830187613553565b613ab160208301866139ec565b613abe6040830185613a19565b613acb6060830184613682565b95945050505050565b6000602082019050613ae96000830184613655565b92915050565b6000602082019050613b046000830184613664565b92915050565b6000602082019050613b1f6000830184613673565b92915050565b60006020820190508181036000830152613b3e81613691565b9050919050565b60006020820190508181036000830152613b5e816136d1565b9050919050565b60006020820190508181036000830152613b7e81613711565b9050919050565b60006020820190508181036000830152613b9e81613751565b9050919050565b60006020820190508181036000830152613bbe81613791565b9050919050565b60006020820190508181036000830152613bde816137d1565b9050919050565b60006020820190508181036000830152613bfe81613837565b9050919050565b600061010082019050613c1b6000830184613877565b92915050565b600061010082019050613c376000830188613919565b81810360c0830152613c4a818688613562565b905081810360e0830152613c5f8184866135bf565b90509695505050505050565b6000602082019050613c8060008301846139ce565b92915050565b6000604082019050613c9b60008301856139ce565b613ca860208301846139ec565b9392505050565b6000602082019050613cc460008301846139ec565b92915050565b6000602082019050613cdf6000830184613a0a565b92915050565b6000604082019050613cfa6000830185613a0a565b613d0760208301846139ce565b9392505050565b6000604082019050613d236000830185613a0a565b613d306020830184613a0a565b9392505050565b6000604051905081810181811067ffffffffffffffff82111715613d5e57613d5d613fd2565b5b8060405250919050565b600067ffffffffffffffff821115613d8357613d82613fd2565b5b602082029050602081019050919050565b600067ffffffffffffffff821115613daf57613dae613fd2565b5b602082029050602081019050919050565b6000819050919050565b6000819050919050565b600081519050919050565b6000602082019050919050565b6000602082019050919050565b600082825260208201905092915050565b600082825260208201905092915050565b600082825260208201905092915050565b600082825260208201905092915050565b6000613e4c6020840184612e82565b905092915050565b6000613e636020840184613170565b905092915050565b6000613e7682613e9e565b9050919050565b6000819050613e8b82613fe5565b919050565b600061ffff82169050919050565b600073ffffffffffffffffffffffffffffffffffffffff82169050919050565b600062ffffff82169050919050565b6000819050919050565b600067ffffffffffffffff82169050919050565b6000613ef682613f7b565b9050919050565b6000613f0882613f0f565b9050919050565b6000613f1a82613e9e565b9050919050565b6000613f2c82613f33565b9050919050565b6000613f3e82613e9e565b9050919050565b6000613f5082613f57565b9050919050565b6000613f6282613e9e565b9050919050565b6000613f7482613e7d565b9050919050565b6000613f8682613f8d565b9050919050565b6000613f9882613e9e565b9050919050565b60005b83811015613fbd578082015181840152602081019050613fa2565b83811115613fcc576000848401525b50505050565bfe5b6000601f19601f8301169050919050565b60038110613ff657613ff5613fd2565b5b50565b61400281613e6b565b811461400d57600080fd5b50565b6003811061401d57600080fd5b50565b61402981613e90565b811461403457600080fd5b50565b61404081613ebe565b811461404b57600080fd5b50565b61405781613ecd565b811461406257600080fd5b50565b61406e81613ed7565b811461407957600080fd5b5056fe4f776e61626c653a206e6577206f776e657220697320746865207a65726f2061646472657373a26469706673582212207984602205ad13a7931d53c6597d15d50ce47c4c0932e4cab09292a8d22fef2e64736f6c63430007060033",
  "immutableReferences": {
    "1386": [
      {
        "length": 32,
        "start": 3610
      },
      {
        "length": 32,
        "start": 4407
      },
      {
        "length": 32,
        "start": 4783
      }
    ],
    "1390": [
      {
        "length": 32,
        "start": 331
      },
      {
        "length": 32,
        "start": 1845
      },
      {
        "length": 32,
        "start": 2168
      },
      {
        "length": 32,
        "start": 2451
      },
      {
        "length": 32,
        "start": 7829
      },
      {
        "length": 32,
        "start": 7925
      },
      {
        "length": 32,
        "start": 8054
      }
    ]
  },
  "source": "// SPDX-License-Identifier: GPL-2.0-or-later\r\npragma solidity >=0.7.6;\r\npragma abicoder v2;\r\n\r\nimport \"@uniswap/v3-core/contracts/interfaces/callback/IUniswapV3FlashCallback.sol\";\r\nimport \"@uniswap/v3-core/contracts/interfaces/IUniswapV3Factory.sol\";\r\nimport \"@uniswap/v3-core/contracts/libraries/LowGasSafeMath.sol\";\r\nimport \"@uniswap/v2-periphery/contracts/interfaces/IUniswapV2Router02.sol\";\r\nimport \"@uniswap/v3-periphery/contracts/base/PeripheryPayments.sol\";\r\nimport \"@uniswap/v3-periphery/contracts/base/PeripheryImmutableState.sol\";\r\nimport \"@uniswap/v3-periphery/contracts/libraries/PoolAddress.sol\";\r\nimport \"@uniswap/v3-periphery/contracts/libraries/CallbackValidation.sol\";\r\nimport \"@uniswap/v3-periphery/contracts/interfaces/ISwapRouter.sol\";\r\nimport \"@openzeppelin/contracts/token/ERC20/IERC20.sol\";\r\nimport \"./utils/Helpers.sol\";\r\nimport \"./utils/SwapAssets.sol\";\r\n\r\n/// @title Flash contract implementation\r\n/// @notice An example contract using the Uniswap V3 flash function\r\ncontract UniswapFlash is \r\n    IUniswapV3FlashCallback,\r\n    PeripheryImmutableState,\r\n    PeripheryPayments,\r\n    SwapAssets {\r\n    \r\n\r\n    // fee2 and fee3 are the two other fees associated with the two other pools of token0 and token1\r\n    struct FlashCallbackData {\r\n        uint256 amount0;\r\n        uint256 amount1;\r\n        address payer;\r\n        PoolAddress.PoolKey poolKey;\r\n        // uint24 poolFee2;\r\n        // uint24 poolFee3;\r\n    }\r\n\r\n    using LowGasSafeMath for uint256;\r\n    IUniswapV3Pool public flashPool;\r\n    uint24 public flashPoolFee;  //  flash from the 0.05% fee of pool\r\n\r\n    event FalshloanInited(\r\n        address indexed _loanAsset,\r\n        uint256 _loanAmount,\r\n        address indexed _tradeAsset,\r\n        uint16 _tradeDex\r\n    );\r\n    event AssetBorrowedFromPool(\r\n        address indexed _pool,\r\n        address indexed _loanAsset,\r\n        uint256 _loanAmount,\r\n        uint256 _fee\r\n    );\r\n    event AssetSwaped(\r\n        address indexed _swapAsset,\r\n        uint256 _swapAmount\r\n    );\r\n    event RepayedAssetToPool(\r\n        address indexed _pool,\r\n        address indexed _repayedAsset,\r\n        uint256 _repayedAmount\r\n    );\r\n    event TransferProfitToWallet(\r\n        address indexed _owner,\r\n        address indexed _profitAsset,\r\n        uint256 _profitAmount\r\n    );\r\n    event ChangedFlashPoolFee(address indexed _sender, uint24 _fee);\r\n    constructor(\r\n        address _factory,\r\n        address _WETH9\r\n    ) PeripheryImmutableState(_factory, _WETH9) {\r\n     \r\n    }\r\n\r\n    /// @param loanAssets array of assets pair to loan. for example [token0, token1].\r\n    /// @param loanAmounts array of assets amounts to loan. for example [amount0, amount1].\r\n    ///         one of two amounts must be 0\r\n    /// @param tradeAssets array of assets to trade. end asset must be equal to loaned assest\r\n    /// @param tradeDexs array of dexes to trade.\r\n    /// @notice Calls the pools flash function with data needed in `uniswapV3FlashCallback`\r\n    function initUniFlashSwap(\r\n        address[] calldata loanAssets,\r\n        uint256[] calldata loanAmounts,\r\n        address[] calldata tradeAssets,\r\n        uint16[] calldata tradeDexs\r\n    ) external {\r\n        PoolAddress.PoolKey memory poolKey = PoolAddress.PoolKey(\r\n            {\r\n                token0: loanAssets[0],\r\n                token1: loanAssets[1],\r\n                fee: flashPoolFee\r\n            }\r\n        );\r\n        flashPool = IUniswapV3Pool(PoolAddress.computeAddress(factory, poolKey));\r\n        require(address(flashPool) != address(0), \"Invalid flash pool!\");\r\n        emit FalshloanInited(loanAssets[0], loanAmounts[0], tradeAssets[0], tradeDexs[0]);\r\n\r\n        // recipient of borrowed amounts (should be (this) contract)\r\n        // amount of token0 requested to borrow\r\n        // amount of token1 requested to borrow\r\n        // need amount 0 and amount1 in callback to pay back pool\r\n        // recipient of flash should be THIS contract\r\n        flashPool.flash(\r\n            address(this),\r\n            loanAmounts[0],\r\n            loanAmounts[1],\r\n            abi.encode(\r\n                FlashCallbackData({\r\n                    amount0: loanAmounts[0],\r\n                    amount1: loanAmounts[1],\r\n                    payer: msg.sender,\r\n                    poolKey: poolKey\r\n                    // poolFee2: params.fee2,\r\n                    // poolFee3: params.fee3\r\n                }),\r\n                tradeAssets,\r\n                tradeDexs\r\n            )\r\n        );\r\n    }\r\n\r\n    /// @param fee0 The fee from calling flash for token0\r\n    /// @param fee1 The fee from calling flash for token1\r\n    /// @param data The data needed in the callback passed as FlashCallbackData from `initUniFlashSwap`\r\n    /// @notice implements the callback called from flash\r\n    /// @dev fails if the flash is not profitable, meaning the amountOut from the flash is less than the amount borrowed\r\n    function uniswapV3FlashCallback(\r\n        uint256 fee0,\r\n        uint256 fee1,\r\n        bytes calldata data\r\n    ) external override {\r\n       \r\n        (\r\n            FlashCallbackData memory decoded,\r\n            address[] memory tradeAssets,\r\n            uint16[] memory tradeDexs\r\n        ) = abi.decode(data, (FlashCallbackData, address[], uint16[]));\r\n        CallbackValidation.verifyCallback(factory, decoded.poolKey);\r\n        require(\r\n            decoded.amount0 == 0 ||  decoded.amount1 == 0,\r\n            \"one of amounts must be 0\"\r\n        );\r\n        address loanAsset = decoded.amount0 > 0 ? decoded.poolKey.token0: decoded.poolKey.token1;\r\n        uint256 loanAmount = decoded.amount0 > 0 ? decoded.amount0: decoded.amount1;\r\n        uint256 fee = decoded.amount0 > 0 ? fee0 : fee1;\r\n        address payer = decoded.payer;\r\n        emit AssetBorrowedFromPool(msg.sender, loanAsset, loanAmount, fee);\r\n        // start trade\r\n        uint256 amountOut = tradeExecute(\r\n            address(this),\r\n            loanAsset,\r\n            loanAmount,\r\n            tradeAssets,\r\n            tradeDexs\r\n        );\r\n        emit AssetSwaped(loanAsset, amountOut);\r\n\r\n        // compute amount to pay back to pool \r\n        // loanAmount + fee\r\n        uint256 amountOwed = LowGasSafeMath.add(loanAmount, fee);\r\n        \r\n        // pay back pool the loan \r\n        // note: msg.sender == pool to pay back \r\n        if (amountOwed > 0) {\r\n            pay(loanAsset, address(this), msg.sender, amountOwed);\r\n            emit RepayedAssetToPool(msg.sender, loanAsset, amountOwed);\r\n        }\r\n        uint256 profit = LowGasSafeMath.sub(amountOut, amountOwed);\r\n        // if profitable pay profits to payer\r\n        if (profit > 0) {\r\n            pay(loanAsset, address(this), payer, profit);\r\n            emit TransferProfitToWallet(payer, loanAsset, profit);\r\n        }\r\n    }\r\n    function setFlashPoolFee(uint24 poolFee) public onlyOwner() {\r\n        flashPoolFee = poolFee;\r\n        emit ChangedFlashPoolFee(msg.sender, poolFee);\r\n    }\r\n    fallback() external payable {}\r\n}\r\n",
  "sourcePath": "D:\\MyWorks\\MySolidities\\SilvanShwarz\\FlashLoans\\uni-flashswap-truffle\\contracts\\UniswapFlash.sol",
  "compiler": {
    "name": "solc",
    "version": "0.7.6+commit.7338295f.Emscripten.clang"
  },
  "schemaVersion": "3.4.7",
  "updatedAt": "2022-07-02T00:35:39.291Z",
  "networkType": "ethereum",
  "devdoc": {
    "kind": "dev",
    "methods": {
      "initUniFlashSwap(address[],uint256[],address[],uint16[])": {
        "params": {
          "loanAmounts": "array of assets amounts to loan. for example [amount0, amount1].         one of two amounts must be 0",
          "loanAssets": "array of assets pair to loan. for example [token0, token1].",
          "tradeAssets": "array of assets to trade. end asset must be equal to loaned assest",
          "tradeDexs": "array of dexes to trade."
        }
      },
      "owner()": {
        "details": "Returns the address of the current owner."
      },
      "refundETH()": {
        "details": "Useful for bundling with mint or increase liquidity that uses ether, or exact output swaps that use ether for the input amount"
      },
      "renounceOwnership()": {
        "details": "Leaves the contract without owner. It will not be possible to call `onlyOwner` functions anymore. Can only be called by the current owner. NOTE: Renouncing ownership will leave the contract without an owner, thereby removing any functionality that is only available to the owner."
      },
      "sweepToken(address,uint256,address)": {
        "details": "The amountMinimum parameter prevents malicious contracts from stealing the token from users",
        "params": {
          "amountMinimum": "The minimum amount of token required for a transfer",
          "recipient": "The destination address of the token",
          "token": "The contract address of the token which will be transferred to `recipient`"
        }
      },
      "transferOwnership(address)": {
        "details": "Transfers ownership of the contract to a new account (`newOwner`). Can only be called by the current owner."
      },
      "uniswapV3FlashCallback(uint256,uint256,bytes)": {
        "details": "fails if the flash is not profitable, meaning the amountOut from the flash is less than the amount borrowed",
        "params": {
          "data": "The data needed in the callback passed as FlashCallbackData from `initUniFlashSwap`",
          "fee0": "The fee from calling flash for token0",
          "fee1": "The fee from calling flash for token1"
        }
      },
      "unwrapWETH9(uint256,address)": {
        "details": "The amountMinimum parameter prevents malicious contracts from stealing WETH9 from users.",
        "params": {
          "amountMinimum": "The minimum amount of WETH9 to unwrap",
          "recipient": "The address receiving ETH"
        }
      }
    },
    "title": "Flash contract implementation",
    "version": 1
  },
  "userdoc": {
    "kind": "user",
    "methods": {
      "initUniFlashSwap(address[],uint256[],address[],uint16[])": {
        "notice": "Calls the pools flash function with data needed in `uniswapV3FlashCallback`"
      },
      "refundETH()": {
        "notice": "Refunds any ETH balance held by this contract to the `msg.sender`"
      },
      "sweepToken(address,uint256,address)": {
        "notice": "Transfers the full amount of a token held by this contract to recipient"
      },
      "uniswapV3FlashCallback(uint256,uint256,bytes)": {
        "notice": "implements the callback called from flash"
      },
      "unwrapWETH9(uint256,address)": {
        "notice": "Unwraps the contract's WETH9 balance and sends it to recipient as ETH."
      }
    },
    "notice": "An example contract using the Uniswap V3 flash function",
    "version": 1
  }
}