{
  "contractName": "Uniswap2Flash",
  "abi": [
    {
      "inputs": [
        {
          "internalType": "address",
          "name": "_factory",
          "type": "address"
        },
        {
          "internalType": "address",
          "name": "_WETH9",
          "type": "address"
        }
      ],
      "stateMutability": "nonpayable",
      "type": "constructor"
    },
    {
      "inputs": [],
      "name": "WETH9",
      "outputs": [
        {
          "internalType": "address",
          "name": "",
          "type": "address"
        }
      ],
      "stateMutability": "view",
      "type": "function"
    },
    {
      "inputs": [],
      "name": "factory",
      "outputs": [
        {
          "internalType": "address",
          "name": "",
          "type": "address"
        }
      ],
      "stateMutability": "view",
      "type": "function"
    },
    {
      "inputs": [],
      "name": "refundETH",
      "outputs": [],
      "stateMutability": "payable",
      "type": "function"
    },
    {
      "inputs": [
        {
          "internalType": "address",
          "name": "token",
          "type": "address"
        },
        {
          "internalType": "uint256",
          "name": "amountMinimum",
          "type": "uint256"
        },
        {
          "internalType": "address",
          "name": "recipient",
          "type": "address"
        }
      ],
      "name": "sweepToken",
      "outputs": [],
      "stateMutability": "payable",
      "type": "function"
    },
    {
      "inputs": [
        {
          "internalType": "uint256",
          "name": "amountMinimum",
          "type": "uint256"
        },
        {
          "internalType": "address",
          "name": "recipient",
          "type": "address"
        }
      ],
      "name": "unwrapWETH9",
      "outputs": [],
      "stateMutability": "payable",
      "type": "function"
    },
    {
      "inputs": [
        {
          "internalType": "address",
          "name": "loanToken",
          "type": "address"
        },
        {
          "internalType": "uint256",
          "name": "loanAmount",
          "type": "uint256"
        },
        {
          "components": [
            {
              "internalType": "address",
              "name": "to",
              "type": "address"
            },
            {
              "internalType": "bytes",
              "name": "data",
              "type": "bytes"
            }
          ],
          "internalType": "struct Uniswap2Flash.Call[]",
          "name": "calls",
          "type": "tuple[]"
        }
      ],
      "name": "initFlashloan",
      "outputs": [],
      "stateMutability": "nonpayable",
      "type": "function"
    },
    {
      "inputs": [
        {
          "internalType": "address",
          "name": "",
          "type": "address"
        },
        {
          "internalType": "uint256",
          "name": "",
          "type": "uint256"
        },
        {
          "internalType": "uint256",
          "name": "",
          "type": "uint256"
        },
        {
          "internalType": "bytes",
          "name": "data",
          "type": "bytes"
        }
      ],
      "name": "uniswapV2Call",
      "outputs": [],
      "stateMutability": "nonpayable",
      "type": "function"
    }
  ],
  "bytecode": "0x60c060405234801561001057600080fd5b5060405162001770380380620017708339810160408190526100319161006b565b6001600160601b0319606092831b8116608052911b1660a05261009e565b80516001600160a01b038116811461006657600080fd5b919050565b6000806040838503121561007e57600080fd5b6100878361004f565b91506100956020840161004f565b90509250929050565b60805160601c60a05160601c61166f620001016000396000818160c4015281816103f0015281816104d5015281816106240152818161065d01528181610acd01528181610b130152610ba801526000818161011401526106c4015261166f6000f3fe6080604052600436106100705760003560e01c80634aa4a4fc1161004e5780634aa4a4fc146100b2578063c45a015514610102578063df2ab5bb14610136578063f9392bec1461014957600080fd5b806310d1e85c1461007557806312210e8a1461009757806349404b7c1461009f575b600080fd5b34801561008157600080fd5b5061009561009036600461104f565b610169565b005b6100956103c6565b6100956100ad3660046112fc565b6103d8565b3480156100be57600080fd5b506100e67f000000000000000000000000000000000000000000000000000000000000000081565b6040516001600160a01b03909116815260200160405180910390f35b34801561010e57600080fd5b506100e67f000000000000000000000000000000000000000000000000000000000000000081565b610095610144366004610f81565b610548565b34801561015557600080fd5b50610095610164366004610fc3565b610620565b6000808061017984860186611107565b91945092509050336001600160a01b038316146101d35760405162461bcd60e51b81526020600482015260136024820152724f6e6c7920506f6f6c2063616e2063616c6c2160681b60448201526064015b60405180910390fd5b8251602084015160005b83518110156102d35760008482815181106101fa576101fa6115f5565b6020026020010151600001516001600160a01b0316858381518110610221576102216115f5565b60200260200101516020015160405161023a919061132c565b6000604051808303816000865af19150503d8060008114610277576040519150601f19603f3d011682016040523d82523d6000602084013e61027c565b606091505b50509050806102c05760405162461bcd60e51b815260206004820152601060248201526f54726164696e67204661696c7572652160801b60448201526064016101ca565b50806102cb816115c4565b9150506101dd565b506040516370a0823160e01b81523060048201526000906001600160a01b038416906370a082319060240160206040518083038186803b15801561031657600080fd5b505afa15801561032a573d6000803e3d6000fd5b505050506040513d601f19601f8201168201806040525081019061034e91906112e3565b9050600061037e61037760016103716103e561036b886003610989565b90610a11565b90610a6c565b8490610a6c565b90508082106103935761039384308884610acb565b600061039f8383610c5b565b905080156103b7576103b785308a6040015184610acb565b50505050505050505050505050565b47156103d6576103d63347610cb7565b565b6040516370a0823160e01b81523060048201526000907f00000000000000000000000000000000000000000000000000000000000000006001600160a01b0316906370a082319060240160206040518083038186803b15801561043a57600080fd5b505afa15801561044e573d6000803e3d6000fd5b505050506040513d601f19601f8201168201806040525081019061047291906112e3565b9050828110156104b95760405162461bcd60e51b8152602060048201526012602482015271496e73756666696369656e7420574554483960701b60448201526064016101ca565b801561054357604051632e1a7d4d60e01b8152600481018290527f00000000000000000000000000000000000000000000000000000000000000006001600160a01b031690632e1a7d4d90602401600060405180830381600087803b15801561052157600080fd5b505af1158015610535573d6000803e3d6000fd5b505050506105438282610cb7565b505050565b6040516370a0823160e01b81523060048201526000906001600160a01b038516906370a082319060240160206040518083038186803b15801561058a57600080fd5b505afa15801561059e573d6000803e3d6000fd5b505050506040513d601f19601f820116820180604052508101906105c291906112e3565b9050828110156106095760405162461bcd60e51b815260206004820152601260248201527124b739bab33334b1b4b2b73a103a37b5b2b760711b60448201526064016101ca565b801561061a5761061a848383610d5a565b50505050565b60007f00000000000000000000000000000000000000000000000000000000000000006001600160a01b0316856001600160a01b031614610681577f0000000000000000000000000000000000000000000000000000000000000000610697565b736b175474e89094c44da98b954eedeac495271d0f5b60405163e6a4390560e01b81526001600160a01b03878116600483015280831660248301529192506000917f0000000000000000000000000000000000000000000000000000000000000000169063e6a439059060440160206040518083038186803b15801561070657600080fd5b505afa15801561071a573d6000803e3d6000fd5b505050506040513d601f19601f8201168201806040525081019061073e9190610f64565b90506001600160a01b03811661078c5760405162461bcd60e51b8152602060048201526013602482015272496e76616c696420666c61736820706f6f6c2160681b60448201526064016101ca565b6000816001600160a01b0316630dfe16816040518163ffffffff1660e01b815260040160206040518083038186803b1580156107c757600080fd5b505afa1580156107db573d6000803e3d6000fd5b505050506040513d601f19601f820116820180604052508101906107ff9190610f64565b90506000826001600160a01b031663d21220a76040518163ffffffff1660e01b815260040160206040518083038186803b15801561083c57600080fd5b505afa158015610850573d6000803e3d6000fd5b505050506040513d601f19601f820116820180604052508101906108749190610f64565b90506000826001600160a01b0316896001600160a01b03161461089857600061089a565b875b90506000826001600160a01b03168a6001600160a01b0316146108be5760006108c0565b885b9050600060405180606001604052808c6001600160a01b031681526020018b8152602001336001600160a01b03168152509050856001600160a01b031663022c0d9f848430858b8f8f60405160200161091c9493929190611348565b6040516020818303038152906040526040518563ffffffff1660e01b815260040161094a949392919061145b565b600060405180830381600087803b15801561096457600080fd5b505af1158015610978573d6000803e3d6000fd5b505050505050505050505050505050565b60008261099857506000610a0b565b60006109a48385611562565b9050826109b18583611540565b14610a085760405162461bcd60e51b815260206004820152602160248201527f536166654d6174683a206d756c7469706c69636174696f6e206f766572666c6f6044820152607760f81b60648201526084016101ca565b90505b92915050565b6000808211610a625760405162461bcd60e51b815260206004820152601a60248201527f536166654d6174683a206469766973696f6e206279207a65726f00000000000060448201526064016101ca565b610a088284611540565b600080610a798385611528565b905083811015610a085760405162461bcd60e51b815260206004820152601b60248201527f536166654d6174683a206164646974696f6e206f766572666c6f77000000000060448201526064016101ca565b7f00000000000000000000000000000000000000000000000000000000000000006001600160a01b0316846001600160a01b0316148015610b0c5750804710155b15610c2e577f00000000000000000000000000000000000000000000000000000000000000006001600160a01b031663d0e30db0826040518263ffffffff1660e01b81526004016000604051808303818588803b158015610b6c57600080fd5b505af1158015610b80573d6000803e3d6000fd5b505060405163a9059cbb60e01b81526001600160a01b038681166004830152602482018690527f000000000000000000000000000000000000000000000000000000000000000016935063a9059cbb92506044019050602060405180830381600087803b158015610bf057600080fd5b505af1158015610c04573d6000803e3d6000fd5b505050506040513d601f19601f82011682018060405250810190610c2891906110e5565b5061061a565b6001600160a01b038316301415610c4f57610c4a848383610d5a565b61061a565b61061a84848484610e5a565b600082821115610cad5760405162461bcd60e51b815260206004820152601e60248201527f536166654d6174683a207375627472616374696f6e206f766572666c6f77000060448201526064016101ca565b610a088284611581565b604080516000808252602082019092526001600160a01b038416908390604051610ce1919061132c565b60006040518083038185875af1925050503d8060008114610d1e576040519150601f19603f3d011682016040523d82523d6000602084013e610d23565b606091505b50509050806105435760405162461bcd60e51b815260206004820152600360248201526253544560e81b60448201526064016101ca565b604080516001600160a01b038481166024830152604480830185905283518084039091018152606490920183526020820180516001600160e01b031663a9059cbb60e01b1790529151600092839290871691610db6919061132c565b6000604051808303816000865af19150503d8060008114610df3576040519150601f19603f3d011682016040523d82523d6000602084013e610df8565b606091505b5091509150818015610e22575080511580610e22575080806020019051810190610e2291906110e5565b610e535760405162461bcd60e51b815260206004820152600260248201526114d560f21b60448201526064016101ca565b5050505050565b604080516001600160a01b0385811660248301528481166044830152606480830185905283518084039091018152608490920183526020820180516001600160e01b03166323b872dd60e01b1790529151600092839290881691610ebe919061132c565b6000604051808303816000865af19150503d8060008114610efb576040519150601f19603f3d011682016040523d82523d6000602084013e610f00565b606091505b5091509150818015610f2a575080511580610f2a575080806020019051810190610f2a91906110e5565b610f5c5760405162461bcd60e51b815260206004820152600360248201526229aa2360e91b60448201526064016101ca565b505050505050565b600060208284031215610f7657600080fd5b8151610a0881611621565b600080600060608486031215610f9657600080fd5b8335610fa181611621565b9250602084013591506040840135610fb881611621565b809150509250925092565b60008060008060608587031215610fd957600080fd5b8435610fe481611621565b935060208501359250604085013567ffffffffffffffff8082111561100857600080fd5b818701915087601f83011261101c57600080fd5b81358181111561102b57600080fd5b8860208260051b850101111561104057600080fd5b95989497505060200194505050565b60008060008060006080868803121561106757600080fd5b853561107281611621565b94506020860135935060408601359250606086013567ffffffffffffffff8082111561109d57600080fd5b818801915088601f8301126110b157600080fd5b8135818111156110c057600080fd5b8960208285010111156110d257600080fd5b9699959850939650602001949392505050565b6000602082840312156110f757600080fd5b81518015158114610a0857600080fd5b600080600060a0848603121561111c57600080fd5b6060848603121561112c57600080fd5b6111346114ab565b61113e8535611621565b84358152602085013560208201526111596040860135611621565b6040858101359082015292506111726060850135611621565b6060840135915067ffffffffffffffff806080860135111561119357600080fd5b6080850135850186601f8201126111a957600080fd5b81813511156111ba576111ba61160b565b6111ca6020823560051b016114f7565b808235825260208201915060208301896020853560051b86010111156111ef57600080fd5b60005b84358110156112d357858235111561120957600080fd5b81358501601f196040828e038201121561122257600080fd5b61122a6114d4565b6112376020840135611621565b60208301358152886040840135111561124f57600080fd5b6040830135830192508d603f84011261126757600080fd5b60208301358981111561127c5761127c61160b565b61128d602084601f840116016114f7565b92508083528e60408286010111156112a457600080fd5b8060408501602085013760006020918401820152818101929092528652948501949290920191506001016111f2565b5050809450505050509250925092565b6000602082840312156112f557600080fd5b5051919050565b6000806040838503121561130f57600080fd5b82359150602083013561132181611621565b809150509250929050565b6000825161133e818460208701611598565b9190910192915050565b600060a0820160018060a01b0380885116845260208089015181860152604082818b015116818701526060838a168188015260a060808801528488865260c08801905060c08960051b89010195508960005b8a8110156114495789880360bf190183528135368d9003603e190181126113c057600080fd5b8c0180356113cd81611621565b881689528087013536829003601e190181126113e857600080fd5b8101803567ffffffffffffffff81111561140157600080fd5b80360383131561141057600080fd5b87898c015280888c015280898301888d013760008b8201880152601f01601f19169099018501985050918501919085019060010161139a565b50959c9b505050505050505050505050565b84815283602082015260018060a01b038316604082015260806060820152600082518060808401526114948160a0850160208701611598565b601f01601f19169190910160a00195945050505050565b6040516060810167ffffffffffffffff811182821017156114ce576114ce61160b565b60405290565b6040805190810167ffffffffffffffff811182821017156114ce576114ce61160b565b604051601f8201601f1916810167ffffffffffffffff811182821017156115205761152061160b565b604052919050565b6000821982111561153b5761153b6115df565b500190565b60008261155d57634e487b7160e01b600052601260045260246000fd5b500490565b600081600019048311821515161561157c5761157c6115df565b500290565b600082821015611593576115936115df565b500390565b60005b838110156115b357818101518382015260200161159b565b8381111561061a5750506000910152565b60006000198214156115d8576115d86115df565b5060010190565b634e487b7160e01b600052601160045260246000fd5b634e487b7160e01b600052603260045260246000fd5b634e487b7160e01b600052604160045260246000fd5b6001600160a01b038116811461163657600080fd5b5056fea2646970667358221220c7d0f7381f6f7866020678e79f80866d811f5b9354ac9daef32734e7adc63c7d64736f6c63430008060033",
  "immutableReferences": {
    "1380": [
      {
        "length": 32,
        "start": 276
      },
      {
        "length": 32,
        "start": 1732
      }
    ],
    "1382": [
      {
        "length": 32,
        "start": 196
      },
      {
        "length": 32,
        "start": 1008
      },
      {
        "length": 32,
        "start": 1237
      },
      {
        "length": 32,
        "start": 1572
      },
      {
        "length": 32,
        "start": 1629
      },
      {
        "length": 32,
        "start": 2765
      },
      {
        "length": 32,
        "start": 2835
      },
      {
        "length": 32,
        "start": 2984
      }
    ]
  },
  "source": "// SPDX-License-Identifier: MIT\r\npragma solidity >=0.8.0;\r\npragma abicoder v2;\r\n\r\nimport { IUniswapV2Pair } from \"../interfaces/uniswap/IUniswapV2Pair.sol\";\r\nimport { IUniswapV2Factory } from \"../interfaces/uniswap/IUniswapV2Factory.sol\";\r\nimport { IUniswapV2Callee } from \"../interfaces/uniswap/IUniswapV2Callee.sol\";\r\nimport { PeripheryPayments, IERC20 } from \"../utils/PeripheryPayments.sol\";\r\nimport { PeripheryImmutableState } from \"../utils/PeripheryImmutableState.sol\";\r\nimport { SafeMath } from \"../utils/SafeMath.sol\";\r\ncontract Uniswap2Flash is \r\n    IUniswapV2Callee, \r\n    PeripheryImmutableState,\r\n    PeripheryPayments\r\n{\r\n    using SafeMath for uint256;\r\n    struct FlashCallbackData {\r\n        address token;\r\n        uint256 amount;\r\n        address payer;\r\n    }\r\n    struct Call {\r\n        address to;\r\n        bytes data;\r\n    }\r\n    address private constant DAI = 0x6B175474E89094C44Da98b954EedeAC495271d0F;\r\n    constructor(\r\n        address _factory,\r\n        address _WETH9\r\n    ) PeripheryImmutableState(_factory, _WETH9) {}\r\n\r\n    // Initiate arbtrage\r\n    // begins receving loan to engage and performing arbtrage trades\r\n    function initFlashloan(\r\n        address loanToken, \r\n        uint256 loanAmount, \r\n        Call[] calldata calls\r\n    ) external {\r\n        // Get the Factory Pair address for combined tokens\r\n        address otherToken = loanToken == WETH9 ? DAI : WETH9;\r\n        address flashPool = IUniswapV2Factory(factory).getPair(loanToken, otherToken);\r\n        // Return error if combination does not exit\r\n        require (flashPool != address(0), \"Invalid flash pool!\");\r\n        address token0 = IUniswapV2Pair(flashPool).token0();\r\n        address token1 = IUniswapV2Pair(flashPool).token1();\r\n        uint256 amount0Out = loanToken == token0 ? loanAmount : 0;\r\n        uint256 amount1Out = loanToken == token1 ? loanAmount : 0;\r\n        FlashCallbackData memory callbackData = FlashCallbackData({\r\n            token: loanToken,\r\n            amount: loanAmount,\r\n            payer: msg.sender\r\n        });\r\n        // Execute the initial swap to get the loan\r\n        IUniswapV2Pair(flashPool).swap(\r\n            amount0Out, \r\n            amount1Out, \r\n            address(this), \r\n            abi.encode(\r\n                callbackData,\r\n                flashPool,\r\n                calls\r\n            )\r\n        );\r\n    }\r\n\r\n    function uniswapV2Call(\r\n        address, \r\n        uint256, \r\n        uint256, \r\n        bytes calldata data\r\n    ) external override {\r\n        // Ensure this request cane from the contract\r\n        (\r\n            FlashCallbackData memory callback,\r\n            address flashPool,\r\n            Call[] memory calls\r\n        ) = abi.decode(data, (FlashCallbackData, address, Call[]));\r\n        require(msg.sender == flashPool, \"Only Pool can call!\");\r\n        address loanToken = callback.token;\r\n        uint256 loanAmount = callback.amount;\r\n\r\n        for (uint i = 0; i < calls.length; i++) {\r\n            // solhint-disable-next-line avoid-low-level-calls\r\n            (bool success,) = calls[i].to.call(calls[i].data);\r\n            require(success, \"Trading Failure!\");\r\n        }\r\n        uint256 amountOut = IERC20(loanToken).balanceOf(address(this));\r\n        uint256 amountOwed = loanAmount.add(((loanAmount.mul(3)).div(997)).add(1));\r\n        if (amountOut >= amountOwed) {\r\n            pay(loanToken, address(this), flashPool, amountOwed);\r\n        }\r\n        uint256 profit = amountOut.sub(amountOwed);\r\n        if (profit > 0) {\r\n            pay(loanToken, address(this), callback.payer, profit);\r\n        }\r\n    }\r\n\r\n}",
  "sourcePath": "D:\\MyWorks\\MySolidities\\SilvanShwarz\\FlashLoans\\uni-flashswap-truffle\\contracts\\flashloans\\Uniswap2Flash.sol",
  "compiler": {
    "name": "solc",
    "version": "0.8.6+commit.11564f7e.Emscripten.clang"
  },
  "schemaVersion": "3.4.7",
  "updatedAt": "2022-07-20T22:22:17.957Z",
  "devdoc": {
    "kind": "dev",
    "methods": {},
    "version": 1
  },
  "userdoc": {
    "kind": "user",
    "methods": {},
    "version": 1
  }
}