{
  "contractName": "UniswapFlash",
  "abi": [
    {
      "inputs": [
        {
          "internalType": "address",
          "name": "_factory",
          "type": "address"
        },
        {
          "internalType": "address",
          "name": "_WETH9",
          "type": "address"
        }
      ],
      "stateMutability": "nonpayable",
      "type": "constructor"
    },
    {
      "anonymous": false,
      "inputs": [
        {
          "indexed": true,
          "internalType": "address",
          "name": "_pool",
          "type": "address"
        },
        {
          "indexed": true,
          "internalType": "address",
          "name": "_loanAsset",
          "type": "address"
        },
        {
          "indexed": false,
          "internalType": "uint256",
          "name": "_loanAmount",
          "type": "uint256"
        },
        {
          "indexed": false,
          "internalType": "uint256",
          "name": "_fee",
          "type": "uint256"
        }
      ],
      "name": "AssetBorrowedFromPool",
      "type": "event"
    },
    {
      "anonymous": false,
      "inputs": [
        {
          "indexed": true,
          "internalType": "address",
          "name": "_swapAsset",
          "type": "address"
        },
        {
          "indexed": false,
          "internalType": "uint256",
          "name": "_swapAmount",
          "type": "uint256"
        }
      ],
      "name": "AssetSwaped",
      "type": "event"
    },
    {
      "anonymous": false,
      "inputs": [
        {
          "indexed": true,
          "internalType": "address",
          "name": "_sender",
          "type": "address"
        },
        {
          "indexed": false,
          "internalType": "uint24",
          "name": "_fee",
          "type": "uint24"
        }
      ],
      "name": "ChangedFlashPoolFee",
      "type": "event"
    },
    {
      "anonymous": false,
      "inputs": [
        {
          "indexed": true,
          "internalType": "address",
          "name": "_loanAsset",
          "type": "address"
        },
        {
          "indexed": false,
          "internalType": "uint256",
          "name": "_loanAmount",
          "type": "uint256"
        },
        {
          "indexed": true,
          "internalType": "address",
          "name": "_tradeAsset",
          "type": "address"
        },
        {
          "indexed": false,
          "internalType": "uint16",
          "name": "_tradeDex",
          "type": "uint16"
        }
      ],
      "name": "FalshloanInited",
      "type": "event"
    },
    {
      "anonymous": false,
      "inputs": [
        {
          "indexed": true,
          "internalType": "address",
          "name": "previousOwner",
          "type": "address"
        },
        {
          "indexed": true,
          "internalType": "address",
          "name": "newOwner",
          "type": "address"
        }
      ],
      "name": "OwnershipTransferred",
      "type": "event"
    },
    {
      "anonymous": false,
      "inputs": [
        {
          "indexed": true,
          "internalType": "address",
          "name": "_pool",
          "type": "address"
        },
        {
          "indexed": true,
          "internalType": "address",
          "name": "_repayedAsset",
          "type": "address"
        },
        {
          "indexed": false,
          "internalType": "uint256",
          "name": "_repayedAmount",
          "type": "uint256"
        }
      ],
      "name": "RepayedAssetToPool",
      "type": "event"
    },
    {
      "anonymous": false,
      "inputs": [
        {
          "indexed": false,
          "internalType": "uint16",
          "name": "_index",
          "type": "uint16"
        },
        {
          "indexed": true,
          "internalType": "address",
          "name": "_router",
          "type": "address"
        },
        {
          "indexed": true,
          "internalType": "address",
          "name": "_factory",
          "type": "address"
        },
        {
          "indexed": false,
          "internalType": "uint24",
          "name": "_poolFee",
          "type": "uint24"
        }
      ],
      "name": "RouterInfoSeted",
      "type": "event"
    },
    {
      "anonymous": false,
      "inputs": [
        {
          "indexed": true,
          "internalType": "address",
          "name": "_sender",
          "type": "address"
        },
        {
          "indexed": false,
          "internalType": "uint256",
          "name": "_amountIn",
          "type": "uint256"
        },
        {
          "indexed": false,
          "internalType": "uint256",
          "name": "_amountOut",
          "type": "uint256"
        }
      ],
      "name": "SwapedOnUniswapV2",
      "type": "event"
    },
    {
      "anonymous": false,
      "inputs": [
        {
          "indexed": true,
          "internalType": "address",
          "name": "_sender",
          "type": "address"
        },
        {
          "indexed": false,
          "internalType": "uint256",
          "name": "_amountIn",
          "type": "uint256"
        },
        {
          "indexed": false,
          "internalType": "uint256",
          "name": "_amountOut",
          "type": "uint256"
        }
      ],
      "name": "SwapedOnUniswapV3",
      "type": "event"
    },
    {
      "anonymous": false,
      "inputs": [
        {
          "indexed": true,
          "internalType": "address",
          "name": "_owner",
          "type": "address"
        },
        {
          "indexed": true,
          "internalType": "address",
          "name": "_profitAsset",
          "type": "address"
        },
        {
          "indexed": false,
          "internalType": "uint256",
          "name": "_profitAmount",
          "type": "uint256"
        }
      ],
      "name": "TransferProfitToWallet",
      "type": "event"
    },
    {
      "stateMutability": "payable",
      "type": "fallback"
    },
    {
      "inputs": [],
      "name": "KYBER_ROUTER_ID",
      "outputs": [
        {
          "internalType": "uint16",
          "name": "",
          "type": "uint16"
        }
      ],
      "stateMutability": "view",
      "type": "function"
    },
    {
      "inputs": [],
      "name": "ONEINCHISWAP_ROUTER_ID",
      "outputs": [
        {
          "internalType": "uint16",
          "name": "",
          "type": "uint16"
        }
      ],
      "stateMutability": "view",
      "type": "function"
    },
    {
      "inputs": [],
      "name": "SIBASWAP_ROUTER_ID",
      "outputs": [
        {
          "internalType": "uint16",
          "name": "",
          "type": "uint16"
        }
      ],
      "stateMutability": "view",
      "type": "function"
    },
    {
      "inputs": [],
      "name": "SUSHISWAP_ROUTER_ID",
      "outputs": [
        {
          "internalType": "uint16",
          "name": "",
          "type": "uint16"
        }
      ],
      "stateMutability": "view",
      "type": "function"
    },
    {
      "inputs": [],
      "name": "UNISWAP_V2_ROUTER_ID",
      "outputs": [
        {
          "internalType": "uint16",
          "name": "",
          "type": "uint16"
        }
      ],
      "stateMutability": "view",
      "type": "function"
    },
    {
      "inputs": [],
      "name": "UNISWAP_V3_ROUTER_ID",
      "outputs": [
        {
          "internalType": "uint16",
          "name": "",
          "type": "uint16"
        }
      ],
      "stateMutability": "view",
      "type": "function"
    },
    {
      "inputs": [],
      "name": "WETH9",
      "outputs": [
        {
          "internalType": "address",
          "name": "",
          "type": "address"
        }
      ],
      "stateMutability": "view",
      "type": "function"
    },
    {
      "inputs": [],
      "name": "factory",
      "outputs": [
        {
          "internalType": "address",
          "name": "",
          "type": "address"
        }
      ],
      "stateMutability": "view",
      "type": "function"
    },
    {
      "inputs": [],
      "name": "flashPool",
      "outputs": [
        {
          "internalType": "contract IUniswapV3Pool",
          "name": "",
          "type": "address"
        }
      ],
      "stateMutability": "view",
      "type": "function"
    },
    {
      "inputs": [],
      "name": "flashPoolFee",
      "outputs": [
        {
          "internalType": "uint24",
          "name": "",
          "type": "uint24"
        }
      ],
      "stateMutability": "view",
      "type": "function"
    },
    {
      "inputs": [],
      "name": "owner",
      "outputs": [
        {
          "internalType": "address",
          "name": "",
          "type": "address"
        }
      ],
      "stateMutability": "view",
      "type": "function"
    },
    {
      "inputs": [],
      "name": "refundETH",
      "outputs": [],
      "stateMutability": "payable",
      "type": "function"
    },
    {
      "inputs": [],
      "name": "renounceOwnership",
      "outputs": [],
      "stateMutability": "nonpayable",
      "type": "function"
    },
    {
      "inputs": [
        {
          "internalType": "uint16",
          "name": "routerID",
          "type": "uint16"
        },
        {
          "components": [
            {
              "internalType": "address",
              "name": "router",
              "type": "address"
            },
            {
              "internalType": "address",
              "name": "factory",
              "type": "address"
            },
            {
              "internalType": "uint24",
              "name": "poolFee",
              "type": "uint24"
            },
            {
              "internalType": "uint64",
              "name": "deadline",
              "type": "uint64"
            },
            {
              "internalType": "enum SwapInforRegistry.DexSeries",
              "name": "series",
              "type": "uint8"
            }
          ],
          "internalType": "struct SwapInforRegistry.SwapRouterInfo",
          "name": "routerInfo",
          "type": "tuple"
        }
      ],
      "name": "setSwapRouterInfo",
      "outputs": [],
      "stateMutability": "nonpayable",
      "type": "function"
    },
    {
      "inputs": [
        {
          "internalType": "uint16",
          "name": "",
          "type": "uint16"
        }
      ],
      "name": "swapRouterInfos",
      "outputs": [
        {
          "internalType": "address",
          "name": "router",
          "type": "address"
        },
        {
          "internalType": "address",
          "name": "factory",
          "type": "address"
        },
        {
          "internalType": "uint24",
          "name": "poolFee",
          "type": "uint24"
        },
        {
          "internalType": "uint64",
          "name": "deadline",
          "type": "uint64"
        },
        {
          "internalType": "enum SwapInforRegistry.DexSeries",
          "name": "series",
          "type": "uint8"
        }
      ],
      "stateMutability": "view",
      "type": "function"
    },
    {
      "inputs": [
        {
          "internalType": "address",
          "name": "token",
          "type": "address"
        },
        {
          "internalType": "uint256",
          "name": "amountMinimum",
          "type": "uint256"
        },
        {
          "internalType": "address",
          "name": "recipient",
          "type": "address"
        }
      ],
      "name": "sweepToken",
      "outputs": [],
      "stateMutability": "payable",
      "type": "function"
    },
    {
      "inputs": [
        {
          "internalType": "address",
          "name": "newOwner",
          "type": "address"
        }
      ],
      "name": "transferOwnership",
      "outputs": [],
      "stateMutability": "nonpayable",
      "type": "function"
    },
    {
      "inputs": [],
      "name": "uniswapV2Router",
      "outputs": [
        {
          "internalType": "contract IUniswapV2Router02",
          "name": "",
          "type": "address"
        }
      ],
      "stateMutability": "view",
      "type": "function"
    },
    {
      "inputs": [],
      "name": "uniswapV3Router",
      "outputs": [
        {
          "internalType": "contract ISwapRouter",
          "name": "",
          "type": "address"
        }
      ],
      "stateMutability": "view",
      "type": "function"
    },
    {
      "inputs": [
        {
          "internalType": "uint256",
          "name": "amountMinimum",
          "type": "uint256"
        },
        {
          "internalType": "address",
          "name": "recipient",
          "type": "address"
        }
      ],
      "name": "unwrapWETH9",
      "outputs": [],
      "stateMutability": "payable",
      "type": "function"
    },
    {
      "stateMutability": "payable",
      "type": "receive"
    },
    {
      "inputs": [
        {
          "internalType": "address[]",
          "name": "loanAssets",
          "type": "address[]"
        },
        {
          "internalType": "uint256[]",
          "name": "loanAmounts",
          "type": "uint256[]"
        },
        {
          "internalType": "address[]",
          "name": "tradeAssets",
          "type": "address[]"
        },
        {
          "internalType": "uint16[]",
          "name": "tradeDexs",
          "type": "uint16[]"
        }
      ],
      "name": "initUniFlashSwap",
      "outputs": [],
      "stateMutability": "nonpayable",
      "type": "function"
    },
    {
      "inputs": [
        {
          "internalType": "uint256",
          "name": "fee0",
          "type": "uint256"
        },
        {
          "internalType": "uint256",
          "name": "fee1",
          "type": "uint256"
        },
        {
          "internalType": "bytes",
          "name": "data",
          "type": "bytes"
        }
      ],
      "name": "uniswapV3FlashCallback",
      "outputs": [],
      "stateMutability": "nonpayable",
      "type": "function"
    },
    {
      "inputs": [
        {
          "internalType": "uint24",
          "name": "poolFee",
          "type": "uint24"
        }
      ],
      "name": "setFlashPoolFee",
      "outputs": [],
      "stateMutability": "nonpayable",
      "type": "function"
    }
  ],
  "bytecode": "0x60c06040523480156200001157600080fd5b506040516200434238038062004342833981810160405281019062000037919062000181565b81818173ffffffffffffffffffffffffffffffffffffffff1660808173ffffffffffffffffffffffffffffffffffffffff1660601b815250508073ffffffffffffffffffffffffffffffffffffffff1660a08173ffffffffffffffffffffffffffffffffffffffff1660601b8152505050506000620000bb6200016260201b60201c565b905080600260006101000a81548173ffffffffffffffffffffffffffffffffffffffff021916908373ffffffffffffffffffffffffffffffffffffffff1602179055508073ffffffffffffffffffffffffffffffffffffffff16600073ffffffffffffffffffffffffffffffffffffffff167f8be0079c531659141344cd1fd0a4f28419497f9722a3daafe3b4186f6b6457e060405160405180910390a350505062000210565b600033905090565b6000815190506200017b81620001f6565b92915050565b600080604083850312156200019557600080fd5b6000620001a5858286016200016a565b9250506020620001b8858286016200016a565b9150509250929050565b6000620001cf82620001d6565b9050919050565b600073ffffffffffffffffffffffffffffffffffffffff82169050919050565b6200020181620001c2565b81146200020d57600080fd5b50565b60805160601c60a05160601c6140e0620002626000398061014b5280610736528061087952806109ba5280611f1e5280611f7e5280611fff525080610c535280610f70528061133852506140e06000f3fe6080604052600436106101445760003560e01c8063715018a6116100b6578063c45a01551161006f578063c45a0155146104b7578063c8d3f042146104e2578063df2ab5bb1461050b578063e9cbafb014610527578063ea3b443114610550578063f2fde38b1461057b5761020c565b8063715018a6146103cb57806386c4571e146103e25780638da5cb5b1461040d5780639cd4316014610438578063aa7f0ceb14610463578063b18759e81461048e5761020c565b8063285978f411610108578063285978f4146102c25780632c76d7a6146102ed57806349404b7c1461031857806349bae2ce146103345780634aa4a4fc146103755780634b39f49b146103a05761020c565b80630deed49d1461020e57806312210e8a146102375780631694505e14610241578063208aec901461026c578063279fd181146102975761020c565b3661020c577f000000000000000000000000000000000000000000000000000000000000000073ffffffffffffffffffffffffffffffffffffffff163373ffffffffffffffffffffffffffffffffffffffff161461020a576040517f08c379a00000000000000000000000000000000000000000000000000000000081526004018080602001828103825260098152602001807f4e6f74205745544839000000000000000000000000000000000000000000000081525060200191505060405180910390fd5b005b005b34801561021a57600080fd5b5061023560048036038101906102309190613465565b6105a4565b005b61023f6106c3565b005b34801561024d57600080fd5b506102566106d9565b6040516102639190613b17565b60405180910390f35b34801561027857600080fd5b506102816106ff565b60405161028e9190613c73565b60405180910390f35b3480156102a357600080fd5b506102ac610704565b6040516102b99190613c73565b60405180910390f35b3480156102ce57600080fd5b506102d7610709565b6040516102e49190613c73565b60405180910390f35b3480156102f957600080fd5b5061030261070e565b60405161030f9190613afc565b60405180910390f35b610332600480360381019061032d91906134b7565b610732565b005b34801561034057600080fd5b5061035b60048036038101906103569190613400565b610912565b60405161036c959493929190613aa9565b60405180910390f35b34801561038157600080fd5b5061038a6109b8565b6040516103979190613a42565b60405180910390f35b3480156103ac57600080fd5b506103b56109dc565b6040516103c29190613c73565b60405180910390f35b3480156103d757600080fd5b506103e06109e1565b005b3480156103ee57600080fd5b506103f7610b51565b6040516104049190613c73565b60405180910390f35b34801561041957600080fd5b50610422610b56565b60405161042f9190613a42565b60405180910390f35b34801561044457600080fd5b5061044d610b80565b60405161045a9190613c73565b60405180910390f35b34801561046f57600080fd5b50610478610b85565b6040516104859190613b32565b60405180910390f35b34801561049a57600080fd5b506104b560048036038101906104b091906132ab565b610bab565b005b3480156104c357600080fd5b506104cc610f6e565b6040516104d99190613a42565b60405180910390f35b3480156104ee57600080fd5b5061050960048036038101906105049190613429565b610f92565b005b6105256004803603810190610520919061325c565b6111e2565b005b34801561053357600080fd5b5061054e600480360381019061054991906134f3565b611319565b005b34801561055c57600080fd5b50610565611606565b6040516105729190613cb7565b60405180910390f35b34801561058757600080fd5b506105a2600480360381019061059d9190613233565b61161b565b005b6105ac611810565b73ffffffffffffffffffffffffffffffffffffffff166105ca610b56565b73ffffffffffffffffffffffffffffffffffffffff1614610653576040517f08c379a00000000000000000000000000000000000000000000000000000000081526004018080602001828103825260208152602001807f4f776e61626c653a2063616c6c6572206973206e6f7420746865206f776e657281525060200191505060405180910390fd5b80600460146101000a81548162ffffff021916908362ffffff1602179055503373ffffffffffffffffffffffffffffffffffffffff167f60b90272866df655104677034305b0c7023abdc30f5e269f836d8dd8e4a597bb826040516106b89190613cb7565b60405180910390a250565b60004711156106d7576106d63347611818565b5b565b600160009054906101000a900473ffffffffffffffffffffffffffffffffffffffff1681565b600581565b600181565b600381565b60008054906101000a900473ffffffffffffffffffffffffffffffffffffffff1681565b60007f000000000000000000000000000000000000000000000000000000000000000073ffffffffffffffffffffffffffffffffffffffff166370a08231306040518263ffffffff1660e01b8152600401808273ffffffffffffffffffffffffffffffffffffffff16815260200191505060206040518083038186803b1580156107bb57600080fd5b505afa1580156107cf573d6000803e3d6000fd5b505050506040513d60208110156107e557600080fd5b810190808051906020019092919050505090508281101561086e576040517f08c379a00000000000000000000000000000000000000000000000000000000081526004018080602001828103825260128152602001807f496e73756666696369656e74205745544839000000000000000000000000000081525060200191505060405180910390fd5b600081111561090d577f000000000000000000000000000000000000000000000000000000000000000073ffffffffffffffffffffffffffffffffffffffff16632e1a7d4d826040518263ffffffff1660e01b815260040180828152602001915050600060405180830381600087803b1580156108ea57600080fd5b505af11580156108fe573d6000803e3d6000fd5b5050505061090c8282611818565b5b505050565b60036020528060005260406000206000915090508060000160009054906101000a900473ffffffffffffffffffffffffffffffffffffffff16908060010160009054906101000a900473ffffffffffffffffffffffffffffffffffffffff16908060010160149054906101000a900462ffffff16908060010160179054906101000a900467ffffffffffffffff169080600101601f9054906101000a900460ff16905085565b7f000000000000000000000000000000000000000000000000000000000000000081565b600681565b6109e9611810565b73ffffffffffffffffffffffffffffffffffffffff16610a07610b56565b73ffffffffffffffffffffffffffffffffffffffff1614610a90576040517f08c379a00000000000000000000000000000000000000000000000000000000081526004018080602001828103825260208152602001807f4f776e61626c653a2063616c6c6572206973206e6f7420746865206f776e657281525060200191505060405180910390fd5b600073ffffffffffffffffffffffffffffffffffffffff16600260009054906101000a900473ffffffffffffffffffffffffffffffffffffffff1673ffffffffffffffffffffffffffffffffffffffff167f8be0079c531659141344cd1fd0a4f28419497f9722a3daafe3b4186f6b6457e060405160405180910390a36000600260006101000a81548173ffffffffffffffffffffffffffffffffffffffff021916908373ffffffffffffffffffffffffffffffffffffffff160217905550565b600281565b6000600260009054906101000a900473ffffffffffffffffffffffffffffffffffffffff16905090565b600481565b600460009054906101000a900473ffffffffffffffffffffffffffffffffffffffff1681565b600060405180606001604052808a8a6000818110610bc557fe5b9050602002016020810190610bda9190613233565b73ffffffffffffffffffffffffffffffffffffffff1681526020018a8a6001818110610c0257fe5b9050602002016020810190610c179190613233565b73ffffffffffffffffffffffffffffffffffffffff168152602001600460149054906101000a900462ffffff1662ffffff168152509050610c787f000000000000000000000000000000000000000000000000000000000000000082611994565b600460006101000a81548173ffffffffffffffffffffffffffffffffffffffff021916908373ffffffffffffffffffffffffffffffffffffffff160217905550600073ffffffffffffffffffffffffffffffffffffffff16600460009054906101000a900473ffffffffffffffffffffffffffffffffffffffff1673ffffffffffffffffffffffffffffffffffffffff161415610d4a576040517f08c379a0000000000000000000000000000000000000000000000000000000008152600401610d4190613b6d565b60405180910390fd5b84846000818110610d5757fe5b9050602002016020810190610d6c9190613233565b73ffffffffffffffffffffffffffffffffffffffff1689896000818110610d8f57fe5b9050602002016020810190610da49190613233565b73ffffffffffffffffffffffffffffffffffffffff167f27a8dbde080481be7a4a40e47c18a132bd7edaf28aaaafa729d4d4593f822ce489896000818110610de857fe5b9050602002013586866000818110610dfc57fe5b9050602002016020810190610e119190613400565b604051610e1f929190613ced565b60405180910390a3600460009054906101000a900473ffffffffffffffffffffffffffffffffffffffff1673ffffffffffffffffffffffffffffffffffffffff1663490e6cbc3089896000818110610e7357fe5b905060200201358a8a6001818110610e8757fe5b9050602002013560405180608001604052808d8d6000818110610ea657fe5b9050602002013581526020018d8d6001818110610ebf57fe5b9050602002013581526020013373ffffffffffffffffffffffffffffffffffffffff168152602001878152508a8a8a8a604051602001610f03959493929190613c29565b6040516020818303038152906040526040518563ffffffff1660e01b8152600401610f319493929190613a5d565b600060405180830381600087803b158015610f4b57600080fd5b505af1158015610f5f573d6000803e3d6000fd5b50505050505050505050505050565b7f000000000000000000000000000000000000000000000000000000000000000081565b610f9a611810565b73ffffffffffffffffffffffffffffffffffffffff16610fb8610b56565b73ffffffffffffffffffffffffffffffffffffffff1614611041576040517f08c379a00000000000000000000000000000000000000000000000000000000081526004018080602001828103825260208152602001807f4f776e61626c653a2063616c6c6572206973206e6f7420746865206f776e657281525060200191505060405180910390fd5b80600360008461ffff1661ffff16815260200190815260200160002060008201518160000160006101000a81548173ffffffffffffffffffffffffffffffffffffffff021916908373ffffffffffffffffffffffffffffffffffffffff16021790555060208201518160010160006101000a81548173ffffffffffffffffffffffffffffffffffffffff021916908373ffffffffffffffffffffffffffffffffffffffff16021790555060408201518160010160146101000a81548162ffffff021916908362ffffff16021790555060608201518160010160176101000a81548167ffffffffffffffff021916908367ffffffffffffffff160217905550608082015181600101601f6101000a81548160ff0219169083600281111561116357fe5b0217905550905050806020015173ffffffffffffffffffffffffffffffffffffffff16816000015173ffffffffffffffffffffffffffffffffffffffff167fe36efa973a0f1ec46829d997f3c68ffcadaf826d5a9328ae39c0c57a281ae2908484604001516040516111d6929190613c8e565b60405180910390a35050565b60008373ffffffffffffffffffffffffffffffffffffffff166370a08231306040518263ffffffff1660e01b8152600401808273ffffffffffffffffffffffffffffffffffffffff16815260200191505060206040518083038186803b15801561124b57600080fd5b505afa15801561125f573d6000803e3d6000fd5b505050506040513d602081101561127557600080fd5b81019080805190602001909291905050509050828110156112fe576040517f08c379a00000000000000000000000000000000000000000000000000000000081526004018080602001828103825260128152602001807f496e73756666696369656e7420746f6b656e000000000000000000000000000081525060200191505060405180910390fd5b600081111561131357611312848383611aef565b5b50505050565b6000806000848481019061132d9190613380565b9250925092506113617f00000000000000000000000000000000000000000000000000000000000000008460600151611cf0565b50600083600001511480611379575060008360200151145b6113b8576040517f08c379a00000000000000000000000000000000000000000000000000000000081526004016113af90613b4d565b60405180910390fd5b6000808460000151116113d3578360600151602001516113dd565b8360600151600001515b90506000808560000151116113f65784602001516113fc565b84600001515b90506000808660000151116114115788611413565b895b90506000866040015190508373ffffffffffffffffffffffffffffffffffffffff163373ffffffffffffffffffffffffffffffffffffffff167fe34b0e04ae052dd430a0a091513777d86e826ac191c765d4b2d220f5635e9aa9858560405161147d929190613d16565b60405180910390a360006114943086868a8a611d3c565b90508473ffffffffffffffffffffffffffffffffffffffff167fadeeeb0e210dd0c0566988a1165a67260d25475b265e25a51cf6dec9342a967b826040516114dc9190613cd2565b60405180910390a260006114f08585611f02565b9050600081111561156d5761150786303384611f1c565b8573ffffffffffffffffffffffffffffffffffffffff163373ffffffffffffffffffffffffffffffffffffffff167f108a8f2f13d6db03229ae1fb9d5dc799045c394a115f518f76d64b75abaade43836040516115649190613cd2565b60405180910390a35b60006115798383612127565b905060008111156115f65761159087308684611f1c565b8673ffffffffffffffffffffffffffffffffffffffff168473ffffffffffffffffffffffffffffffffffffffff167f58b534da795e18a747c883c055e0de342a000faea470ccdd0ea890e8f11e9d02836040516115ed9190613cd2565b60405180910390a35b5050505050505050505050505050565b600460149054906101000a900462ffffff1681565b611623611810565b73ffffffffffffffffffffffffffffffffffffffff16611641610b56565b73ffffffffffffffffffffffffffffffffffffffff16146116ca576040517f08c379a00000000000000000000000000000000000000000000000000000000081526004018080602001828103825260208152602001807f4f776e61626c653a2063616c6c6572206973206e6f7420746865206f776e657281525060200191505060405180910390fd5b600073ffffffffffffffffffffffffffffffffffffffff168173ffffffffffffffffffffffffffffffffffffffff161415611750576040517f08c379a00000000000000000000000000000000000000000000000000000000081526004018080602001828103825260268152602001806140856026913960400191505060405180910390fd5b8073ffffffffffffffffffffffffffffffffffffffff16600260009054906101000a900473ffffffffffffffffffffffffffffffffffffffff1673ffffffffffffffffffffffffffffffffffffffff167f8be0079c531659141344cd1fd0a4f28419497f9722a3daafe3b4186f6b6457e060405160405180910390a380600260006101000a81548173ffffffffffffffffffffffffffffffffffffffff021916908373ffffffffffffffffffffffffffffffffffffffff16021790555050565b600033905090565b60008273ffffffffffffffffffffffffffffffffffffffff1682600067ffffffffffffffff8111801561184a57600080fd5b506040519080825280601f01601f19166020018201604052801561187d5781602001600182028036833780820191505090505b506040518082805190602001908083835b602083106118b1578051825260208201915060208101905060208303925061188e565b6001836020036101000a03801982511681845116808217855250505050505090500191505060006040518083038185875af1925050503d8060008114611913576040519150601f19603f3d011682016040523d82523d6000602084013e611918565b606091505b505090508061198f576040517f08c379a00000000000000000000000000000000000000000000000000000000081526004018080602001828103825260038152602001807f535445000000000000000000000000000000000000000000000000000000000081525060200191505060405180910390fd5b505050565b6000816020015173ffffffffffffffffffffffffffffffffffffffff16826000015173ffffffffffffffffffffffffffffffffffffffff16106119d657600080fd5b82826000015183602001518460400151604051602001808473ffffffffffffffffffffffffffffffffffffffff1681526020018373ffffffffffffffffffffffffffffffffffffffff1681526020018262ffffff1681526020019350505050604051602081830303815290604052805190602001207fe34f199b19b2b4f47f68442619d555527d244f78a3297ea89325f843f87b8b5460001b60405160200180807fff000000000000000000000000000000000000000000000000000000000000008152506001018473ffffffffffffffffffffffffffffffffffffffff1660601b815260140183815260200182815260200193505050506040516020818303038152906040528051906020012060001c905092915050565b6000808473ffffffffffffffffffffffffffffffffffffffff1663a9059cbb60e01b8585604051602401808373ffffffffffffffffffffffffffffffffffffffff16815260200182815260200192505050604051602081830303815290604052907bffffffffffffffffffffffffffffffffffffffffffffffffffffffff19166020820180517bffffffffffffffffffffffffffffffffffffffffffffffffffffffff83818316178352505050506040518082805190602001908083835b60208310611bd05780518252602082019150602081019050602083039250611bad565b6001836020036101000a0380198251168184511680821785525050505050509050019150506000604051808303816000865af19150503d8060008114611c32576040519150601f19603f3d011682016040523d82523d6000602084013e611c37565b606091505b5091509150818015611c775750600081511480611c765750808060200190516020811015611c6457600080fd5b81019080805190602001909291905050505b5b611ce9576040517f08c379a00000000000000000000000000000000000000000000000000000000081526004018080602001828103825260028152602001807f535400000000000000000000000000000000000000000000000000000000000081525060200191505060405180910390fd5b5050505050565b6000611cfc8383611994565b90508073ffffffffffffffffffffffffffffffffffffffff163373ffffffffffffffffffffffffffffffffffffffff1614611d3657600080fd5b92915050565b6000808411611d80576040517f08c379a0000000000000000000000000000000000000000000000000000000008152600401611d7790613b8d565b60405180910390fd5b8251825114611dc4576040517f08c379a0000000000000000000000000000000000000000000000000000000008152600401611dbb90613bed565b60405180910390fd5b8473ffffffffffffffffffffffffffffffffffffffff1683600185510381518110611deb57fe5b602002602001015173ffffffffffffffffffffffffffffffffffffffff1614611e49576040517f08c379a0000000000000000000000000000000000000000000000000000000008152600401611e4090613bcd565b60405180910390fd5b611e8686611e6b8786600081518110611e5e57fe5b6020026020010151612141565b8685600081518110611e7957fe5b6020026020010151612229565b90506000600190505b8351811015611ef857611ee987611ecf866001850381518110611eae57fe5b6020026020010151878581518110611ec257fe5b6020026020010151612141565b84868581518110611edc57fe5b6020026020010151612229565b91508080600101915050611e8f565b5095945050505050565b6000828284019150811015611f1657600080fd5b92915050565b7f000000000000000000000000000000000000000000000000000000000000000073ffffffffffffffffffffffffffffffffffffffff168473ffffffffffffffffffffffffffffffffffffffff16148015611f775750804710155b156120cf577f000000000000000000000000000000000000000000000000000000000000000073ffffffffffffffffffffffffffffffffffffffff1663d0e30db0826040518263ffffffff1660e01b81526004016000604051808303818588803b158015611fe457600080fd5b505af1158015611ff8573d6000803e3d6000fd5b50505050507f000000000000000000000000000000000000000000000000000000000000000073ffffffffffffffffffffffffffffffffffffffff1663a9059cbb83836040518363ffffffff1660e01b8152600401808373ffffffffffffffffffffffffffffffffffffffff16815260200182815260200192505050602060405180830381600087803b15801561208e57600080fd5b505af11580156120a2573d6000803e3d6000fd5b505050506040513d60208110156120b857600080fd5b810190808051906020019092919050505050612121565b3073ffffffffffffffffffffffffffffffffffffffff168373ffffffffffffffffffffffffffffffffffffffff1614156121135761210e848383611aef565b612120565b61211f84848484612480565b5b5b50505050565b600082828403915081111561213b57600080fd5b92915050565b60606000600267ffffffffffffffff8111801561215d57600080fd5b5060405190808252806020026020018201604052801561218c5781602001602082028036833780820191505090505b509050838160008151811061219d57fe5b602002602001019073ffffffffffffffffffffffffffffffffffffffff16908173ffffffffffffffffffffffffffffffffffffffff168152505082816001815181106121e557fe5b602002602001019073ffffffffffffffffffffffffffffffffffffffff16908173ffffffffffffffffffffffffffffffffffffffff16815250508091505092915050565b600080600281111561223757fe5b600360008461ffff1661ffff168152602001908152602001600020600101601f9054906101000a900460ff16600281111561226e57fe5b141561236957600360008361ffff1661ffff16815260200190815260200160002060000160009054906101000a900473ffffffffffffffffffffffffffffffffffffffff166000806101000a81548173ffffffffffffffffffffffffffffffffffffffff021916908373ffffffffffffffffffffffffffffffffffffffff1602179055506123628585856000600360008861ffff1661ffff16815260200190815260200160002060010160149054906101000a900462ffffff16600360008961ffff1661ffff16815260200190815260200160002060010160179054906101000a900467ffffffffffffffff1642016126a0565b9050612478565b6001600281111561237657fe5b600360008461ffff1661ffff168152602001908152602001600020600101601f9054906101000a900460ff1660028111156123ad57fe5b141561247757600360008361ffff1661ffff16815260200190815260200160002060000160009054906101000a900473ffffffffffffffffffffffffffffffffffffffff16600160006101000a81548173ffffffffffffffffffffffffffffffffffffffff021916908373ffffffffffffffffffffffffffffffffffffffff1602179055506124748585856000600360008861ffff1661ffff16815260200190815260200160002060010160179054906101000a900467ffffffffffffffff1642016128f4565b90505b5b949350505050565b6000808573ffffffffffffffffffffffffffffffffffffffff166323b872dd60e01b868686604051602401808473ffffffffffffffffffffffffffffffffffffffff1681526020018373ffffffffffffffffffffffffffffffffffffffff1681526020018281526020019350505050604051602081830303815290604052907bffffffffffffffffffffffffffffffffffffffffffffffffffffffff19166020820180517bffffffffffffffffffffffffffffffffffffffffffffffffffffffff83818316178352505050506040518082805190602001908083835b6020831061257f578051825260208201915060208101905060208303925061255c565b6001836020036101000a0380198251168184511680821785525050505050509050019150506000604051808303816000865af19150503d80600081146125e1576040519150601f19603f3d011682016040523d82523d6000602084013e6125e6565b606091505b50915091508180156126265750600081511480612625575080806020019051602081101561261357600080fd5b81019080805190602001909291905050505b5b612698576040517f08c379a00000000000000000000000000000000000000000000000000000000081526004018080602001828103825260038152602001807f535446000000000000000000000000000000000000000000000000000000000081525060200191505060405180910390fd5b505050505050565b60006126e1866000815181106126b257fe5b602002602001015160008054906101000a900473ffffffffffffffffffffffffffffffffffffffff1687612bef565b60008054906101000a900473ffffffffffffffffffffffffffffffffffffffff1673ffffffffffffffffffffffffffffffffffffffff1663414bf3896040518061010001604052808960008151811061273657fe5b602002602001015173ffffffffffffffffffffffffffffffffffffffff1681526020018960018151811061276657fe5b602002602001015173ffffffffffffffffffffffffffffffffffffffff1681526020018662ffffff1681526020018a73ffffffffffffffffffffffffffffffffffffffff1681526020018567ffffffffffffffff168152602001888152602001878152602001600073ffffffffffffffffffffffffffffffffffffffff168152506040518263ffffffff1660e01b81526004016128039190613c0d565b602060405180830381600087803b15801561281d57600080fd5b505af1158015612831573d6000803e3d6000fd5b505050506040513d601f19601f82011682018060405250810190612855919061348e565b90506000811161289a576040517f08c379a000000000000000000000000000000000000000000000000000000000815260040161289190613bad565b60405180910390fd5b8673ffffffffffffffffffffffffffffffffffffffff167f2f7db10d9e424ce77a0061845a16d3b3e059bab8b01a40e50440082b9f53440e86836040516128e2929190613d16565b60405180910390a29695505050505050565b60006129378560008151811061290657fe5b6020026020010151600160009054906101000a900473ffffffffffffffffffffffffffffffffffffffff1686612bef565b600160009054906101000a900473ffffffffffffffffffffffffffffffffffffffff1673ffffffffffffffffffffffffffffffffffffffff166338ed17398585888a876040518663ffffffff1660e01b815260040180868152602001858152602001806020018473ffffffffffffffffffffffffffffffffffffffff1681526020018367ffffffffffffffff168152602001828103825285818151815260200191508051906020019060200280838360005b83811015612a045780820151818401526020810190506129e9565b505050509050019650505050505050600060405180830381600087803b158015612a2d57600080fd5b505af1158015612a41573d6000803e3d6000fd5b505050506040513d6000823e3d601f19601f820116820180604052506020811015612a6b57600080fd5b8101908080516040519392919084640100000000821115612a8b57600080fd5b83820191506020820185811115612aa157600080fd5b8251866020820283011164010000000082111715612abe57600080fd5b8083526020830192505050908051906020019060200280838360005b83811015612af5578082015181840152602081019050612ada565b50505050905001604052505050600186510381518110612b1157fe5b6020026020010151905060008111612b91576040517f08c379a00000000000000000000000000000000000000000000000000000000081526004018080602001828103825260198152602001807f53776170206661696c6564206f6e20556e69737761705632210000000000000081525060200191505060405180910390fd5b8573ffffffffffffffffffffffffffffffffffffffff167e6ec893f76d098792a91544430044e42f2d16d5ae60e22346a2c5e5007cef5e8583604051808381526020018281526020019250505060405180910390a295945050505050565b6000808473ffffffffffffffffffffffffffffffffffffffff1663095ea7b360e01b8585604051602401808373ffffffffffffffffffffffffffffffffffffffff16815260200182815260200192505050604051602081830303815290604052907bffffffffffffffffffffffffffffffffffffffffffffffffffffffff19166020820180517bffffffffffffffffffffffffffffffffffffffffffffffffffffffff83818316178352505050506040518082805190602001908083835b60208310612cd05780518252602082019150602081019050602083039250612cad565b6001836020036101000a0380198251168184511680821785525050505050509050019150506000604051808303816000865af19150503d8060008114612d32576040519150601f19603f3d011682016040523d82523d6000602084013e612d37565b606091505b5091509150818015612d775750600081511480612d765750808060200190516020811015612d6457600080fd5b81019080805190602001909291905050505b5b612de9576040517f08c379a00000000000000000000000000000000000000000000000000000000081526004018080602001828103825260028152602001807f534100000000000000000000000000000000000000000000000000000000000081525060200191505060405180910390fd5b5050505050565b6000612e03612dfe84613d70565b613d3f565b90508083825260208201905082856020860282011115612e2257600080fd5b60005b85811015612e525781612e388882612ec8565b845260208401935060208301925050600181019050612e25565b5050509392505050565b6000612e6f612e6a84613d9c565b613d3f565b90508083825260208201905082856020860282011115612e8e57600080fd5b60005b85811015612ebe5781612ea488826131ca565b845260208401935060208301925050600181019050612e91565b5050509392505050565b600081359050612ed781614001565b92915050565b60008083601f840112612eef57600080fd5b8235905067ffffffffffffffff811115612f0857600080fd5b602083019150836020820283011115612f2057600080fd5b9250929050565b600082601f830112612f3857600080fd5b8135612f48848260208601612df0565b91505092915050565b60008083601f840112612f6357600080fd5b8235905067ffffffffffffffff811115612f7c57600080fd5b602083019150836020820283011115612f9457600080fd5b9250929050565b600082601f830112612fac57600080fd5b8135612fbc848260208601612e5c565b91505092915050565b60008083601f840112612fd757600080fd5b8235905067ffffffffffffffff811115612ff057600080fd5b60208301915083602082028301111561300857600080fd5b9250929050565b60008083601f84011261302157600080fd5b8235905067ffffffffffffffff81111561303a57600080fd5b60208301915083600182028301111561305257600080fd5b9250929050565b60008135905061306881614018565b92915050565b600060c0828403121561308057600080fd5b61308a6080613d3f565b9050600061309a848285016131f4565b60008301525060206130ae848285016131f4565b60208301525060406130c284828501612ec8565b60408301525060606130d6848285016130e2565b60608301525092915050565b6000606082840312156130f457600080fd5b6130fe6060613d3f565b9050600061310e84828501612ec8565b600083015250602061312284828501612ec8565b6020830152506040613136848285016131df565b60408301525092915050565b600060a0828403121561315457600080fd5b61315e60a0613d3f565b9050600061316e84828501612ec8565b600083015250602061318284828501612ec8565b6020830152506040613196848285016131df565b60408301525060606131aa8482850161321e565b60608301525060806131be84828501613059565b60808301525092915050565b6000813590506131d981614028565b92915050565b6000813590506131ee8161403f565b92915050565b60008135905061320381614056565b92915050565b60008151905061321881614056565b92915050565b60008135905061322d8161406d565b92915050565b60006020828403121561324557600080fd5b600061325384828501612ec8565b91505092915050565b60008060006060848603121561327157600080fd5b600061327f86828701612ec8565b9350506020613290868287016131f4565b92505060406132a186828701612ec8565b9150509250925092565b6000806000806000806000806080898b0312156132c757600080fd5b600089013567ffffffffffffffff8111156132e157600080fd5b6132ed8b828c01612edd565b9850985050602089013567ffffffffffffffff81111561330c57600080fd5b6133188b828c01612fc5565b9650965050604089013567ffffffffffffffff81111561333757600080fd5b6133438b828c01612edd565b9450945050606089013567ffffffffffffffff81111561336257600080fd5b61336e8b828c01612f51565b92509250509295985092959890939650565b6000806000610100848603121561339657600080fd5b60006133a48682870161306e565b93505060c084013567ffffffffffffffff8111156133c157600080fd5b6133cd86828701612f27565b92505060e084013567ffffffffffffffff8111156133ea57600080fd5b6133f686828701612f9b565b9150509250925092565b60006020828403121561341257600080fd5b6000613420848285016131ca565b91505092915050565b60008060c0838503121561343c57600080fd5b600061344a858286016131ca565b925050602061345b85828601613142565b9150509250929050565b60006020828403121561347757600080fd5b6000613485848285016131df565b91505092915050565b6000602082840312156134a057600080fd5b60006134ae84828501613209565b91505092915050565b600080604083850312156134ca57600080fd5b60006134d8858286016131f4565b92505060206134e985828601612ec8565b9150509250929050565b6000806000806060858703121561350957600080fd5b6000613517878288016131f4565b9450506020613528878288016131f4565b935050604085013567ffffffffffffffff81111561354557600080fd5b6135518782880161300f565b925092505092959194509250565b600061356b838361359e565b60208301905092915050565b600061358383836139d9565b60208301905092915050565b61359881613ef3565b82525050565b6135a781613e73565b82525050565b6135b681613e73565b82525050565b60006135c88385613e01565b93506135d382613dc8565b8060005b8581101561360c576135e98284613e45565b6135f3888261355f565b97506135fe83613de7565b9250506001810190506135d7565b5085925050509392505050565b60006136258385613e12565b935061363082613dd2565b8060005b85811015613669576136468284613e5c565b6136508882613577565b975061365b83613df4565b925050600181019050613634565b5085925050509392505050565b600061368182613ddc565b61368b8185613e23565b935061369b818560208601613fa7565b6136a481613fdc565b840191505092915050565b6136b881613f05565b82525050565b6136c781613f29565b82525050565b6136d681613f4d565b82525050565b6136e581613f71565b82525050565b60006136f8601883613e34565b91507f6f6e65206f6620616d6f756e7473206d757374206265203000000000000000006000830152602082019050919050565b6000613738601383613e34565b91507f496e76616c696420666c61736820706f6f6c21000000000000000000000000006000830152602082019050919050565b6000613778601283613e34565b91507f6c6f616e656420616d6f756e74206973203000000000000000000000000000006000830152602082019050919050565b60006137b8601983613e34565b91507f53776170206661696c6564206f6e20556e6973776170563321000000000000006000830152602082019050919050565b60006137f8602f83613e34565b91507f656e6420747261646520617373657374206d75737420626520657175616c207460008301527f6f206c6f616e65642061737365737400000000000000000000000000000000006020830152604082019050919050565b600061385e601483613e34565b91507f496e76616c696420747261646520706172616d730000000000000000000000006000830152602082019050919050565b610100820160008201516138a8600085018261359e565b5060208201516138bb602085018261359e565b5060408201516138ce60408501826139f7565b5060608201516138e1606085018261359e565b5060808201516138f46080850182613a15565b5060a082015161390760a0850182613a15565b5060c082015161391a60c0850182613a15565b5060e082015161392d60e08501826139ca565b50505050565b60c0820160008201516139496000850182613a15565b50602082015161395c6020850182613a15565b50604082015161396f604085018261359e565b5060608201516139826060850182613988565b50505050565b60608201600082015161399e600085018261359e565b5060208201516139b1602085018261359e565b5060408201516139c460408501826139f7565b50505050565b6139d381613ea6565b82525050565b6139e281613e98565b82525050565b6139f181613e98565b82525050565b613a0081613ec6565b82525050565b613a0f81613ec6565b82525050565b613a1e81613ed5565b82525050565b613a2d81613ed5565b82525050565b613a3c81613edf565b82525050565b6000602082019050613a5760008301846135ad565b92915050565b6000608082019050613a72600083018761358f565b613a7f6020830186613a24565b613a8c6040830185613a24565b8181036060830152613a9e8184613676565b905095945050505050565b600060a082019050613abe60008301886135ad565b613acb60208301876135ad565b613ad86040830186613a06565b613ae56060830185613a33565b613af260808301846136dc565b9695505050505050565b6000602082019050613b1160008301846136af565b92915050565b6000602082019050613b2c60008301846136be565b92915050565b6000602082019050613b4760008301846136cd565b92915050565b60006020820190508181036000830152613b66816136eb565b9050919050565b60006020820190508181036000830152613b868161372b565b9050919050565b60006020820190508181036000830152613ba68161376b565b9050919050565b60006020820190508181036000830152613bc6816137ab565b9050919050565b60006020820190508181036000830152613be6816137eb565b9050919050565b60006020820190508181036000830152613c0681613851565b9050919050565b600061010082019050613c236000830184613891565b92915050565b600061010082019050613c3f6000830188613933565b81810360c0830152613c528186886135bc565b905081810360e0830152613c67818486613619565b90509695505050505050565b6000602082019050613c8860008301846139e8565b92915050565b6000604082019050613ca360008301856139e8565b613cb06020830184613a06565b9392505050565b6000602082019050613ccc6000830184613a06565b92915050565b6000602082019050613ce76000830184613a24565b92915050565b6000604082019050613d026000830185613a24565b613d0f60208301846139e8565b9392505050565b6000604082019050613d2b6000830185613a24565b613d386020830184613a24565b9392505050565b6000604051905081810181811067ffffffffffffffff82111715613d6657613d65613fda565b5b8060405250919050565b600067ffffffffffffffff821115613d8b57613d8a613fda565b5b602082029050602081019050919050565b600067ffffffffffffffff821115613db757613db6613fda565b5b602082029050602081019050919050565b6000819050919050565b6000819050919050565b600081519050919050565b6000602082019050919050565b6000602082019050919050565b600082825260208201905092915050565b600082825260208201905092915050565b600082825260208201905092915050565b600082825260208201905092915050565b6000613e546020840184612ec8565b905092915050565b6000613e6b60208401846131ca565b905092915050565b6000613e7e82613ea6565b9050919050565b6000819050613e9382613fed565b919050565b600061ffff82169050919050565b600073ffffffffffffffffffffffffffffffffffffffff82169050919050565b600062ffffff82169050919050565b6000819050919050565b600067ffffffffffffffff82169050919050565b6000613efe82613f83565b9050919050565b6000613f1082613f17565b9050919050565b6000613f2282613ea6565b9050919050565b6000613f3482613f3b565b9050919050565b6000613f4682613ea6565b9050919050565b6000613f5882613f5f565b9050919050565b6000613f6a82613ea6565b9050919050565b6000613f7c82613e85565b9050919050565b6000613f8e82613f95565b9050919050565b6000613fa082613ea6565b9050919050565b60005b83811015613fc5578082015181840152602081019050613faa565b83811115613fd4576000848401525b50505050565bfe5b6000601f19601f8301169050919050565b60038110613ffe57613ffd613fda565b5b50565b61400a81613e73565b811461401557600080fd5b50565b6003811061402557600080fd5b50565b61403181613e98565b811461403c57600080fd5b50565b61404881613ec6565b811461405357600080fd5b50565b61405f81613ed5565b811461406a57600080fd5b50565b61407681613edf565b811461408157600080fd5b5056fe4f776e61626c653a206e6577206f776e657220697320746865207a65726f2061646472657373a2646970667358221220494403e5ff3895804e9408c4692c21c43801a8896c272d29fb1c6b101aa78e2764736f6c63430007060033",
  "immutableReferences": {
    "1386": [
      {
        "length": 32,
        "start": 3155
      },
      {
        "length": 32,
        "start": 3952
      },
      {
        "length": 32,
        "start": 4920
      }
    ],
    "1390": [
      {
        "length": 32,
        "start": 331
      },
      {
        "length": 32,
        "start": 1846
      },
      {
        "length": 32,
        "start": 2169
      },
      {
        "length": 32,
        "start": 2490
      },
      {
        "length": 32,
        "start": 7966
      },
      {
        "length": 32,
        "start": 8062
      },
      {
        "length": 32,
        "start": 8191
      }
    ]
  },
  "source": "// SPDX-License-Identifier: GPL-2.0-or-later\r\npragma solidity >=0.7.6;\r\npragma abicoder v2;\r\n\r\nimport \"@uniswap/v3-core/contracts/interfaces/callback/IUniswapV3FlashCallback.sol\";\r\nimport \"@uniswap/v3-core/contracts/interfaces/IUniswapV3Factory.sol\";\r\nimport \"@uniswap/v3-core/contracts/libraries/LowGasSafeMath.sol\";\r\nimport \"@uniswap/v2-periphery/contracts/interfaces/IUniswapV2Router02.sol\";\r\nimport \"@uniswap/v3-periphery/contracts/base/PeripheryPayments.sol\";\r\nimport \"@uniswap/v3-periphery/contracts/base/PeripheryImmutableState.sol\";\r\nimport \"@uniswap/v3-periphery/contracts/libraries/PoolAddress.sol\";\r\nimport \"@uniswap/v3-periphery/contracts/libraries/CallbackValidation.sol\";\r\nimport \"@uniswap/v3-periphery/contracts/interfaces/ISwapRouter.sol\";\r\nimport \"@openzeppelin/contracts/token/ERC20/IERC20.sol\";\r\nimport \"./utils/Helpers.sol\";\r\nimport \"./utils/SwapAssets.sol\";\r\n\r\n/// @title Flash contract implementation\r\n/// @notice An example contract using the Uniswap V3 flash function\r\ncontract UniswapFlash is \r\n    IUniswapV3FlashCallback,\r\n    PeripheryImmutableState,\r\n    PeripheryPayments,\r\n    SwapAssets {\r\n    \r\n\r\n    // fee2 and fee3 are the two other fees associated with the two other pools of token0 and token1\r\n    struct FlashCallbackData {\r\n        uint256 amount0;\r\n        uint256 amount1;\r\n        address payer;\r\n        PoolAddress.PoolKey poolKey;\r\n        // uint24 poolFee2;\r\n        // uint24 poolFee3;\r\n    }\r\n\r\n    using LowGasSafeMath for uint256;\r\n    IUniswapV3Pool public flashPool;\r\n    uint24 public flashPoolFee;  //  flash from the 0.05% fee of pool\r\n\r\n    event FalshloanInited(\r\n        address indexed _loanAsset,\r\n        uint256 _loanAmount,\r\n        address indexed _tradeAsset,\r\n        uint16 _tradeDex\r\n    );\r\n    event AssetBorrowedFromPool(\r\n        address indexed _pool,\r\n        address indexed _loanAsset,\r\n        uint256 _loanAmount,\r\n        uint256 _fee\r\n    );\r\n    event AssetSwaped(\r\n        address indexed _swapAsset,\r\n        uint256 _swapAmount\r\n    );\r\n    event RepayedAssetToPool(\r\n        address indexed _pool,\r\n        address indexed _repayedAsset,\r\n        uint256 _repayedAmount\r\n    );\r\n    event TransferProfitToWallet(\r\n        address indexed _owner,\r\n        address indexed _profitAsset,\r\n        uint256 _profitAmount\r\n    );\r\n    event ChangedFlashPoolFee(address indexed _sender, uint24 _fee);\r\n    constructor(\r\n        address _factory,\r\n        address _WETH9\r\n    ) PeripheryImmutableState(_factory, _WETH9) {\r\n     \r\n    }\r\n\r\n    /// @param loanAssets array of assets pair to loan. for example [token0, token1].\r\n    /// @param loanAmounts array of assets amounts to loan. for example [amount0, amount1].\r\n    ///         one of two amounts must be 0\r\n    /// @param tradeAssets array of assets to trade. end asset must be equal to loaned assest\r\n    /// @param tradeDexs array of dexes to trade.\r\n    /// @notice Calls the pools flash function with data needed in `uniswapV3FlashCallback`\r\n    function initUniFlashSwap(\r\n        address[] calldata loanAssets,\r\n        uint256[] calldata loanAmounts,\r\n        address[] calldata tradeAssets,\r\n        uint16[] calldata tradeDexs\r\n    ) external {\r\n        PoolAddress.PoolKey memory poolKey = PoolAddress.PoolKey(\r\n            {\r\n                token0: loanAssets[0],\r\n                token1: loanAssets[1],\r\n                fee: flashPoolFee\r\n            }\r\n        );\r\n        flashPool = IUniswapV3Pool(PoolAddress.computeAddress(factory, poolKey));\r\n        require(address(flashPool) != address(0), \"Invalid flash pool!\");\r\n        emit FalshloanInited(loanAssets[0], loanAmounts[0], tradeAssets[0], tradeDexs[0]);\r\n\r\n        // recipient of borrowed amounts (should be (this) contract)\r\n        // amount of token0 requested to borrow\r\n        // amount of token1 requested to borrow\r\n        // need amount 0 and amount1 in callback to pay back pool\r\n        // recipient of flash should be THIS contract\r\n        flashPool.flash(\r\n            address(this),\r\n            loanAmounts[0],\r\n            loanAmounts[1],\r\n            abi.encode(\r\n                FlashCallbackData({\r\n                    amount0: loanAmounts[0],\r\n                    amount1: loanAmounts[1],\r\n                    payer: msg.sender,\r\n                    poolKey: poolKey\r\n                    // poolFee2: params.fee2,\r\n                    // poolFee3: params.fee3\r\n                }),\r\n                tradeAssets,\r\n                tradeDexs\r\n            )\r\n        );\r\n    }\r\n\r\n    /// @param fee0 The fee from calling flash for token0\r\n    /// @param fee1 The fee from calling flash for token1\r\n    /// @param data The data needed in the callback passed as FlashCallbackData from `initUniFlashSwap`\r\n    /// @notice implements the callback called from flash\r\n    /// @dev fails if the flash is not profitable, meaning the amountOut from the flash is less than the amount borrowed\r\n    function uniswapV3FlashCallback(\r\n        uint256 fee0,\r\n        uint256 fee1,\r\n        bytes calldata data\r\n    ) external override {\r\n       \r\n        (\r\n            FlashCallbackData memory decoded,\r\n            address[] memory tradeAssets,\r\n            uint16[] memory tradeDexs\r\n        ) = abi.decode(data, (FlashCallbackData, address[], uint16[]));\r\n        CallbackValidation.verifyCallback(factory, decoded.poolKey);\r\n        require(\r\n            decoded.amount0 == 0 ||  decoded.amount1 == 0,\r\n            \"one of amounts must be 0\"\r\n        );\r\n        address loanAsset = decoded.amount0 > 0 ? decoded.poolKey.token0: decoded.poolKey.token1;\r\n        uint256 loanAmount = decoded.amount0 > 0 ? decoded.amount0: decoded.amount1;\r\n        uint256 fee = decoded.amount0 > 0 ? fee0 : fee1;\r\n        address payer = decoded.payer;\r\n        emit AssetBorrowedFromPool(msg.sender, loanAsset, loanAmount, fee);\r\n        // start trade\r\n        uint256 amountOut = tradeExecute(\r\n            address(this),\r\n            loanAsset,\r\n            loanAmount,\r\n            tradeAssets,\r\n            tradeDexs\r\n        );\r\n        emit AssetSwaped(loanAsset, amountOut);\r\n\r\n        // compute amount to pay back to pool \r\n        // loanAmount + fee\r\n        uint256 amountOwed = LowGasSafeMath.add(loanAmount, fee);\r\n        \r\n        // pay back pool the loan \r\n        // note: msg.sender == pool to pay back \r\n        if (amountOwed > 0) {\r\n            pay(loanAsset, address(this), msg.sender, amountOwed);\r\n            emit RepayedAssetToPool(msg.sender, loanAsset, amountOwed);\r\n        }\r\n        uint256 profit = LowGasSafeMath.sub(amountOut, amountOwed);\r\n        // if profitable pay profits to payer\r\n        if (profit > 0) {\r\n            pay(loanAsset, address(this), payer, profit);\r\n            emit TransferProfitToWallet(payer, loanAsset, profit);\r\n        }\r\n    }\r\n    function setFlashPoolFee(uint24 poolFee) public onlyOwner() {\r\n        flashPoolFee = poolFee;\r\n        emit ChangedFlashPoolFee(msg.sender, poolFee);\r\n    }\r\n    fallback() external payable {}\r\n}\r\n",
  "sourcePath": "D:\\MyWorks\\MySolidities\\SilvanShwarz\\FlashLoans\\uni-flashswap-truffle\\contracts\\UniswapFlash.sol",
  "compiler": {
    "name": "solc",
    "version": "0.7.6+commit.7338295f.Emscripten.clang"
  },
  "schemaVersion": "3.4.7",
  "updatedAt": "2022-06-24T20:07:49.303Z",
  "devdoc": {
    "kind": "dev",
    "methods": {
      "initUniFlashSwap(address[],uint256[],address[],uint16[])": {
        "params": {
          "loanAmounts": "array of assets amounts to loan. for example [amount0, amount1].         one of two amounts must be 0",
          "loanAssets": "array of assets pair to loan. for example [token0, token1].",
          "tradeAssets": "array of assets to trade. end asset must be equal to loaned assest",
          "tradeDexs": "array of dexes to trade."
        }
      },
      "owner()": {
        "details": "Returns the address of the current owner."
      },
      "refundETH()": {
        "details": "Useful for bundling with mint or increase liquidity that uses ether, or exact output swaps that use ether for the input amount"
      },
      "renounceOwnership()": {
        "details": "Leaves the contract without owner. It will not be possible to call `onlyOwner` functions anymore. Can only be called by the current owner. NOTE: Renouncing ownership will leave the contract without an owner, thereby removing any functionality that is only available to the owner."
      },
      "sweepToken(address,uint256,address)": {
        "details": "The amountMinimum parameter prevents malicious contracts from stealing the token from users",
        "params": {
          "amountMinimum": "The minimum amount of token required for a transfer",
          "recipient": "The destination address of the token",
          "token": "The contract address of the token which will be transferred to `recipient`"
        }
      },
      "transferOwnership(address)": {
        "details": "Transfers ownership of the contract to a new account (`newOwner`). Can only be called by the current owner."
      },
      "uniswapV3FlashCallback(uint256,uint256,bytes)": {
        "details": "fails if the flash is not profitable, meaning the amountOut from the flash is less than the amount borrowed",
        "params": {
          "data": "The data needed in the callback passed as FlashCallbackData from `initUniFlashSwap`",
          "fee0": "The fee from calling flash for token0",
          "fee1": "The fee from calling flash for token1"
        }
      },
      "unwrapWETH9(uint256,address)": {
        "details": "The amountMinimum parameter prevents malicious contracts from stealing WETH9 from users.",
        "params": {
          "amountMinimum": "The minimum amount of WETH9 to unwrap",
          "recipient": "The address receiving ETH"
        }
      }
    },
    "title": "Flash contract implementation",
    "version": 1
  },
  "userdoc": {
    "kind": "user",
    "methods": {
      "initUniFlashSwap(address[],uint256[],address[],uint16[])": {
        "notice": "Calls the pools flash function with data needed in `uniswapV3FlashCallback`"
      },
      "refundETH()": {
        "notice": "Refunds any ETH balance held by this contract to the `msg.sender`"
      },
      "sweepToken(address,uint256,address)": {
        "notice": "Transfers the full amount of a token held by this contract to recipient"
      },
      "uniswapV3FlashCallback(uint256,uint256,bytes)": {
        "notice": "implements the callback called from flash"
      },
      "unwrapWETH9(uint256,address)": {
        "notice": "Unwraps the contract's WETH9 balance and sends it to recipient as ETH."
      }
    },
    "notice": "An example contract using the Uniswap V3 flash function",
    "version": 1
  }
}