{
  "contractName": "UniswapFlash",
  "abi": [
    {
      "inputs": [
        {
          "internalType": "address",
          "name": "_factory",
          "type": "address"
        },
        {
          "internalType": "address",
          "name": "_WETH9",
          "type": "address"
        }
      ],
      "stateMutability": "nonpayable",
      "type": "constructor"
    },
    {
      "anonymous": false,
      "inputs": [
        {
          "indexed": true,
          "internalType": "address",
          "name": "previousOwner",
          "type": "address"
        },
        {
          "indexed": true,
          "internalType": "address",
          "name": "newOwner",
          "type": "address"
        }
      ],
      "name": "OwnershipTransferred",
      "type": "event"
    },
    {
      "stateMutability": "payable",
      "type": "fallback",
      "payable": true
    },
    {
      "inputs": [],
      "name": "WETH9",
      "outputs": [
        {
          "internalType": "address",
          "name": "",
          "type": "address"
        }
      ],
      "stateMutability": "view",
      "type": "function",
      "constant": true
    },
    {
      "inputs": [],
      "name": "factory",
      "outputs": [
        {
          "internalType": "address",
          "name": "",
          "type": "address"
        }
      ],
      "stateMutability": "view",
      "type": "function",
      "constant": true
    },
    {
      "inputs": [],
      "name": "flashPoolFee",
      "outputs": [
        {
          "internalType": "uint24",
          "name": "",
          "type": "uint24"
        }
      ],
      "stateMutability": "view",
      "type": "function",
      "constant": true
    },
    {
      "inputs": [],
      "name": "owner",
      "outputs": [
        {
          "internalType": "address",
          "name": "",
          "type": "address"
        }
      ],
      "stateMutability": "view",
      "type": "function",
      "constant": true
    },
    {
      "inputs": [],
      "name": "refundETH",
      "outputs": [],
      "stateMutability": "payable",
      "type": "function",
      "payable": true
    },
    {
      "inputs": [],
      "name": "renounceOwnership",
      "outputs": [],
      "stateMutability": "nonpayable",
      "type": "function"
    },
    {
      "inputs": [
        {
          "internalType": "address",
          "name": "token",
          "type": "address"
        },
        {
          "internalType": "uint256",
          "name": "amountMinimum",
          "type": "uint256"
        },
        {
          "internalType": "address",
          "name": "recipient",
          "type": "address"
        }
      ],
      "name": "sweepToken",
      "outputs": [],
      "stateMutability": "payable",
      "type": "function",
      "payable": true
    },
    {
      "inputs": [
        {
          "internalType": "address",
          "name": "newOwner",
          "type": "address"
        }
      ],
      "name": "transferOwnership",
      "outputs": [],
      "stateMutability": "nonpayable",
      "type": "function"
    },
    {
      "inputs": [
        {
          "internalType": "uint256",
          "name": "amountMinimum",
          "type": "uint256"
        },
        {
          "internalType": "address",
          "name": "recipient",
          "type": "address"
        }
      ],
      "name": "unwrapWETH9",
      "outputs": [],
      "stateMutability": "payable",
      "type": "function",
      "payable": true
    },
    {
      "stateMutability": "payable",
      "type": "receive",
      "payable": true
    },
    {
      "inputs": [
        {
          "internalType": "address",
          "name": "loanToken",
          "type": "address"
        },
        {
          "internalType": "uint256",
          "name": "loanAmount",
          "type": "uint256"
        },
        {
          "components": [
            {
              "internalType": "address",
              "name": "to",
              "type": "address"
            },
            {
              "internalType": "bytes",
              "name": "data",
              "type": "bytes"
            }
          ],
          "internalType": "struct UniswapFlash.Call[]",
          "name": "calldatas",
          "type": "tuple[]"
        }
      ],
      "name": "initFlashSwap",
      "outputs": [],
      "stateMutability": "payable",
      "type": "function",
      "payable": true
    },
    {
      "inputs": [
        {
          "internalType": "uint256",
          "name": "fee0",
          "type": "uint256"
        },
        {
          "internalType": "uint256",
          "name": "fee1",
          "type": "uint256"
        },
        {
          "internalType": "bytes",
          "name": "data",
          "type": "bytes"
        }
      ],
      "name": "uniswapV3FlashCallback",
      "outputs": [],
      "stateMutability": "nonpayable",
      "type": "function"
    },
    {
      "inputs": [
        {
          "internalType": "uint24",
          "name": "poolFee",
          "type": "uint24"
        }
      ],
      "name": "changeFlashPoolFee",
      "outputs": [],
      "stateMutability": "nonpayable",
      "type": "function"
    }
  ],
  "bytecode": "0x60c060405260018054607d60a21b62ffffff60a01b19909116179055600280546001600160a01b031916736b175474e89094c44da98b954eedeac495271d0f1790553480156200004e57600080fd5b5060405162001b4838038062001b48833981016040819052620000719162000113565b6001600160601b0319606083811b821660805282901b1660a052600160009081556200009c620000f2565b600180546001600160a01b0319166001600160a01b038316908117909155604051919250906000907f8be0079c531659141344cd1fd0a4f28419497f9722a3daafe3b4186f6b6457e0908290a35050506200014a565b3390565b80516001600160a01b03811681146200010e57600080fd5b919050565b6000806040838503121562000126578182fd5b6200013183620000f6565b91506200014160208401620000f6565b90509250929050565b60805160601c60a05160601c6119a7620001a1600039806101f752806102e2528061036f528061057e52806105b75280610ec25280610f085280610f7c5250806104f8528061069c52806108aa52506119a76000f3fe6080604052600436106100ab5760003560e01c8063c45a015511610064578063c45a015514610144578063c8aae2b214610159578063df2ab5bb1461016c578063e9cbafb01461017f578063ea3b44311461019f578063f2fde38b146101c1576100b2565b806312210e8a146100b457806349404b7c146100bc5780634aa4a4fc146100cf578063715018a6146100fa5780637655820e1461010f5780638da5cb5b1461012f576100b2565b366100b257005b005b6100b26101e1565b6100b26100ca366004611627565b6101f3565b3480156100db57600080fd5b506100e461036d565b6040516100f191906116da565b60405180910390f35b34801561010657600080fd5b506100b2610391565b34801561011b57600080fd5b506100b261012a3660046115f5565b61044f565b34801561013b57600080fd5b506100e46104e7565b34801561015057600080fd5b506100e46104f6565b6100b2610167366004611481565b61051a565b6100b261017a366004611446565b6107b4565b34801561018b57600080fd5b506100b261019a366004611652565b610892565b3480156101ab57600080fd5b506101b4610aeb565b6040516100f191906118eb565b3480156101cd57600080fd5b506100b26101dc36600461142c565b610afd565b47156101f1576101f13347610c12565b565b60007f00000000000000000000000000000000000000000000000000000000000000006001600160a01b03166370a08231306040518263ffffffff1660e01b815260040180826001600160a01b0316815260200191505060206040518083038186803b15801561026257600080fd5b505afa158015610276573d6000803e3d6000fd5b505050506040513d602081101561028c57600080fd5b50519050828110156102da576040805162461bcd60e51b8152602060048201526012602482015271496e73756666696369656e7420574554483960701b604482015290519081900360640190fd5b8015610368577f00000000000000000000000000000000000000000000000000000000000000006001600160a01b0316632e1a7d4d826040518263ffffffff1660e01b815260040180828152602001915050600060405180830381600087803b15801561034657600080fd5b505af115801561035a573d6000803e3d6000fd5b505050506103688282610c12565b505050565b7f000000000000000000000000000000000000000000000000000000000000000081565b610399610d01565b6001600160a01b03166103aa6104e7565b6001600160a01b031614610405576040805162461bcd60e51b815260206004820181905260248201527f4f776e61626c653a2063616c6c6572206973206e6f7420746865206f776e6572604482015290519081900360640190fd5b6001546040516000916001600160a01b0316907f8be0079c531659141344cd1fd0a4f28419497f9722a3daafe3b4186f6b6457e0908390a3600180546001600160a01b0319169055565b610457610d01565b6001600160a01b03166104686104e7565b6001600160a01b0316146104c3576040805162461bcd60e51b815260206004820181905260248201527f4f776e61626c653a2063616c6c6572206973206e6f7420746865206f776e6572604482015290519081900360640190fd5b6001805462ffffff909216600160a01b0262ffffff60a01b19909216919091179055565b6001546001600160a01b031690565b7f000000000000000000000000000000000000000000000000000000000000000081565b60026000541415610572576040805162461bcd60e51b815260206004820152601f60248201527f5265656e7472616e637947756172643a207265656e7472616e742063616c6c00604482015290519081900360640190fd5b600260008190555060007f00000000000000000000000000000000000000000000000000000000000000006001600160a01b0316856001600160a01b0316146105db577f00000000000000000000000000000000000000000000000000000000000000006105e8565b6002546001600160a01b03165b9050600080826001600160a01b0316876001600160a01b03161061060d578287610610565b86835b915091506000826001600160a01b0316886001600160a01b031614610636576000610638565b865b90506000826001600160a01b0316896001600160a01b03161461065c57600061065e565b875b604080516060810182526001600160a01b03878116825286166020820152600154600160a01b900462ffffff169181019190915290915060006106c17f000000000000000000000000000000000000000000000000000000000000000083610d05565b90506001600160a01b0381166106f25760405162461bcd60e51b81526004016106e99061173e565b60405180910390fd5b806001600160a01b031663490e6cbc30868660405180608001604052808a8152602001898152602001336001600160a01b03168152602001888152508e8e604051602001610742939291906117c2565b6040516020818303038152906040526040518563ffffffff1660e01b815260040161077094939291906116ee565b600060405180830381600087803b15801561078a57600080fd5b505af115801561079e573d6000803e3d6000fd5b5050600160005550505050505050505050505050565b6000836001600160a01b03166370a08231306040518263ffffffff1660e01b815260040180826001600160a01b0316815260200191505060206040518083038186803b15801561080357600080fd5b505afa158015610817573d6000803e3d6000fd5b505050506040513d602081101561082d57600080fd5b505190508281101561087b576040805162461bcd60e51b815260206004820152601260248201527124b739bab33334b1b4b2b73a103a37b5b2b760711b604482015290519081900360640190fd5b801561088c5761088c848383610d18565b50505050565b6000806108a183850185611505565b915091506108d37f00000000000000000000000000000000000000000000000000000000000000008360600151610d05565b6001600160a01b0316336001600160a01b0316146109035760405162461bcd60e51b81526004016106e99061176b565b815160009061091a57826060015160200151610921565b6060830151515b905060008084600001511161093a57836020015161093d565b83515b90506000808560000151116109525787610954565b885b905060005b8451811015610a1657600085828151811061097057fe5b6020026020010151600001516001600160a01b031686838151811061099157fe5b6020026020010151602001516040516109aa91906116be565b6000604051808303816000865af19150503d80600081146109e7576040519150601f19603f3d011682016040523d82523d6000602084013e6109ec565b606091505b5050905080610a0d5760405162461bcd60e51b81526004016106e990611798565b50600101610959565b506040516370a0823160e01b81526000906001600160a01b038516906370a0823190610a469030906004016116da565b60206040518083038186803b158015610a5e57600080fd5b505afa158015610a72573d6000803e3d6000fd5b505050506040513d601f19601f82011682018060405250810190610a96919061160f565b90506000610aa48484610e66565b9050808210610ab957610ab985303384610ec0565b6000610ac58383611050565b90508015610add57610add86308a6040015184610ec0565b505050505050505050505050565b600154600160a01b900462ffffff1681565b610b05610d01565b6001600160a01b0316610b166104e7565b6001600160a01b031614610b71576040805162461bcd60e51b815260206004820181905260248201527f4f776e61626c653a2063616c6c6572206973206e6f7420746865206f776e6572604482015290519081900360640190fd5b6001600160a01b038116610bb65760405162461bcd60e51b815260040180806020018281038252602681526020018061194c6026913960400191505060405180910390fd5b6001546040516001600160a01b038084169216907f8be0079c531659141344cd1fd0a4f28419497f9722a3daafe3b4186f6b6457e090600090a3600180546001600160a01b0319166001600160a01b0392909216919091179055565b604080516000808252602082019092526001600160a01b0384169083906040518082805190602001908083835b60208310610c5e5780518252601f199092019160209182019101610c3f565b6001836020036101000a03801982511681845116808217855250505050505090500191505060006040518083038185875af1925050503d8060008114610cc0576040519150601f19603f3d011682016040523d82523d6000602084013e610cc5565b606091505b5050905080610368576040805162461bcd60e51b815260206004820152600360248201526253544560e81b604482015290519081900360640190fd5b3390565b6000610d1183836110ad565b9392505050565b604080516001600160a01b038481166024830152604480830185905283518084039091018152606490920183526020820180516001600160e01b031663a9059cbb60e01b1781529251825160009485949389169392918291908083835b60208310610d945780518252601f199092019160209182019101610d75565b6001836020036101000a0380198251168184511680821785525050505050509050019150506000604051808303816000865af19150503d8060008114610df6576040519150601f19603f3d011682016040523d82523d6000602084013e610dfb565b606091505b5091509150818015610e29575080511580610e295750808060200190516020811015610e2657600080fd5b50515b610e5f576040805162461bcd60e51b815260206004820152600260248201526114d560f21b604482015290519081900360640190fd5b5050505050565b600082820183811015610d11576040805162461bcd60e51b815260206004820152601b60248201527f536166654d6174683a206164646974696f6e206f766572666c6f770000000000604482015290519081900360640190fd5b7f00000000000000000000000000000000000000000000000000000000000000006001600160a01b0316846001600160a01b0316148015610f015750804710155b15611023577f00000000000000000000000000000000000000000000000000000000000000006001600160a01b031663d0e30db0826040518263ffffffff1660e01b81526004016000604051808303818588803b158015610f6157600080fd5b505af1158015610f75573d6000803e3d6000fd5b50505050507f00000000000000000000000000000000000000000000000000000000000000006001600160a01b031663a9059cbb83836040518363ffffffff1660e01b815260040180836001600160a01b0316815260200182815260200192505050602060405180830381600087803b158015610ff157600080fd5b505af1158015611005573d6000803e3d6000fd5b505050506040513d602081101561101b57600080fd5b5061088c9050565b6001600160a01b0383163014156110445761103f848383610d18565b61088c565b61088c84848484611191565b6000828211156110a7576040805162461bcd60e51b815260206004820152601e60248201527f536166654d6174683a207375627472616374696f6e206f766572666c6f770000604482015290519081900360640190fd5b50900390565b600081602001516001600160a01b031682600001516001600160a01b0316106110d557600080fd5b50805160208083015160409384015184516001600160a01b0394851681850152939091168385015262ffffff166060808401919091528351808403820181526080840185528051908301206001600160f81b031960a085015294901b6bffffffffffffffffffffffff191660a183015260b58201939093527fe34f199b19b2b4f47f68442619d555527d244f78a3297ea89325f843f87b8b5460d5808301919091528251808303909101815260f5909101909152805191012090565b604080516001600160a01b0385811660248301528481166044830152606480830185905283518084039091018152608490920183526020820180516001600160e01b03166323b872dd60e01b178152925182516000948594938a169392918291908083835b602083106112155780518252601f1990920191602091820191016111f6565b6001836020036101000a0380198251168184511680821785525050505050509050019150506000604051808303816000865af19150503d8060008114611277576040519150601f19603f3d011682016040523d82523d6000602084013e61127c565b606091505b50915091508180156112aa5750805115806112aa57508080602001905160208110156112a757600080fd5b50515b6112e1576040805162461bcd60e51b815260206004820152600360248201526229aa2360e91b604482015290519081900360640190fd5b505050505050565b80356001600160a01b038116811461130057600080fd5b919050565b600082601f830112611315578081fd5b8135602067ffffffffffffffff8083111561132c57fe5b61133982838502016118fb565b83815282810190868401865b8681101561140b57813589016040601f198181848f03011215611366578a8bfd5b81518281018181108a8211171561137957fe5b8352611386848b016112e9565b81528284013589811115611398578c8dfd5b8085019450508d603f8501126113ac578b8cfd5b89840135898111156113ba57fe5b6113ca8b84601f840116016118fb565b92508083528e8b8c838801010111156113e1578c8dfd5b808486018c85013782018a018c9052808a0191909152865250509285019290850190600101611345565b509098975050505050505050565b803562ffffff8116811461130057600080fd5b60006020828403121561143d578081fd5b610d11826112e9565b60008060006060848603121561145a578182fd5b611463846112e9565b925060208401359150611478604085016112e9565b90509250925092565b60008060008060608587031215611496578081fd5b61149f856112e9565b935060208501359250604085013567ffffffffffffffff808211156114c2578283fd5b818701915087601f8301126114d5578283fd5b8135818111156114e3578384fd5b88602080830285010111156114f6578384fd5b95989497505060200194505050565b60008082840360e0811215611518578283fd5b60c0811215611525578283fd5b604080516080810167ffffffffffffffff828210818311171561154457fe5b81845287358352602088013560208401526115608489016112e9565b838501526060605f1986011215611575578687fd5b83519450606085019150848210818311171561158d57fe5b81845261159c606089016112e9565b85526115aa608089016112e9565b60208601526115bb60a08901611419565b8486015284606084015282965060c08801359450808511156115db578586fd5b505050506115eb85828601611305565b9150509250929050565b600060208284031215611606578081fd5b610d1182611419565b600060208284031215611620578081fd5b5051919050565b60008060408385031215611639578182fd5b82359150611649602084016112e9565b90509250929050565b60008060008060608587031215611667578384fd5b8435935060208501359250604085013567ffffffffffffffff8082111561168c578384fd5b818701915087601f83011261169f578384fd5b8135818111156116ad578485fd5b8860208285010111156114f6578485fd5b600082516116d081846020870161191f565b9190910192915050565b6001600160a01b0391909116815260200190565b600060018060a01b03861682528460208301528360408301526080606083015282518060808401526117278160a085016020870161191f565b601f01601f19169190910160a00195945050505050565b602080825260139082015272496e76616c696420666c61736820706f6f6c2160681b604082015260600190565b6020808252601390820152724f6e6c7920506f6f6c2063616e2063616c6c2160681b604082015260600190565b60208082526010908201526f54726164696e67204661696c7572652160801b604082015260600190565b83518152602080850151818301526040808601516001600160a01b03908116828501526060808801518051831682870152808501518316608087015283015162ffffff1660a086015260e060c0860181905285018690526000936101008782028701810194919391929190870189875b8a8110156118da5789880360ff190183528135368d9003603e1901811261185757898afd5b8c0184611863826112e9565b16895287810135601e1982360301811261187b578a8bfd5b8101803567ffffffffffffffff811115611893578b8cfd5b8036038313156118a1578b8cfd5b888a8c015280898c0152808a8301898d01378a810188018c9052601f01601f191690990186019850509186019190860190600101611832565b50959b9a5050505050505050505050565b62ffffff91909116815260200190565b60405181810167ffffffffffffffff8111828210171561191757fe5b604052919050565b60005b8381101561193a578181015183820152602001611922565b8381111561088c575050600091015256fe4f776e61626c653a206e6577206f776e657220697320746865207a65726f2061646472657373a264697066735822122016a0664e2ace7218685568b3250de097b1173afbf633a3ce8329031696bceecd64736f6c63430007060033",
  "immutableReferences": {
    "674": [
      {
        "length": 32,
        "start": 1272
      },
      {
        "length": 32,
        "start": 1692
      },
      {
        "length": 32,
        "start": 2218
      }
    ],
    "676": [
      {
        "length": 32,
        "start": 503
      },
      {
        "length": 32,
        "start": 738
      },
      {
        "length": 32,
        "start": 879
      },
      {
        "length": 32,
        "start": 1406
      },
      {
        "length": 32,
        "start": 1463
      },
      {
        "length": 32,
        "start": 3778
      },
      {
        "length": 32,
        "start": 3848
      },
      {
        "length": 32,
        "start": 3964
      }
    ]
  },
  "source": "// SPDX-License-Identifier: MIT;\r\npragma solidity >=0.7.6;\r\npragma abicoder v2;\r\n\r\nimport { IUniswapV3FlashCallback } from \"../interfaces/IUniswapV3FlashCallback.sol\";\r\nimport { IUniswapV3Pool } from \"../interfaces/IUniswapV3Pool.sol\";\r\nimport { PeripheryPayments, IERC20, TransferHelper } from \"../utils/PeripheryPayments.sol\";\r\nimport { PeripheryImmutableState } from \"../utils/PeripheryImmutableState.sol\";\r\nimport { PoolAddress } from \"../utils/PoolAddress.sol\";\r\nimport { SafeMath } from \"../utils/SafeMath.sol\";\r\nimport { Ownable } from \"@openzeppelin/contracts/access/Ownable.sol\";\r\nimport { ReentrancyGuard } from \"@openzeppelin/contracts/utils/ReentrancyGuard.sol\";\r\n\r\n/// @title Flashloan contract implementation\r\n/// @notice contract using the Uniswap V3 flash function\r\ncontract UniswapFlash is \r\n    IUniswapV3FlashCallback,\r\n    PeripheryImmutableState,\r\n    PeripheryPayments,\r\n    ReentrancyGuard,\r\n    Ownable {\r\n    using SafeMath for uint256;\r\n    struct FlashCallbackData {\r\n        uint256 amount0;\r\n        uint256 amount1;\r\n        address payer;\r\n        PoolAddress.PoolKey poolKey;\r\n    }\r\n    struct Call {\r\n        address to;\r\n        bytes data;\r\n    }\r\n    uint24 public flashPoolFee = 500;  //  flash from the 0.05% fee of pool\r\n    address DAI = 0x6B175474E89094C44Da98b954EedeAC495271d0F;\r\n    constructor(\r\n        address _factory,\r\n        address _WETH9\r\n    ) PeripheryImmutableState(_factory, _WETH9) {}\r\n    function initFlashSwap(\r\n        address loanToken,\r\n        uint256 loanAmount,\r\n        Call[] calldata calldatas\r\n    ) external payable nonReentrant {\r\n        address otherToken = loanToken == WETH9 ? DAI : WETH9;\r\n        (address token0, address token1) = loanToken < otherToken ? (loanToken, otherToken) : (otherToken, loanToken);\r\n        uint256 amount0 = loanToken == token0 ? loanAmount : 0;\r\n        uint256 amount1 = loanToken == token1 ? loanAmount : 0;\r\n        PoolAddress.PoolKey memory poolKey = PoolAddress.PoolKey(\r\n            {\r\n                token0: token0,\r\n                token1: token1,\r\n                fee: flashPoolFee\r\n            }\r\n        );\r\n        address flashPool = getFlashPool(factory, poolKey);\r\n        require(flashPool != address(0), \"Invalid flash pool!\");\r\n        IUniswapV3Pool(flashPool).flash(\r\n            address(this),\r\n            amount0,\r\n            amount1,\r\n            abi.encode(\r\n                FlashCallbackData({\r\n                    amount0: amount0,\r\n                    amount1: amount1,\r\n                    payer: msg.sender,\r\n                    poolKey: poolKey\r\n                }),\r\n                calldatas\r\n            )\r\n        );   \r\n    }\r\n\r\n    function uniswapV3FlashCallback(\r\n        uint256 fee0,\r\n        uint256 fee1,\r\n        bytes calldata data\r\n    ) external override {\r\n        (\r\n            FlashCallbackData memory callback,\r\n            Call[] memory calls\r\n        ) = abi.decode(data, (FlashCallbackData, Call[]));\r\n        require(msg.sender == getFlashPool(factory, callback.poolKey), \"Only Pool can call!\");\r\n        \r\n        address loanToken = callback.amount0 > 0 ? callback.poolKey.token0: callback.poolKey.token1;\r\n        uint256 loanAmount = callback.amount0 > 0 ? callback.amount0: callback.amount1;\r\n        uint256 fee = callback.amount0 > 0 ? fee0 : fee1;\r\n        // start trade\r\n        for (uint i = 0; i < calls.length; i++) {\r\n\r\n           // solhint-disable-next-line avoid-low-level-calls\r\n            (bool success, ) = calls[i].to.call(calls[i].data);\r\n            require(success, \"Trading Failure!\");\r\n        }\r\n        uint256 amountOut = IERC20(loanToken).balanceOf(address(this));\r\n        uint256 amountOwed = loanAmount.add(fee);\r\n        \r\n        if (amountOut >= amountOwed) {\r\n            pay(loanToken, address(this), msg.sender, amountOwed);\r\n        }\r\n        uint256 profit = amountOut.sub(amountOwed);\r\n        if (profit > 0) {\r\n            pay(loanToken, address(this), callback.payer, profit);\r\n        }\r\n    }\r\n    function getFlashPool(\r\n        address _factory, \r\n        PoolAddress.PoolKey memory _poolKey\r\n    ) internal pure returns (address) {\r\n        return PoolAddress.computeAddress(_factory, _poolKey);\r\n    }\r\n    function changeFlashPoolFee(uint24 poolFee) public onlyOwner() {\r\n        flashPoolFee = poolFee;\r\n    }\r\n    fallback() external payable {}\r\n    receive() external payable {}\r\n}\r\n",
  "sourcePath": "D:\\MyWorks\\MySolidities\\SilvanShwarz\\FlashLoans\\uni-flashswap-truffle\\contracts\\flashloans\\UniswapFlash.sol",
  "compiler": {
    "name": "solc",
    "version": "0.7.6+commit.7338295f.Emscripten.clang"
  },
  "schemaVersion": "3.4.7",
  "updatedAt": "2022-07-19T09:19:19.865Z",
  "networkType": "ethereum",
  "devdoc": {
    "kind": "dev",
    "methods": {
      "owner()": {
        "details": "Returns the address of the current owner."
      },
      "renounceOwnership()": {
        "details": "Leaves the contract without owner. It will not be possible to call `onlyOwner` functions anymore. Can only be called by the current owner. NOTE: Renouncing ownership will leave the contract without an owner, thereby removing any functionality that is only available to the owner."
      },
      "transferOwnership(address)": {
        "details": "Transfers ownership of the contract to a new account (`newOwner`). Can only be called by the current owner."
      },
      "uniswapV3FlashCallback(uint256,uint256,bytes)": {
        "details": "In the implementation you must repay the pool the tokens sent by flash plus the computed fee amounts. The caller of this method must be checked to be a UniswapV3Pool deployed by the canonical UniswapV3Factory.",
        "params": {
          "data": "Any data passed through by the caller via the IUniswapV3PoolActions#flash call",
          "fee0": "The fee amount in token0 due to the pool by the end of the flash",
          "fee1": "The fee amount in token1 due to the pool by the end of the flash"
        }
      }
    },
    "title": "Flashloan contract implementation",
    "version": 1
  },
  "userdoc": {
    "kind": "user",
    "methods": {
      "uniswapV3FlashCallback(uint256,uint256,bytes)": {
        "notice": "Called to `msg.sender` after transferring to the recipient from IUniswapV3Pool#flash."
      }
    },
    "notice": "contract using the Uniswap V3 flash function",
    "version": 1
  }
}