{
  "contractName": "UniswapFlash",
  "abi": [
    {
      "inputs": [
        {
          "internalType": "address",
          "name": "_factory",
          "type": "address"
        },
        {
          "internalType": "address",
          "name": "_WETH9",
          "type": "address"
        }
      ],
      "stateMutability": "nonpayable",
      "type": "constructor"
    },
    {
      "anonymous": false,
      "inputs": [
        {
          "indexed": true,
          "internalType": "address",
          "name": "previousOwner",
          "type": "address"
        },
        {
          "indexed": true,
          "internalType": "address",
          "name": "newOwner",
          "type": "address"
        }
      ],
      "name": "OwnershipTransferred",
      "type": "event"
    },
    {
      "stateMutability": "payable",
      "type": "fallback",
      "payable": true
    },
    {
      "inputs": [],
      "name": "WETH9",
      "outputs": [
        {
          "internalType": "address",
          "name": "",
          "type": "address"
        }
      ],
      "stateMutability": "view",
      "type": "function",
      "constant": true
    },
    {
      "inputs": [],
      "name": "factory",
      "outputs": [
        {
          "internalType": "address",
          "name": "",
          "type": "address"
        }
      ],
      "stateMutability": "view",
      "type": "function",
      "constant": true
    },
    {
      "inputs": [],
      "name": "flashPoolFee",
      "outputs": [
        {
          "internalType": "uint24",
          "name": "",
          "type": "uint24"
        }
      ],
      "stateMutability": "view",
      "type": "function",
      "constant": true
    },
    {
      "inputs": [],
      "name": "owner",
      "outputs": [
        {
          "internalType": "address",
          "name": "",
          "type": "address"
        }
      ],
      "stateMutability": "view",
      "type": "function",
      "constant": true
    },
    {
      "inputs": [],
      "name": "refundETH",
      "outputs": [],
      "stateMutability": "payable",
      "type": "function",
      "payable": true
    },
    {
      "inputs": [],
      "name": "renounceOwnership",
      "outputs": [],
      "stateMutability": "nonpayable",
      "type": "function"
    },
    {
      "inputs": [
        {
          "internalType": "address",
          "name": "token",
          "type": "address"
        },
        {
          "internalType": "uint256",
          "name": "amountMinimum",
          "type": "uint256"
        },
        {
          "internalType": "address",
          "name": "recipient",
          "type": "address"
        }
      ],
      "name": "sweepToken",
      "outputs": [],
      "stateMutability": "payable",
      "type": "function",
      "payable": true
    },
    {
      "inputs": [
        {
          "internalType": "address",
          "name": "newOwner",
          "type": "address"
        }
      ],
      "name": "transferOwnership",
      "outputs": [],
      "stateMutability": "nonpayable",
      "type": "function"
    },
    {
      "inputs": [
        {
          "internalType": "uint256",
          "name": "amountMinimum",
          "type": "uint256"
        },
        {
          "internalType": "address",
          "name": "recipient",
          "type": "address"
        }
      ],
      "name": "unwrapWETH9",
      "outputs": [],
      "stateMutability": "payable",
      "type": "function",
      "payable": true
    },
    {
      "stateMutability": "payable",
      "type": "receive",
      "payable": true
    },
    {
      "inputs": [
        {
          "internalType": "address[]",
          "name": "_loanAssets",
          "type": "address[]"
        },
        {
          "internalType": "uint256[]",
          "name": "_loanAmounts",
          "type": "uint256[]"
        },
        {
          "internalType": "address[]",
          "name": "_tokenPath",
          "type": "address[]"
        },
        {
          "internalType": "address[]",
          "name": "_spenders",
          "type": "address[]"
        },
        {
          "internalType": "address[]",
          "name": "_routers",
          "type": "address[]"
        },
        {
          "internalType": "bytes[]",
          "name": "_tradeDatas",
          "type": "bytes[]"
        }
      ],
      "name": "initUniFlashSwap",
      "outputs": [],
      "stateMutability": "payable",
      "type": "function",
      "payable": true
    },
    {
      "inputs": [
        {
          "internalType": "uint256",
          "name": "fee0",
          "type": "uint256"
        },
        {
          "internalType": "uint256",
          "name": "fee1",
          "type": "uint256"
        },
        {
          "internalType": "bytes",
          "name": "data",
          "type": "bytes"
        }
      ],
      "name": "uniswapV3FlashCallback",
      "outputs": [],
      "stateMutability": "nonpayable",
      "type": "function"
    },
    {
      "inputs": [
        {
          "internalType": "address",
          "name": "token",
          "type": "address"
        },
        {
          "internalType": "address",
          "name": "spender",
          "type": "address"
        },
        {
          "internalType": "uint256",
          "name": "amount",
          "type": "uint256"
        }
      ],
      "name": "approveToken",
      "outputs": [],
      "stateMutability": "nonpayable",
      "type": "function"
    },
    {
      "inputs": [
        {
          "internalType": "uint24",
          "name": "poolFee",
          "type": "uint24"
        }
      ],
      "name": "changeFlashPoolFee",
      "outputs": [],
      "stateMutability": "nonpayable",
      "type": "function"
    }
  ],
  "bytecode": "0x60c06040526001805462ffffff60a01b1916607d60a21b1790553480156200002657600080fd5b50604051620020fd380380620020fd8339810160408190526200004991620000eb565b6001600160601b0319606083811b821660805282901b1660a0526001600090815562000074620000ca565b600180546001600160a01b0319166001600160a01b038316908117909155604051919250906000907f8be0079c531659141344cd1fd0a4f28419497f9722a3daafe3b4186f6b6457e0908290a350505062000122565b3390565b80516001600160a01b0381168114620000e657600080fd5b919050565b60008060408385031215620000fe578182fd5b6200010983620000ce565b91506200011960208401620000ce565b90509250929050565b60805160601c60a05160601c611f8e6200016f60003980610547528061063252806106bf5280611241528061128752806112fb52508061030452806108485280610a015250611f8e6000f3fe6080604052600436106100c65760003560e01c80638da5cb5b1161007f578063df2ab5bb11610059578063df2ab5bb146101a7578063e9cbafb0146101ba578063ea3b4431146101da578063f2fde38b146101fc576100cd565b80638da5cb5b1461015d578063c45a015514610172578063da3e339714610187576100cd565b806308ae9af2146100cf57806312210e8a146100e257806349404b7c146100ea5780634aa4a4fc146100fd578063715018a6146101285780637655820e1461013d576100cd565b366100cd57005b005b6100cd6100dd36600461189c565b61021c565b6100cd610531565b6100cd6100f8366004611b68565b610543565b34801561010957600080fd5b506101126106bd565b60405161011f9190611cec565b60405180910390f35b34801561013457600080fd5b506100cd6106e1565b34801561014957600080fd5b506100cd610158366004611b36565b61079f565b34801561016957600080fd5b50610112610837565b34801561017e57600080fd5b50610112610846565b34801561019357600080fd5b506100cd6101a2366004611826565b61086a565b6100cd6101b5366004611861565b610908565b3480156101c657600080fd5b506100cd6101d5366004611b93565b6109e0565b3480156101e657600080fd5b506101ef610bf1565b60405161011f9190611ea7565b34801561020857600080fd5b506100cd61021736600461180c565b610c03565b60026000541415610274576040805162461bcd60e51b815260206004820152601f60248201527f5265656e7472616e637947756172643a207265656e7472616e742063616c6c00604482015290519081900360640190fd5b6002600081905550600060405180606001604052808e8e600081811061029657fe5b90506020020160208101906102ab919061180c565b6001600160a01b031681526020018e8e60018181106102c657fe5b90506020020160208101906102db919061180c565b6001600160a01b03168152600154600160a01b900462ffffff16602090910152905060006103297f000000000000000000000000000000000000000000000000000000000000000083610d18565b90506001600160a01b03811661035a5760405162461bcd60e51b815260040161035190611d78565b60405180910390fd5b60008c8c600081811061036957fe5b90506020020135905060008d8d600181811061038157fe5b90506020020135905060006040518060800160405280848152602001838152602001336001600160a01b0316815260200186815250905060008d8d80806020026020016040519081016040528093929190818152602001838360200280828437600081840152601f19601f82011690508083019250505050505050905060008c8c80806020026020016040519081016040528093929190818152602001838360200280828437600081840152601f19601f82011690508083019250505050505050905060008b8b80806020026020016040519081016040528093929190818152602001838360200280828437600092018290525093945061048892508c91508d9050611ef9565b9050876001600160a01b031663490e6cbc30898989898989896040516020016104b5959493929190611dfa565b6040516020818303038152906040526040518563ffffffff1660e01b81526004016104e39493929190611d1a565b600060405180830381600087803b1580156104fd57600080fd5b505af1158015610511573d6000803e3d6000fd5b505060016000555050505050505050505050505050505050505050505050565b4715610541576105413347610d2b565b565b60007f00000000000000000000000000000000000000000000000000000000000000006001600160a01b03166370a08231306040518263ffffffff1660e01b815260040180826001600160a01b0316815260200191505060206040518083038186803b1580156105b257600080fd5b505afa1580156105c6573d6000803e3d6000fd5b505050506040513d60208110156105dc57600080fd5b505190508281101561062a576040805162461bcd60e51b8152602060048201526012602482015271496e73756666696369656e7420574554483960701b604482015290519081900360640190fd5b80156106b8577f00000000000000000000000000000000000000000000000000000000000000006001600160a01b0316632e1a7d4d826040518263ffffffff1660e01b815260040180828152602001915050600060405180830381600087803b15801561069657600080fd5b505af11580156106aa573d6000803e3d6000fd5b505050506106b88282610d2b565b505050565b7f000000000000000000000000000000000000000000000000000000000000000081565b6106e9610e1a565b6001600160a01b03166106fa610837565b6001600160a01b031614610755576040805162461bcd60e51b815260206004820181905260248201527f4f776e61626c653a2063616c6c6572206973206e6f7420746865206f776e6572604482015290519081900360640190fd5b6001546040516000916001600160a01b0316907f8be0079c531659141344cd1fd0a4f28419497f9722a3daafe3b4186f6b6457e0908390a3600180546001600160a01b0319169055565b6107a7610e1a565b6001600160a01b03166107b8610837565b6001600160a01b031614610813576040805162461bcd60e51b815260206004820181905260248201527f4f776e61626c653a2063616c6c6572206973206e6f7420746865206f776e6572604482015290519081900360640190fd5b6001805462ffffff909216600160a01b0262ffffff60a01b19909216919091179055565b6001546001600160a01b031690565b7f000000000000000000000000000000000000000000000000000000000000000081565b604051636eb1769f60e11b81526000906001600160a01b0385169063dd62ed3e9061089b9030908790600401611d00565b60206040518083038186803b1580156108b357600080fd5b505afa1580156108c7573d6000803e3d6000fd5b505050506040513d601f19601f820116820180604052508101906108eb9190611b50565b905081811015610902576109028484600019610e1e565b50505050565b6000836001600160a01b03166370a08231306040518263ffffffff1660e01b815260040180826001600160a01b0316815260200191505060206040518083038186803b15801561095757600080fd5b505afa15801561096b573d6000803e3d6000fd5b505050506040513d602081101561098157600080fd5b50519050828110156109cf576040805162461bcd60e51b815260206004820152601260248201527124b739bab33334b1b4b2b73a103a37b5b2b760711b604482015290519081900360640190fd5b801561090257610902848383610f6c565b6000808080806109f2868801886119d8565b94509450945094509450610a2a7f00000000000000000000000000000000000000000000000000000000000000008660600151610d18565b6001600160a01b0316336001600160a01b031614610a5a5760405162461bcd60e51b815260040161035190611dcd565b8451600090610a7157856060015160200151610a78565b6060860151515b9050600080876000015111610a91578660200151610a94565b86515b9050600080886000015111610aa9578a610aab565b8b5b905060005b8551811015610b1957610b11888281518110610ac857fe5b6020026020010151888381518110610adc57fe5b6020026020010151888481518110610af057fe5b6020026020010151888581518110610b0457fe5b60200260200101516110b3565b600101610ab0565b506040516370a0823160e01b81526000906001600160a01b038516906370a0823190610b49903090600401611cec565b60206040518083038186803b158015610b6157600080fd5b505afa158015610b75573d6000803e3d6000fd5b505050506040513d601f19601f82011682018060405250810190610b999190611b50565b90506000610ba784846111e5565b9050808210610bbc57610bbc8530338461123f565b6000610bc883836113cf565b90508015610be057610be086308d604001518461123f565b505050505050505050505050505050565b600154600160a01b900462ffffff1681565b610c0b610e1a565b6001600160a01b0316610c1c610837565b6001600160a01b031614610c77576040805162461bcd60e51b815260206004820181905260248201527f4f776e61626c653a2063616c6c6572206973206e6f7420746865206f776e6572604482015290519081900360640190fd5b6001600160a01b038116610cbc5760405162461bcd60e51b8152600401808060200182810382526026815260200180611f336026913960400191505060405180910390fd5b6001546040516001600160a01b038084169216907f8be0079c531659141344cd1fd0a4f28419497f9722a3daafe3b4186f6b6457e090600090a3600180546001600160a01b0319166001600160a01b0392909216919091179055565b6000610d24838361142c565b9392505050565b604080516000808252602082019092526001600160a01b0384169083906040518082805190602001908083835b60208310610d775780518252601f199092019160209182019101610d58565b6001836020036101000a03801982511681845116808217855250505050505090500191505060006040518083038185875af1925050503d8060008114610dd9576040519150601f19603f3d011682016040523d82523d6000602084013e610dde565b606091505b50509050806106b8576040805162461bcd60e51b815260206004820152600360248201526253544560e81b604482015290519081900360640190fd5b3390565b604080516001600160a01b038481166024830152604480830185905283518084039091018152606490920183526020820180516001600160e01b031663095ea7b360e01b1781529251825160009485949389169392918291908083835b60208310610e9a5780518252601f199092019160209182019101610e7b565b6001836020036101000a0380198251168184511680821785525050505050509050019150506000604051808303816000865af19150503d8060008114610efc576040519150601f19603f3d011682016040523d82523d6000602084013e610f01565b606091505b5091509150818015610f2f575080511580610f2f5750808060200190516020811015610f2c57600080fd5b50515b610f65576040805162461bcd60e51b8152602060048201526002602482015261534160f01b604482015290519081900360640190fd5b5050505050565b604080516001600160a01b038481166024830152604480830185905283518084039091018152606490920183526020820180516001600160e01b031663a9059cbb60e01b1781529251825160009485949389169392918291908083835b60208310610fe85780518252601f199092019160209182019101610fc9565b6001836020036101000a0380198251168184511680821785525050505050509050019150506000604051808303816000865af19150503d806000811461104a576040519150601f19603f3d011682016040523d82523d6000602084013e61104f565b606091505b509150915081801561107d57508051158061107d575080806020019051602081101561107a57600080fd5b50515b610f65576040805162461bcd60e51b815260206004820152600260248201526114d560f21b604482015290519081900360640190fd5b6040516370a0823160e01b81526000906001600160a01b038616906370a08231906110e2903090600401611cec565b60206040518083038186803b1580156110fa57600080fd5b505afa15801561110e573d6000803e3d6000fd5b505050506040513d601f19601f820116820180604052508101906111329190611b50565b9050600081116111545760405162461bcd60e51b815260040161035190611da5565b61115f85858361086a565b6000836001600160a01b0316348460405161117a9190611cd0565b60006040518083038185875af1925050503d80600081146111b7576040519150601f19603f3d011682016040523d82523d6000602084013e6111bc565b606091505b50509050806111dd5760405162461bcd60e51b815260040161035190611d51565b505050505050565b600082820183811015610d24576040805162461bcd60e51b815260206004820152601b60248201527f536166654d6174683a206164646974696f6e206f766572666c6f770000000000604482015290519081900360640190fd5b7f00000000000000000000000000000000000000000000000000000000000000006001600160a01b0316846001600160a01b03161480156112805750804710155b156113a2577f00000000000000000000000000000000000000000000000000000000000000006001600160a01b031663d0e30db0826040518263ffffffff1660e01b81526004016000604051808303818588803b1580156112e057600080fd5b505af11580156112f4573d6000803e3d6000fd5b50505050507f00000000000000000000000000000000000000000000000000000000000000006001600160a01b031663a9059cbb83836040518363ffffffff1660e01b815260040180836001600160a01b0316815260200182815260200192505050602060405180830381600087803b15801561137057600080fd5b505af1158015611384573d6000803e3d6000fd5b505050506040513d602081101561139a57600080fd5b506109029050565b6001600160a01b0383163014156113c3576113be848383610f6c565b610902565b61090284848484611510565b600082821115611426576040805162461bcd60e51b815260206004820152601e60248201527f536166654d6174683a207375627472616374696f6e206f766572666c6f770000604482015290519081900360640190fd5b50900390565b600081602001516001600160a01b031682600001516001600160a01b03161061145457600080fd5b50805160208083015160409384015184516001600160a01b0394851681850152939091168385015262ffffff166060808401919091528351808403820181526080840185528051908301206001600160f81b031960a085015294901b6bffffffffffffffffffffffff191660a183015260b58201939093527fe34f199b19b2b4f47f68442619d555527d244f78a3297ea89325f843f87b8b5460d5808301919091528251808303909101815260f5909101909152805191012090565b604080516001600160a01b0385811660248301528481166044830152606480830185905283518084039091018152608490920183526020820180516001600160e01b03166323b872dd60e01b178152925182516000948594938a169392918291908083835b602083106115945780518252601f199092019160209182019101611575565b6001836020036101000a0380198251168184511680821785525050505050509050019150506000604051808303816000865af19150503d80600081146115f6576040519150601f19603f3d011682016040523d82523d6000602084013e6115fb565b606091505b5091509150818015611629575080511580611629575080806020019051602081101561162657600080fd5b50515b6111dd576040805162461bcd60e51b815260206004820152600360248201526229aa2360e91b604482015290519081900360640190fd5b600061167361166e84611edb565b611eb7565b83815290506020808201908360005b868110156116fc5781358601601f898183011261169e57600080fd5b813567ffffffffffffffff8111156116b257fe5b6116c3818301601f19168701611eb7565b91508082528a868285010111156116d957600080fd5b808684018784013760009082018601528552509282019290820190600101611682565b505050509392505050565b80356001600160a01b038116811461171e57600080fd5b919050565b60008083601f840112611734578182fd5b50813567ffffffffffffffff81111561174b578182fd5b602083019150836020808302850101111561176557600080fd5b9250929050565b600082601f83011261177c578081fd5b8135602061178c61166e83611edb565b82815281810190858301838502870184018810156117a8578586fd5b855b858110156117cd576117bb82611707565b845292840192908401906001016117aa565b5090979650505050505050565b600082601f8301126117ea578081fd5b610d2483833560208501611660565b803562ffffff8116811461171e57600080fd5b60006020828403121561181d578081fd5b610d2482611707565b60008060006060848603121561183a578182fd5b61184384611707565b925061185160208501611707565b9150604084013590509250925092565b600080600060608486031215611875578283fd5b61187e84611707565b92506020840135915061189360408501611707565b90509250925092565b60008060008060008060008060008060008060c08d8f0312156118bd578788fd5b67ffffffffffffffff8d3511156118d2578788fd5b6118df8e8e358f01611723565b909c509a5067ffffffffffffffff60208e013511156118fc578788fd5b61190c8e60208f01358f01611723565b909a50985067ffffffffffffffff60408e01351115611929578788fd5b6119398e60408f01358f01611723565b909850965067ffffffffffffffff60608e01351115611956578586fd5b6119668e60608f01358f01611723565b909650945067ffffffffffffffff60808e01351115611983578384fd5b6119938e60808f01358f01611723565b909450925067ffffffffffffffff60a08e013511156119b0578081fd5b6119c08e60a08f01358f01611723565b81935080925050509295989b509295989b509295989b565b60008060008060008587036101408112156119f1578182fd5b60c08112156119fe578182fd5b604080516080810167ffffffffffffffff8282108183111715611a1d57fe5b8184528a35835260208b01356020840152611a39848c01611707565b838501526060605f1986011215611a4e578586fd5b835194506060850191508482108183111715611a6657fe5b818452611a7560608c01611707565b8552611a8360808c01611707565b6020860152611a9460a08c016117f9565b8486015284606084015282995060c08b0135945080851115611ab4578586fd5b611ac08c868d0161176c565b985060e08b0135945080851115611ad5578586fd5b611ae18c868d0161176c565b97506101008b0135945080851115611af7578586fd5b611b038c868d0161176c565b96506101208b0135945080851115611b19578586fd5b50505050611b29888289016117da565b9150509295509295909350565b600060208284031215611b47578081fd5b610d24826117f9565b600060208284031215611b61578081fd5b5051919050565b60008060408385031215611b7a578182fd5b82359150611b8a60208401611707565b90509250929050565b60008060008060608587031215611ba8578182fd5b8435935060208501359250604085013567ffffffffffffffff80821115611bcd578384fd5b818701915087601f830112611be0578384fd5b813581811115611bee578485fd5b886020828501011115611bff578485fd5b95989497505060200194505050565b6000815180845260208085019450808401835b83811015611c465781516001600160a01b031687529582019590820190600101611c21565b509495945050505050565b6000815180845260208085018081965082840281019150828601855b85811015611c97578284038952611c85848351611ca4565b98850198935090840190600101611c6d565b5091979650505050505050565b60008151808452611cbc816020860160208601611f06565b601f01601f19169290920160200192915050565b60008251611ce2818460208701611f06565b9190910192915050565b6001600160a01b0391909116815260200190565b6001600160a01b0392831681529116602082015260400190565b600060018060a01b038616825284602083015283604083015260806060830152611d476080830184611ca4565b9695505050505050565b6020808252600d908201526c53776170204661696c7572652160981b604082015260600190565b602080825260139082015272496e76616c696420666c61736820706f6f6c2160681b604082015260600190565b6020808252600e908201526d42616c616e61636520697320302160901b604082015260600190565b6020808252601390820152724f6e6c7920506f6f6c2063616e2063616c6c2160681b604082015260600190565b85518152602080870151818301526040808801516001600160a01b03908116828501526060808a0151805183169186019190915292830151166080840152015162ffffff1660a082015261014060c08201819052600090611e5d83820188611c0e565b905082810360e0840152611e718187611c0e565b9050828103610100840152611e868186611c0e565b9050828103610120840152611e9b8185611c51565b98975050505050505050565b62ffffff91909116815260200190565b60405181810167ffffffffffffffff81118282101715611ed357fe5b604052919050565b600067ffffffffffffffff821115611eef57fe5b5060209081020190565b6000610d24368484611660565b60005b83811015611f21578181015183820152602001611f09565b83811115610902575050600091015256fe4f776e61626c653a206e6577206f776e657220697320746865207a65726f2061646472657373a2646970667358221220fd3432b5d489d2c357cee524312c5b154b48ca373cba36ac0ab8e3c9fde96dad64736f6c63430007060033",
  "immutableReferences": {
    "797": [
      {
        "length": 32,
        "start": 772
      },
      {
        "length": 32,
        "start": 2120
      },
      {
        "length": 32,
        "start": 2561
      }
    ],
    "799": [
      {
        "length": 32,
        "start": 1351
      },
      {
        "length": 32,
        "start": 1586
      },
      {
        "length": 32,
        "start": 1727
      },
      {
        "length": 32,
        "start": 4673
      },
      {
        "length": 32,
        "start": 4743
      },
      {
        "length": 32,
        "start": 4859
      }
    ]
  },
  "source": "// SPDX-License-Identifier: MIT;\r\npragma solidity >=0.7.6;\r\npragma abicoder v2;\r\n\r\nimport { IUniswapV3FlashCallback } from \"../interfaces/IUniswapV3FlashCallback.sol\";\r\nimport { IUniswapV3Pool } from \"../interfaces/IUniswapV3Pool.sol\";\r\nimport { PeripheryPayments, IERC20, TransferHelper } from \"../utils/PeripheryPayments.sol\";\r\nimport { PeripheryImmutableState } from \"../utils/PeripheryImmutableState.sol\";\r\nimport { PoolAddress } from \"../utils/PoolAddress.sol\";\r\nimport { SafeMath } from \"../utils/SafeMath.sol\";\r\nimport { Ownable } from \"@openzeppelin/contracts/access/Ownable.sol\";\r\nimport { ReentrancyGuard } from \"@openzeppelin/contracts/utils/ReentrancyGuard.sol\";\r\n\r\n/// @title Flashloan contract implementation\r\n/// @notice contract using the Uniswap V3 flash function\r\ncontract UniswapFlash is \r\n    IUniswapV3FlashCallback,\r\n    PeripheryImmutableState,\r\n    PeripheryPayments,\r\n    ReentrancyGuard,\r\n    Ownable {\r\n    using SafeMath for uint256;\r\n    struct FlashCallbackData {\r\n        uint256 amount0;\r\n        uint256 amount1;\r\n        address payer;\r\n        PoolAddress.PoolKey poolKey;\r\n    }\r\n    uint24 public flashPoolFee = 500;  //  flash from the 0.05% fee of pool\r\n    constructor(\r\n        address _factory,\r\n        address _WETH9\r\n    ) PeripheryImmutableState(_factory, _WETH9) {}\r\n    function initUniFlashSwap(\r\n        address[] calldata _loanAssets,\r\n        uint256[] calldata _loanAmounts,\r\n        address[] calldata _tokenPath,\r\n        address[] calldata _spenders,\r\n        address[] calldata _routers,\r\n        bytes[] calldata _tradeDatas\r\n    ) external payable nonReentrant {\r\n        \r\n        PoolAddress.PoolKey memory poolKey = PoolAddress.PoolKey(\r\n            {\r\n                token0: _loanAssets[0],\r\n                token1: _loanAssets[1],\r\n                fee: flashPoolFee\r\n            }\r\n        );\r\n        address flashPool = getFlashPool(factory, poolKey);\r\n        require(flashPool != address(0), \"Invalid flash pool!\");\r\n        uint256 amount0 = _loanAmounts[0];\r\n        uint256 amount1 = _loanAmounts[1];\r\n        FlashCallbackData memory callbackData = FlashCallbackData({\r\n            amount0: amount0,\r\n            amount1: amount1,\r\n            payer: msg.sender,\r\n            poolKey: poolKey\r\n        });\r\n        address[] memory tokenPath = _tokenPath;\r\n        address[] memory spenders = _spenders;\r\n        address[] memory routers = _routers;\r\n        bytes[] memory tradeDatas = _tradeDatas;\r\n        IUniswapV3Pool(flashPool).flash(\r\n            address(this),\r\n            amount0,\r\n            amount1,\r\n            abi.encode(\r\n                callbackData, \r\n                tokenPath,\r\n                spenders,\r\n                routers,\r\n                tradeDatas\r\n            )\r\n        );   \r\n    }\r\n\r\n    function uniswapV3FlashCallback(\r\n        uint256 fee0,\r\n        uint256 fee1,\r\n        bytes calldata data\r\n    ) external override {\r\n        (\r\n            FlashCallbackData memory callback,\r\n            address[] memory tokenPath,\r\n            address[] memory spenders,\r\n            address[] memory routers,\r\n            bytes[] memory tradeDatas\r\n        ) = abi.decode(data, (FlashCallbackData, address[], address[], address[], bytes[]));\r\n        require(msg.sender == getFlashPool(factory, callback.poolKey), \"Only Pool can call!\");\r\n        \r\n        address loanToken = callback.amount0 > 0 ? callback.poolKey.token0: callback.poolKey.token1;\r\n        uint256 loanAmount = callback.amount0 > 0 ? callback.amount0: callback.amount1;\r\n        uint256 fee = callback.amount0 > 0 ? fee0 : fee1;\r\n        // start trade\r\n        for (uint256 i = 0; i < routers.length; i++) {\r\n\r\n           swapExecute(tokenPath[i], spenders[i], payable(routers[i]), tradeDatas[i]);\r\n        }\r\n        uint256 amountOut = IERC20(loanToken).balanceOf(address(this));\r\n        uint256 amountOwed = loanAmount.add(fee);\r\n        \r\n        if (amountOut >= amountOwed) {\r\n            pay(loanToken, address(this), msg.sender, amountOwed);\r\n        }\r\n        uint256 profit = amountOut.sub(amountOwed);\r\n        if (profit > 0) {\r\n            pay(loanToken, address(this), callback.payer, profit);\r\n        }\r\n    }\r\n    function swapExecute(\r\n        address token, \r\n        address spender, \r\n        address payable router, \r\n        bytes memory tradeData\r\n    ) internal {\r\n        uint256 amount = IERC20(token).balanceOf(address(this));\r\n        require(amount > 0, \"Balanace is 0!\");\r\n        approveToken(token, spender, amount);\r\n        // solhint-disable-next-line avoid-low-level-calls\r\n        (bool success, ) = router.call{value: msg.value}(tradeData);\r\n        require(success, \"Swap Failure!\");\r\n    }\r\n    function getFlashPool(\r\n        address _factory, \r\n        PoolAddress.PoolKey memory _poolKey\r\n    ) internal pure returns (address) {\r\n        return PoolAddress.computeAddress(_factory, _poolKey);\r\n    }\r\n    function approveToken(address token, address spender, uint256 amount) public {\r\n        uint256 allowance = IERC20(token).allowance(address(this), spender);\r\n        if (allowance < amount) {\r\n            TransferHelper.safeApprove(token, spender, uint256(-1));\r\n        }\r\n    }\r\n    function changeFlashPoolFee(uint24 poolFee) public onlyOwner() {\r\n        flashPoolFee = poolFee;\r\n    }\r\n    fallback() external payable {}\r\n    receive() external payable {}\r\n}\r\n",
  "sourcePath": "D:\\MyWorks\\MySolidities\\SilvanShwarz\\FlashLoans\\uni-flashswap-truffle\\contracts\\flashloans\\UniswapFlash.sol",
  "compiler": {
    "name": "solc",
    "version": "0.7.6+commit.7338295f.Emscripten.clang"
  },
  "schemaVersion": "3.4.7",
  "updatedAt": "2022-07-13T09:51:24.504Z",
  "networkType": "ethereum",
  "devdoc": {
    "kind": "dev",
    "methods": {
      "owner()": {
        "details": "Returns the address of the current owner."
      },
      "renounceOwnership()": {
        "details": "Leaves the contract without owner. It will not be possible to call `onlyOwner` functions anymore. Can only be called by the current owner. NOTE: Renouncing ownership will leave the contract without an owner, thereby removing any functionality that is only available to the owner."
      },
      "transferOwnership(address)": {
        "details": "Transfers ownership of the contract to a new account (`newOwner`). Can only be called by the current owner."
      },
      "uniswapV3FlashCallback(uint256,uint256,bytes)": {
        "details": "In the implementation you must repay the pool the tokens sent by flash plus the computed fee amounts. The caller of this method must be checked to be a UniswapV3Pool deployed by the canonical UniswapV3Factory.",
        "params": {
          "data": "Any data passed through by the caller via the IUniswapV3PoolActions#flash call",
          "fee0": "The fee amount in token0 due to the pool by the end of the flash",
          "fee1": "The fee amount in token1 due to the pool by the end of the flash"
        }
      }
    },
    "title": "Flashloan contract implementation",
    "version": 1
  },
  "userdoc": {
    "kind": "user",
    "methods": {
      "uniswapV3FlashCallback(uint256,uint256,bytes)": {
        "notice": "Called to `msg.sender` after transferring to the recipient from IUniswapV3Pool#flash."
      }
    },
    "notice": "contract using the Uniswap V3 flash function",
    "version": 1
  }
}