{
  "contractName": "UniswapFlash1Inch",
  "abi": [
    {
      "inputs": [
        {
          "internalType": "address",
          "name": "_factory",
          "type": "address"
        },
        {
          "internalType": "address",
          "name": "_WETH9",
          "type": "address"
        }
      ],
      "stateMutability": "nonpayable",
      "type": "constructor"
    },
    {
      "anonymous": false,
      "inputs": [
        {
          "indexed": true,
          "internalType": "address",
          "name": "previousOwner",
          "type": "address"
        },
        {
          "indexed": true,
          "internalType": "address",
          "name": "newOwner",
          "type": "address"
        }
      ],
      "name": "OwnershipTransferred",
      "type": "event"
    },
    {
      "stateMutability": "payable",
      "type": "fallback",
      "payable": true
    },
    {
      "inputs": [],
      "name": "WETH9",
      "outputs": [
        {
          "internalType": "address",
          "name": "",
          "type": "address"
        }
      ],
      "stateMutability": "view",
      "type": "function",
      "constant": true
    },
    {
      "inputs": [],
      "name": "factory",
      "outputs": [
        {
          "internalType": "address",
          "name": "",
          "type": "address"
        }
      ],
      "stateMutability": "view",
      "type": "function",
      "constant": true
    },
    {
      "inputs": [],
      "name": "flashPoolFee",
      "outputs": [
        {
          "internalType": "uint24",
          "name": "",
          "type": "uint24"
        }
      ],
      "stateMutability": "view",
      "type": "function",
      "constant": true
    },
    {
      "inputs": [],
      "name": "owner",
      "outputs": [
        {
          "internalType": "address",
          "name": "",
          "type": "address"
        }
      ],
      "stateMutability": "view",
      "type": "function",
      "constant": true
    },
    {
      "inputs": [],
      "name": "refundETH",
      "outputs": [],
      "stateMutability": "payable",
      "type": "function",
      "payable": true
    },
    {
      "inputs": [],
      "name": "renounceOwnership",
      "outputs": [],
      "stateMutability": "nonpayable",
      "type": "function"
    },
    {
      "inputs": [
        {
          "internalType": "address",
          "name": "token",
          "type": "address"
        },
        {
          "internalType": "uint256",
          "name": "amountMinimum",
          "type": "uint256"
        },
        {
          "internalType": "address",
          "name": "recipient",
          "type": "address"
        }
      ],
      "name": "sweepToken",
      "outputs": [],
      "stateMutability": "payable",
      "type": "function",
      "payable": true
    },
    {
      "inputs": [
        {
          "internalType": "address",
          "name": "newOwner",
          "type": "address"
        }
      ],
      "name": "transferOwnership",
      "outputs": [],
      "stateMutability": "nonpayable",
      "type": "function"
    },
    {
      "inputs": [
        {
          "internalType": "uint256",
          "name": "amountMinimum",
          "type": "uint256"
        },
        {
          "internalType": "address",
          "name": "recipient",
          "type": "address"
        }
      ],
      "name": "unwrapWETH9",
      "outputs": [],
      "stateMutability": "payable",
      "type": "function",
      "payable": true
    },
    {
      "stateMutability": "payable",
      "type": "receive",
      "payable": true
    },
    {
      "inputs": [
        {
          "internalType": "address[]",
          "name": "loanAssets",
          "type": "address[]"
        },
        {
          "internalType": "uint256[]",
          "name": "loanAmounts",
          "type": "uint256[]"
        },
        {
          "internalType": "address[]",
          "name": "tokenPath",
          "type": "address[]"
        },
        {
          "internalType": "address[]",
          "name": "routers",
          "type": "address[]"
        },
        {
          "internalType": "bytes[]",
          "name": "tradeDatas",
          "type": "bytes[]"
        }
      ],
      "name": "initUniFlashSwap",
      "outputs": [],
      "stateMutability": "nonpayable",
      "type": "function"
    },
    {
      "inputs": [
        {
          "internalType": "uint256",
          "name": "fee0",
          "type": "uint256"
        },
        {
          "internalType": "uint256",
          "name": "fee1",
          "type": "uint256"
        },
        {
          "internalType": "bytes",
          "name": "data",
          "type": "bytes"
        }
      ],
      "name": "uniswapV3FlashCallback",
      "outputs": [],
      "stateMutability": "nonpayable",
      "type": "function"
    },
    {
      "inputs": [
        {
          "internalType": "address",
          "name": "token",
          "type": "address"
        },
        {
          "internalType": "address",
          "name": "router",
          "type": "address"
        },
        {
          "internalType": "uint256",
          "name": "amount",
          "type": "uint256"
        }
      ],
      "name": "approveToken",
      "outputs": [],
      "stateMutability": "nonpayable",
      "type": "function"
    },
    {
      "inputs": [
        {
          "internalType": "uint24",
          "name": "poolFee",
          "type": "uint24"
        }
      ],
      "name": "changeFlashPoolFee",
      "outputs": [],
      "stateMutability": "nonpayable",
      "type": "function"
    }
  ],
  "bytecode": "0x60c06040526001805462ffffff60a01b1916607d60a21b1790553480156200002657600080fd5b506040516200201f3803806200201f8339810160408190526200004991620000eb565b6001600160601b0319606083811b821660805282901b1660a0526001600090815562000074620000ca565b600180546001600160a01b0319166001600160a01b038316908117909155604051919250906000907f8be0079c531659141344cd1fd0a4f28419497f9722a3daafe3b4186f6b6457e0908290a350505062000122565b3390565b80516001600160a01b0381168114620000e657600080fd5b919050565b60008060408385031215620000fe578182fd5b6200010983620000ce565b91506200011960208401620000ce565b90509250929050565b60805160601c60a05160601c611eac620001736000398060d652806104de52806105c9528061065652806111b852806111fe52806112725250806103b752806107df52806109955250611eac6000f3fe6080604052600436106100c65760003560e01c80638da5cb5b1161007f578063df2ab5bb11610059578063df2ab5bb1461021b578063e9cbafb01461022e578063ea3b44311461024e578063f2fde38b1461027057610134565b80638da5cb5b146101d1578063c45a0155146101e6578063da3e3397146101fb57610134565b806312210e8a14610136578063139c7f8f1461013e57806349404b7c1461015e5780634aa4a4fc14610171578063715018a61461019c5780637655820e146101b157610134565b3661013457336001600160a01b037f00000000000000000000000000000000000000000000000000000000000000001614610134576040805162461bcd60e51b81526020600482015260096024820152684e6f7420574554483960b81b604482015290519081900360640190fd5b005b610134610290565b34801561014a57600080fd5b5061013461015936600461180f565b6102a2565b61013461016c366004611a65565b6104da565b34801561017d57600080fd5b50610186610654565b6040516101939190611c08565b60405180910390f35b3480156101a857600080fd5b50610134610678565b3480156101bd57600080fd5b506101346101cc366004611a33565b610736565b3480156101dd57600080fd5b506101866107ce565b3480156101f257600080fd5b506101866107dd565b34801561020757600080fd5b50610134610216366004611799565b610801565b6101346102293660046117d4565b61089f565b34801561023a57600080fd5b50610134610249366004611a90565b610977565b34801561025a57600080fd5b50610263610b70565b6040516101939190611dd2565b34801561027c57600080fd5b5061013461028b36600461177f565b610b82565b47156102a0576102a03347610c97565b565b600260005414156102fa576040805162461bcd60e51b815260206004820152601f60248201527f5265656e7472616e637947756172643a207265656e7472616e742063616c6c00604482015290519081900360640190fd5b6002600081905550600060405180606001604052808c8c600081811061031c57fe5b9050602002016020810190610331919061177f565b6001600160a01b031681526020018c8c600181811061034c57fe5b9050602002016020810190610361919061177f565b6001600160a01b03168152600154600160a01b900462ffffff16602090910152905060008989828161038f57fe5b90506020020135905060008a8a60018181106103a757fe5b90506020020135905060006103dc7f000000000000000000000000000000000000000000000000000000000000000085610d86565b90506001600160a01b03811661040d5760405162461bcd60e51b815260040161040490611c86565b60405180910390fd5b806001600160a01b031663490e6cbc3085856040518060800160405280898152602001888152602001336001600160a01b031681526020018a8152508f8f8f8f8f8f6040516020016104659796959493929190611d35565b6040516020818303038152906040526040518563ffffffff1660e01b81526004016104939493929190611c36565b600060405180830381600087803b1580156104ad57600080fd5b505af11580156104c1573d6000803e3d6000fd5b5050600160005550505050505050505050505050505050565b60007f00000000000000000000000000000000000000000000000000000000000000006001600160a01b03166370a08231306040518263ffffffff1660e01b815260040180826001600160a01b0316815260200191505060206040518083038186803b15801561054957600080fd5b505afa15801561055d573d6000803e3d6000fd5b505050506040513d602081101561057357600080fd5b50519050828110156105c1576040805162461bcd60e51b8152602060048201526012602482015271496e73756666696369656e7420574554483960701b604482015290519081900360640190fd5b801561064f577f00000000000000000000000000000000000000000000000000000000000000006001600160a01b0316632e1a7d4d826040518263ffffffff1660e01b815260040180828152602001915050600060405180830381600087803b15801561062d57600080fd5b505af1158015610641573d6000803e3d6000fd5b5050505061064f8282610c97565b505050565b7f000000000000000000000000000000000000000000000000000000000000000081565b610680610d99565b6001600160a01b03166106916107ce565b6001600160a01b0316146106ec576040805162461bcd60e51b815260206004820181905260248201527f4f776e61626c653a2063616c6c6572206973206e6f7420746865206f776e6572604482015290519081900360640190fd5b6001546040516000916001600160a01b0316907f8be0079c531659141344cd1fd0a4f28419497f9722a3daafe3b4186f6b6457e0908390a3600180546001600160a01b0319169055565b61073e610d99565b6001600160a01b031661074f6107ce565b6001600160a01b0316146107aa576040805162461bcd60e51b815260206004820181905260248201527f4f776e61626c653a2063616c6c6572206973206e6f7420746865206f776e6572604482015290519081900360640190fd5b6001805462ffffff909216600160a01b0262ffffff60a01b19909216919091179055565b6001546001600160a01b031690565b7f000000000000000000000000000000000000000000000000000000000000000081565b604051636eb1769f60e11b81526000906001600160a01b0385169063dd62ed3e906108329030908790600401611c1c565b60206040518083038186803b15801561084a57600080fd5b505afa15801561085e573d6000803e3d6000fd5b505050506040513d601f19601f820116820180604052508101906108829190611a4d565b905081811015610899576108998484600019610d9d565b50505050565b6000836001600160a01b03166370a08231306040518263ffffffff1660e01b815260040180826001600160a01b0316815260200191505060206040518083038186803b1580156108ee57600080fd5b505afa158015610902573d6000803e3d6000fd5b505050506040513d602081101561091857600080fd5b5051905082811015610966576040805162461bcd60e51b815260206004820152601260248201527124b739bab33334b1b4b2b73a103a37b5b2b760711b604482015290519081900360640190fd5b801561089957610899848383610eeb565b6000808080610988858701876118fa565b93509350935093506109be7f00000000000000000000000000000000000000000000000000000000000000008560600151610d86565b6001600160a01b0316336001600160a01b0316146109ee5760405162461bcd60e51b815260040161040490611cdb565b8351600090610a0557846060015160200151610a0c565b6060850151515b9050600080866000015111610a25578560200151610a28565b85515b9050600080876000015111610a3d5789610a3f565b8a5b905060005b8551811015610a9957610a91878281518110610a5c57fe5b6020026020010151878381518110610a7057fe5b6020026020010151878481518110610a8457fe5b6020026020010151611032565b600101610a44565b506040516370a0823160e01b81526000906001600160a01b038516906370a0823190610ac9903090600401611c08565b60206040518083038186803b158015610ae157600080fd5b505afa158015610af5573d6000803e3d6000fd5b505050506040513d601f19601f82011682018060405250810190610b199190611a4d565b90506000610b27848461115c565b9050808210610b3c57610b3c853033846111b6565b6000610b488383611346565b90508015610b6057610b6086308c60400151846111b6565b5050505050505050505050505050565b600154600160a01b900462ffffff1681565b610b8a610d99565b6001600160a01b0316610b9b6107ce565b6001600160a01b031614610bf6576040805162461bcd60e51b815260206004820181905260248201527f4f776e61626c653a2063616c6c6572206973206e6f7420746865206f776e6572604482015290519081900360640190fd5b6001600160a01b038116610c3b5760405162461bcd60e51b8152600401808060200182810382526026815260200180611e516026913960400191505060405180910390fd5b6001546040516001600160a01b038084169216907f8be0079c531659141344cd1fd0a4f28419497f9722a3daafe3b4186f6b6457e090600090a3600180546001600160a01b0319166001600160a01b0392909216919091179055565b604080516000808252602082019092526001600160a01b0384169083906040518082805190602001908083835b60208310610ce35780518252601f199092019160209182019101610cc4565b6001836020036101000a03801982511681845116808217855250505050505090500191505060006040518083038185875af1925050503d8060008114610d45576040519150601f19603f3d011682016040523d82523d6000602084013e610d4a565b606091505b505090508061064f576040805162461bcd60e51b815260206004820152600360248201526253544560e81b604482015290519081900360640190fd5b6000610d9283836113a3565b9392505050565b3390565b604080516001600160a01b038481166024830152604480830185905283518084039091018152606490920183526020820180516001600160e01b031663095ea7b360e01b1781529251825160009485949389169392918291908083835b60208310610e195780518252601f199092019160209182019101610dfa565b6001836020036101000a0380198251168184511680821785525050505050509050019150506000604051808303816000865af19150503d8060008114610e7b576040519150601f19603f3d011682016040523d82523d6000602084013e610e80565b606091505b5091509150818015610eae575080511580610eae5750808060200190516020811015610eab57600080fd5b50515b610ee4576040805162461bcd60e51b8152602060048201526002602482015261534160f01b604482015290519081900360640190fd5b5050505050565b604080516001600160a01b038481166024830152604480830185905283518084039091018152606490920183526020820180516001600160e01b031663a9059cbb60e01b1781529251825160009485949389169392918291908083835b60208310610f675780518252601f199092019160209182019101610f48565b6001836020036101000a0380198251168184511680821785525050505050509050019150506000604051808303816000865af19150503d8060008114610fc9576040519150601f19603f3d011682016040523d82523d6000602084013e610fce565b606091505b5091509150818015610ffc575080511580610ffc5750808060200190516020811015610ff957600080fd5b50515b610ee4576040805162461bcd60e51b815260206004820152600260248201526114d560f21b604482015290519081900360640190fd5b6040516370a0823160e01b81526000906001600160a01b038516906370a0823190611061903090600401611c08565b60206040518083038186803b15801561107957600080fd5b505afa15801561108d573d6000803e3d6000fd5b505050506040513d601f19601f820116820180604052508101906110b19190611a4d565b9050600081116110d35760405162461bcd60e51b815260040161040490611cb3565b6110de848483610801565b6000836001600160a01b031634846040516110f99190611bec565b60006040518083038185875af1925050503d8060008114611136576040519150601f19603f3d011682016040523d82523d6000602084013e61113b565b606091505b5050905080610ee45760405162461bcd60e51b815260040161040490611d08565b600082820183811015610d92576040805162461bcd60e51b815260206004820152601b60248201527f536166654d6174683a206164646974696f6e206f766572666c6f770000000000604482015290519081900360640190fd5b7f00000000000000000000000000000000000000000000000000000000000000006001600160a01b0316846001600160a01b03161480156111f75750804710155b15611319577f00000000000000000000000000000000000000000000000000000000000000006001600160a01b031663d0e30db0826040518263ffffffff1660e01b81526004016000604051808303818588803b15801561125757600080fd5b505af115801561126b573d6000803e3d6000fd5b50505050507f00000000000000000000000000000000000000000000000000000000000000006001600160a01b031663a9059cbb83836040518363ffffffff1660e01b815260040180836001600160a01b0316815260200182815260200192505050602060405180830381600087803b1580156112e757600080fd5b505af11580156112fb573d6000803e3d6000fd5b505050506040513d602081101561131157600080fd5b506108999050565b6001600160a01b03831630141561133a57611335848383610eeb565b610899565b61089984848484611487565b60008282111561139d576040805162461bcd60e51b815260206004820152601e60248201527f536166654d6174683a207375627472616374696f6e206f766572666c6f770000604482015290519081900360640190fd5b50900390565b600081602001516001600160a01b031682600001516001600160a01b0316106113cb57600080fd5b50805160208083015160409384015184516001600160a01b0394851681850152939091168385015262ffffff166060808401919091528351808403820181526080840185528051908301206001600160f81b031960a085015294901b6bffffffffffffffffffffffff191660a183015260b58201939093527fe34f199b19b2b4f47f68442619d555527d244f78a3297ea89325f843f87b8b5460d5808301919091528251808303909101815260f5909101909152805191012090565b604080516001600160a01b0385811660248301528481166044830152606480830185905283518084039091018152608490920183526020820180516001600160e01b03166323b872dd60e01b178152925182516000948594938a169392918291908083835b6020831061150b5780518252601f1990920191602091820191016114ec565b6001836020036101000a0380198251168184511680821785525050505050509050019150506000604051808303816000865af19150503d806000811461156d576040519150601f19603f3d011682016040523d82523d6000602084013e611572565b606091505b50915091508180156115a05750805115806115a0575080806020019051602081101561159d57600080fd5b50515b6115d7576040805162461bcd60e51b815260206004820152600360248201526229aa2360e91b604482015290519081900360640190fd5b505050505050565b80356001600160a01b03811681146115f657600080fd5b919050565b60008083601f84011261160c578182fd5b50813567ffffffffffffffff811115611623578182fd5b602083019150836020808302850101111561163d57600080fd5b9250929050565b600082601f830112611654578081fd5b8135602061166961166483611e06565b611de2565b8281528181019085830183850287018401881015611685578586fd5b855b858110156116aa57611698826115df565b84529284019290840190600101611687565b5090979650505050505050565b6000601f83818401126116c8578182fd5b823560206116d861166483611e06565b82815281810190868301865b8581101561175e57813589018a603f8201126116fe578889fd5b85810135604067ffffffffffffffff82111561171657fe5b611727828b01601f19168901611de2565b8281528d8284860101111561173a578b8cfd5b828285018a83013791820188018b90525085525092840192908401906001016116e4565b509098975050505050505050565b803562ffffff811681146115f657600080fd5b600060208284031215611790578081fd5b610d92826115df565b6000806000606084860312156117ad578182fd5b6117b6846115df565b92506117c4602085016115df565b9150604084013590509250925092565b6000806000606084860312156117e8578283fd5b6117f1846115df565b925060208401359150611806604085016115df565b90509250925092565b60008060008060008060008060008060a08b8d03121561182d578586fd5b8a3567ffffffffffffffff80821115611844578788fd5b6118508e838f016115fb565b909c509a5060208d0135915080821115611868578788fd5b6118748e838f016115fb565b909a50985060408d013591508082111561188c578788fd5b6118988e838f016115fb565b909850965060608d01359150808211156118b0578586fd5b6118bc8e838f016115fb565b909650945060808d01359150808211156118d4578384fd5b506118e18d828e016115fb565b915080935050809150509295989b9194979a5092959850565b600080600080848603610120811215611911578485fd5b60c081121561191e578485fd5b604080516080810167ffffffffffffffff828210818311171561193d57fe5b8184528935835260208a01356020840152611959848b016115df565b838501526060605f198601121561196e578889fd5b83519450606085019150848210818311171561198657fe5b81845261199560608b016115df565b85526119a360808b016115df565b60208601526119b460a08b0161176c565b8486015284606084015282985060c08a01359450808511156119d4578788fd5b6119e08b868c01611644565b975060e08a01359450808511156119f5578687fd5b611a018b868c01611644565b96506101008a0135945080851115611a17578586fd5b50505050611a27878288016116b7565b91505092959194509250565b600060208284031215611a44578081fd5b610d928261176c565b600060208284031215611a5e578081fd5b5051919050565b60008060408385031215611a77578182fd5b82359150611a87602084016115df565b90509250929050565b60008060008060608587031215611aa5578182fd5b8435935060208501359250604085013567ffffffffffffffff80821115611aca578384fd5b818701915087601f830112611add578384fd5b813581811115611aeb578485fd5b886020828501011115611afc578485fd5b95989497505060200194505050565b60008284526020808501945082825b85811015611b46576001600160a01b03611b33836115df565b1687529582019590820190600101611b1a565b509495945050505050565b818352602080840193600091908185020181018584845b87811015611bdf5782840389528135601e19883603018112611b88578687fd5b8701803567ffffffffffffffff811115611ba0578788fd5b803603891315611bae578788fd5b8086528087830188880137858101870188905299860199601f01601f19169094018501935090840190600101611b68565b5091979650505050505050565b60008251611bfe818460208701611e24565b9190910192915050565b6001600160a01b0391909116815260200190565b6001600160a01b0392831681529116602082015260400190565b600060018060a01b0386168252846020830152836040830152608060608301528251806080840152611c6f8160a0850160208701611e24565b601f01601f19169190910160a00195945050505050565b602080825260139082015272496e76616c696420666c61736820706f6f6c2160681b604082015260600190565b6020808252600e908201526d42616c616e61636520697320302160901b604082015260600190565b6020808252601390820152724f6e6c7920506f6f6c2063616e2063616c6c2160681b604082015260600190565b60208082526013908201527231496e63682053776170204661696c7572652160681b604082015260600190565b87518152602080890151818301526040808a01516001600160a01b03908116828501526060808c0151805183169186019190915292830151166080840152015162ffffff1660a082015261012060c08201819052600090611d99838201898b611b0b565b905082810360e0840152611dae818789611b0b565b9050828103610100840152611dc4818587611b51565b9a9950505050505050505050565b62ffffff91909116815260200190565b60405181810167ffffffffffffffff81118282101715611dfe57fe5b604052919050565b600067ffffffffffffffff821115611e1a57fe5b5060209081020190565b60005b83811015611e3f578181015183820152602001611e27565b83811115610899575050600091015256fe4f776e61626c653a206e6577206f776e657220697320746865207a65726f2061646472657373a2646970667358221220b207da8ee0a715c516ff5be675b87d0b05961b3fe332822bc3e5dcdee2e3bb2a64736f6c63430007060033",
  "immutableReferences": {
    "743": [
      {
        "length": 32,
        "start": 951
      },
      {
        "length": 32,
        "start": 2015
      },
      {
        "length": 32,
        "start": 2453
      }
    ],
    "745": [
      {
        "length": 32,
        "start": 214
      },
      {
        "length": 32,
        "start": 1246
      },
      {
        "length": 32,
        "start": 1481
      },
      {
        "length": 32,
        "start": 1622
      },
      {
        "length": 32,
        "start": 4536
      },
      {
        "length": 32,
        "start": 4606
      },
      {
        "length": 32,
        "start": 4722
      }
    ]
  },
  "source": "// SPDX-License-Identifier: MIT;\r\npragma solidity >=0.7.6;\r\npragma abicoder v2;\r\n\r\nimport { IUniswapV3FlashCallback } from \"../interfaces/IUniswapV3FlashCallback.sol\";\r\nimport { IUniswapV3Pool } from \"../interfaces/IUniswapV3Pool.sol\";\r\nimport { PeripheryPayments, IERC20, TransferHelper } from \"../utils/PeripheryPayments.sol\";\r\nimport { PeripheryImmutableState } from \"../utils/PeripheryImmutableState.sol\";\r\nimport { PoolAddress } from \"../utils/PoolAddress.sol\";\r\nimport { SafeMath } from \"../utils/SafeMath.sol\";\r\nimport { Ownable } from \"@openzeppelin/contracts/access/Ownable.sol\";\r\nimport { ReentrancyGuard } from \"@openzeppelin/contracts/utils/ReentrancyGuard.sol\";\r\n\r\n/// @title Flashloan contract implementation\r\n/// @notice contract using the Uniswap V3 flash function\r\ncontract UniswapFlash1Inch is \r\n    IUniswapV3FlashCallback,\r\n    PeripheryImmutableState,\r\n    PeripheryPayments,\r\n    ReentrancyGuard,\r\n    Ownable {\r\n    using SafeMath for uint256;\r\n    struct FlashCallbackData {\r\n        uint256 amount0;\r\n        uint256 amount1;\r\n        address payer;\r\n        PoolAddress.PoolKey poolKey;\r\n    }\r\n    uint24 public flashPoolFee = 500;  //  flash from the 0.05% fee of pool\r\n    constructor(\r\n        address _factory,\r\n        address _WETH9\r\n    ) PeripheryImmutableState(_factory, _WETH9) {}\r\n    function initUniFlashSwap(\r\n        address[] calldata loanAssets,\r\n        uint256[] calldata loanAmounts,\r\n        address[] calldata tokenPath,\r\n        address[] calldata routers,\r\n        bytes[] calldata tradeDatas\r\n    ) external nonReentrant {\r\n        PoolAddress.PoolKey memory poolKey = PoolAddress.PoolKey(\r\n            {\r\n                token0: loanAssets[0],\r\n                token1: loanAssets[1],\r\n                fee: flashPoolFee\r\n            }\r\n        );\r\n        uint amount0 = loanAmounts[0];\r\n        uint amount1 = loanAmounts[1];\r\n        address flashPool = getFlashPool(factory, poolKey);\r\n        require(flashPool != address(0), \"Invalid flash pool!\");\r\n\r\n        IUniswapV3Pool(flashPool).flash(\r\n            address(this),\r\n            amount0,\r\n            amount1,\r\n            abi.encode(\r\n                FlashCallbackData({\r\n                    amount0: amount0,\r\n                    amount1: amount1,\r\n                    payer: msg.sender,\r\n                    poolKey: poolKey\r\n                }),\r\n                tokenPath,\r\n                routers,\r\n                tradeDatas\r\n            )\r\n        );\r\n    }\r\n\r\n    function uniswapV3FlashCallback(\r\n        uint256 fee0,\r\n        uint256 fee1,\r\n        bytes calldata data\r\n    ) external override {\r\n        (\r\n            FlashCallbackData memory callback,\r\n            address[] memory tokenPath,\r\n            address[] memory routers,\r\n            bytes[] memory tradeDatas\r\n        ) = abi.decode(data, (FlashCallbackData, address[], address[], bytes[]));\r\n        require(msg.sender == getFlashPool(factory, callback.poolKey), \"Only Pool can call!\");\r\n        \r\n        address loanToken = callback.amount0 > 0 ? callback.poolKey.token0: callback.poolKey.token1;\r\n        uint256 loanAmount = callback.amount0 > 0 ? callback.amount0: callback.amount1;\r\n        uint256 fee = callback.amount0 > 0 ? fee0 : fee1;\r\n        // start trade\r\n        for (uint256 i = 0; i < routers.length; i++) {\r\n           swapExecute(tokenPath[i], routers[i], tradeDatas[i]);\r\n        }\r\n        uint256 amountOut = IERC20(loanToken).balanceOf(address(this));\r\n        uint256 amountOwed = loanAmount.add(fee);\r\n        \r\n        if (amountOut >= amountOwed) {\r\n            pay(loanToken, address(this), msg.sender, amountOwed);\r\n        }\r\n        uint256 profit = amountOut.sub(amountOwed);\r\n        if (profit > 0) {\r\n            pay(loanToken, address(this), callback.payer, profit);\r\n        }\r\n    }\r\n    function swapExecute(address token, address router, bytes memory tradeData) internal {\r\n        uint256 amount = IERC20(token).balanceOf(address(this));\r\n        require(amount > 0, \"Balanace is 0!\");\r\n        approveToken(token, router, amount);\r\n        // solhint-disable-next-line avoid-low-level-calls\r\n        (bool success, ) = router.call{value: msg.value}(tradeData);\r\n        require(success, \"1Inch Swap Failure!\");\r\n    }\r\n    function getFlashPool(\r\n        address factory, \r\n        PoolAddress.PoolKey memory poolKey\r\n    ) internal pure returns (address) {\r\n        return PoolAddress.computeAddress(factory, poolKey);\r\n    }\r\n    function approveToken(address token, address router, uint256 amount) public {\r\n        uint256 allowance = IERC20(token).allowance(address(this), router);\r\n        if (allowance < amount) {\r\n            TransferHelper.safeApprove(token, router, uint256(-1));\r\n        }\r\n    }\r\n    function changeFlashPoolFee(uint24 poolFee) public onlyOwner() {\r\n        flashPoolFee = poolFee;\r\n    }\r\n    fallback() external payable {}\r\n//     receive() external payable {\r\n//         // solhint-disable-next-line avoid-tx-origin\r\n//         require(msg.sender != tx.origin, \"ETH deposit rejected\");\r\n//     }\r\n}\r\n",
  "sourcePath": "D:\\MyWorks\\MySolidities\\SilvanShwarz\\FlashLoans\\uni-flashswap-truffle\\contracts\\flashloans\\UniswapFlash1Inch.sol",
  "compiler": {
    "name": "solc",
    "version": "0.7.6+commit.7338295f.Emscripten.clang"
  },
  "schemaVersion": "3.4.7",
  "updatedAt": "2022-07-09T08:41:14.365Z",
  "networkType": "ethereum",
  "devdoc": {
    "kind": "dev",
    "methods": {
      "owner()": {
        "details": "Returns the address of the current owner."
      },
      "renounceOwnership()": {
        "details": "Leaves the contract without owner. It will not be possible to call `onlyOwner` functions anymore. Can only be called by the current owner. NOTE: Renouncing ownership will leave the contract without an owner, thereby removing any functionality that is only available to the owner."
      },
      "transferOwnership(address)": {
        "details": "Transfers ownership of the contract to a new account (`newOwner`). Can only be called by the current owner."
      },
      "uniswapV3FlashCallback(uint256,uint256,bytes)": {
        "details": "In the implementation you must repay the pool the tokens sent by flash plus the computed fee amounts. The caller of this method must be checked to be a UniswapV3Pool deployed by the canonical UniswapV3Factory.",
        "params": {
          "data": "Any data passed through by the caller via the IUniswapV3PoolActions#flash call",
          "fee0": "The fee amount in token0 due to the pool by the end of the flash",
          "fee1": "The fee amount in token1 due to the pool by the end of the flash"
        }
      }
    },
    "title": "Flashloan contract implementation",
    "version": 1
  },
  "userdoc": {
    "kind": "user",
    "methods": {
      "uniswapV3FlashCallback(uint256,uint256,bytes)": {
        "notice": "Called to `msg.sender` after transferring to the recipient from IUniswapV3Pool#flash."
      }
    },
    "notice": "contract using the Uniswap V3 flash function",
    "version": 1
  }
}