{
  "contractName": "Uniswap3Flash",
  "abi": [
    {
      "inputs": [
        {
          "internalType": "address",
          "name": "_factory",
          "type": "address"
        },
        {
          "internalType": "address",
          "name": "_WETH9",
          "type": "address"
        }
      ],
      "stateMutability": "nonpayable",
      "type": "constructor"
    },
    {
      "anonymous": false,
      "inputs": [
        {
          "indexed": true,
          "internalType": "address",
          "name": "previousOwner",
          "type": "address"
        },
        {
          "indexed": true,
          "internalType": "address",
          "name": "newOwner",
          "type": "address"
        }
      ],
      "name": "OwnershipTransferred",
      "type": "event"
    },
    {
      "stateMutability": "payable",
      "type": "fallback",
      "payable": true
    },
    {
      "inputs": [],
      "name": "WETH9",
      "outputs": [
        {
          "internalType": "address",
          "name": "",
          "type": "address"
        }
      ],
      "stateMutability": "view",
      "type": "function",
      "constant": true
    },
    {
      "inputs": [],
      "name": "factory",
      "outputs": [
        {
          "internalType": "address",
          "name": "",
          "type": "address"
        }
      ],
      "stateMutability": "view",
      "type": "function",
      "constant": true
    },
    {
      "inputs": [],
      "name": "flashPoolFee",
      "outputs": [
        {
          "internalType": "uint24",
          "name": "",
          "type": "uint24"
        }
      ],
      "stateMutability": "view",
      "type": "function",
      "constant": true
    },
    {
      "inputs": [],
      "name": "owner",
      "outputs": [
        {
          "internalType": "address",
          "name": "",
          "type": "address"
        }
      ],
      "stateMutability": "view",
      "type": "function",
      "constant": true
    },
    {
      "inputs": [],
      "name": "refundETH",
      "outputs": [],
      "stateMutability": "payable",
      "type": "function",
      "payable": true
    },
    {
      "inputs": [],
      "name": "renounceOwnership",
      "outputs": [],
      "stateMutability": "nonpayable",
      "type": "function"
    },
    {
      "inputs": [
        {
          "internalType": "address",
          "name": "token",
          "type": "address"
        },
        {
          "internalType": "uint256",
          "name": "amountMinimum",
          "type": "uint256"
        },
        {
          "internalType": "address",
          "name": "recipient",
          "type": "address"
        }
      ],
      "name": "sweepToken",
      "outputs": [],
      "stateMutability": "payable",
      "type": "function",
      "payable": true
    },
    {
      "inputs": [
        {
          "internalType": "address",
          "name": "newOwner",
          "type": "address"
        }
      ],
      "name": "transferOwnership",
      "outputs": [],
      "stateMutability": "nonpayable",
      "type": "function"
    },
    {
      "inputs": [
        {
          "internalType": "uint256",
          "name": "amountMinimum",
          "type": "uint256"
        },
        {
          "internalType": "address",
          "name": "recipient",
          "type": "address"
        }
      ],
      "name": "unwrapWETH9",
      "outputs": [],
      "stateMutability": "payable",
      "type": "function",
      "payable": true
    },
    {
      "stateMutability": "payable",
      "type": "receive",
      "payable": true
    },
    {
      "inputs": [
        {
          "internalType": "address",
          "name": "loanToken",
          "type": "address"
        },
        {
          "internalType": "uint256",
          "name": "loanAmount",
          "type": "uint256"
        },
        {
          "components": [
            {
              "internalType": "address",
              "name": "to",
              "type": "address"
            },
            {
              "internalType": "bytes",
              "name": "data",
              "type": "bytes"
            }
          ],
          "internalType": "struct Uniswap3Flash.Call[]",
          "name": "calls",
          "type": "tuple[]"
        }
      ],
      "name": "initFlashloan",
      "outputs": [],
      "stateMutability": "payable",
      "type": "function",
      "payable": true
    },
    {
      "inputs": [
        {
          "internalType": "uint256",
          "name": "fee0",
          "type": "uint256"
        },
        {
          "internalType": "uint256",
          "name": "fee1",
          "type": "uint256"
        },
        {
          "internalType": "bytes",
          "name": "data",
          "type": "bytes"
        }
      ],
      "name": "uniswapV3FlashCallback",
      "outputs": [],
      "stateMutability": "nonpayable",
      "type": "function"
    },
    {
      "inputs": [
        {
          "internalType": "uint24",
          "name": "poolFee",
          "type": "uint24"
        }
      ],
      "name": "changeFlashPoolFee",
      "outputs": [],
      "stateMutability": "nonpayable",
      "type": "function"
    }
  ],
  "bytecode": "0x60c06040526001805462ffffff60a01b1916607d60a21b1790553480156200002657600080fd5b5060405162001954380380620019548339810160408190526200004991620000f1565b6001600160601b0319606083811b821660805282901b1660a05260016000556200007a620000743390565b62000082565b505062000129565b600180546001600160a01b038381166001600160a01b0319831681179093556040519116919082907f8be0079c531659141344cd1fd0a4f28419497f9722a3daafe3b4186f6b6457e090600090a35050565b80516001600160a01b0381168114620000ec57600080fd5b919050565b600080604083850312156200010557600080fd5b6200011083620000d4565b91506200012060208401620000d4565b90509250929050565b60805160601c60a05160601c6117c86200018c6000396000818160db0152818161026801528181610352015281816107fa0152818161083301528181610d2401528181610d6a0152610dff01526000818161017f01526108ec01526117c86000f3fe6080604052600436106100a55760003560e01c8063c45a015511610061578063c45a01551461016d578063df2ab5bb146101a1578063e9cbafb0146101b4578063ea3b4431146101d4578063f2fde38b1461020b578063f9392bec1461022b57005b806312210e8a146100ae57806349404b7c146100b65780634aa4a4fc146100c9578063715018a61461011a5780637655820e1461012f5780638da5cb5b1461014f57005b366100ac57005b005b6100ac61023e565b6100ac6100c4366004611428565b610250565b3480156100d557600080fd5b506100fd7f000000000000000000000000000000000000000000000000000000000000000081565b6040516001600160a01b0390911681526020015b60405180910390f35b34801561012657600080fd5b506100ac6103c5565b34801561013b57600080fd5b506100ac61014a3660046113ea565b6103d7565b34801561015b57600080fd5b506001546001600160a01b03166100fd565b34801561017957600080fd5b506100fd7f000000000000000000000000000000000000000000000000000000000000000081565b6100ac6101af36600461111e565b610403565b3480156101c057600080fd5b506100ac6101cf366004611458565b6104db565b3480156101e057600080fd5b506001546101f790600160a01b900462ffffff1681565b60405162ffffff9091168152602001610111565b34801561021757600080fd5b506100ac610226366004611101565b610722565b6100ac610239366004611160565b61079b565b471561024e5761024e3347610a6d565b565b6040516370a0823160e01b81523060048201526000907f00000000000000000000000000000000000000000000000000000000000000006001600160a01b0316906370a082319060240160206040518083038186803b1580156102b257600080fd5b505afa1580156102c6573d6000803e3d6000fd5b505050506040513d601f19601f820116820180604052508101906102ea919061140f565b9050828110156103365760405162461bcd60e51b8152602060048201526012602482015271496e73756666696369656e7420574554483960701b60448201526064015b60405180910390fd5b80156103c057604051632e1a7d4d60e01b8152600481018290527f00000000000000000000000000000000000000000000000000000000000000006001600160a01b031690632e1a7d4d90602401600060405180830381600087803b15801561039e57600080fd5b505af11580156103b2573d6000803e3d6000fd5b505050506103c08282610a6d565b505050565b6103cd610b10565b61024e6000610b6a565b6103df610b10565b6001805462ffffff909216600160a01b0262ffffff60a01b19909216919091179055565b6040516370a0823160e01b81523060048201526000906001600160a01b038516906370a082319060240160206040518083038186803b15801561044557600080fd5b505afa158015610459573d6000803e3d6000fd5b505050506040513d601f19601f8201168201806040525081019061047d919061140f565b9050828110156104c45760405162461bcd60e51b815260206004820152601260248201527124b739bab33334b1b4b2b73a103a37b5b2b760711b604482015260640161032d565b80156104d5576104d5848383610bbc565b50505050565b600080806104eb8486018661120e565b91945092509050336001600160a01b038316146105405760405162461bcd60e51b81526020600482015260136024820152724f6e6c7920506f6f6c2063616e2063616c6c2160681b604482015260640161032d565b825160208401516000896105545788610556565b895b905060005b845181101561065157600085828151811061057857610578611751565b6020026020010151600001516001600160a01b031686838151811061059f5761059f611751565b6020026020010151602001516040516105b891906114c9565b6000604051808303816000865af19150503d80600081146105f5576040519150601f19603f3d011682016040523d82523d6000602084013e6105fa565b606091505b505090508061063e5760405162461bcd60e51b815260206004820152601060248201526f54726164696e67204661696c7572652160801b604482015260640161032d565b508061064981611720565b91505061055b565b506040516370a0823160e01b81523060048201526000906001600160a01b038516906370a082319060240160206040518083038186803b15801561069457600080fd5b505afa1580156106a8573d6000803e3d6000fd5b505050506040513d601f19601f820116820180604052508101906106cc919061140f565b905060006106da8484610cbc565b90508082106106ef576106ef85308984610d22565b60006106fb8383610eb2565b905080156107135761071386308b6040015184610d22565b50505050505050505050505050565b61072a610b10565b6001600160a01b03811661078f5760405162461bcd60e51b815260206004820152602660248201527f4f776e61626c653a206e6577206f776e657220697320746865207a65726f206160448201526564647265737360d01b606482015260840161032d565b61079881610b6a565b50565b600260005414156107ee5760405162461bcd60e51b815260206004820152601f60248201527f5265656e7472616e637947756172643a207265656e7472616e742063616c6c00604482015260640161032d565b600260008190555060007f00000000000000000000000000000000000000000000000000000000000000006001600160a01b0316856001600160a01b031614610857577f000000000000000000000000000000000000000000000000000000000000000061086d565b736b175474e89094c44da98b954eedeac495271d0f5b9050600080826001600160a01b0316876001600160a01b031610610892578287610895565b86835b915091506000826001600160a01b0316886001600160a01b0316146108bb5760006108bd565b865b90506000826001600160a01b0316896001600160a01b0316146108e15760006108e3565b875b905060006109537f00000000000000000000000000000000000000000000000000000000000000006040518060600160405280886001600160a01b03168152602001876001600160a01b03168152602001600160149054906101000a900462ffffff1662ffffff16815250610f0e565b90506001600160a01b0381166109a15760405162461bcd60e51b8152602060048201526013602482015272496e76616c696420666c61736820706f6f6c2160681b604482015260640161032d565b600060405180606001604052808c6001600160a01b031681526020018b8152602001336001600160a01b03168152509050816001600160a01b031663490e6cbc30868685878f8f6040516020016109fb9493929190611535565b6040516020818303038152906040526040518563ffffffff1660e01b8152600401610a2994939291906114e5565b600060405180830381600087803b158015610a4357600080fd5b505af1158015610a57573d6000803e3d6000fd5b5050600160005550505050505050505050505050565b604080516000808252602082019092526001600160a01b038416908390604051610a9791906114c9565b60006040518083038185875af1925050503d8060008114610ad4576040519150601f19603f3d011682016040523d82523d6000602084013e610ad9565b606091505b50509050806103c05760405162461bcd60e51b815260206004820152600360248201526253544560e81b604482015260640161032d565b6001546001600160a01b0316331461024e5760405162461bcd60e51b815260206004820181905260248201527f4f776e61626c653a2063616c6c6572206973206e6f7420746865206f776e6572604482015260640161032d565b600180546001600160a01b038381166001600160a01b0319831681179093556040519116919082907f8be0079c531659141344cd1fd0a4f28419497f9722a3daafe3b4186f6b6457e090600090a35050565b604080516001600160a01b038481166024830152604480830185905283518084039091018152606490920183526020820180516001600160e01b031663a9059cbb60e01b1790529151600092839290871691610c1891906114c9565b6000604051808303816000865af19150503d8060008114610c55576040519150601f19603f3d011682016040523d82523d6000602084013e610c5a565b606091505b5091509150818015610c84575080511580610c84575080806020019051810190610c8491906111ec565b610cb55760405162461bcd60e51b815260206004820152600260248201526114d560f21b604482015260640161032d565b5050505050565b600080610cc983856116c5565b905083811015610d1b5760405162461bcd60e51b815260206004820152601b60248201527f536166654d6174683a206164646974696f6e206f766572666c6f770000000000604482015260640161032d565b9392505050565b7f00000000000000000000000000000000000000000000000000000000000000006001600160a01b0316846001600160a01b0316148015610d635750804710155b15610e85577f00000000000000000000000000000000000000000000000000000000000000006001600160a01b031663d0e30db0826040518263ffffffff1660e01b81526004016000604051808303818588803b158015610dc357600080fd5b505af1158015610dd7573d6000803e3d6000fd5b505060405163a9059cbb60e01b81526001600160a01b038681166004830152602482018690527f000000000000000000000000000000000000000000000000000000000000000016935063a9059cbb92506044019050602060405180830381600087803b158015610e4757600080fd5b505af1158015610e5b573d6000803e3d6000fd5b505050506040513d601f19601f82011682018060405250810190610e7f91906111ec565b506104d5565b6001600160a01b038316301415610ea657610ea1848383610bbc565b6104d5565b6104d584848484610ff7565b600082821115610f045760405162461bcd60e51b815260206004820152601e60248201527f536166654d6174683a207375627472616374696f6e206f766572666c6f770000604482015260640161032d565b610d1b82846116dd565b600081602001516001600160a01b031682600001516001600160a01b031610610f3657600080fd5b815160208084015160408086015181516001600160a01b0395861681860152949092168482015262ffffff90911660608085019190915281518085038201815260808501909252815191909201206001600160f81b031960a08401529085901b6bffffffffffffffffffffffff191660a183015260b58201527fe34f199b19b2b4f47f68442619d555527d244f78a3297ea89325f843f87b8b5460d582015260f50160408051601f1981840301815291905280516020909101209392505050565b604080516001600160a01b0385811660248301528481166044830152606480830185905283518084039091018152608490920183526020820180516001600160e01b03166323b872dd60e01b179052915160009283929088169161105b91906114c9565b6000604051808303816000865af19150503d8060008114611098576040519150601f19603f3d011682016040523d82523d6000602084013e61109d565b606091505b50915091508180156110c75750805115806110c75750808060200190518101906110c791906111ec565b6110f95760405162461bcd60e51b815260206004820152600360248201526229aa2360e91b604482015260640161032d565b505050505050565b60006020828403121561111357600080fd5b8135610d1b8161177d565b60008060006060848603121561113357600080fd5b833561113e8161177d565b92506020840135915060408401356111558161177d565b809150509250925092565b6000806000806060858703121561117657600080fd5b84356111818161177d565b935060208501359250604085013567ffffffffffffffff808211156111a557600080fd5b818701915087601f8301126111b957600080fd5b8135818111156111c857600080fd5b8860208260051b85010111156111dd57600080fd5b95989497505060200194505050565b6000602082840312156111fe57600080fd5b81518015158114610d1b57600080fd5b600080600060a0848603121561122357600080fd5b6060848603121561123357600080fd5b61123b611648565b611245853561177d565b8435815260208501356020820152611260604086013561177d565b604085810135908201529250611279606085013561177d565b6060840135915067ffffffffffffffff806080860135111561129a57600080fd5b6080850135850186601f8201126112b057600080fd5b81813511156112c1576112c1611767565b6112d16020823560051b01611694565b808235825260208201915060208301896020853560051b86010111156112f657600080fd5b60005b84358110156113da57858235111561131057600080fd5b81358501601f196040828e038201121561132957600080fd5b611331611671565b61133e602084013561177d565b60208301358152886040840135111561135657600080fd5b6040830135830192508d603f84011261136e57600080fd5b60208301358981111561138357611383611767565b611394602084601f84011601611694565b92508083528e60408286010111156113ab57600080fd5b8060408501602085013760006020918401820152818101929092528652948501949290920191506001016112f9565b5050809450505050509250925092565b6000602082840312156113fc57600080fd5b813562ffffff81168114610d1b57600080fd5b60006020828403121561142157600080fd5b5051919050565b6000806040838503121561143b57600080fd5b82359150602083013561144d8161177d565b809150509250929050565b6000806000806060858703121561146e57600080fd5b8435935060208501359250604085013567ffffffffffffffff8082111561149457600080fd5b818701915087601f8301126114a857600080fd5b8135818111156114b757600080fd5b8860208285010111156111dd57600080fd5b600082516114db8184602087016116f4565b9190910192915050565b60018060a01b0385168152836020820152826040820152608060608201526000825180608084015261151e8160a08501602087016116f4565b601f01601f19169190910160a00195945050505050565b600060a0820160018060a01b0380885116845260208089015181860152604082818b015116818701526060838a168188015260a060808801528488865260c08801905060c08960051b89010195508960005b8a8110156116365789880360bf190183528135368d9003603e190181126115ad57600080fd5b8c0180356115ba8161177d565b881689528087013536829003601e190181126115d557600080fd5b8101803567ffffffffffffffff8111156115ee57600080fd5b8036038313156115fd57600080fd5b87898c015280888c015280898301888d013760008b8201880152601f01601f191690990185019850509185019190850190600101611587565b50959c9b505050505050505050505050565b6040516060810167ffffffffffffffff8111828210171561166b5761166b611767565b60405290565b6040805190810167ffffffffffffffff8111828210171561166b5761166b611767565b604051601f8201601f1916810167ffffffffffffffff811182821017156116bd576116bd611767565b604052919050565b600082198211156116d8576116d861173b565b500190565b6000828210156116ef576116ef61173b565b500390565b60005b8381101561170f5781810151838201526020016116f7565b838111156104d55750506000910152565b60006000198214156117345761173461173b565b5060010190565b634e487b7160e01b600052601160045260246000fd5b634e487b7160e01b600052603260045260246000fd5b634e487b7160e01b600052604160045260246000fd5b6001600160a01b038116811461079857600080fdfea264697066735822122069382c4028d8db5953678eec5db89fa7381343787f2ead52f494e2d8ef8602b064736f6c63430008060033",
  "immutableReferences": {
    "1380": [
      {
        "length": 32,
        "start": 383
      },
      {
        "length": 32,
        "start": 2284
      }
    ],
    "1382": [
      {
        "length": 32,
        "start": 219
      },
      {
        "length": 32,
        "start": 616
      },
      {
        "length": 32,
        "start": 850
      },
      {
        "length": 32,
        "start": 2042
      },
      {
        "length": 32,
        "start": 2099
      },
      {
        "length": 32,
        "start": 3364
      },
      {
        "length": 32,
        "start": 3434
      },
      {
        "length": 32,
        "start": 3583
      }
    ]
  },
  "source": "// SPDX-License-Identifier: MIT\r\npragma solidity >=0.8.0;\r\npragma abicoder v2;\r\n\r\nimport { IUniswapV3FlashCallback } from \"../interfaces/uniswap/IUniswapV3FlashCallback.sol\";\r\nimport { IUniswapV3Pool } from \"../interfaces/uniswap/IUniswapV3Pool.sol\";\r\nimport { PeripheryPayments, IERC20 } from \"../utils/PeripheryPayments.sol\";\r\nimport { PeripheryImmutableState } from \"../utils/PeripheryImmutableState.sol\";\r\nimport { PoolAddress } from \"../utils/PoolAddress.sol\";\r\nimport { SafeMath } from \"../utils/SafeMath.sol\";\r\nimport { Ownable } from \"@openzeppelin/contracts/access/Ownable.sol\";\r\nimport { ReentrancyGuard } from \"@openzeppelin/contracts/security/ReentrancyGuard.sol\";\r\n\r\n/// @title Flashloan contract implementation\r\n/// @notice contract using the Uniswap V3 flash function\r\ncontract Uniswap3Flash is \r\n    IUniswapV3FlashCallback,\r\n    PeripheryImmutableState,\r\n    PeripheryPayments,\r\n    ReentrancyGuard,\r\n    Ownable {\r\n    using SafeMath for uint256;\r\n    struct FlashCallbackData {\r\n        address token;\r\n        uint256 amount;\r\n        address payer;\r\n    }\r\n    struct Call {\r\n        address to;\r\n        bytes data;\r\n    }\r\n    uint24 public flashPoolFee = 500;  //  flash from the 0.05% fee of pool\r\n    address private constant DAI = 0x6B175474E89094C44Da98b954EedeAC495271d0F;\r\n    constructor(\r\n        address _factory,\r\n        address _WETH9\r\n    ) PeripheryImmutableState(_factory, _WETH9) {}\r\n    function initFlashloan(\r\n        address loanToken,\r\n        uint256 loanAmount,\r\n        Call[] calldata calls\r\n    ) external payable nonReentrant {\r\n        address otherToken = loanToken == WETH9 ? DAI : WETH9;\r\n        (address token0, address token1) = loanToken < otherToken ? (loanToken, otherToken) : (otherToken, loanToken);\r\n        uint256 amount0 = loanToken == token0 ? loanAmount : 0;\r\n        uint256 amount1 = loanToken == token1 ? loanAmount : 0;\r\n        \r\n        address flashPool = PoolAddress.computeAddress(\r\n            factory, \r\n            PoolAddress.PoolKey(token0, token1, flashPoolFee)\r\n        );\r\n        require(flashPool != address(0), \"Invalid flash pool!\");\r\n        FlashCallbackData memory callbackData = FlashCallbackData({\r\n            token: loanToken,\r\n            amount: loanAmount,\r\n            payer: msg.sender\r\n        });\r\n        IUniswapV3Pool(flashPool).flash(\r\n            address(this),\r\n            amount0,\r\n            amount1,\r\n            abi.encode(\r\n                callbackData,\r\n                flashPool,\r\n                calls\r\n            )\r\n        );  \r\n    }\r\n\r\n    function uniswapV3FlashCallback(\r\n        uint256 fee0,\r\n        uint256 fee1,\r\n        bytes calldata data\r\n    ) external override {\r\n        (\r\n            FlashCallbackData memory callback,\r\n            address flashPool,\r\n            Call[] memory calls\r\n        ) = abi.decode(data, (FlashCallbackData, address, Call[]));\r\n        require(msg.sender == flashPool, \"Only Pool can call!\");\r\n        \r\n        address loanToken = callback.token;\r\n        uint256 loanAmount = callback.amount;\r\n        uint256 fee = fee0 > 0 ? fee0 : fee1;\r\n        // start trade\r\n        for (uint i = 0; i < calls.length; i++) {\r\n           // solhint-disable-next-line avoid-low-level-calls\r\n            (bool success, ) = calls[i].to.call(calls[i].data);\r\n            require(success, \"Trading Failure!\");\r\n        }\r\n        uint256 amountOut = IERC20(loanToken).balanceOf(address(this));\r\n        uint256 amountOwed = loanAmount.add(fee);\r\n        \r\n        if (amountOut >= amountOwed) {\r\n            pay(loanToken, address(this), flashPool, amountOwed);\r\n        }\r\n        uint256 profit = amountOut.sub(amountOwed);\r\n        if (profit > 0) {\r\n            pay(loanToken, address(this), callback.payer, profit);\r\n        }\r\n    }\r\n    function changeFlashPoolFee(uint24 poolFee) public onlyOwner() {\r\n        flashPoolFee = poolFee;\r\n    }\r\n    fallback() external payable {}\r\n    receive() external payable {}\r\n}\r\n",
  "sourcePath": "D:\\MyWorks\\MySolidities\\SilvanShwarz\\FlashLoans\\uni-flashswap-truffle\\contracts\\flashloans\\Uniswap3Flash.sol",
  "compiler": {
    "name": "solc",
    "version": "0.8.6+commit.11564f7e.Emscripten.clang"
  },
  "schemaVersion": "3.4.7",
  "updatedAt": "2022-07-20T22:22:58.220Z",
  "networkType": "ethereum",
  "devdoc": {
    "kind": "dev",
    "methods": {
      "owner()": {
        "details": "Returns the address of the current owner."
      },
      "renounceOwnership()": {
        "details": "Leaves the contract without owner. It will not be possible to call `onlyOwner` functions anymore. Can only be called by the current owner. NOTE: Renouncing ownership will leave the contract without an owner, thereby removing any functionality that is only available to the owner."
      },
      "transferOwnership(address)": {
        "details": "Transfers ownership of the contract to a new account (`newOwner`). Can only be called by the current owner."
      },
      "uniswapV3FlashCallback(uint256,uint256,bytes)": {
        "details": "In the implementation you must repay the pool the tokens sent by flash plus the computed fee amounts. The caller of this method must be checked to be a UniswapV3Pool deployed by the canonical UniswapV3Factory.",
        "params": {
          "data": "Any data passed through by the caller via the IUniswapV3PoolActions#flash call",
          "fee0": "The fee amount in token0 due to the pool by the end of the flash",
          "fee1": "The fee amount in token1 due to the pool by the end of the flash"
        }
      }
    },
    "title": "Flashloan contract implementation",
    "version": 1
  },
  "userdoc": {
    "kind": "user",
    "methods": {
      "uniswapV3FlashCallback(uint256,uint256,bytes)": {
        "notice": "Called to `msg.sender` after transferring to the recipient from IUniswapV3Pool#flash."
      }
    },
    "notice": "contract using the Uniswap V3 flash function",
    "version": 1
  }
}